:020000040800F2
:1000000000C00020E54700082549000833490008E2
:10001000394900083F490008454900080000000030
:10002000000000000000000000000000DD3B0008B0
:100030004B49000800000000AD3C00085949000889
:10004000354800083548000835480008354800089C
:10005000354800083548000835480008354800088C
:10006000354800083548000835480008354800087C
:10007000354800083548000835480008354800086C
:10008000354800083548000835480008354800085C
:10009000354800083548000835480008354800084C
:1000A0003548000869490008354800083548000807
:1000B0003548000800000000000000003548000836
:1000C000354800083548000835480008354800081C
:1000D000354800083548000835480008354800080C
:1000E0003548000835480008000000000000000006
:1000F0000000000000000000000000000000000000
:1001000000000000354800080000000035480008E5
:1001100000000000000000003548000835480008D5
:100120007749000885490008354800083548000827
:10013000354800080000000000000000000000003A
:10014000354800083548000835480008934900083C
:10015000354800083548000835480008354800088B
:100160003548000835480008354800080000000000
:10017000354800083548000835480008354800086B
:1001800035480008354800083548000800000000E0
:1001900010B5054C237833B9044B13B10448AFF3C1
:1001A00000800123237010BD080000200000000023
:1001B000344D000808B5034B1BB103490348AFF3A6
:1001C000008008BD000000000C000020344D000835
:1001D000034613F8012B002AFBD1181A0138704787
:1001E00081F0004102E000BF83F0004330B54FEAE8
:1001F00041044FEA430594EA050F08BF90EA020F55
:100200001FBF54EA000C55EA020C7FEA645C7FEAE7
:10021000655C00F0E2804FEA5454D4EB5555B8BF0A
:100220006D420CDD2C4480EA020281EA030382EA7B
:10023000000083EA010180EA020281EA0303362D0D
:1002400088BF30BD11F0004F4FEA01314FF4801CE0
:100250004CEA113102D0404261EB410113F0004FF2
:100260004FEA03334CEA133302D0524263EB4303A9
:1002700094EA050F00F0A780A4F10104D5F1200E47
:100280000DDB02FA0EFC22FA05F2801841F10001A2
:1002900003FA0EF2801843FA05F359410EE0A5F176
:1002A00020050EF1200E012A03FA0EFC28BF4CF0A7
:1002B000020C43FA05F3C01851EBE37101F000455D
:1002C00007D54FF0000EDCF1000C7EEB00006EEB6A
:1002D0000101B1F5801F1BD3B1F5001F0CD34908F4
:1002E0005FEA30004FEA3C0C04F101044FEA44524B
:1002F00012F5800F80F09A80BCF1004F08BF5FEAD2
:10030000500C50F1000041EB045141EA050130BDB1
:100310005FEA4C0C404141EB010111F4801FA4F154
:100320000104E9D191F0000F04BF01460020B1FAA9
:1003300081F308BF2033A3F10B03B3F120020CDAE1
:100340000C3208DD02F1140CC2F10C0201FA0CF0BF
:1003500021FA02F10CE002F11402D8BFC2F1200C24
:1003600001FA02F120FA0CFCDCBF41EA0C019040DA
:10037000E41AA2BF01EB0451294330BD6FEA040423
:100380001F3C1CDA0C340EDC04F11404C4F120020E
:1003900020FA04F001FA02F340EA030021FA04F320
:1003A00045EA030130BDC4F10C04C4F1200220FA77
:1003B00002F001FA04F340EA0300294630BD21FAB5
:1003C00004F0294630BD94F0000F83F4801306BF7B
:1003D00081F480110134013D4EE77FEA645C18BF6F
:1003E0007FEA655C29D094EA050F08BF90EA020F06
:1003F00005D054EA000C04BF1946104630BD91EAFE
:10040000030F1EBF0021002030BD5FEA545C05D100
:100410004000494128BF41F0004130BD14F580043F
:100420003CBF01F5801130BD01F0004545F0FE41B3
:1004300041F470014FF0000030BD7FEA645C1ABFE8
:10044000194610467FEA655C1CBF0B46024650EA1F
:10045000013406BF52EA033591EA030F41F400214B
:1004600030BD00BF90F0000F04BF0021704730B5D1
:100470004FF4806404F132044FF000054FF00001A6
:1004800050E700BF90F0000F04BF0021704730B567
:100490004FF4806404F1320410F0004548BF40423C
:1004A0004FF000013EE700BF42004FEAE2014FEA91
:1004B00031014FEA02701FBF12F07F4393F07F4F6C
:1004C00081F06051704792F0000F14BF93F07F4F9E
:1004D000704730B54FF4607401F0004521F00041E1
:1004E00020E700BF50EA010208BF704730B54FF067
:1004F00000050AE050EA010208BF704730B511F06C
:10050000004502D5404261EB41014FF4806404F1A3
:1005100032045FEA915C3FF4DCAE4FF003025FEA25
:10052000DC0C18BF03325FEADC0C18BF033202EBAD
:10053000DC02C2F1200300FA03FC20FA02F001FA07
:1005400003FE40EA0E0021FA02F11444C1E600BFA6
:1005500070B54FF0FF0C4CF4E06C1CEA11541DBF59
:100560001CEA135594EA0C0F95EA0C0F00F0DEF824
:100570002C4481EA030621EA4C5123EA4C5350EA09
:10058000013518BF52EA033541F4801143F480135A
:1005900038D0A0FB02CE4FF00005E1FB02E506F0EB
:1005A0000042E0FB03E54FF00006E1FB03569CF040
:1005B000000F18BF4EF0010EA4F1FF04B6F5007F46
:1005C00064F5407404D25FEA4E0E6D4146EB0606B8
:1005D00042EAC62141EA55514FEAC52040EA5E5041
:1005E0004FEACE2EB4F1FD0C88BFBCF5E06F1ED8EB
:1005F000BEF1004F08BF5FEA500E50F1000041EB22
:10060000045170BD06F0004646EA010140EA0200CE
:1006100081EA0301B4EB5C04C2BFD4EB0C0541EAF0
:10062000045170BD41F480114FF0000E013C00F305
:10063000AB8014F1360FDEBF002001F0004170BD29
:10064000C4F10004203C35DA0C341BDC04F1140442
:10065000C4F1200500FA05F320FA04F001FA05F2CE
:1006600040EA020001F0004221F0004110EBD3709B
:1006700021FA04F642EB06015EEA430E08BF20EAC7
:10068000D37070BDC4F10C04C4F1200500FA04F36A
:1006900020FA05F001FA04F240EA020001F00041FC
:1006A00010EBD37041F100015EEA430E08BF20EA6F
:1006B000D37070BDC4F1200500FA05F24EEA020EB7
:1006C00020FA04F301FA05F243EA020321FA04F0E6
:1006D00001F0004121FA04F220EA020000EBD3709D
:1006E0005EEA430E08BF20EAD37070BD94F0000F9D
:1006F0000FD101F00046400041EB010111F4801FD1
:1007000008BF013CF7D041EA060195F0000F18BF81
:10071000704703F00046520043EB030313F4801FBD
:1007200008BF013DF7D043EA0603704794EA0C0F77
:100730000CEA135518BF95EA0C0F0CD050EA41068D
:1007400018BF52EA4306D1D181EA030101F000410A
:100750004FF0000070BD50EA410606BF1046194632
:1007600052EA430619D094EA0C0F02D150EA01363E
:1007700013D195EA0C0F05D152EA03361CBF10467F
:1007800019460AD181EA030101F0004141F0FE411E
:1007900041F470014FF0000070BD41F0FE4141F4A2
:1007A000780170BD70B54FF0FF0C4CF4E06C1CEAA2
:1007B00011541DBF1CEA135594EA0C0F95EA0C0F57
:1007C00000F0A7F8A4EB050481EA030E52EA033512
:1007D0004FEA013100F088804FEA03334FF0805533
:1007E00045EA131343EA12634FEA022245EA111560
:1007F00045EA10654FEA00260EF000419D4208BF11
:10080000964244F1FD0404F5407402D25B084FEABD
:100810003202B61A65EB03055B084FEA32024FF469
:1008200080104FF4002CB6EB020E75EB030E22BFC6
:10083000B61A754640EA0C005B084FEA3202B6EB86
:10084000020E75EB030E22BFB61A754640EA5C0035
:100850005B084FEA3202B6EB020E75EB030E22BFC5
:10086000B61A754640EA9C005B084FEA3202B6EBC6
:10087000020E75EB030E22BFB61A754640EADC0085
:1008800055EA060E18D04FEA051545EA16754FEAE7
:1008900006164FEAC30343EA52734FEAC2025FEA05
:1008A0001C1CC0D111F4801F0BD141EA00014FF094
:1008B00000004FF0004CB6E711F4801F04BF014365
:1008C0000020B4F1FD0C88BFBCF5E06F3FF6AFAE81
:1008D000B5EB030C04BFB6EB020C5FEA500C50F111
:1008E000000041EB045170BD0EF0004E4EEA113194
:1008F00014EB5C04C2BFD4EB0C0541EA045170BD9B
:1009000041F480114FF0000E013C90E645EA060EDE
:100910008DE60CEA135594EA0C0F08BF95EA0C0F0C
:100920003FF43BAF94EA0C0F0AD150EA01347FF454
:1009300034AF95EA0C0F7FF425AF104619462CE72B
:1009400095EA0C0F06D152EA03353FF4FDAE10468E
:10095000194622E750EA410618BF52EA43067FF4DF
:10096000C5AE50EA41047FF40DAF52EA43057FF46F
:10097000EBAE12E74FEA4102B2F1E04324BFB3F518
:10098000001CDCF1FE5C0DD901F0004C4FEAC00206
:100990004CEA5070B2F1004F40EB830008BF20F0EA
:1009A0000100704711F0804F21D113F13872BCBFA4
:1009B00001F00040704741F480114FEA5252C2F1F9
:1009C0001802C2F1200C10FA0CF320FA02F018BF42
:1009D00040F001004FEAC1234FEAD32303FA0CFC95
:1009E00040EA0C0023FA02F34FEA4303CCE77FEA24
:1009F000625307D150EA01331EBF4FF0FE4040F46E
:100A00004000704701F0004040F0FE4040F400001C
:100A1000704700BF80B588B000AF07F10C0300221B
:100A20001A605A609A60DA601A61314A304B9B6DE5
:100A300043F4804393652E4B9B6D03F48043BB606E
:100A4000BB682B4A2A4BDB6C43F00203D364284B70
:100A5000DB6C03F002037B607B684FF46043FB6058
:100A600002233B6100237B610323BB610523FB6100
:100A700007F10C0319461F4800F00EFC1E4B1F4ADD
:100A80001A601D4B4FF482725A601B4B00229A6011
:100A9000194B4FF4E062DA60174B00221A61164BD3
:100AA00000225A61144B4FF400729A61124B2822B3
:100AB000DA61114B00221A620F4B00225A620E4B70
:100AC00000229A620C4B0722DA620B4B00221A6357
:100AD000094B00225A63084802F004FD0346002B2C
:100AE00001D003F077FE00BF2037BD4680BD00BFB8
:100AF0000010024000040048F400002000380040CC
:100B000080B58AB000AF434A424BDB6C43F004032C
:100B1000D364404BDB6C03F004033B613B693D4A0B
:100B20003C4BDB6C43F08003D3643A4BDB6C03F04B
:100B30008003FB60FB68374A364BDB6C43F00103F4
:100B4000D364344BDB6C03F00103BB60BB68314AF8
:100B5000304BDB6C43F00203D3642E4BDB6C03F0B1
:100B600002037B607B682B4A2A4BDB6C43F0080353
:100B7000D364284BDB6C03F008033B603B6807F150
:100B8000140300221A605A609A60DA601A61002227
:100B90006021214800F0FEFC00224FF480511F48E4
:100BA00000F0F8FC00224FF480714FF0904000F00C
:100BB000F1FC60237B610123BB610023FB61002307
:100BC0003B6207F114031946134800F065FB4FF42C
:100BD00080537B610123BB610023FB6100233B62E7
:100BE00007F1140319460D4800F056FB4FF48073CB
:100BF0007B610123BB610023FB6100233B6207F1A2
:100C0000140319464FF0904000F046FB00BF283710
:100C1000BD4680BD001002400008004800040048A6
:100C200080B584B000AFF860B9601346FB80C8237C
:100C30000122F968034802F0DDFC00231846103752
:100C4000BD4680BDF400002080B582B000AF002317
:100C50007B6019E07B68DBB2184600F0CDF800201D
:100C600000F0DEF8002000F0F8F800233B6005E01B
:100C7000002000F081F83B6801333B603B68842B27
:100C8000F6DD7B6801337B607B68032BE2DD0023AC
:100C900018460837BD4680BD80B586B000AFF86005
:100CA000B9607A60FB68DBB2184600F0A5F8BB6853
:100CB000DBB20533DBB2184600F0B2F800237B61EB
:100CC0001EE000233B6112E07B697A6813441B78C5
:100CD000A3F1200213469B001A443B6913440E4AB9
:100CE000D35C184600F048F83B6901333B613B692F
:100CF000042BE9DD002000F03FF87B6901337B61C4
:100D00007868FFF765FA02467B699A42D9D80023D2
:100D100018461837BD4680BD404F000880B500AF6B
:100D200000F0DEF80346184680BD000080B584B0B0
:100D300000AF0346FB7100224FF480510C4800F0D5
:100D400029FC002240210B4800F024FC07F10F0190
:100D5000FB1D01221846FFF763FF01224FF480516B
:100D6000034800F017FC00BF1037BD4680BD00BF30
:100D7000000400480008004880B584B000AF034676
:100D8000FB7100224FF480510E4800F003FC012259
:100D900040210D4800F0FEFB07F10F01FB1D012271
:100DA0001846FFF73DFF00224021074800F0F2FB04
:100DB00001224FF48051034800F0ECFB00BF1037D4
:100DC000BD4680BD000400480008004880B500AF63
:100DD00000222021074800F0DDFB0A2002F0BCFFC2
:100DE00001222021034800F0D5FB0A2002F0B4FFC5
:100DF00000BF80BD0008004880B582B000AF034648
:100E0000FB71FB7903F00F03FB71FB7963F04F0378
:100E1000DBB21846FFF78AFF00BF0837BD4680BD2A
:100E200080B582B000AF0346FB71FB7903F07F030E
:100E3000FB71FB791B09DBB243F01003DBB21846F0
:100E4000FFF774FFFB7903F00F03DBB21846FFF7DF
:100E50006DFF00BF0837BD4680BD80B582B000AFD2
:100E60000346FB71FB7903F03F03FB71FB7943F011
:100E70004003DBB21846FFF759FF00BF0837BD46F5
:100E800080BD80B500AFAF20FFF750FF00BF80BD31
:100E900080B582B000AF0346FB71FB791D2B01D8F2
:100EA0001E23FB71FB79282B01D92823FB7181209C
:100EB000FFF73CFFFB79DB43DBB203F03F03DBB220
:100EC0001846FFF733FFFB7918460837BD4680BD4B
:100ED00080B500AFA620FFF729FF00BF80BD00004E
:100EE00080B500AFFFF772FF00224021104800F0EC
:100EF00051FBA020FFF71AFFFFF7EAFFC820FFF71A
:100F000015FFA220FFF712FF2F20FFF70FFFF82099
:100F1000FFF70CFF0020FFF709FF2120FFF706FF76
:100F20001E20FFF7B5FFFFF7ACFF0023184680BD7A
:100F3000000800480000000090B585B000AF786060
:100F40002D4803F09FFEF3233B7200237B720023A6
:100F5000BB727B689B6807F1080201211046984725
:100F60007B685B694FF4FA7098477B68DB6807F130
:100F700008020221104698473B7A1B021AB27B7A7C
:100F80001BB213431BB2FB81FB8907EE903AF8EECC
:100F9000677A17EE900AFFF787FA13A3D3E90023C5
:100FA000FFF7D6FA03460C46184621464FF00002DA
:100FB000124BFFF7F7FB03460C46184621460CA3DD
:100FC000D3E90023FFF710F903460C4618462146E3
:100FD000FFF7D0FC034607EE903AB0EE670A1437ED
:100FE000BD4690BDAFF30080D7A3703D0AF76540C2
:100FF000CDCCCCCCCC6C4740504D00080000F0402C
:1010000080B582B000AF7860034803F03BFE00BFBC
:1010100018460837BD4680BD6C4D000880B500AF4E
:10102000032000F005F9002000F006F803F004FCAE
:101030000023184680BD000080B582B000AF786004
:10104000094B1B68094AA2FB03239B09184600F0C1
:1010500016F9002279684FF0FF3000F0F4F8002311
:1010600018460837BD4680BD04000020D34D6210ED
:1010700080B400AF044B1B680133034A136000BF08
:10108000BD465DF8047B70475801002080B400AF76
:10109000034B1B681846BD465DF8047B704700BFD4
:1010A0005801002080B584B000AF78600023FB6059
:1010B000FFF7ECFFF86000BFFFF7E8FF0246FB68B0
:1010C000D21A7B689A42F7D300BF1037BD4680BD65
:1010D00080B485B000AF78607B6803F00703FB60E5
:1010E0000C4BDB68BB60BA684FF6FF031340BB6074
:1010F000FB681A02BB68134343F0BF6343F4003339
:10110000BB60044ABB68D36000BF1437BD465DF8BE
:10111000047B704700ED00E080B400AF044BDB6857
:101120001B0A03F007031846BD465DF8047B7047B1
:1011300000ED00E080B483B000AF03463960FB717E
:1011400097F90730002B0BDA0D49FB7903F00F03F9
:10115000043B3A68D2B21201D2B20B441A7609E0CB
:10116000084997F907303A68D2B21201D2B20B445B
:1011700083F8002300BF0C37BD465DF8047B704741
:1011800000ED00E000E100E080B489B000AFF8605D
:10119000B9607A60FB6803F00703FB61FB69C3F188
:1011A0000703042B28BF0423BB61FB690433062B10
:1011B00002D9FB69033B00E000237B610122BB698C
:1011C00002FA03F35A1EBB681A407B699A40012158
:1011D0007B6901FA03F3591E7B680B4013431846E1
:1011E0002437BD465DF8047B7047000080B582B0AF
:1011F00000AF78607B68013BB3F1807F01D30123AE
:101200000FE00A4A7B68013B53600F214FF0FF302B
:10121000FFF790FF054B00229A60044B07221A60EB
:10122000002318460837BD4680BD00BF10E000E02F
:1012300080B582B000AF78607868FFF749FF00BFE3
:101240000837BD4680BD80B586B000AF0346B960A3
:101250007A60FB7300237B61FFF75EFF78617A6839
:10126000B9687869FFF790FF024697F90F30114689
:101270001846FFF75FFF00BF1837BD4680BD80B539
:1012800082B000AF78607868FFF7B0FF0346184679
:101290000837BD4680BD000080B487B000AF7860DD
:1012A000396000237B610023FB6000233B6154E134
:1012B0003B681A6801217B6901FA03F31340FB6064
:1012C000FB68002B00F046813B685B68022B03D073
:1012D0003B685B68122B23D17B69DA087B68083294
:1012E00053F822303B617B6903F007039B000F2218
:1012F00002FA03F3DB433A6913403B613B681A6926
:101300007B6903F007039B0002FA03F33A69134376
:101310003B617B69DA087B680832396943F822103F
:101320007B681B683B617B695B00032202FA03F365
:10133000DB433A6913403B613B685B6803F003029F
:101340007B695B0002FA03F33A6913433B617B68F4
:101350003A691A603B685B68012B0BD03B685B689D
:10136000022B07D03B685B68112B03D03B685B689E
:10137000122B30D17B689B683B617B695B00032249
:1013800002FA03F3DB433A6913403B613B68DA68D6
:101390007B695B0002FA03F33A6913433B617B68A4
:1013A0003A699A607B685B683B6101227B6902FA5B
:1013B00003F3DB433A6913403B613B685B681B09FD
:1013C00003F001027B6902FA03F33A6913433B61BC
:1013D0007B683A695A607B68DB683B617B695B00CC
:1013E000032202FA03F3DB433A6913403B613B6893
:1013F0009A687B695B0002FA03F33A6913433B6125
:101400007B683A69DA603B685B6803F08053002BC5
:1014100000F0A080584A584B1B6E43F0010313663E
:10142000554B1B6E03F00103BB60BB68534A7B69DD
:101430009B08023352F823303B617B6903F00303BE
:101440009B000F2202FA03F3DB433A6913403B612E
:101450007B68B3F1904F19D07B68494A934213D00F
:101460007B68484A93420DD07B68474A934207D035
:101470007B68464A934201D1042308E0072306E033
:10148000032304E0022302E0012300E000237A6941
:1014900002F00302920093403A6913433B613749DB
:1014A0007B699B0802333A6941F82320384B1B685B
:1014B0003B61FB68DB433A6913403B613B685B6817
:1014C00003F48033002B03D03A69FB6813433B617C
:1014D0002F4A3B6913602E4B5B683B61FB68DB4323
:1014E0003A6913403B613B685B6803F40033002BAF
:1014F00003D03A69FB6813433B61254A3B6953605B
:10150000234B9B683B61FB68DB433A6913403B61BB
:101510003B685B6803F48013002B03D03A69FB68D7
:1015200013433B611A4A3B699360194BDB683B618B
:10153000FB68DB433A6913403B613B685B6803F43B
:101540000013002B03D03A69FB6813433B61104A38
:101550003B69D3607B6901337B613B681A687B69B7
:1015600022FA03F3002B7FF4A3AE00BF1C37BD4665
:101570005DF8047B704700BF00100240000001408E
:101580000004004800080048000C00480010004813
:101590000004014080B483B000AF78600B467B80CC
:1015A00013467B707B78002B03D07A887B689A6126
:1015B00002E07A887B689A6200BF0C37BD465DF80E
:1015C000047B704780B582B000AF78607B68002BE9
:1015D00001D1012380E07B6893F84130DBB2002B1E
:1015E00006D17B68002283F84020786803F04CF92C
:1015F0007B68242283F841207B681B687A68126824
:10160000126822F001021A607B681B687A685268CF
:1016100022F070621A617B681B687A6812689268AF
:1016200022F400429A607B68DB68012B07D17B685B
:101630001B687A68926842F400429A6006E07B6810
:101640001B687A68926842F404429A607B68DB689F
:10165000022B04D17B681B684FF400625A607B68E0
:101660001A687B681B685B6843F0007343F40043AF
:1016700053607B681B687A681268D26822F4004263
:10168000DA607B681B687A6811697A68526911436D
:101690007A68926912020A43DA607B681B687A688A
:1016A000D1697A68126A0A431A607B681B687A6893
:1016B0001268126842F001021A607B6800225A64C4
:1016C0007B68202283F841207B6800221A637B68B4
:1016D000002283F84220002318460837BD4680BD0B
:1016E00080B588B002AFF8607A601A460B467B81FD
:1016F00013463B8100237B61FB6893F84130DBB2EA
:10170000202B40F0E680FB6893F84030012B01D19C
:101710000223DFE0FB68012283F84020FFF7B6FCDC
:1017200078617B690093192301224FF40041F86826
:1017300000F0DAFA0346002B01D00323CAE0FB686D
:10174000212283F84120FB68102283F84220FB68A5
:1017500000225A64FB687A685A62FB683A895A85A3
:10176000FB6800225A63FB685B8D9BB2FF2B0FD98D
:10177000FB68FF221A85FB681B8DDAB279894FF46A
:10178000005300934FF08073F86800F01FFC71E085
:10179000FB685B8D9AB2FB681A85FB681B8DDAB219
:1017A00079894FF4005300934FF00073F86800F00C
:1017B0000DFC5FE07A69396AF86800F0CFFA0346F9
:1017C000002B07D0FB685B6C042B01D1012381E067
:1017D00003237FE0FB681A68FB685B6A581CF968A2
:1017E00048621B789362FB685B8D9BB2013B9AB2A7
:1017F000FB685A85FB681B8D013B9AB2FB681A8512
:10180000FB681B8D002B35D1FB685B8D9BB2002BD9
:1018100030D07B6900933B6A00228021F86800F099
:1018200063FA0346002B01D0032353E0FB685B8D72
:101830009BB2FF2B0ED9FB68FF221A85FB681B8D1C
:10184000DAB27989002300934FF08073F86800F0D2
:10185000BDFB0FE0FB685B8D9AB2FB681A85FB68E5
:101860001B8DDAB27989002300934FF00073F8687A
:1018700000F0ACFBFB685B8D9BB2002B9AD17A69C0
:10188000396AF86800F0AAFA0346002B07D0FB6813
:101890005B6C042B01D101231CE003231AE0FB68DD
:1018A0001B682022DA61FB681A68FB681B685968AC
:1018B0000A4B0B405360FB68202283F84120FB68F1
:1018C000002283F84220FB68002283F84020002396
:1018D00000E0022318461837BD4680BD00E800FE30
:1018E00080B588B002AFF8607A601A460B467B81FB
:1018F00013463B8100237B61FB6893F84130DBB2E8
:10190000202B40F0E780FB6893F84030012B01D199
:101910000223E0E0FB68012283F84020FFF7B6FBDA
:1019200078617B690093192301224FF40041F86824
:1019300000F0DAF90346002B01D00323CBE0FB686B
:10194000222283F84120FB68102283F84220FB68A2
:1019500000225A64FB687A685A62FB683A895A85A1
:10196000FB6800225A63FB685B8D9BB2FF2B0FD98B
:10197000FB68FF221A85FB681B8DDAB279894FF468
:10198000105300934FF08073F86800F01FFB72E073
:10199000FB685B8D9AB2FB681A85FB681B8DDAB217
:1019A00079894FF4105300934FF00073F86800F0FA
:1019B0000DFB60E07A69396AF86800F04BFA03467B
:1019C000002B07D0FB685B6C042B01D1012382E064
:1019D000032380E0FB685B6A591CFA685162FA686D
:1019E0001268526AD2B21A70FB681B8D013B9AB220
:1019F000FB681A85FB685B8D9BB2013B9AB2FB6862
:101A00005A85FB681B8D002B35D1FB685B8D9BB223
:101A1000002B30D07B6900933B6A00228021F8685C
:101A200000F062F90346002B01D0032353E0FB686A
:101A30005B8D9BB2FF2B0ED9FB68FF221A85FB68DA
:101A40001B8DDAB27989002300934FF08073F86818
:101A500000F0BCFA0FE0FB685B8D9AB2FB681A8558
:101A6000FB681B8DDAB27989002300934FF0007375
:101A7000F86800F0ABFAFB685B8D9BB2002B99D144
:101A80007A69396AF86800F0A9F90346002B07D093
:101A9000FB685B6C042B01D101231CE003231AE0DB
:101AA000FB681B682022DA61FB681A68FB681B6808
:101AB00059680B4B0B405360FB68202283F8412090
:101AC000FB68002283F84220FB68002283F8402054
:101AD000002300E0022318461837BD4680BD00BF32
:101AE00000E800FE80B588B002AFF8607A603B6025
:101AF0000B467B8100237B6100233B61FB6893F8ED
:101B00004130DBB2202B40F0C680FB681B689B692C
:101B100003F40043B3F5004F01D10223BCE0FB689E
:101B200093F84030012B01D10223B5E0FB6801227C
:101B300083F84020FB68242283F84120FB680022C0
:101B40005A64FB681A68FB68DB68012B07D17B8944
:101B5000C3F3090343F0007343F4005304E07B89AB
:101B6000C3F3090343F420535360FFF78FFA7861FE
:101B700018E03B68B3F1FF3F14D03B68002B07D05F
:101B8000FFF784FA02467B69D21A3B689A4209D968
:101B9000FB68202283F84120FB68002283F8402064
:101BA000032379E0FB681B689B6903F02003202B6B
:101BB0000CD0FB681B689B6903F01003102B05D049
:101BC000FB6893F84130DBB2A02BD2D1FB681B68D5
:101BD0009B6903F01003102B1AD07B6900933B68BC
:101BE00000222021F86800F07FF80346002B01D086
:101BF000032351E0FB681B682022DA61FB68202286
:101C000083F84120FB68002283F84020002343E052
:101C10007B6900933B6800222021F86800F064F89B
:101C20000346002B01D0032336E0FB681B6810221B
:101C3000DA61FB681B682022DA613B695A1C3A6151
:101C40007A68934218D1FB681B68FA681268526878
:101C500042F480425A607B6900933B680022202155
:101C6000F86800F041F80346002B01D0032313E08D
:101C7000FB681B682022DA613A697B689A42FFF4AC
:101C800060AFFB68202283F84120FB68002283F8C4
:101C90004020032300E0022318461837BD4680BDCC
:101CA00080B483B000AF78607B681B689B6903F0E9
:101CB0000203022B03D17B681B6800229A627B68B7
:101CC0001B689B6903F00103012B07D07B681B682D
:101CD0007A681268926942F001029A6100BF0C377B
:101CE000BD465DF8047B704780B584B000AFF860F6
:101CF000B9603B601346FB711CE03B68B3F1FF3FEA
:101D000018D03B68002B07D0FFF7C0F90246BB692B
:101D1000D21A3B689A420DD9FB68202283F84120F1
:101D2000FB68002283F84220FB68002283F84020F1
:101D300003230FE0FB681B689A69BB681A40BB6805
:101D40009A420CBF01230023DBB21A46FB799A4268
:101D5000D3D0002318461037BD4680BD80B584B06F
:101D600000AFF860B9607A602CE07A68B968F8680A
:101D700000F0CEF80346002B01D001232AE0BB6817
:101D8000B3F1FF3F1ED0BB68002B07D0FFF77EF9F1
:101D900002467B68D21ABB689A4213D9FB685B6C17
:101DA00043F02002FB685A64FB68202283F841203C
:101DB000FB68002283F84220FB68002283F8402061
:101DC000032307E0FB681B689B6903F00203022BF7
:101DD000CBD1002318461037BD4680BD80B584B0F6
:101DE00000AFF860B9607A6028E07A68B968F8688E
:101DF00000F08EF80346002B01D0012326E0BB68DB
:101E0000002B07D0FFF742F902467B68D21ABB6865
:101E10009A4213D9FB685B6C43F02002FB685A645A
:101E2000FB68202283F84120FB68002283F84220CF
:101E3000FB68002283F84020032307E0FB681B684F
:101E40009B6903F02003202BCFD1002318461037C5
:101E5000BD4680BD80B584B000AFF860B9607A60DF
:101E600048E07A68B968F86800F052F80346002B39
:101E700001D0012346E0FB681B689B6903F0200347
:101E8000202B1CD1FB681B682022DA61FB681A68D2
:101E9000FB681B6859681D4B0B405360FB680022B0
:101EA0005A64FB68202283F84120FB68002283F8F3
:101EB0004220FB68002283F84020012322E0BB6817
:101EC000002B07D0FFF7E2F802467B68D21ABB6806
:101ED0009A420FD9FB685B6C43F02002FB685A649E
:101EE000FB68202283F84120FB68002283F8402011
:101EF000032307E0FB681B689B6903F00403042BC2
:101F0000AFD1002318461037BD4680BD00E800FE63
:101F100080B584B000AFF860B9607A60FB681B6878
:101F20009B6903F01003102B48D11CE0BB68B3F190
:101F3000FF3F18D0BB68002B07D0FFF7A7F8024679
:101F40007B68D21ABB689A420DD9FB68202283F8BD
:101F50004120FB68002283F84220FB68002283F8BE
:101F6000402003232BE0FB681B689B6903F02003E0
:101F7000202BDBD1FB681B681022DA61FB681B6831
:101F80002022DA61F868FFF78BFEFB681A68FB68AD
:101F90001B6859680C4B0B405360FB6804225A6461
:101FA000FB68202283F84120FB68002283F842204E
:101FB000FB68002283F84020012300E0002318463C
:101FC0001037BD4680BD00BF00E800FE80B487B07A
:101FD00000AFF8607B600B467B8113467B72002369
:101FE0007B61FB681B685B687B617A690D4B134002
:101FF0007B617B89C3F309027B7A1B0403F47F03B3
:102000001A437B681A433B6A13437A6913437B6123
:10201000FB681B687A695A6000BF1C37BD465DF8D3
:10202000047B7047009800FC80B400AF054A054B64
:102030001B6843F48073136000BFBD465DF8047BEA
:10204000704700BF0070004080B400AF044B1B68B5
:1020500003F4C0631846BD465DF8047B704700BFBB
:102060000070004080B485B000AF78600023FB6052
:102070007B68B3F5007F2FD1224B1B6803F4C0634C
:10208000B3F5007F37D01F4A1E4B1B6823F4C06393
:1020900043F4007313601C4B1B681C4AA2FB032310
:1020A0009B0C322202FB03F3FB6002E0FB68013B66
:1020B000FB60FB68002B06D0124B5B6903F4806366
:1020C000B3F5806FF2D00F4B5B6903F48063B3F517
:1020D000806F10D103230FE00A4B1B6803F4C06329
:1020E000B3F5806F07D0074A064B1B6823F4C06323
:1020F00043F480631360002318461437BD465DF82F
:10210000047B7047007000400400002083DE1B4306
:1021100080B58CB000AF78600023BB627B681B6821
:1021200003F01003002B00F0DB80A24B9B6803F050
:102130000C03002B40F084809E4B1B6803F00203CD
:10214000002B05D07B689B69002B01D101239BE309
:102150007B681A6A974B1B6803F00803002B04D0B6
:10216000944B1B6803F0F00305E0924BD3F89430D6
:102170001B0903F0F0039A4223D97B681B6A1846B7
:1021800000F0A4FD0346002B01D001237CE3894A23
:10219000884B1B6843F0080313608649854B1B6816
:1021A00023F0F0027B681B6A13430B608149814B6B
:1021B0005B6823F47F427B68DB691B0213434B603F
:1021C00022E07C4A7B4B1B6843F00803136079498B
:1021D000784B1B6823F0F0027B681B6A13430B608B
:1021E0007449744B5B6823F47F427B68DB691B0294
:1021F00013434B607B681B6A184600F067FD03467B
:10220000002B01D001233FE300F066FC0146694B3F
:102210009B6803F0F002F0237B627B6A93FAA3F3DE
:102220003B623B6AB3FA83F322FA03F3624AD35C5C
:1022300021FA03F3614A13600020FEF7FDFE4FE030
:102240007B689B69002B32D05A4A5A4B1B6843F07B
:1022500001031360FEF71AFFB86208E0FEF716FFED
:102260000246BB6AD31A022B01D903230CE3514B5C
:102270001B6803F00203002BF0D04E4A4D4B1B6845
:1022800043F0080313604B494A4B1B6823F0F002EC
:102290007B681B6A13430B604649464B5B6823F41B
:1022A0007F427B68DB691B0213434B6018E0414AA5
:1022B000404B1B6823F001031360FEF7E7FEB86292
:1022C00008E0FEF7E3FE0246BB6AD31A022B01D9EF
:1022D0000323D9E2374B1B6803F00203002BF0D134
:1022E0007B681B6803F00103002B7AD0314B9B689D
:1022F00003F00C03082B0BD02E4B9B6803F00C0350
:102300000C2B11D12B4BDB6803F00303032B0BD1F8
:10231000284B1B6803F40033002B61D07B685B689B
:10232000002B5DD10123AFE27B685B68B3F5803F92
:1023300006D1204A1F4B1B6843F4803313601DE015
:102340007B685B68B3F5A02F0CD11A4A194B1B6848
:1023500043F480231360174A164B1B6843F4803301
:1023600013600BE0134A134B1B6823F48033136094
:10237000104A104B1B6823F4802313607B685B6852
:10238000002B13D0FEF782FEB86208E0FEF77EFE57
:102390000246BB6AD31A642B01D9032374E2054BAE
:1023A0001B6803F40033002BF0D01AE0FEF76EFE3A
:1023B000B8620EE00010024008510008040000203E
:1023C000FEF764FE0246BB6AD31A642B01D90323CD
:1023D0005AE2B04B1B6803F40033002BF0D100E04D
:1023E00000BF7B681B6803F00203002B7FD0A94B62
:1023F0009B6803F00C03042B0BD0A64B9B6803F0E7
:102400000C030C2B27D1A34BDB6803F00303022B37
:1024100021D1A04B1B6803F48063002B05D07B689F
:10242000DB68002B01D101232EE29A48994B5B68AF
:1024300023F0F8527B6819694FF0F853FB61FB6990
:1024400093FAA3F3BB61BB69B3FA83F301FA03F315
:10245000134343604BE07B68DB68002B2ED08D4A32
:102460008C4B1B6843F480731360FEF70FFEB86259
:1024700008E0FEF70BFE0246BB6AD31A022B01D915
:10248000032301E2834B1B6803F48063002BF0D02D
:102490008048804B5B6823F0F8527B6819694FF0E5
:1024A000F8537B617B6993FAA3F33B613B69B3FA11
:1024B00083F301FA03F31343436018E0754A754B45
:1024C0001B6823F480731360FEF7E0FDB86208E038
:1024D000FEF7DCFD0246BB6AD31A022B01D90323A7
:1024E000D2E16C4B1B6803F48063002BF0D17B6856
:1024F0001B6803F00803002B3CD07B685B69002B52
:102500001CD0644A634BD3F8943043F00103C2F803
:102510009430FEF7BBFDB86208E0FEF7B7FD024657
:10252000BB6AD31A022B01D90323ADE1594BD3F86F
:10253000943003F00203002BEFD01BE0554A554BBB
:10254000D3F8943023F00103C2F89430FEF79EFDD7
:10255000B86208E0FEF79AFD0246BB6AD31A022B66
:1025600001D9032390E14B4BD3F8943003F00203DD
:10257000002BEFD17B681B6803F00403002B00F0F5
:10258000A980002387F82F30424B9B6D03F08053C6
:10259000002B0ED13F4A3F4B9B6D43F08053936518
:1025A0003C4B9B6D03F08053FB60FB68012387F875
:1025B0002F30394B1B6803F48073002B18D1364A37
:1025C000354B1B6843F480731360FEF75FFDB86200
:1025D00008E0FEF75BFD0246BB6AD31A022B01D965
:1025E000032351E12C4B1B6803F48073002BF0D0C4
:1025F0007B689B68012B08D1264A264BD3F8903084
:1026000043F00103C2F8903024E07B689B68052BFF
:1026100010D1204A1F4BD3F8903043F00403C2F886
:1026200090301C4A1B4BD3F8903043F00103C2F8A2
:1026300090300FE0174A174BD3F8903023F0010386
:10264000C2F89030134A134BD3F8903023F00403B0
:10265000C2F890307B689B68002B16D0FEF716FD01
:10266000B8620AE0FEF712FD0246BB6AD31A41F2D5
:102670008832934201D9032306E1064BD3F8903008
:1026800003F00203002BEDD01AE0FEF7FFFCB86266
:102690000FE000BF0010024000700040FEF7F6FCA3
:1026A0000246BB6AD31A41F28832934201D903230E
:1026B000EAE0774BD3F8903003F00203002BEDD122
:1026C00097F82F30012B05D1714A714B9B6D23F088
:1026D000805393657B681B6803F02003002B3CD07C
:1026E0007B685B6A002B1CD0694A694BD3F8983031
:1026F00043F00103C2F89830FEF7C8FCB86208E066
:10270000FEF7C4FC0246BB6AD31A022B01D903238D
:10271000BAE05F4BD3F8983003F00203002BEFD000
:102720001BE05B4A5A4BD3F8983023F00103C2F800
:102730009830FEF7ABFCB86208E0FEF7A7FC024653
:10274000BB6AD31A022B01D903239DE0504BD3F867
:10275000983003F00203002BEFD17B689B6A002BBB
:1027600000F091804A4B9B6803F00C030C2B00F0A7
:1027700088807B689B6A022B55D1454A444B1B6875
:1027800023F080731360FEF781FCB86208E0FEF767
:102790007DFC0246BB6AD31A022B01D9032373E0E6
:1027A0003B4B1B6803F00073002BF0D138497B686A
:1027B0001B6B013B1A017B685B6B1B021A437B6836
:1027C000DB6A1A437B68DB6B5B08013B5B051A43E2
:1027D0007B681B6C5B08013B5B061A437B689B6B49
:1027E000DB061343CB602A4A294B1B6843F08073F6
:1027F0001360274A264BDB6843F08073D360FEF7F3
:1028000045FCB86208E0FEF741FC0246BB6AD31AF9
:10281000022B01D9032337E01D4B1B6803F0007323
:10282000002BF0D02FE01A4A194B1B6823F080735D
:102830001360174B1B6803F00063002B05D1144A8B
:10284000134BDB6823F00303D360114A104BDB68A2
:1028500023F0887323F48033D360FEF717FCB8624B
:1028600008E0FEF713FC0246BB6AD31A022B01D91B
:10287000032309E0064B1B6803F00073002BF0D123
:1028800001E0012300E0002318463037BD4680BD3B
:102890000010024080B586B000AF78603960002338
:1028A0007B61894B1B6803F007023B689A4210D298
:1028B0008549854B1B6823F007023B6813430B6077
:1028C000814B1B6803F007023B689A4201D0012349
:1028D000F6E07B681B6803F00203002B08D07B49FD
:1028E0007A4B9B6823F0F0027B689B6813438B60F4
:1028F0007B681B6803F00103002B00F08E807B686F
:102900005B68022B07D1714B1B6803F40033002B6B
:1029100021D10123D4E07B685B68032B07D16B4B8B
:102920001B6803F00073002B15D10123C8E07B68FE
:102930005B68002B07D1654B1B6803F00203002B7B
:1029400009D10123BCE0614B1B6803F48063002BB9
:1029500001D10123B4E05D495C4B9B6823F0030285
:102960007B685B6813438B60FEF790FB78617B6844
:102970005B68022B12D10AE0FEF788FB02467B69F6
:10298000D31A41F28832934201D9032398E04F4B86
:102990009B6803F00C03082BEED13EE07B685B687C
:1029A000032B12D10AE0FEF771FB02467B69D31AB2
:1029B00041F28832934201D9032381E0434B9B6863
:1029C00003F00C030C2BEED127E07B685B68002B37
:1029D0001DD10AE0FEF75AFB02467B69D31A41F289
:1029E0008832934201D903236AE0384B9B6803F095
:1029F0000C03002BEED110E0FEF748FB02467B698A
:102A0000D31A41F28832934201D9032358E02F4B65
:102A10009B6803F00C03042BEED12B4B1B6803F0D7
:102A200007023B689A4210D92749274B1B6823F0BD
:102A300007023B6813430B60234B1B6803F007023C
:102A40003B689A4201D001233AE07B681B6803F09F
:102A50000403002B08D01D491C4B9B6823F4E06243
:102A60007B68DB6813438B607B681B6803F008039B
:102A7000002B09D01549154B9B6823F460527B68E5
:102A80001B69DB0013438B6000F026F801460F4BF7
:102A90009B6803F0F002F0233B613B6993FAA3F3D8
:102AA000FB60FB68B3FA83F322FA03F3084AD35CB2
:102AB00021FA03F3074A13600020FEF7BDFA002352
:102AC00018461837BD4680BD002002400010024065
:102AD000085100080400002080B495B000AF002326
:102AE000FB640023BB6400233B640223FB630223DB
:102AF000BB6300237B64714B9B6803F00C03002BCA
:102B00000BD06E4B9B6803F00C030C2B3CD16B4B32
:102B1000DB6803F00303012B36D1684B1B6803F01D
:102B20000803002B12D1654BD3F8943003F4706284
:102B30004FF470637B637B6B93FAA3F33B633B6B54
:102B4000B3FA83F322FA03F3FB640FE05B4B1B68D9
:102B500003F0F002F023FB62FB6A93FAA3F3BB627B
:102B6000BB6AB3FA83F322FA03F3FB64544AFB6CA7
:102B700052F82330FB64514B9B6803F00C03002B8D
:102B800013D1FB6C7B6410E04C4B9B6803F00C038F
:102B9000042B02D14B4B7B6407E0484B9B6803F04E
:102BA0000C03082B01D1484B7B64444B9B6803F01A
:102BB0000C030C2B7BD1414BDB6803F003033B641C
:102BC0003E4BDB6803F0700270237B627B6A93FAF2
:102BD000A3F33B623B6AB3FA83F322FA03F30133B4
:102BE000BB633B6C022B02D0032B18D02FE0354A7D
:102BF000BB6BB2FBF3F3314AD26802F4FE414FF4EF
:102C0000FE42FA61FA6992FAA2F2BA61BA69B2FABC
:102C100082F221FA02F202FB03F3BB642FE02A4A9C
:102C2000BB6BB2FBF3F3254AD26802F4FE414FF4CA
:102C3000FE427A617A6992FAA2F23A613A69B2FA8C
:102C400082F221FA02F202FB03F3BB6417E0FA6C92
:102C5000BB6BB2FBF3F3194AD26802F4FE414FF4A6
:102C6000FE42FA60FA6892FAA2F2BA60BA68B2FA60
:102C700082F221FA02F202FB03F3BB6400BF0F4BA6
:102C8000DB6803F0C0624FF0C0637B607B6893FA3F
:102C9000A3F33B603B68B3FA83F322FA03F30133F7
:102CA0005B00FB63BA6CFB6BB2FBF3F37B647B6C86
:102CB00018465437BD465DF8047B7047001002404B
:102CC000185100080024F40000127A0080B586B084
:102CD00000AF786000237B6100233B612A4B9B6D32
:102CE00003F08053002B03D0FFF7AEF9786114E0B6
:102CF000254A254B9B6D43F080539365224B9B6D7A
:102D000003F08053FB60FB68FFF79EF978611E4A71
:102D10001D4B9B6D23F0805393657B69B3F5007F5A
:102D20000BD17B68802B19D97B68A02B02D9022399
:102D30003B6113E001233B6110E07B68802B02D9EB
:102D400003233B610AE07B68802B02D102233B61B5
:102D500004E07B68702B01D101233B610B490B4BD5
:102D60001B6823F007023B6913430B60074B1B688A
:102D700003F007023B699A4201D0012300E00023DF
:102D800018461837BD4680BD0010024000200240A2
:102D900080B586B000AF786000237B610023FB60C4
:102DA0000023FB740023BB747B681B6803F400637F
:102DB000002B2FD07B685B6CB3F5000F05D0B3F50B
:102DC000400F15D0002B07D00FE05A4A594BDB6853
:102DD00043F48033D3600CE07B6804330021184651
:102DE00000F02CFA0346FB7403E00123FB7400E0BF
:102DF00000BFFB7C002B0BD14E494E4BD3F88830E3
:102E000023F440027B685B6C1343C1F8883001E017
:102E1000FB7CBB747B681B6803F40033002B00F061
:102E2000988000237B74434B9B6D03F08053002BF1
:102E30000DD1404A3F4B9B6D43F0805393653D4B12
:102E40009B6D03F08053BB60BB6801237B743A4ADF
:102E5000394B1B6843F480731360FEF717F9F86071
:102E600009E0FEF713F90246FB68D31A022B02D9D8
:102E70000323FB7405E0304B1B6803F48073002BC5
:102E8000EFD0FB7C002B59D12A4BD3F8903003F4C0
:102E900040737B617B69002B1ED07B68DA6D7B6998
:102EA0009A4219D0234BD3F8903023F440737B61BE
:102EB000204A204BD3F8903043F48033C2F890304E
:102EC0001C4A1C4BD3F8903023F48033C2F8903066
:102ED000184A7B69C2F890307B6903F00103002B2C
:102EE00016D0FEF7D3F8F8600BE0FEF7CFF80246F5
:102EF000FB68D31A41F28832934202D90323FB7450
:102F000006E00C4BD3F8903003F00203002BECD01A
:102F1000FB7C002B0BD10749064BD3F8903023F4F0
:102F200040727B68DB6D1343C1F8903008E0FB7C96
:102F3000BB7405E00010024000700040FB7CBB74D5
:102F40007B7C012B05D18D4A8C4B9B6D23F08053EC
:102F500093657B681B6803F00103002B0AD0874947
:102F6000864BD3F8883023F003027B681B6A134337
:102F7000C1F888307B681B6803F00203002B0AD07D
:102F80007E497E4BD3F8883023F00C027B685B6A65
:102F90001343C1F888307B681B6803F00403002BDF
:102FA0000AD07649754BD3F8883023F030027B681D
:102FB0009B6A1343C1F888307B681B6803F02003C9
:102FC000002B0AD06D496D4BD3F8883023F4406252
:102FD0007B68DB6A1343C1F888307B681B6803F4A5
:102FE0000073002B0AD06549644BD3F8883023F472
:102FF00040227B68DB6B1343C1F888307B681B6819
:1030000003F48063002B0AD05C495C4BD3F8883012
:1030100023F440127B681B6C1343C1F888307B6833
:103020001B6803F04003002B0AD05449534BD3F8DC
:10303000883023F440527B681B6B1343C1F88830FF
:103040007B681B6803F08003002B0AD04B494B4B75
:10305000D3F8883023F440427B685B6B1343C1F89C
:1030600088307B681B6803F48073002B0AD04349C7
:10307000424BD3F8883023F440327B689B6B134378
:10308000C1F888307B681B6803F40053002B28D0FC
:103090003A493A4BD3F8883023F040627B689B6C06
:1030A0001343C1F888307B689B6CB3F1006F06D185
:1030B000324A324BDB6843F48013D36011E07B6803
:1030C0009B6CB3F1806F0CD17B68043301211846EF
:1030D00000F0B4F80346FB74FB7C002B01D0FB7CB2
:1030E000BB747B681B6803F40023002B28D02349A2
:1030F000224BD3F8883023F040627B68DB6C1343AB
:10310000C1F888307B68DB6CB3F1006F06D11B4AD5
:103110001A4BDB6843F48013D36011E07B68DB6CEF
:10312000B3F1806F0CD17B6804330121184600F0A5
:1031300085F80346FB74FB7C002B01D0FB7CBB7441
:103140007B681B6803F48023002B2BD00B490B4BAF
:10315000D3F8883023F040627B681B6D1343C1F8BD
:1031600088307B681B6DB3F1006F09D1034A034BB4
:10317000DB6843F48013D36014E000BF001002400A
:103180007B681B6DB3F1806F0CD17B680433012128
:10319000184600F053F80346FB74FB7C002B01D06B
:1031A000FB7CBB747B681B6803F48043002B1CD042
:1031B0001949194BD3F8883023F040527B685B6D76
:1031C0001343C1F888307B685B6DB3F1805F0CD12D
:1031D0007B6804330221184600F030F80346FB7484
:1031E000FB7C002B01D0FB7CBB747B681B6803F469
:1031F0000043002B0AD00849074BD3F8883023F04E
:1032000080427B689B6D1343C1F88830BB7C1846B5
:103210001837BD4680BD00BF0010024080B400AF2B
:10322000054A054B1B6843F00403136000BFBD460D
:103230005DF8047B704700BF0010024090B595B068
:1032400000AF786039600023BB64002387F84F30FB
:10325000A34BDB6803F00303002B23D0A04BDB68F8
:1032600003F003027B681B689A4217D17B681B68D6
:10327000002B13D09A4BDB6803F0700270237B6441
:103280007B6C93FAA3F33B643B6CB3FA83F322FAAF
:1032900003F35A1C7B685B689A4254D0012387F879
:1032A0004F3050E07B681B68022B0DD0032B15D0EC
:1032B000012B23D18A4B1B6803F00203002B21D181
:1032C000012387F84F301DE0854B1B6803F48063B2
:1032D000002B19D1012387F84F3015E0804B1B6874
:1032E00003F40033002B11D17D4B1B6803F48023C2
:1032F000002B0BD1012387F84F3007E0012387F81B
:103300004F3004E000BF02E000BF00E000BF97F8CC
:103310004F30002B17D1724C714BDB6823F07302D6
:103320007B6819687B685B68581E7023FB63FB6BC6
:1033300093FAA3F3BB63BB6BB3FA83F300FA03F313
:103340000B431343E36097F84F30002B40F0C180EC
:10335000634A634B1B6823F080631360FDF796FE9E
:10336000B8640AE0FDF792FE0246BB6CD31A022B4A
:1033700003D9032387F84F3005E0594B1B6803F04E
:103380000063002BEED197F84F30002B40F0A18066
:103390003B68002B25D1524C514B1B6923F07843DD
:1033A00023F4FE437A6891684FF4FE42FA62FA6AA7
:1033B00092FAA2F2BA62BA6AB2FA82F291407A68DA
:1033C000D0684FF078427A637A6B92FAA2F23A634D
:1033D0003A6BB2FA82F200FA02F20A431343236113
:1033E00051E03B68012B27D13D4C3D4B1B6923F439
:1033F000C00323F4FE437A6891684FF4FE42FA61F9
:10340000FA6992FAA2F2BA61BA69B2FA82F291400A
:103410007A6812695208501E4FF4C0027A627A6AC2
:1034200092FAA2F23A623A6AB2FA82F200FA02F22E
:103430000A431343236126E0294C294B1B6923F0DF
:10344000C06323F4FE437A6891684FF4FE42FA6049
:10345000FA6892FAA2F2BA60BA68B2FA82F29140BD
:103460007A6852695208501E4FF0C0627A617A69D8
:1034700092FAA2F23A613A69B2FA82F200FA02F2E0
:103480000A4313432361164A154B1B6843F08063BC
:103490001360FDF7FBFDB8640AE0FDF7F7FD024697
:1034A000BB6CD31A022B03D9032387F84F3005E0F6
:1034B0000B4B1B6803F00063002BEED097F84F30E6
:1034C000002B06D10649064B1A697B689B6913439A
:1034D0000B6197F84F3018465437BD4690BD00BF7A
:1034E0000010024080B584B000AF78607B68002B8C
:1034F00001D101237AE07B6800229A627B6893F80D
:103500005D30DBB2002B06D17B68002283F85C20A3
:10351000786801F0FDF97B68022283F85D207B6802
:103520001B687A681268126822F040021A607B6891
:10353000DB68B3F5E06F02D90023FB6002E04FF4D3
:103540008053FB607B68DB68B3F5706F07D07B68E6
:10355000DB68B3F5E06F02D07B6800229A627B687B
:103560001B6B002B0BD17B68DB68B3F5E06F03D9D5
:103570007B6802221A6302E07B6801221A637B687F
:103580001B687A6851687A68926811437A68126990
:1035900011437A68526911437A68926902F40072A1
:1035A00011437A68D26911437A68126A11437A68C2
:1035B000926A0A431A607B681B687A689269120CE7
:1035C00002F004017A68526A11437A68526B11431F
:1035D0007A68D2681143FA680A435A607B6800220D
:1035E0001A667B68012283F85D2000231846103795
:1035F000BD4680BD80B588B000AFF860B9603B6063
:103600001346FB800023BB610023FB77FB6893F824
:103610005C30012B01D102233EE1FB68012283F8DB
:103620005C20FDF733FDB861FB6893F85D30DBB2D9
:10363000012B02D00223FB7725E1BB68002B02D0CF
:10364000FB88002B02D10123FB771CE1FB680322DE
:1036500083F85D20FB6800221A66FB68BA689A63EB
:10366000FB68FA889A87FB68FA88DA87FB68002289
:103670001A64FB680022A3F84420FB680022A3F828
:103680004620FB6800221A65FB680022DA64FB68AA
:103690009B68B3F5004F07D1FB681B68FA68126896
:1036A000126842F480421A60FB681B681B6803F0D2
:1036B0004003402B07D0FB681B68FA681268126849
:1036C00042F040021A60FB68DB68B3F5E06F47D94F
:1036D000FB685B68002B04D0FB68DB8F9BB2012B7F
:1036E00038D1FB681B68BA681288DA60BB6802339D
:1036F000BB60FB68DB8F9BB2013B9AB2FB68DA8749
:1037000028E0FB681B689B6803F00203022B0FD1C3
:10371000FB681B68BA681288DA60BB680233BB605A
:10372000FB68DB8F9BB2013B9AB2FB68DA8711E042
:103730003B68002B0BD03B68B3F1FF3F0AD0FDF78D
:10374000A5FC0246BB69D21A3B689A4202D3032306
:10375000FB7798E0FB68DB8F9BB2002BD1D172E046
:10376000FB685B68002B04D0FB68DB8F9BB2012BEE
:1037700064D1FB68DB8F9BB2012B0FD9FB681B6800
:10378000BA681288DA60BB680233BB60FB68DB8F03
:103790009BB2023B9AB2FB68DA874FE0FB681B687A
:1037A00003F10C02BB68591CB9601B781370FB68ED
:1037B000DB8F9BB2013B9AB2FB68DA873EE0FB6885
:1037C0001B689B6803F00203022B25D1FB68DB8F8B
:1037D0009BB2012B0FD9FB681B68BA681288DA60AC
:1037E000BB680233BB60FB68DB8F9BB2023B9AB2C3
:1037F000FB68DA8722E0FB681B6803F10C02BB68F8
:10380000591CB9601B781370FB68DB8F9BB2013BBE
:103810009AB2FB68DA8711E03B68002B0BD03B685B
:10382000B3F1FF3F0AD0FDF731FC0246BB69D21A63
:103830003B689A4202D30323FB7724E0FB68DB8FCB
:103840009BB2002BBBD1BA693968F86800F002F965
:103850000346002B02D0FB6820221A66FB689B6897
:10386000002B0AD100237B61FB681B68DB687B614E
:10387000FB681B689B687B617B69FB681B6E002B88
:1038800001D00123FB77FB68012283F85D20FB68F0
:10389000002283F85C20FB7F18462037BD4680BDA0
:1038A00080B584B000AFF860B9607A603B604DE0ED
:1038B0003B68B3F1FF3F49D03B68002B07D0FDF7D1
:1038C000E5FB0246BB69D21A3B689A423ED3FB68CD
:1038D0001B68FA681268526822F0E0025A60FB68BE
:1038E0005B68B3F5827F11D1FB689B68B3F5004F2D
:1038F00004D0FB689B68B3F5806F07D1FB681B6839
:10390000FA681268126822F040021A60FB689B6A2B
:10391000B3F5005F10D1FB681A68FB681B68196873
:103920004DF6FF730B401360FB681B68FA68126862
:10393000126842F400521A60FB68012283F85D208D
:10394000FB68002283F85C2003230EE0FB681B6801
:103950009A68BB681A40BB689A4201D1012200E014
:1039600000227B689A42A3D1002318461037BD4637
:1039700080BD80B586B000AFF860B9607A603B600A
:103980005BE0BB68B3F5C06F09D17B68002B06D143
:10399000FB681B680C331B78DBB2FB75FB7D3B6857
:1039A000B3F1FF3F49D03B68002B07D0FDF76EFB1A
:1039B00002463B6AD21A3B689A423ED3FB681B68B8
:1039C000FA681268526822F0E0025A60FB685B688D
:1039D000B3F5827F11D1FB689B68B3F5004F04D02B
:1039E000FB689B68B3F5806F07D1FB681B68FA68BA
:1039F0001268126822F040021A60FB689B6AB3F5F5
:103A0000005F10D1FB681A68FB681B6819684DF6E7
:103A1000FF730B401360FB681B68FA68126812683A
:103A200042F400521A60FB68012283F85D20FB68B3
:103A3000002283F85C20032308E0FB681B689A6877
:103A4000BB681A407B689A429BD1002318461837FE
:103A5000BD4680BD80B586B002AFF860B9607A60BF
:103A60007B680093BB6800224FF4C051F868FFF7F1
:103A700080FF0346002B07D0FB681B6E43F020023B
:103A8000FB681A66032313E07B680093BB6800227F
:103A90008021F868FFF704FF0346002B07D0FB687E
:103AA0001B6E43F02002FB681A66032300E000232C
:103AB00018461037BD4680BD80B500AF00F0B4FB9E
:103AC0000346012B01D000F023F900BF80BD80B474
:103AD00085B000AF786039607B685B68FB603B68ED
:103AE000FA685A60FB689A683B689A60FB689B6852
:103AF0003A685A60FB683A689A603B687A681A616B
:103B00007B681B685A1C7B681A6000BF1437BD466F
:103B10005DF8047B704780B485B000AF7860396091
:103B20003B681B68BB60BB68B3F1FF3F03D17B6898
:103B30001B69FB600CE07B680833FB6002E0FB68FC
:103B40005B68FB60FB685B681A68BB689A42F6D9E1
:103B5000FB685A683B685A603B685B683A689A60E1
:103B60003B68FA689A60FB683A685A603B687A6812
:103B70001A617B681B685A1C7B681A6000BF143787
:103B8000BD465DF8047B704780B485B000AF7860B7
:103B90007B681B69FB607B685B687A6892689A60E7
:103BA0007B689B687A6852685A60FB685A687B68D1
:103BB0009A4203D17B689A68FB685A607B6800224E
:103BC0001A61FB681B685A1EFB681A60FB681B6859
:103BD00018461437BD465DF8047B7047064B1968DC
:103BE0000868B0E8F04F80F30988BFF36F8F4FF09B
:103BF000000080F3118870472400002000BF00BF40
:103C000080B483B000AF4FF0500383F31188BFF34B
:103C10006F8FBFF34F8F7B600E4B1B6801330D4AD4
:103C200013600C4B1B68012B0ED10B4B1B68DBB2D6
:103C3000002B09D04FF0500383F31188BFF36F8F2F
:103C4000BFF34F8F3B60FEE700BF0C37BD465DF80A
:103C5000047B70470000002004ED00E080B483B0D6
:103C600000AF114B1B68002B09D14FF0500383F3B9
:103C70001188BFF36F8FBFF34F8F7B60FEE70A4B56
:103C80001B68013B084A1360074B1B68002B04D1DB
:103C900000233B603B6883F3118800BF0C37BD46AF
:103CA0005DF8047B704700BF00000020EFF309803F
:103CB000BFF36F8F144B1A681EF0100F08BF20ED72
:103CC000108A20E9F04F10604DF8043D4FF050008D
:103CD00080F31188BFF34F8FBFF36F8F00F0EEF9C1
:103CE0004FF0000080F3118808BC19680868B0E83C
:103CF000F04F1EF0100F08BFB0EC108A80F3098857
:103D0000BFF36F8F704700BF2400002000BF00BFCB
:103D100080B584B000AFEFF311824FF0500383F30E
:103D20001188BFF36F8FBFF34F8FFA60BB6000F055
:103D300007F90346002B03D0064B4FF080521A6060
:103D400000237B607B6883F3118800BF1037BD467A
:103D500080BD00BF04ED00E080B586B000AF7860A4
:103D600000237B617B68002B2FD01F4B1B68002B2F
:103D700009D04FF0500383F31188BFF36F8FBFF367
:103D80004F8FFB60FEE700F039F8184B1A687B682C
:103D900013443B61164B1B6804331846FFF7F4FECF
:103DA0000346002B0BD1124B1B68DB6A012202FA7F
:103DB00003F3DA430F4B1B6813400E4A1360386954
:103DC00000F0D6F900F028F878617B69002B07D164
:103DD000094B4FF080521A60BFF34F8FBFF36F8FC4
:103DE00000BF1837BD4680BDF0000020D400002081
:103DF00024000020D800002004ED00E080B400AFD3
:103E0000044B1B680133034A136000BFBD465DF8D5
:103E1000047B7047F000002080B584B000AF002321
:103E2000FB603E4B1B68002B09D14FF0500383F31E
:103E30001188BFF36F8FBFF34F8F7B60FEE7FFF7F3
:103E4000DFFE364B1B68013B344A1360334B1B6863
:103E5000002B5BD1324B1B68002B57D02EE0314B2F
:103E6000DB68DB68BB60BB6818331846FFF78CFE65
:103E7000BB6804331846FFF787FEBB68DB6A012284
:103E80009A40294B1B681343274A1360BB68DA6AC0
:103E900013469B0013449B00244A1A44BB68043316
:103EA00019461046FFF713FEBB68DA6A204B1B6801
:103EB000DB6A9A4202D31F4B01221A60194B1B681E
:103EC000002BCCD11C4B1B68002B11D00CE000F058
:103ED00037F80346002B02D0164B01221A60164B0E
:103EE0001B68013B144A1360134B1B68002BEED177
:103EF000104B1B68012B09D10123FB600F4B4FF0C6
:103F000080521A60BFF34F8FBFF36F8FFFF7A6FE8B
:103F1000FB6818461037BD4680BD00BFF00000208A
:103F2000D0000020BC000020D80000202800002085
:103F300024000020E4000020E000002004ED00E068
:103F400080B586B000AF00237B61514B1B68002B0E
:103F500040F08D804F4B1B6801334E4A13604D4B30
:103F60001B683B613B69002B1FD14B4B1B681B68D7
:103F7000002B09D04FF0500383F31188BFF36F8FEC
:103F8000BFF34F8F3B60FEE7434B1B68FB60434B27
:103F90001B68414A1360414AFB681360404B1B6831
:103FA00001333F4A136000F019F93E4B1B683A6930
:103FB0009A424DD3384B1B681B68002B01D101235B
:103FC00000E00023002B04D0364B4FF0FF321A6084
:103FD0003EE0314B1B68DB68DB68BB60BB685B683D
:103FE0007B603A697B689A4203D22E4A7B681360F1
:103FF0002EE0BB6804331846FFF7C6FDBB689B6A1A
:10400000002B04D0BB6818331846FFF7BDFDBB6812
:10401000DB6A01229A40244B1B681343224A136037
:10402000BB68DA6A13469B0013449B001F4A1A447C
:10403000BB68043319461046FFF749FDBB68DA6ACE
:104040001B4B1B68DB6A9A42B4D301237B61B1E747
:10405000174B1B68DA6A154913469B0013449B00F3
:104060000B441B68012B07D901237B6104E0114B32
:104070001B6801330F4A13600F4B1B68002B01D0E4
:1040800001237B617B6918461837BD4680BD00BFA0
:10409000F0000020D4000020B4000020B800002070
:1040A000E8000020EC000020D800002028000020BC
:1040B00024000020E0000020E400002080B487B04D
:1040C00000AF264B1B68002B03D0254B01221A6042
:1040D0003EE0234B00221A60224B1B68FB60FB680A
:1040E000B3FA83F3FB72FB7AC3F11F037B611E49B2
:1040F0007A6913469B0013449B000B441B68002BFA
:1041000009D14FF0500383F31188BFF36F8FBFF3D2
:104110004F8F7B60FEE77A6913469B0013449B0038
:10412000114A13443B613B695B685A683B695A60BA
:104130003B695A683B6908339A4204D13B695B6822
:104140005A683B695A603B695B68DB68074A1360E1
:1041500000BF1C37BD465DF8047B7047F0000020AF
:10416000E4000020D80000202800002024000020C7
:1041700080B582B000AF7860134B1B687A685A60D4
:10418000124B1B687A689A4209D2114B1A680E4B7F
:104190001B68043319461046FFF7BDFC10E00D4BB9
:1041A0001A68094B1B68043319461046FFF7B3FC25
:1041B000094B1B687A689A4202D2074A7B681360EF
:1041C00000BF0837BD4680BD24000020D400002079
:1041D000B8000020B4000020EC00002080B483B0C0
:1041E00000AF0F4B1B681B68002B01D1012300E0BF
:1041F0000023002B04D00B4B4FF0FF321A6008E075
:10420000074B1B68DB68DB687B607B685B68054A83
:10421000136000BF0C37BD465DF8047B704700BFDC
:10422000B4000020EC00002080B483B000AF0B4B42
:104230001B68002B02D101237B6008E0084B1B6840
:10424000002B02D102237B6001E000237B607B68AE
:1042500018460C37BD465DF8047B7047DC00002033
:10426000F000002080B500AF154B164A1A60144BC1
:10427000102283F84220124B134A5A60104B00223E
:104280009A600F4B0122DA600D4B00221A610C4B31
:1042900000225A610A4B00229A61094B0022DA611E
:1042A000074B00221A620648FDF78CF90346002BE3
:1042B00001D000F08FFA024800F0E6FA00BF80BD9E
:1042C0005C01002000540040270212A080B586B097
:1042D00000AF3B1D00221A605A609A60DA601A61D2
:1042E000F0237B600123BB600023FB6000233B6164
:1042F0003B1D19464FF09040FCF7CEFF4FF4407342
:104300007B600123BB600023FB6000233B613B1DFE
:1043100019460348FCF7C0FF00BF1837BD4680BDF3
:104320000004004880B586B000AF3B1D00221A6033
:104330005A609A60DA601A610F237B600023BB60C9
:104340000023FB6000233B613B1D19464FF090406A
:10435000FCF7A2FF00BF1837BD4680BD80B500AF97
:10436000034A00210320FCF797FC00BF184680BDDC
:10437000CC4E000880B400AF00BF1846BD465DF8C3
:10438000047B704780B586B002AF786039603B68C7
:104390009AB24FF47A73009313467A6880210748E3
:1043A000FDF79EF90346FB73FB7B002B01D1002335
:1043B00000E0012318461037BD4680BD5C01002097
:1043C00080B586B002AF786039603B689AB24FF42E
:1043D0007A73009313467A6880210748FDF780FAC4
:1043E0000346FB73FB7B002B01D1002300E001237C
:1043F00018461037BD4680BD5C01002080B582B0F4
:1044000000AF4FF47A734FF47A7280210748FDF7BA
:1044100069FB0346FB71FB79002B01D1002300E00F
:10442000012318460837BD4680BD00BF5C0100204F
:1044300080B582B000AF78607868FCF733FE00BFCB
:1044400018460837BD4680BD80B59CB000AFFCF76C
:10445000E5FD00F023F9824A814BDB6C43F0040355
:10446000D3647F4BDB6C03F00403FB62FB6A7C4A82
:104470007B4BDB6C43F00103D364794BDB6C03F0C3
:104480000103BB62BB6A764A754BDB6C43F00203E7
:10449000D364734BDB6C03F002037B627B6A704A6C
:1044A0006F4BDB6C43F00803D3646D4BDB6C03F0A4
:1044B00008033B623B6AFCF7ADFAFCF721FBFFF710
:1044C000D1FEFFF703FFFFF72DFF012210214FF070
:1044D0009040FDF75FF8012220214FF09040FDF75A
:1044E00059F8012240214FF09040FDF753F8012286
:1044F00080214FF09040FDF74DF800224FF480717D
:104500004FF09040FDF746F807F1480300221A608B
:104510005A609A60DA601A614FF48073BB640123B9
:10452000FB6400233B6500237B6507F148031946C4
:104530004FF09040FCF7B0FE00224FF480714FF036
:104540009040FDF727F84FF4FA60FCF7ABFDFCF75D
:10455000E5FBFCF779FB01224FF480714FF09040AE
:10456000FDF718F83F4A00210020FCF795FB4FF4B7
:104570007A70FCF797FD802387F86F30AA2387F8BD
:104580006E30394B3B63394B7B63394BBB63394BE3
:10459000FB63394B3B64394B7B643B6C9847034668
:1045A000012B05D1364A00210020FCF775FB04E001
:1045B000344A00210020FCF76FFB97F86E3099B267
:1045C0004FF47A734FF47A722F48FDF78BFA034653
:1045D000BB66BB6E002B05D12C4A00210120FCF7E5
:1045E0005BFB04E02A4A00210120FCF755FB3B6BF2
:1045F000984707F130031846FCF702FD07F1300336
:104600001846FCF799FC87ED190AD7ED197AFDEEEB
:10461000E77A17EE903A3B66D7ED197AFDEEE77A26
:10462000F8EEE77A97ED197A77EE677A9FED197AC7
:1046300067EE877AFDEEE77A17EE903AFB6538462B
:10464000FB6D3A6E144900F007FB3B461A46002109
:104650000220FCF721FB4FF4FA70FCF723FDCDE7B5
:1046600000100240DC4E00085D430008754300085E
:1046700085430008C1430008FD4300083144000899
:10468000E44E0008F84E00085C010020084F0008C6
:10469000184F00080000C8422C4F000880B5AEB08B
:1046A00000AF07F1740344220021184600F03AFBE2
:1046B00007F1600300221A605A609A60DA601A619A
:1046C0003B4660220021184600F02CFBFDF7ACFCB5
:1046D0003E4A3E4BD3F8903023F01803C2F8903096
:1046E00014237B670123FB670123C7F88C30002369
:1046F000C7F890307023C7F894300223C7F89C3075
:104700000123C7F8A0300123C7F8A4302423C7F839
:10471000A8300723C7F8AC300623C7F8B03002230F
:10472000C7F8B43007F174031846FDF7F1FC0346EF
:10473000002B01D000F04EF80F233B6603237B666D
:104740000023BB660023FB6600233B6707F1600381
:1047500004211846FEF79EF80346002B01D000F016
:1047600039F81B4B3B6000233B6200233B63002373
:104770007B644FF48073FB654FF00063BB640123DF
:104780007B600123BB601A23FB6011233B61022382
:104790007B610223BB614FF48033FB613B461846CB
:1047A000FEF7F6FA0346002B01D000F013F84FF4A1
:1047B0000070FDF757FC0346002B01D000F00AF80B
:1047C000FEF72CFD00BFB837BD4680BD001002408B
:1047D0004128020080B400AF00BFBD465DF8047BF5
:1047E00070470000DFF834D0002103E00C4B5B5829
:1047F000435004310B480C4B42189A42F6D30B4AF3
:1048000002E0002342F8043B094B9A42F9D300F03E
:104810000DF900F063FAFFF717FEFEE700C0002075
:104820005851000800000020080000200800002067
:10483000A8010020FEE7000080B582B000AF114A59
:10484000104B1B6E43F0010313660E4B1B6E03F0FF
:1048500001037B607B680B4A0A4B9B6D43F08053DE
:104860009365084B9B6D03F080533B603B680022CF
:104870000F216FF00100FCF7E6FC00BF0837BD46D2
:1048800080BD00BF0010024080B58AB000AF7860E4
:1048900007F1140300221A605A609A60DA601A6104
:1048A0007B681B68184A934229D1184A174BDB6C66
:1048B00043F00103D364154BDB6C03F001033B6150
:1048C0003B694FF4C0637B611223BB610123FB6131
:1048D00003233B6204237B6207F1140319464FF064
:1048E0009040FCF7D9FC094A084B9B6D43F4001338
:1048F0009365064B9B6D03F40013FB60FB6800BFE0
:104900002837BD4680BD00BF005400400010024063
:1049100080B483B000AF786000BF0C37BD465DF84F
:10492000047B704780B400AF00BFBD465DF8047BD8
:10493000704780B400AFFEE780B400AFFEE780B4FC
:1049400000AFFEE780B400AFFEE780B400AF00BF69
:10495000BD465DF8047B704780B500AFFFF7ACF84B
:10496000FCF786FB00BF80BD80B400AF00BFBD4632
:104970005DF8047B704780B400AF00BFBD465DF8B2
:10498000047B704780B400AF00BFBD465DF8047B78
:10499000704780B400AF00BFBD465DF8047B704730
:1049A00080B483B000AF78604FF06043D3F8803EAE
:1049B00003F00103002B13D04FF06043D3F8003E07
:1049C00003F00103002B0BD000E000BF4FF0604369
:1049D0001B68002BF9D04FF060437A68D2B21A708E
:1049E0007B6818460C37BD465DF8047B704780B580
:1049F00086B000AFF860B9607A6000237B61002365
:104A00007B6109E0BB685A1CBA601B781846FFF747
:104A1000C7FF7B6901337B617A697B689A42F1DB6E
:104A20007B6818461837BD4680BD000080B400AFD3
:104A3000174A174BD3F8883043F47003C2F8883014
:104A4000144A144B1B6843F001031360114B0022FE
:104A50009A60104A0F4B1B6823F0A85323F41023CD
:104A600013600C4B4FF48052DA600A4A094B1B6802
:104A700023F480231360074B00229A61044B4FF00C
:104A800000629A6000BFBD465DF8047B704700BFBE
:104A900000ED00E00010024080B487B000AFF86085
:104AA000B9607A6001237B6104E07B697A6802FB6C
:104AB00003F37B617B69BA68B2FBF3F27B689A42CD
:104AC000F3D229E07B69BA68B2FBF3F33B617A6900
:104AD000BB68B3FBF2F102FB01F29B1ABB607A697F
:104AE0007B6892FBF3F37B613B69092B0ADDFB6872
:104AF0001B68591CFA6811603A69D2B23732D2B2D7
:104B00001A7009E0FB681B68591CFA6811603A6961
:104B1000D2B23032D2B21A707B69002BD2D100BF30
:104B20001C37BD465DF8047B704780B588B000AF88
:104B3000F860B9607A60FB687B617DE0BB681B78D8
:104B4000252B71D1BB680133BB60BB681B78642B1C
:104B50001ED0642B06DC582B50D0632B0ED0252B97
:104B600058D05DE0732B2BD0732B02DC692B0FD058
:104B700056E0752B37D0782B40D051E0FB685A1C9B
:104B8000FA607A68111D79601268D2B21A7047E033
:104B90007B681A1D7A601B68FB61FB69002B07DAD2
:104BA000FB695B42FB61FB685A1CFA602D221A709C
:104BB000F96907F10C030A221846FFF76DFF2FE091
:104BC0007B681A1D7A601B68BB6107E0FB685A1C92
:104BD000FA60BA69511CB96112781A70BB691B7806
:104BE000002BF3D11CE07B681A1D7A60196807F16D
:104BF0000C030A221846FFF74FFF11E07B681A1DCD
:104C00007A601B68194607F10C0310221846FFF75B
:104C100043FF05E0FB685A1CFA6025221A7000BFAA
:104C2000BB680133BB6007E0FB685A1CFA60BA68D6
:104C3000511CB96012781A70BB681B78002B7FF486
:104C40007DAFFB6800221A70FB681A467B69D31A95
:104C500018462037BD4680BD0EB480B585B000AF84
:104C6000786007F12003BB60BA68F9697868FFF7DC
:104C70005CFFF860FB6818461437BD46BDE880400D
:104C800003B0704780B586B000AF78607868FBF7F6
:104C90009FFA03463B610023FB603A697968012073
:104CA000FFF7A5FEF86001220B490120FFF79FFEE8
:104CB0000246FB681344FB603B695A1CFB689A423E
:104CC00002D100237B6102E04FF0FF337B617B69FF
:104CD00018461837BD4680BD3C4F000870B50D4ED4
:104CE0000D4CA41BA4100025A54209D10B4E0C4C61
:104CF00000F020F8A41BA4100025A54205D170BD2A
:104D000056F8253098470135EEE756F82530984794
:104D10000135F2E7485100084851000848510008A1
:104D20004C51000802440346934200D1704703F8F7
:104D3000011BF9E7F8B500BFF8BC08BC9E467047F8
:104D4000F8B500BFF8BC08BC9E46704700000000E4
:104D5000676F6E6E6120726561642074656D706549
:104D6000726174757265206E6F770D00676F6E6E7D
:104D7000612072656164206669726D776172652079
:104D80007265766973696F6E206E6F770D00000033
:104D90005458204E4F44450D000000005458204EFA
:104DA0004F4445000D0A0D00434F4E464947203AF7
:104DB0002025780D0A000000454E5F4141203A2031
:104DC00025780D0A0000000052465F5345545550A7
:104DD000203A2025780D0A00535441545553203A67
:104DE0002025780D0A0000004649464F203A20252C
:104DF000780D0A0044594E5044203A2025780D0A77
:104E00000000000046454154555245203A2025787F
:104E10000D0A000050494E4720504F4E472044494C
:104E20004E4720444F4E472044494E472D3E2025B3
:104E3000640000005452414E534D495353494F4E64
:104E4000204641494C45440D000000005452414E5B
:104E5000534D495353494F4E2053554343455353A4
:104E60000D000000737563636573733A2025640059
:104E70006661696C3A202564000000005258204E9B
:104E80004F44450D000000005258204E4F4445004D
:104E9000504F4E47202D3E2025640000726563650B
:104EA000697665643A20256400000000444154415D
:104EB0005B25645D203A20000D00000068656C6C85
:104EC0006F20776F726C640D000000004655434BF5
:104ED000204F46462043554E5400000048454C4C58
:104EE0004F000000536937303036204E4F54205267
:104EF0004541445900000000536937303036205294
:104F00004541445900000000536931313333205288
:104F10004541445900000000536931313333204E7C
:104F20004F542052454144590000000074656D7093
:104F30003A2025642E256420274300000A00000043
:104F4000000000000000004F0000000700070014F0
:104F50007F147F14242A7F2A12231308646236499F
:104F60005522200005030000001C224100004122C0
:104F70001C0014083E081408083E080850300000C1
:104F800000080808080800606000002010080402FB
:104F90003E5149453E00427F400042615149462111
:104FA00041454B311814127F1027454545393C4A7D
:104FB00049493001710905033649494936064949CD
:104FC000291E003636000000563600000814224123
:104FD000001414141414004122140802015109068B
:104FE0003E415D551E7E1111117E7F494949363E75
:104FF000414141227F4141221C7F494949417F096A
:105000000909013E4149497A7F0808087F00417F2C
:1050100041002040413F017F081422417F40404031
:10502000407F020C027F7F0408107F3E4141413ED9
:105030007F090909063E4151215E7F09192946264B
:105040004949493201017F01013F4040403F1F2053
:1050500040201F3F4038403F631408146307087026
:1050600008076151494543007F414100020408108F
:10507000200041417F0004020102044040404040C2
:10508000000003050020545454787F4444443838C9
:1050900044444444384444447F3854545418040429
:1050A0007E0505085454543C7F0804047800447D70
:1050B00040002040443D007F1028440000417F40D4
:1050C000007C047C04787C08040478384444443828
:1050D0007C14141408081414147C7C08040400487C
:1050E0005454542404043F44443C4040207C1C203D
:1050F00040201C3C4030403C44281028440C505078
:10510000503C4464544C4400000000000000000087
:105110000102030406070809A0860100400D0300F0
:10512000801A060000350C0040420F0080841E00EB
:1051300000093D0000127A000024F40000366E01E0
:085140000048E801006CDC02EC
:08514800B501000800000000A1
:085150009101000800000000BD
:08515800AAAAAAAA00093D0061
:04000005080047E5C3
:00000001FF
