:020000040800F2
:1000000000C0002099780008617B00086F7B000821
:10001000757B00087B7B0008817B000800000000E6
:10002000000000000000000000000000C1580008AF
:10003000877B000800000000C95A0008957B000873
:10004000E9780008E9780008E9780008E97800080C
:10005000E9780008E9780008E9780008E9780008FC
:10006000E9780008E9780008E9780008E9780008EC
:10007000E9780008E9780008E9780008E9780008DC
:10008000E9780008E9780008E9780008E9780008CC
:10009000E9780008E9780008E9780008E9780008BC
:1000A000E9780008A57B0008E9780008E9780008ED
:1000B000E97800080000000000000000E97800086E
:1000C000E9780008E9780008E9780008E97800088C
:1000D000E9780008E9780008E9780008E97800087C
:1000E000E9780008E978000800000000000000003E
:1000F0000000000000000000000000000000000000
:1001000000000000E978000800000000E97800081D
:100110000000000000000000E9780008E97800080D
:10012000B37B0008C17B0008E9780008E978000883
:10013000E978000800000000000000000000000056
:10014000E9780008E9780008E9780008CF7B000822
:10015000E9780008E9780008E9780008E9780008FB
:10016000E9780008E9780008E97800080000000054
:10017000E9780008E9780008E9780008E9780008DB
:10018000E9780008E9780008E97800080000000034
:1001900010B5054C237833B9044B13B10448AFF3C1
:1001A00000800123237010BD4800002000000000E3
:1001B000707F000808B5034B1BB103490348AFF338
:1001C000008008BD000000004C000020707F000887
:1001D000034613F8012B002AFBD1181A0138704787
:1001E00053B94AB9002908BF00281CBF4FF0FF319E
:1001F0004FF0FF3000F07AB9ADF1080C6DE904CE94
:1002000000F006F8DDF804E0DDE9022304B07047F1
:100210002DE9F0478C460D460446089E002B51D12F
:100220008A4217466DD9B2FA82FEBEF1000F0BD09A
:10023000CEF1200C01FA0EF520FA0CFC02FA0EF7B2
:100240004CEA050C00FA0EF44FEA174A250CBCFBE9
:10025000FAF81FFA87F90AFB18CC45EA0C4508FBA7
:1002600009F3AB420AD9ED1908F1FF3280F023817E
:10027000AB4240F22081A8F102083D44ED1AA4B23D
:10028000B5FBFAF00AFB105544EA054400FB09F9F6
:10029000A14509D9E41900F1FF3380F00A81A14595
:1002A00040F2078102383C44A4EB090440EA0840CC
:1002B0000021002E61D024FA0EF400233460736014
:1002C000BDE8F0878B4207D9002E54D0002186E884
:1002D00021000846BDE8F087B3FA83F1002940F019
:1002E0008E80AB4202D3824200F2FA80841A65EB20
:1002F00003050120AC46002E3FD086E81010BDE873
:10030000F08712B90127B7FBF2F7B7FA87FEBEF103
:10031000000F34D1EB1B3A0C1FFA87FC0121B3FB11
:10032000F2F8250C02FB183345EA03450CFB08F3F1
:10033000AB4207D9ED1908F1FF3002D2AB4200F20F
:10034000D1808046ED1AA3B2B5FBF2F002FB105546
:1003500043EA05440CFB00FCA44507D9E41900F16D
:10036000FF3302D2A44500F2B8801846A4EB0C0477
:1003700040EA08409DE731463046BDE8F087CEF1BF
:10038000200405FA0EF307FA0EF720FA04F83A0CE7
:1003900025FA04F448EA0308B4FBF2F14FEA1845E1
:1003A00002FB11441FFA87FC45EA044501FB0CF3EC
:1003B000AB4200FA0EF409D9ED1901F1FF3080F0DB
:1003C0008A80AB4240F2878002393D44EB1A1FFA23
:1003D00088F5B3FBF2F002FB103345EA034500FB5E
:1003E0000CF3AB4207D9ED1900F1FF386FD2AB42E5
:1003F0006DD902383D44EB1A40EA01418FE7C1F163
:10040000200722FA07F88B4005FA01F448EA0303B3
:1004100020FA07FE4FEA134CFD404EEA040EB5FBEE
:10042000FCF94FEA1E440CFB19551FFA83F844EA05
:10043000054509FB08F4AC4202FA01F200FA01FAA0
:1004400008D9ED1809F1FF3043D2AC4241D9A9F1E6
:1004500002091D442D1B1FFA8EFEB5FBFCF00CFBA0
:1004600010554EEA054400FB08F8A04507D9E418EA
:1004700000F1FF3529D2A04527D902381C4440EAB3
:100480000940A4EB0804A0FB02894C45C6464D4632
:1004900015D312D056B1BAEB0E0364EB050404FA7F
:1004A00007F7CB401F43CC40376074600021BDE8A4
:1004B000F0871846F8E69046E0E6C245EAD2B8EB87
:1004C000020E69EB03050138E4E72846D7E740460A
:1004D00091E78146BEE7014678E702383C4445E7AC
:1004E000084608E7A8F102083D442BE7704700BF23
:1004F00080B588B000AF07F10C0300221A605A6083
:100500009A60DA601A61314A304B9B6D43F4804344
:1005100093652E4B9B6D03F48043BB60BB682B4AF5
:100520002A4BDB6C43F00203D364284BDB6C03F0F3
:1005300002037B607B684FF46043FB6002233B61F6
:1005400000237B610323BB610523FB6107F10C03DF
:1005500019461F4801F0F0FB1E4B1F4A1A601D4B45
:100560004FF482725A601B4B00229A60194B4FF471
:10057000E062DA60174B00221A61164B00225A61C2
:10058000144B4FF400729A61124B2822DA61114B1E
:1005900000221A620F4B00225A620E4B00229A620E
:1005A0000C4B0722DA620B4B00221A63094B002224
:1005B0005A63084803F0E8FD0346002B01D007F01A
:1005C00063F900BF2037BD4680BD00BF0010024068
:1005D00000040048207F00200038004080B58AB029
:1005E00000AF434A424BDB6C43F00403D364404BFF
:1005F000DB6C03F004033B613B693D4A3C4BDB6C25
:1006000043F08003D3643A4BDB6C03F08003FB6060
:10061000FB68374A364BDB6C43F00103D364344B41
:10062000DB6C03F00103BB60BB68314A304BDB6C11
:1006300043F00203D3642E4BDB6C03F002037B60B8
:100640007B682B4A2A4BDB6C43F00803D364284BAE
:10065000DB6C03F008033B603B6807F114030022E6
:100660001A605A609A60DA601A610022602121489B
:1006700001F0F8FC00224FF480511F4801F0F2FC19
:1006800000224FF480714FF0904001F0EBFC6023AA
:100690007B610123BB610023FB6100233B6207F107
:1006A00014031946134801F047FB4FF480537B6154
:1006B0000123BB610023FB6100233B6207F11403AC
:1006C00019460D4801F038FB4FF480737B6101231C
:1006D000BB610023FB6100233B6207F11403194651
:1006E0004FF0904001F028FB00BF2837BD4680BD89
:1006F00000100240000800480004004880B584B0A3
:1007000000AFF860B9601346FB80C8230122F96886
:10071000034803F0C1FD002318461037BD4680BDD5
:10072000207F002080B582B000AF00237B6019E0FD
:100730007B68DBB2184600F0CDF8002000F0DEF850
:10074000002000F0F8F800233B6005E0002000F0F6
:1007500081F83B6801333B603B68842BF6DD7B68A6
:1007600001337B607B68032BE2DD002318460837EA
:10077000BD4680BD80B586B000AFF860B9607A60D4
:10078000FB68DBB2184600F0A5F8BB68DBB20533A6
:10079000DBB2184600F0B2F800237B611EE00023B4
:1007A0003B6112E07B697A6813441B78A3F1200255
:1007B00013469B001A443B6913440E4AD35C184607
:1007C00000F048F83B6901333B613B69042BE9DDEC
:1007D000002000F03FF87B6901337B617868FFF708
:1007E000F7FC02467B699A42D9D80023184618378D
:1007F000BD4680BD5482000880B500AF00F0DEF831
:100800000346184680BD000080B584B000AF0346A3
:10081000FB7100224FF480510C4801F023FC0022B0
:1008200040210B4801F01EFC07F10F01FB1D0122C6
:100830001846FFF763FF01224FF48051034801F08F
:1008400011FC00BF1037BD4680BD00BF000400484A
:100850000008004880B584B000AF0346FB71002259
:100860004FF480510E4801F0FDFB012240210D485C
:1008700001F0F8FB07F10F01FB1D01221846FFF7FD
:100880003DFF00224021074801F0ECFB01224FF41C
:100890008051034801F0E6FB00BF1037BD4680BD24
:1008A000000400480008004880B500AF0022202165
:1008B000074801F0D7FB0A2005F028FC012220217F
:1008C000034801F0CFFB0A2005F020FC00BF80BDEB
:1008D0000008004880B582B000AF0346FB71FB7989
:1008E00003F00F03FB71FB7963F04F03DBB2184693
:1008F000FFF78AFF00BF0837BD4680BD80B582B0D4
:1009000000AF0346FB71FB7903F07F03FB71FB79BA
:100910001B09DBB243F01003DBB21846FFF774FF8C
:10092000FB7903F00F03DBB21846FFF76DFF00BF42
:100930000837BD4680BD80B582B000AF0346FB716D
:10094000FB7903F03F03FB71FB7943F04003DBB21B
:100950001846FFF759FF00BF0837BD4680BD80B578
:1009600000AFAF20FFF750FF00BF80BD80B582B061
:1009700000AF0346FB71FB791D2B01D81E23FB71D1
:10098000FB79282B01D92823FB718120FFF73CFF3D
:10099000FB79DB43DBB203F03F03DBB21846FFF722
:1009A00033FFFB7918460837BD4680BD80B500AFE0
:1009B000A620FFF729FF00BF80BD000080B500AF73
:1009C000FFF772FF00224021104801F04BFBA020EE
:1009D000FFF71AFFFFF7EAFFC820FFF715FFA22075
:1009E000FFF712FF2F20FFF70FFFF820FFF70CFF94
:1009F0000020FFF709FF2120FFF706FF1E20FFF769
:100A0000B5FFFFF7ACFF0023184680BD0008004883
:100A1000B0B584B000AF7860396000F0F5FE00201A
:100A200000F038FF002000F047FF642000F0FCFFDA
:100A3000012000F0DBF8032000F0D8F800F057FDAB
:100A400000F079FB00F062FB7023FB7207F10B03EF
:100A500001221946072000F0F2FA0B23BB7207F1BE
:100A60000A0301221946002000F0E9FA7B681A788F
:100A70005C4B1A707B685A785A4B5A707B689A782C
:100A8000584B9A707B68DA78564BDA707B681A7923
:100A9000544B1A717B685A79524B5A717B689A7918
:100AA000504B9A717B68DA794E4BDA717B681A7A0F
:100AB0004C4B1A727B685A7A4A4B5A727B689A7A04
:100AC000484B9A727B68DA7A464BDA727B681A7BFB
:100AD000444B1A737B685A7B424B5A730023FB606A
:100AE00019E0FA6813465B001344DB001A463B68C2
:100AF00098183D49FA6813465B001344DB000B4429
:100B00001C4605460FCD0FC495E8030084E803009A
:100B1000FB680133FB60FB68052BE2DD314BDB7AC0
:100B2000184600F0F6FD2F4B1B7B184600F01AFE0E
:100B30002C4B5B7B184600F03EFE2A4B1B79184677
:100B400000F027FC274B5B79184600F03DFC254B55
:100B5000DB79184600F068FC0023FB603AE0FB6894
:100B6000D8B22149FA6813465B001344DB000B44FA
:100B70001B78194600F0D3FBFB68D8B21A49FA6813
:100B800013465B001344DB000B4401331B7819460A
:100B900000F08BFBFB68D8B21349FA6813465B0080
:100BA0001344DB000B4411331B78194600F077FD2A
:100BB000FB68D8B20C49FA6813465B001344DB00AB
:100BC0000B44083318CB1A46234600F0BAFCFB68E6
:100BD0000133FB60FB68052BC1DD00BF1037BD464C
:100BE000B0BD00BF8C7F0020A87F002080B582B000
:100BF00000AF0346FB71FB79013B032B4ED801A2EA
:100C000052F823F0150C0008270C00084B0C0008C4
:100C1000710C000800F00AFB002000F03BFE214BA5
:100C200001221A703AE01F4B1B78012B06D100F00D
:100C3000E8FA41F2941000F003FF02E0002000F017
:100C400029FE184B02221A7028E0164B1B78032B42
:100C500021D0002000F01EFE00F0FDFA012000F07F
:100C600019FE822000F0ECFE0E4B03221A7012E0F7
:100C70000C4B1B78042B10D0002000F00BFE00F072
:100C8000FFFA012000F006FE822000F0D9FE054B9D
:100C900004221A7001E000BF00E000BF00BF083767
:100CA000BD4680BD887F002080B500AF00F011FCFC
:100CB0000346002B07D100F0D4FC034683F0010368
:100CC000DBB2002B06D000F021FC0346072B01D03D
:100CD000012300E0002303F00103DBB2184680BDCE
:100CE00080B500AF00F0CCFC0346002B14BF0123FD
:100CF0000023DBB283F00103DBB203F00103DBB2BC
:100D0000184680BD90B583B000AF78607B6818CB83
:100D10001846214600F05DFC7B685B7A002B08D00A
:100D20007B68DA687B681B691946104600F0CFF9CA
:100D30000BE0084B5B7B002B07D07B68DA687B6895
:100D40001B691946104600F027FA00BF18460C37F9
:100D5000BD4690BD8C7F002080B584B000AF786028
:100D600000F0D4FB03461A467B681A727B681B7A34
:100D7000052B24D8144BDB7A002B06D000F0F0F9B9
:100D800003461A467B681A6108E07B681B7A18469E
:100D900000F051FC03461A467B681A617B681B69A8
:100DA000202B0AD87B68DA687B681B6919461046D5
:100DB00000F06EF90123FB7301E00023FB73FB7B62
:100DC00018461037BD4680BD8C7F002090B585B099
:100DD00000AF78605C4B1B78BB730220FFF706FF07
:100DE0007B6893E80600594B18CBA24208BF994292
:100DF0000AD07B6818CB1846214600F0EAFB7B68D6
:100E000018CB524A82E818007B685B7A002B6FD0BF
:100E10004F4B5B7883F00103DBB2002B03D0012141
:100E2000002000F042FA4A4B1B7883F00103DBB24A
:100E3000002B03D00121002000F071FA7B6818CB51
:100E40001A462346002000F07CFB7868FFF75AFF23
:100E500000F030FBFFF744FF0346002B25D000F0E5
:100E600029FB0420FFF7C2FE0220FFF7BFFE00F0BF
:100E700013FB0346002B02D00123FB7315E000F0A7
:100E8000EEFA0346002BECD000F0F7FA00F049FB35
:100E900003461A467B681B7D9A42E2D32D4B9B7911
:100EA000184600F0B0FA0023FB73BB7B1846FFF72F
:100EB0009DFE274BD3E902341A462346002000F05A
:100EC00040FB234B5B7883F00103DBB2002B03D0A4
:100ED0000021002000F0E9F91D4B1B7883F001038D
:100EE000DBB2002B28D00021002000F018FA23E00C
:100EF0007B6818CB1846214600F06BFB7868FFF73B
:100F000001FF114B1B787B73FFF7EAFE0346002BB2
:100F10000ED000F0CFFA0420FFF768FE0220FFF7A2
:100F200065FE00F0B9FA0346002BF4D00123FB73F1
:100F30007B7B1846FFF75AFE00F0E8F8FB7B18466B
:100F40001437BD4690BD00BF887F0020A07F0020E1
:100F5000A87F00208C7F002080B584B000AF0346BE
:100F6000FB71002000F0A8FCFB7903F01F03DBB24B
:100F7000FB7307F10F0107F10F030122184600F080
:100F80003BFD07F10F0107F10F030122184600F0A6
:100F900033FD012000F090FCFB7B18461037BD4666
:100FA00080BD80B586B000AF0346B9607A60FB7340
:100FB000002000F081FCFB7B03F01F03DBB2FB751C
:100FC00007F1170107F117030122184600F014FD7D
:100FD0007B681A46B968B86800F00EFD012000F081
:100FE0006BFC00BF1837BD4680BD80B584B000AF34
:100FF00003460A46FB711346BB71002000F05CFCFF
:1010000097F9073003F01F035BB243F020035BB294
:10101000DBB2FB7307F10F0107F10F030122184642
:1010200000F0EAFCB91DBB1D0122184600F0E4FCEB
:10103000012000F041FC00BF1037BD4680BD80B5E7
:1010400086B000AF0346B9607A60FB73002000F001
:1010500033FC97F90F3003F01F035BB243F020031A
:101060005BB2DBB2FB7507F1170107F11703012231
:10107000184600F0C1FC7B681A46B968B86800F0F1
:10108000BBFC012000F018FC00BF1837BD4680BD36
:1010900080B584B000AF78603960002000F00CFCAF
:1010A0006123FB7307F10F0107F10F0301221846BB
:1010B00000F0A2FC3B681A467968786800F09CFC56
:1010C000012000F0F9FB00BF1037BD4680BD80B5A0
:1010D00084B000AF78603960002000F0EDFBA02301
:1010E000FB7307F10F0107F10F030122184600F00F
:1010F00083FC3B681A467968786800F07DFC012023
:1011000000F0DAFB00BF1037BD4680BD80B582B06D
:1011100000AF002000F0D0FBE123FB71F91DFB1DA7
:101120000122184600F068FC012000F0C5FB00BF5A
:101130000837BD4680BD80B582B000AF002000F00A
:10114000BBFBE223FB71F91DFB1D0122184600F0D9
:1011500053FC012000F0B0FB00BF0837BD4680BD46
:1011600080B582B000AF002000F0A6FB6023FB71C9
:10117000F91DFB1D0122184600F03EFCF91DFB1D68
:101180000122184600F038FC012000F095FBFB79A5
:1011900018460837BD4680BD80B584B000AF786082
:1011A0003960002000F088FBB023FB7307F10F01CA
:1011B00007F10F030122184600F01EFC3B681A4697
:1011C0007968786800F018FC012000F075FB00BF1A
:1011D0001037BD4680BD80B582B000AF002000F062
:1011E0006BFBFF23FB71F91DFB1D0122184600F06C
:1011F00003FC012000F060FBFB7918460837BD4670
:1012000080BD80B582B000AF0020FFF7A5FE034689
:10121000FB71FB7943F00203FB71FB791946002057
:10122000FFF7E3FE00BF0837BD4680BD80B582B042
:1012300000AF0020FFF790FE0346FB71FB7923F01F
:101240000203FB71FB7919460020FFF7CEFE00BFB9
:101250000837BD4680BD80B582B000AF0020FFF7E3
:101260007BFE0346FB71FB7943F00103FB71FB79C5
:1012700019460020FFF7B9FE00BF0837BD4680BD04
:1012800080B582B000AF0020FFF766FE0346FB7119
:10129000FB7923F00103FB71FB7919460020FFF76E
:1012A000A4FE00BF0837BD4680BD80B584B000AF46
:1012B00003460A46FB711346BB71BB79002B14D061
:1012C0000120FFF749FE0346FB73FB79012202FA76
:1012D00003F35AB297F90F3013435BB2FB73FB7BF6
:1012E00019460120FFF781FE15E00120FFF734FECB
:1012F0000346BB73FB79012202FA03F35BB2DB43C3
:101300005AB297F90E3013405BB2BB73BB7B1946E0
:101310000120FFF76AFE00BF1037BD4680BD80B5D3
:1013200084B000AF03460A46FB711346BB71BB791C
:10133000002B14D00220FFF70FFE0346FB73FB794E
:10134000012202FA03F35AB297F90F3013435BB24A
:10135000FB73FB7B19460220FFF747FE15E00220D6
:10136000FFF7FAFD0346BB73FB79012202FA03F390
:101370005BB2DB435AB297F90E3013405BB2BB73DA
:10138000BB7B19460220FFF730FE00BF1037BD4679
:1013900080BD80B584B000AF0346FB710420FFF729
:1013A000DBFD0346FB73FB7B23F00F03FB73FA7B30
:1013B000FB791343FB73FB7B19460420FFF715FEF3
:1013C00000BF1037BD4680BD80B584B000AF034676
:1013D000FB710420FFF7C0FD0346FB73FB7B03F0AA
:1013E0000F03FB73FB791B015AB297F90F301343BC
:1013F0005BB2FB73FB7B19460420FFF7F6FD00BFD1
:101400001037BD4680BD80B582B000AF0346FB718A
:10141000FB797D2B04D8FB7919460520FFF7E5FD04
:1014200000BF0837BD4680BD80B584B000AF03461D
:10143000FB710620FFF790FD0346FB73FB7B23F057
:101440002803FB73FA7BFB791343FB73FB7B194681
:101450000620FFF7CAFD00BF1037BD4680BD80B52E
:1014600000AFFFF7B8FE034603F01003002B01D0D6
:10147000012300E00023184680BD80B582B000AF94
:101480001023FB71FB1D012219460720FFF7D7FD32
:1014900000BF0837BD4680BD80B500AFFFF79BFE9B
:1014A000034603F02003002B01D0012300E00023BA
:1014B000184680BD80B582B000AF2023FB71FB1DB4
:1014C000012219460720FFF7BAFD00BF0837BD46C5
:1014D00080BD80B500AFFFF77EFE034603F04003FA
:1014E000002B01D0012300E00023184680BD80B509
:1014F00082B000AF4023FB71FB1D0122194607207B
:10150000FFF79DFD00BF0837BD4680BD80B500AF29
:10151000FFF761FE03465B1003F00703DBB21846DA
:1015200080BD80B582B000AFFB1D012219460820A6
:10153000FFF737FDFB791B09DBB218460837BD46BC
:1015400080BDF0B589B000AF0146C7E900230B4666
:10155000FB730023FB61FB7B012B02D80523FB619E
:1015600007E0FB7B012B04D9FB7B052B01D8012372
:10157000FB610023BB611BE0BB69D900D7E90023F5
:10158000C1F12006A1F1200022FA01F403FA06F6C7
:10159000344323FA00F0044323FA01F5E1B207F1E2
:1015A0001002BB6913440A461A70BB690133BB6160
:1015B000BA69FB699A42DFDBFB7B0A33DBB207F1D6
:1015C0001001FA691846FFF73AFD00BF2437BD46FF
:1015D000F0BDF0B587B000AFC7E9000100227A6125
:1015E0001BE07A69D00097E80600C0F12006A0F160
:1015F000200521FA00F302FA06F6334322FA05F534
:101600002B4322FA00F4D8B207F10C017A690A449C
:10161000014611707A6901327A617A69042AE0DD43
:1016200007F10C03052219461020FFF708FD00BF43
:101630001C37BD46F0BD80B584B000AF0346FB71DA
:10164000FB791133DBB207F10F0101221846FFF7D6
:10165000A8FCFB7B03F03F03DBB218461037BD4606
:1016600080BD80B500AF1720FFF776FC034603F07E
:101670000103002B01D0012300E00023184680BDA8
:1016800080B500AF1720FFF767FC034603F0200387
:10169000002B01D0012300E00023184680BD80B557
:1016A00084B000AF03460A46FB711346BB71BB7999
:1016B000002B14D01C20FFF74FFC0346FB73FB7973
:1016C000012202FA03F35AB297F90F3013435BB2C7
:1016D000FB73FB7B19461C20FFF787FC15E01C20E1
:1016E000FFF73AFC0346BB73FB79012202FA03F3CE
:1016F0005BB2DB435AB297F90E3013405BB2BB7357
:10170000BB7B19461C20FFF770FC00BF1037BD469D
:1017100080BD80B584B000AF0346FB71FB79002B20
:101720000ED01D20FFF718FC0346FB73FB7B43F034
:101730000403FB73FB7B19461D20FFF756FC0DE0ED
:101740001D20FFF709FC0346BB73BB7B23F004039A
:10175000BB73BB7B19461D20FFF747FC00BF10374A
:10176000BD4680BD80B584B000AF0346FB71FB79F8
:10177000002B0ED01D20FFF7EFFB0346FB73FB7B16
:1017800043F00203FB73FB7B19461D20FFF72DFC82
:101790000DE01D20FFF7E0FB0346BB73BB7B23F08E
:1017A0000203BB73BB7B19461D20FFF71EFC00BF65
:1017B0001037BD4680BD80B584B000AF0346FB71D5
:1017C000FB79002B0ED01D20FFF7C6FB0346FB73F1
:1017D000FB7B43F00103FB73FB7B19461D20FFF7E6
:1017E00004FC0DE01D20FFF7B7FB0346BB73BB7B7A
:1017F00023F00103BB73BB7B19461D20FFF7F5FBEC
:1018000000BF1037BD4680BD80B582B000AF00F08C
:1018100065F80C4A0B4BDB6C43F00403D364094BB3
:10182000DB6C03F004037B607B68074802F0ACFCD0
:1018300000F00CF800F016F800F020F800BF0837B0
:10184000BD4680BD001002406400002080B500AF9E
:101850000249034800F070FA00BF80BD000000207C
:101860000008004880B500AF0249034800F064FA60
:1018700000BF80BD140000200008004880B500AF04
:101880000249034800F058FA00BF80BD280000203C
:101890000008004880B582B000AF0346FB71FB79B9
:1018A0001A464FF48071034800F0DCFB00BF083794
:1018B000BD4680BD0008004880B582B000AF034639
:1018C000FB71FB791A464FF40071034800F0CAFB24
:1018D00000BF0837BD4680BD0008004880B58AB00B
:1018E00000AF414B414A1A603F4B3822DA613E4B10
:1018F00000229A603C4B00225A613B4B00221A6145
:10190000394B4FF4E062DA60374B00221A62364BF3
:1019100000225A62344B00229A62334B0722DA6269
:10192000314B4FF400729A612F4B4FF482725A6020
:101930002F4A2F4BDB6C43F00403D3642C4BDB6C3E
:1019400003F004033B613B69294A294BDB6C43F0FC
:101950000403D364264BDB6C03F00403FB60FB68D9
:10196000234A234BDB6C43F00403D364204BDB6C32
:1019700003F00403BB60BB681D4A1D4B9B6D43F421
:10198000004393651A4B9B6D03F400437B607B68B7
:101990004FF480637B610223BB610223FB6102235E
:1019A0003B6206237B6207F114031946114800F0DD
:1019B000C3F94FF400637B6106237B6207F11403D4
:1019C00019460C4800F0B8F94FF480537B610623A8
:1019D0007B6207F114031946064800F0ADF900BF19
:1019E0002837BD4680BD00BF64000020003C004099
:1019F000001002400008004880B586B002AFF860D1
:101A0000B9607A607B689AB24FF47A730093134698
:101A1000BA68F968034802F095FD03461846103786
:101A2000BD4680BD6400002080B582B000AF786004
:101A3000786800F05FF800BF0837BD4680BD000041
:101A400080B584B000AF78607B68074AA2FB0323AF
:101A50009B09FB60FB680133184600F04BF800BFA0
:101A60001037BD4680BD00BFD34D621080B500AFBA
:101A7000032000F01FF9002000F006F805F036FF03
:101A80000023184680BD000080B582B000AF7860AA
:101A9000094B1B68094AA2FB03239B09184600F067
:101AA0003EF9002279684FF0FF3000F00EF9002374
:101AB00018460837BD4680BD44000020D34D621053
:101AC00080B400AF044B1B680133034A136000BFAE
:101AD000BD465DF8047B70473880002080B400AFBD
:101AE000034B1B681846BD465DF8047B704700BF7A
:101AF0003880002080B584B000AF78600023FB60A0
:101B0000FFF7ECFFF86000BFFFF7E8FF0246FB6855
:101B1000D21A7B689A42F7D300BF1037BD4680BD0A
:101B200080B485B000AF78607B6803F00703FB608A
:101B30000C4BDB68BB60BA684FF6FF031340BB6019
:101B4000FB681A02BB68134343F0BF6343F40033DE
:101B5000BB60044ABB68D36000BF1437BD465DF864
:101B6000047B704700ED00E080B400AF044BDB68FD
:101B70001B0A03F007031846BD465DF8047B704757
:101B800000ED00E080B483B000AF0346FB7109496B
:101B900097F907305B09FA7902F01F02012000FA79
:101BA00002F241F8232000BF0C37BD465DF8047BEC
:101BB000704700BF00E100E080B483B000AF03468F
:101BC0003960FB7197F90730002B0BDA0D49FB796F
:101BD00003F00F03043B3A68D2B21201D2B20B44B5
:101BE0001A7609E0084997F907303A68D2B212012B
:101BF000D2B20B4483F8002300BF0C37BD465DF81A
:101C0000047B704700ED00E000E100E080B489B0A3
:101C100000AFF860B9607A60FB6803F00703FB610E
:101C2000FB69C3F10703042B28BF0423BB61FB69D5
:101C30000433062B02D9FB69033B00E000237B61E0
:101C40000122BB6902FA03F35A1EBB681A407B6982
:101C50009A4001217B6901FA03F3591E7B680B400E
:101C6000134318462437BD465DF8047B70470000D7
:101C700080B582B000AF78607B68013BB3F1807FB4
:101C800001D301230FE00A4A7B68013B53600F2117
:101C90004FF0FF30FFF790FF054B00229A60044B96
:101CA00007221A60002318460837BD4680BD00BFD2
:101CB00010E000E080B582B000AF78607868FFF790
:101CC0002FFF00BF0837BD4680BD80B586B000AF8E
:101CD0000346B9607A60FB7300237B61FFF744FF22
:101CE00078617A68B9687869FFF790FF024697F9DA
:101CF0000F3011461846FFF75FFF00BF1837BD468B
:101D000080BD80B582B000AF0346FB7197F9073004
:101D10001846FFF737FF00BF0837BD4680BD80B5C6
:101D200082B000AF78607868FFF7A2FF03461846DC
:101D30000837BD4680BD000080B487B000AF786032
:101D4000396000237B610023FB6000233B6154E189
:101D50003B681A6801217B6901FA03F31340FB60B9
:101D6000FB68002B00F046813B685B68022B03D0C8
:101D70003B685B68122B23D17B69DA087B680832E9
:101D800053F822303B617B6903F007039B000F226D
:101D900002FA03F3DB433A6913403B613B681A697B
:101DA0007B6903F007039B0002FA03F33A691343CC
:101DB0003B617B69DA087B680832396943F8221095
:101DC0007B681B683B617B695B00032202FA03F3BB
:101DD000DB433A6913403B613B685B6803F00302F5
:101DE0007B695B0002FA03F33A6913433B617B684A
:101DF0003A691A603B685B68012B0BD03B685B68F3
:101E0000022B07D03B685B68112B03D03B685B68F3
:101E1000122B30D17B689B683B617B695B0003229E
:101E200002FA03F3DB433A6913403B613B68DA682B
:101E30007B695B0002FA03F33A6913433B617B68F9
:101E40003A699A607B685B683B6101227B6902FAB0
:101E500003F3DB433A6913403B613B685B681B0952
:101E600003F001027B6902FA03F33A6913433B6111
:101E70007B683A695A607B68DB683B617B695B0021
:101E8000032202FA03F3DB433A6913403B613B68E8
:101E90009A687B695B0002FA03F33A6913433B617A
:101EA0007B683A69DA603B685B6803F08053002B1B
:101EB00000F0A080584A584B1B6E43F00103136694
:101EC000554B1B6E03F00103BB60BB68534A7B6933
:101ED0009B08023352F823303B617B6903F0030314
:101EE0009B000F2202FA03F3DB433A6913403B6184
:101EF0007B68B3F1904F19D07B68494A934213D065
:101F00007B68484A93420DD07B68474A934207D08A
:101F10007B68464A934201D1042308E0072306E088
:101F2000032304E0022302E0012300E000237A6996
:101F300002F00302920093403A6913433B61374930
:101F40007B699B0802333A6941F82320384B1B68B0
:101F50003B61FB68DB433A6913403B613B685B686C
:101F600003F48033002B03D03A69FB6813433B61D1
:101F70002F4A3B6913602E4B5B683B61FB68DB4378
:101F80003A6913403B613B685B6803F40033002B04
:101F900003D03A69FB6813433B61254A3B695360B0
:101FA000234B9B683B61FB68DB433A6913403B6111
:101FB0003B685B6803F48013002B03D03A69FB682D
:101FC00013433B611A4A3B699360194BDB683B61E1
:101FD000FB68DB433A6913403B613B685B6803F491
:101FE0000013002B03D03A69FB6813433B61104A8E
:101FF0003B69D3607B6901337B613B681A687B690D
:1020000022FA03F3002B7FF4A3AE00BF1C37BD46BA
:102010005DF8047B704700BF0010024000000140E3
:102020000004004800080048000C00480010004868
:102030000004014080B485B000AF78600B467B801F
:102040007B681A697B881340002B02D00123FB7345
:1020500001E00023FB73FB7B18461437BD465DF897
:10206000047B704780B483B000AF78600B467B8000
:1020700013467B707B78002B03D07A887B689A614B
:1020800002E07A887B689A6200BF0C37BD465DF833
:10209000047B704780B582B000AF78607B68002B0E
:1020A00001D1012380E07B6893F84130DBB2002B43
:1020B00006D17B68002283F84020786805F040FC58
:1020C0007B68242283F841207B681B687A68126849
:1020D000126822F001021A607B681B687A685268F5
:1020E00022F070621A617B681B687A6812689268D5
:1020F00022F400429A607B68DB68012B07D17B6881
:102100001B687A68926842F400429A6006E07B6835
:102110001B687A68926842F404429A607B68DB68C4
:10212000022B04D17B681B684FF400625A607B6805
:102130001A687B681B685B6843F0007343F40043D4
:1021400053607B681B687A681268D26822F4004288
:10215000DA607B681B687A6811697A685269114392
:102160007A68926912020A43DA607B681B687A68AF
:10217000D1697A68126A0A431A607B681B687A68B8
:102180001268126842F001021A607B6800225A64E9
:102190007B68202283F841207B6800221A637B68D9
:1021A000002283F84220002318460837BD4680BD30
:1021B00080B588B002AFF8607A601A460B467B8122
:1021C00013463B8100237B61FB6893F84130DBB20F
:1021D000202B40F0E680FB6893F84030012B01D1C2
:1021E0000223DFE0FB68012283F84020FFF776FC42
:1021F00078617B690093192301224FF40041F8684C
:1022000000F0DAFA0346002B01D00323CAE0FB6892
:10221000212283F84120FB68102283F84220FB68CA
:1022200000225A64FB687A685A62FB683A895A85C8
:10223000FB6800225A63FB685B8D9BB2FF2B0FD9B2
:10224000FB68FF221A85FB681B8DDAB279894FF48F
:10225000005300934FF08073F86800F01FFC71E0AA
:10226000FB685B8D9AB2FB681A85FB681B8DDAB23E
:1022700079894FF4005300934FF00073F86800F031
:102280000DFC5FE07A69396AF86800F0CFFA03461E
:10229000002B07D0FB685B6C042B01D1012381E08C
:1022A00003237FE0FB681A68FB685B6A581CF968C7
:1022B00048621B789362FB685B8D9BB2013B9AB2CC
:1022C000FB685A85FB681B8D013B9AB2FB681A8537
:1022D000FB681B8D002B35D1FB685B8D9BB2002BFF
:1022E00030D07B6900933B6A00228021F86800F0BF
:1022F00063FA0346002B01D0032353E0FB685B8D98
:102300009BB2FF2B0ED9FB68FF221A85FB681B8D41
:10231000DAB27989002300934FF08073F86800F0F7
:10232000BDFB0FE0FB685B8D9AB2FB681A85FB680A
:102330001B8DDAB27989002300934FF00073F8689F
:1023400000F0ACFBFB685B8D9BB2002B9AD17A69E5
:10235000396AF86800F0AAFA0346002B07D0FB6838
:102360005B6C042B01D101231CE003231AE0FB6802
:102370001B682022DA61FB681A68FB681B685968D1
:102380000A4B0B405360FB68202283F84120FB6816
:10239000002283F84220FB68002283F840200023BB
:1023A00000E0022318461837BD4680BD00E800FE55
:1023B00080B588B002AFF8607A601A460B467B8120
:1023C00013463B8100237B61FB6893F84130DBB20D
:1023D000202B40F0E780FB6893F84030012B01D1BF
:1023E0000223E0E0FB68012283F84020FFF776FB40
:1023F00078617B690093192301224FF40041F8684A
:1024000000F0DAF90346002B01D00323CBE0FB6890
:10241000222283F84120FB68102283F84220FB68C7
:1024200000225A64FB687A685A62FB683A895A85C6
:10243000FB6800225A63FB685B8D9BB2FF2B0FD9B0
:10244000FB68FF221A85FB681B8DDAB279894FF48D
:10245000105300934FF08073F86800F01FFB72E098
:10246000FB685B8D9AB2FB681A85FB681B8DDAB23C
:1024700079894FF4105300934FF00073F86800F01F
:102480000DFB60E07A69396AF86800F04BFA0346A0
:10249000002B07D0FB685B6C042B01D1012382E089
:1024A000032380E0FB685B6A591CFA685162FA6892
:1024B0001268526AD2B21A70FB681B8D013B9AB245
:1024C000FB681A85FB685B8D9BB2013B9AB2FB6887
:1024D0005A85FB681B8D002B35D1FB685B8D9BB249
:1024E000002B30D07B6900933B6A00228021F86882
:1024F00000F062F90346002B01D0032353E0FB6890
:102500005B8D9BB2FF2B0ED9FB68FF221A85FB68FF
:102510001B8DDAB27989002300934FF08073F8683D
:1025200000F0BCFA0FE0FB685B8D9AB2FB681A857D
:10253000FB681B8DDAB27989002300934FF000739A
:10254000F86800F0ABFAFB685B8D9BB2002B99D169
:102550007A69396AF86800F0A9F90346002B07D0B8
:10256000FB685B6C042B01D101231CE003231AE000
:10257000FB681B682022DA61FB681A68FB681B682D
:1025800059680B4B0B405360FB68202283F84120B5
:10259000FB68002283F84220FB68002283F8402079
:1025A000002300E0022318461837BD4680BD00BF57
:1025B00000E800FE80B588B002AFF8607A603B604A
:1025C0000B467B8100237B6100233B61FB6893F812
:1025D0004130DBB2202B40F0C680FB681B689B6952
:1025E00003F40043B3F5004F01D10223BCE0FB68C4
:1025F00093F84030012B01D10223B5E0FB680122A2
:1026000083F84020FB68242283F84120FB680022E5
:102610005A64FB681A68FB68DB68012B07D17B8969
:10262000C3F3090343F0007343F4005304E07B89D0
:10263000C3F3090343F420535360FFF74FFA786163
:1026400018E03B68B3F1FF3F14D03B68002B07D084
:10265000FFF744FA02467B69D21A3B689A4209D9CD
:10266000FB68202283F84120FB68002283F8402089
:10267000032379E0FB681B689B6903F02003202B90
:102680000CD0FB681B689B6903F01003102B05D06E
:10269000FB6893F84130DBB2A02BD2D1FB681B68FA
:1026A0009B6903F01003102B1AD07B6900933B68E1
:1026B00000222021F86800F07FF80346002B01D0AB
:1026C000032351E0FB681B682022DA61FB682022AB
:1026D00083F84120FB68002283F84020002343E078
:1026E0007B6900933B6800222021F86800F064F8C1
:1026F0000346002B01D0032336E0FB681B68102241
:10270000DA61FB681B682022DA613B695A1C3A6176
:102710007A68934218D1FB681B68FA68126852689D
:1027200042F480425A607B6900933B68002220217A
:10273000F86800F041F80346002B01D0032313E0B2
:10274000FB681B682022DA613A697B689A42FFF4D1
:1027500060AFFB68202283F84120FB68002283F8E9
:102760004020032300E0022318461837BD4680BDF1
:1027700080B483B000AF78607B681B689B6903F00E
:102780000203022B03D17B681B6800229A627B68DC
:102790001B689B6903F00103012B07D07B681B6852
:1027A0007A681268926942F001029A6100BF0C37A0
:1027B000BD465DF8047B704780B584B000AFF8601B
:1027C000B9603B601346FB711CE03B68B3F1FF3F0F
:1027D00018D03B68002B07D0FFF780F90246BB6991
:1027E000D21A3B689A420DD9FB68202283F8412017
:1027F000FB68002283F84220FB68002283F8402017
:1028000003230FE0FB681B689A69BB681A40BB682A
:102810009A420CBF01230023DBB21A46FB799A428D
:10282000D3D0002318461037BD4680BD80B584B094
:1028300000AFF860B9607A602CE07A68B968F8682F
:1028400000F0CEF80346002B01D001232AE0BB683C
:10285000B3F1FF3F1ED0BB68002B07D0FFF73EF956
:1028600002467B68D21ABB689A4213D9FB685B6C3C
:1028700043F02002FB685A64FB68202283F8412061
:10288000FB68002283F84220FB68002283F8402086
:10289000032307E0FB681B689B6903F00203022B1C
:1028A000CBD1002318461037BD4680BD80B584B01B
:1028B00000AFF860B9607A6028E07A68B968F868B3
:1028C00000F08EF80346002B01D0012326E0BB6800
:1028D000002B07D0FFF702F902467B68D21ABB68CB
:1028E0009A4213D9FB685B6C43F02002FB685A6480
:1028F000FB68202283F84120FB68002283F84220F5
:10290000FB68002283F84020032307E0FB681B6874
:102910009B6903F02003202BCFD1002318461037EA
:10292000BD4680BD80B584B000AFF860B9607A6004
:1029300048E07A68B968F86800F052F80346002B5E
:1029400001D0012346E0FB681B689B6903F020036C
:10295000202B1CD1FB681B682022DA61FB681A68F7
:10296000FB681B6859681D4B0B405360FB680022D5
:102970005A64FB68202283F84120FB68002283F818
:102980004220FB68002283F84020012322E0BB683C
:10299000002B07D0FFF7A2F802467B68D21ABB686B
:1029A0009A420FD9FB685B6C43F02002FB685A64C3
:1029B000FB68202283F84120FB68002283F8402036
:1029C000032307E0FB681B689B6903F00403042BE7
:1029D000AFD1002318461037BD4680BD00E800FE89
:1029E00080B584B000AFF860B9607A60FB681B689E
:1029F0009B6903F01003102B48D11CE0BB68B3F1B6
:102A0000FF3F18D0BB68002B07D0FFF767F80246DE
:102A10007B68D21ABB689A420DD9FB68202283F8E2
:102A20004120FB68002283F84220FB68002283F8E3
:102A3000402003232BE0FB681B689B6903F0200305
:102A4000202BDBD1FB681B681022DA61FB681B6856
:102A50002022DA61F868FFF78BFEFB681A68FB68D2
:102A60001B6859680C4B0B405360FB6804225A6486
:102A7000FB68202283F84120FB68002283F8422073
:102A8000FB68002283F84020012300E00023184661
:102A90001037BD4680BD00BF00E800FE80B487B09F
:102AA00000AFF8607B600B467B8113467B7200238E
:102AB0007B61FB681B685B687B617A690D4B134027
:102AC0007B617B89C3F309027B7A1B0403F47F03D8
:102AD0001A437B681A433B6A13437A6913437B6149
:102AE000FB681B687A695A6000BF1C37BD465DF8F9
:102AF000047B7047009800FC80B483B000AF78601E
:102B000039607B6893F84130DBB2202B38D17B6889
:102B100093F84030012B01D1022332E07B6801227F
:102B200083F840207B68242283F841207B681B685F
:102B30007A681268126822F001021A607B681B68CA
:102B40007A681268126822F480521A607B681B68E7
:102B50007A68126811683A680A431A607B681B68D1
:102B60007A681268126842F001021A607B682022BB
:102B700083F841207B68002283F84020002300E096
:102B8000022318460C37BD465DF8047B704780B4BD
:102B900085B000AF786039600023FB607B6893F8F4
:102BA0004130DBB2202B39D17B6893F84030012BC8
:102BB00001D1022333E07B68012283F840207B6847
:102BC000242283F841207B681B687A6812681268A7
:102BD00022F001021A607B681B681B68FB60FB68BF
:102BE00023F47063FB603B681B02FA681343FB60CD
:102BF0007B681B68FA681A607B681B687A681268D1
:102C0000126842F001021A607B68202283F841209A
:102C10007B68002283F84020002300E0022318464E
:102C20001437BD465DF8047B7047000080B400AFE8
:102C3000054A054B1B6843F48073136000BFBD4613
:102C40005DF8047B704700BF0070004080B400AFA7
:102C5000044B1B6803F4C0631846BD465DF8047B53
:102C6000704700BF0070004080B485B000AF78604E
:102C70000023FB607B68B3F5007F2FD1224B1B68DC
:102C800003F4C063B3F5007F37D01F4A1E4B1B68A7
:102C900023F4C06343F4007313601C4B1B681C4A8D
:102CA000A2FB03239B0C322202FB03F3FB6002E036
:102CB000FB68013BFB60FB68002B06D0124B5B6995
:102CC00003F48063B3F5806FF2D00F4B5B6903F4BC
:102CD0008063B3F5806F10D103230FE00A4B1B68AC
:102CE00003F4C063B3F5806F07D0074A064B1B6837
:102CF00023F4C06343F48063136000231846143741
:102D0000BD465DF8047B7047007000404400002021
:102D100083DE1B4380B58CB000AF78600023BB62BC
:102D20007B681B6803F01003002B00F0DB80A24BD4
:102D30009B6803F00C03002B40F084809E4B1B68C3
:102D400003F00203002B05D07B689B69002B01D1A7
:102D500001239BE37B681A6A974B1B6803F0080307
:102D6000002B04D0944B1B6803F0F00305E0924B5A
:102D7000D3F894301B0903F0F0039A4223D97B68FF
:102D80001B6A184600F0F4FD0346002B01D0012316
:102D90007CE3894A884B1B6843F00803136086492B
:102DA000854B1B6823F0F0027B681B6A13430B60A2
:102DB0008149814B5B6823F47F427B68DB691B029E
:102DC00013434B6022E07C4A7B4B1B6843F00803B3
:102DD00013607949784B1B6823F0F0027B681B6A0B
:102DE00013430B607449744B5B6823F47F427B6828
:102DF000DB691B0213434B607B681B6A184600F0BB
:102E0000B7FD0346002B01D001233FE300F066FC31
:102E10000146694B9B6803F0F002F0237B627B6AFA
:102E200093FAA3F33B623B6AB3FA83F322FA03F308
:102E3000624AD35C21FA03F3614A13600020FEF773
:102E400023FE4FE07B689B69002B32D05A4A5A4BD5
:102E50001B6843F001031360FEF740FEB86208E010
:102E6000FEF73CFE0246BB6AD31A022B01D90323AC
:102E70000CE3514B1B6803F00203002BF0D04E4AC9
:102E80004D4B1B6843F0080313604B494A4B1B68CA
:102E900023F0F0027B681B6A13430B604649464BE4
:102EA0005B6823F47F427B68DB691B0213434B6042
:102EB00018E0414A404B1B6823F001031360FEF702
:102EC0000DFEB86208E0FEF709FE0246BB6AD31A9F
:102ED000022B01D90323D9E2374B1B6803F002030D
:102EE000002BF0D17B681B6803F00103002B7AD024
:102EF000314B9B6803F00C03082B0BD02E4B9B68C7
:102F000003F00C030C2B11D12B4BDB6803F00303F4
:102F1000032B0BD1284B1B6803F40033002B61D02B
:102F20007B685B68002B5DD10123AFE27B685B6847
:102F3000B3F5803F06D1204A1F4B1B6843F4803312
:102F400013601DE07B685B68B3F5A02F0CD11A4AB3
:102F5000194B1B6843F480231360174A164B1B68F8
:102F600043F4803313600BE0134A134B1B6823F4C4
:102F700080331360104A104B1B6823F480231360C6
:102F80007B685B68002B13D0FEF7A8FDB86208E0F1
:102F9000FEF7A4FD0246BB6AD31A642B01D90323B2
:102FA00074E2054B1B6803F40033002BF0D01AE0E9
:102FB000FEF794FDB8620EE0001002401C84000889
:102FC00044000020FEF78AFD0246BB6AD31A642B38
:102FD00001D903235AE2B04B1B6803F40033002BE2
:102FE000F0D100E000BF7B681B6803F00203002BF8
:102FF0007FD0A94B9B6803F00C03042B0BD0A64B8E
:103000009B6803F00C030C2B27D1A34BDB6803F068
:103010000303022B21D1A04B1B6803F48063002B18
:1030200005D07B68DB68002B01D101232EE29A4892
:10303000994B5B6823F0F8527B6819694FF0F8539D
:10304000FB61FB6993FAA3F3BB61BB69B3FA83F33A
:1030500001FA03F3134343604BE07B68DB68002B0A
:103060002ED08D4A8C4B1B6843F480731360FEF79F
:1030700035FDB86208E0FEF731FD0246BB6AD31A9F
:10308000022B01D9032301E2834B1B6803F4806305
:10309000002BF0D08048804B5B6823F0F8527B68AF
:1030A00019694FF0F8537B617B6993FAA3F33B6195
:1030B0003B69B3FA83F301FA03F31343436018E067
:1030C000754A754B1B6823F480731360FEF706FD89
:1030D000B86208E0FEF702FD0246BB6AD31A022B73
:1030E00001D90323D2E16C4B1B6803F48063002BEE
:1030F000F0D17B681B6803F00803002B3CD07B6891
:103100005B69002B1CD0644A634BD3F8943043F0C6
:103110000103C2F89430FEF7E1FCB86208E0FEF764
:10312000DDFC0246BB6AD31A022B01D90323ADE1B1
:10313000594BD3F8943003F00203002BEFD01BE07F
:10314000554A554BD3F8943023F00103C2F894301C
:10315000FEF7C4FCB86208E0FEF7C0FC0246BB6A9A
:10316000D31A022B01D9032390E14B4BD3F89430AF
:1031700003F00203002BEFD17B681B6803F004030C
:10318000002B00F0A980002387F82F30424B9B6D65
:1031900003F08053002B0ED13F4A3F4B9B6D43F011
:1031A000805393653C4B9B6D03F08053FB60FB6841
:1031B000012387F82F30394B1B6803F48073002BF1
:1031C00018D1364A354B1B6843F480731360FEF701
:1031D00085FCB86208E0FEF781FC0246BB6AD31AA0
:1031E000022B01D9032351E12C4B1B6803F480739C
:1031F000002BF0D07B689B68012B08D1264A264B18
:10320000D3F8903043F00103C2F8903024E07B689B
:103210009B68052B10D1204A1F4BD3F8903043F008
:103220000403C2F890301C4A1B4BD3F8903043F093
:103230000103C2F890300FE0174A174BD3F89030D3
:1032400023F00103C2F89030134A134BD3F89030A7
:1032500023F00403C2F890307B689B68002B16D0E3
:10326000FEF73CFCB8620AE0FEF738FC0246BB6A97
:10327000D31A41F28832934201D9032306E1064B67
:10328000D3F8903003F00203002BEDD01AE0FEF7E4
:1032900025FCB8620FE000BF001002400070004043
:1032A000FEF71CFC0246BB6AD31A41F288329342F5
:1032B00001D90323EAE0774BD3F8903003F00203FF
:1032C000002BEDD197F82F30012B05D1714A714BAE
:1032D0009B6D23F0805393657B681B6803F020038C
:1032E000002B3CD07B685B6A002B1CD0694A694B81
:1032F000D3F8983043F00103C2F89830FEF7EEFBA4
:10330000B86208E0FEF7EAFB0246BB6AD31A022B5A
:1033100001D90323BAE05F4BD3F8983003F00203DE
:10332000002BEFD01BE05B4A5A4BD3F8983023F0C8
:103330000103C2F89830FEF7D1FBB86208E0FEF74F
:10334000CDFB0246BB6AD31A022B01D903239DE0B1
:10335000504BD3F8983003F00203002BEFD17B6879
:103360009B6A002B00F091804A4B9B6803F00C0392
:103370000C2B00F088807B689B6A022B55D1454A54
:10338000444B1B6823F080731360FEF7A7FBB86201
:1033900008E0FEF7A3FB0246BB6AD31A022B01D951
:1033A000032373E03B4B1B6803F00073002BF0D149
:1033B00038497B681B6B013B1A017B685B6B1B0206
:1033C0001A437B68DB6A1A437B68DB6B5B08013B53
:1033D0005B051A437B681B6C5B08013B5B061A4369
:1033E0007B689B6BDB061343CB602A4A294B1B6827
:1033F00043F080731360274A264BDB6843F08073E9
:10340000D360FEF76BFBB86208E0FEF767FB02468D
:10341000BB6AD31A022B01D9032337E01D4B1B686B
:1034200003F00073002BF0D02FE01A4A194B1B68F1
:1034300023F080731360174B1B6803F00063002BAD
:1034400005D1144A134BDB6823F00303D360114A00
:10345000104BDB6823F0887323F48033D360FEF7CE
:103460003DFBB86208E0FEF739FB0246BB6AD31A9F
:10347000022B01D9032309E0064B1B6803F00073FC
:10348000002BF0D101E0012300E000231846303783
:10349000BD4680BD0010024080B586B000AF7860A8
:1034A000396000237B61894B1B6803F007023B688E
:1034B0009A4210D28549854B1B6823F007023B686E
:1034C00013430B60814B1B6803F007023B689A4271
:1034D00001D00123F6E07B681B6803F00203002B98
:1034E00008D07B497A4B9B6823F0F0027B689B688D
:1034F00013438B607B681B6803F00103002B00F013
:103500008E807B685B68022B07D1714B1B6803F4CC
:103510000033002B21D10123D4E07B685B68032BAF
:1035200007D16B4B1B6803F00073002B15D10123EF
:10353000C8E07B685B68002B07D1654B1B6803F014
:103540000203002B09D10123BCE0614B1B6803F48B
:103550008063002B01D10123B4E05D495C4B9B6883
:1035600023F003027B685B6813438B60FEF7B6FAB7
:1035700078617B685B68022B12D10AE0FEF7AEFA35
:1035800002467B69D31A41F28832934201D9032360
:1035900098E04F4B9B6803F00C03082BEED13EE004
:1035A0007B685B68032B12D10AE0FEF797FA0246AC
:1035B0007B69D31A41F28832934201D9032381E017
:1035C000434B9B6803F00C030C2BEED127E07B6888
:1035D0005B68002B1DD10AE0FEF780FA02467B698A
:1035E000D31A41F28832934201D903236AE0384B5F
:1035F0009B6803F00C03002BEED110E0FEF76EFA8F
:1036000002467B69D31A41F28832934201D90323DF
:1036100058E02F4B9B6803F00C03042BEED12B4B8F
:103620001B6803F007023B689A4210D92749274BD1
:103630001B6823F007023B6813430B60234B1B6896
:1036400003F007023B689A4201D001233AE07B680D
:103650001B6803F00403002B08D01D491C4B9B681A
:1036600023F4E0627B68DB6813438B607B681B6834
:1036700003F00803002B09D01549154B9B6823F470
:1036800060527B681B69DB0013438B6000F026F8F7
:1036900001460F4B9B6803F0F002F0233B613B694E
:1036A00093FAA3F3FB60FB68B3FA83F322FA03F304
:1036B000084AD35C21FA03F3074A13600020FEF79F
:1036C000E3F9002318461837BD4680BD00200240AC
:1036D000001002401C8400084400002080B495B013
:1036E00000AF0023FB640023BB6400233B64022380
:1036F000FB630223BB6300237B64714B9B6803F075
:103700000C03002B0BD06E4B9B6803F00C030C2BAF
:103710003CD16B4BDB6803F00303012B36D1684BC4
:103720001B6803F00803002B12D1654BD3F89430CB
:1037300003F470624FF470637B637B6B93FAA3F3C3
:103740003B633B6BB3FA83F322FA03F3FB640FE0B2
:103750005B4B1B6803F0F002F023FB62FB6A93FAF9
:10376000A3F3BB62BB6AB3FA83F322FA03F3FB64ED
:10377000544AFB6C52F82330FB64514B9B6803F0B6
:103780000C03002B13D1FB6C7B6410E04C4B9B684B
:1037900003F00C03042B02D14B4B7B6407E0484B36
:1037A0009B6803F00C03082B01D1484B7B64444B0E
:1037B0009B6803F00C030C2B7BD1414BDB6803F0BF
:1037C00003033B643E4BDB6803F0700270237B62B3
:1037D0007B6A93FAA3F33B623B6AB3FA83F322FA60
:1037E00003F30133BB633B6C022B02D0032B18D0D5
:1037F0002FE0354ABB6BB2FBF3F3314AD26802F4D7
:10380000FE414FF4FE42FA61FA6992FAA2F2BA61FD
:10381000BA69B2FA82F221FA02F202FB03F3BB6444
:103820002FE02A4ABB6BB2FBF3F3254AD26802F4BD
:10383000FE414FF4FE427A617A6992FAA2F23A614D
:103840003A69B2FA82F221FA02F202FB03F3BB6494
:1038500017E0FA6CBB6BB2FBF3F3194AD26802F4BF
:10386000FE414FF4FE42FA60FA6892FAA2F2BA60A0
:10387000BA68B2FA82F221FA02F202FB03F3BB64E5
:1038800000BF0F4BDB6803F0C0624FF0C0637B608A
:103890007B6893FAA3F33B603B68B3FA83F322FAA5
:1038A00003F301335B00FB63BA6CFB6BB2FBF3F316
:1038B0007B647B6C18465437BD465DF8047B7047CB
:1038C00000100240348400080024F40000127A0042
:1038D00080B400AF034B1B681846BD465DF8047BFF
:1038E000704700BF4400002080B582B000AFFFF7F2
:1038F000EFFF01460B4B9B6803F4E0624FF4E0637B
:103900007B607B6893FAA3F33B603B68B3FA83F375
:1039100022FA03F3044AD35C21FA03F3184608376A
:10392000BD4680BD001002402C84000880B582B0E6
:1039300000AFFFF7CDFF01460B4B9B6803F46052CD
:103940004FF460537B607B6893FAA3F33B603B6862
:10395000B3FA83F322FA03F3044AD35C21FA03F3A4
:1039600018460837BD4680BD001002402C84000870
:1039700080B586B000AF786000237B6100233B6197
:103980002A4B9B6D03F08053002B03D0FFF75EF9A9
:10399000786114E0254A254B9B6D43F08053936575
:1039A000224B9B6D03F08053FB60FB68FFF74EF9E1
:1039B00078611E4A1D4B9B6D23F0805393657B6994
:1039C000B3F5007F0BD17B68802B19D97B68A02BC6
:1039D00002D902233B6113E001233B6110E07B68C5
:1039E000802B02D903233B610AE07B68802B02D144
:1039F00002233B6104E07B68702B01D101233B6112
:103A00000B490B4B1B6823F007023B6913430B6008
:103A1000074B1B6803F007023B699A4201D0012360
:103A200000E0002318461837BD4680BD0010024054
:103A30000020024080B586B000AF786000237B6133
:103A40000023FB600023FB740023BB747B681B68AE
:103A500003F40063002B2FD07B685B6CB3F5000F81
:103A600005D0B3F5400F15D0002B07D00FE05A4A10
:103A7000594BDB6843F48033D3600CE07B6804333C
:103A80000021184600F02CFA0346FB7403E00123E2
:103A9000FB7400E000BFFB7C002B0BD14E494E4B6A
:103AA000D3F8883023F440027B685B6C1343C1F881
:103AB000883001E0FB7CBB747B681B6803F4003337
:103AC000002B00F0988000237B74434B9B6D03F028
:103AD0008053002B0DD1404A3F4B9B6D43F08053E8
:103AE00093653D4B9B6D03F08053BB60BB68012326
:103AF0007B743A4A394B1B6843F480731360FDF7BB
:103B0000EDFFF86009E0FDF7E9FF0246FB68D31A14
:103B1000022B02D90323FB7405E0304B1B6803F42E
:103B20008073002BEFD0FB7C002B59D12A4BD3F8AC
:103B3000903003F440737B617B69002B1ED07B685F
:103B4000DA6D7B699A4219D0234BD3F8903023F475
:103B500040737B61204A204BD3F8903043F480338C
:103B6000C2F890301C4A1C4BD3F8903023F48033B9
:103B7000C2F89030184A7B69C2F890307B6903F034
:103B80000103002B16D0FDF7A9FFF8600BE0FDF74D
:103B9000A5FF0246FB68D31A41F28832934202D94C
:103BA0000323FB7406E00C4BD3F8903003F00203C0
:103BB000002BECD0FB7C002B0BD10749064BD3F834
:103BC000903023F440727B68DB6D1343C1F8903072
:103BD00008E0FB7CBB7405E0001002400070004070
:103BE000FB7CBB747B7C012B05D18D4A8C4B9B6D80
:103BF00023F0805393657B681B6803F00103002B5F
:103C00000AD08749864BD3F8883023F003027B68BB
:103C10001B6A1343C1F888307B681B6803F00203FA
:103C2000002B0AD07E497E4BD3F8883023F00C025B
:103C30007B685B6A1343C1F888307B681B6803F0BC
:103C40000403002B0AD07649754BD3F8883023F053
:103C500030027B689B6A1343C1F888307B681B681D
:103C600003F02003002B0AD06D496D4BD3F8883048
:103C700023F440627B68DB6A1343C1F888307B68B9
:103C80001B6803F40073002B0AD06549644BD3F81A
:103C9000883023F440227B68DB6B1343C1F8883003
:103CA0007B681B6803F48063002B0AD05C495C4B83
:103CB000D3F8883023F440127B681B6C1343C1F89F
:103CC00088307B681B6803F04003002B0AD05449FE
:103CD000534BD3F8883023F440527B681B6B13435B
:103CE000C1F888307B681B6803F08003002B0AD082
:103CF0004B494B4BD3F8883023F440427B685B6BD5
:103D00001343C1F888307B681B6803F48073002B71
:103D10000AD04349424BD3F8883023F440327B68C1
:103D20009B6B1343C1F888307B681B6803F4005316
:103D3000002B28D03A493A4BD3F8883023F0406220
:103D40007B689B6C1343C1F888307B689B6CB3F134
:103D5000006F06D1324A324BDB6843F48013D360E4
:103D600011E07B689B6CB3F1806F0CD17B680433EE
:103D70000121184600F0B4F80346FB74FB7C002BCD
:103D800001D0FB7CBB747B681B6803F40023002B11
:103D900028D02349224BD3F8883023F040627B6837
:103DA000DB6C1343C1F888307B68DB6CB3F1006FC8
:103DB00006D11B4A1A4BDB6843F48013D36011E031
:103DC0007B68DB6CB3F1806F0CD17B68043301211D
:103DD000184600F085F80346FB74FB7C002B01D0ED
:103DE000FB7CBB747B681B6803F48023002B2BD007
:103DF0000B490B4BD3F8883023F040627B681B6D76
:103E00001343C1F888307B681B6DB3F1006F09D193
:103E1000034A034BDB6843F48013D36014E000BF14
:103E2000001002407B681B6DB3F1806F0CD17B6882
:103E300004330121184600F053F80346FB74FB7C61
:103E4000002B01D0FB7CBB747B681B6803F48043B0
:103E5000002B1CD01949194BD3F8883023F040525D
:103E60007B685B6D1343C1F888307B685B6DB3F191
:103E7000805F0CD17B6804330221184600F030F8D3
:103E80000346FB74FB7C002B01D0FB7CBB747B687E
:103E90001B6803F40043002B0AD00849074BD3F8F2
:103EA000883023F080427B689B6D1343C1F88830D3
:103EB000BB7C18461837BD4680BD00BF00100240CD
:103EC00080B400AF054A054B1B6843F00403136040
:103ED00000BFBD465DF8047B704700BF0010024084
:103EE00090B595B000AF786039600023BB640023C3
:103EF00087F84F30A34BDB6803F00303002B23D07C
:103F0000A04BDB6803F003027B681B689A4217D161
:103F10007B681B68002B13D09A4BDB6803F07002A0
:103F200070237B647B6C93FAA3F33B643B6CB3FA22
:103F300083F322FA03F35A1C7B685B689A4254D0DD
:103F4000012387F84F3050E07B681B68022B0DD0AF
:103F5000032B15D0012B23D18A4B1B6803F00203DE
:103F6000002B21D1012387F84F301DE0854B1B68C2
:103F700003F48063002B19D1012387F84F3015E03B
:103F8000804B1B6803F40033002B11D17D4B1B6861
:103F900003F48023002B0BD1012387F84F3007E077
:103FA000012387F84F3004E000BF02E000BF00E0CB
:103FB00000BF97F84F30002B17D1724C714BDB6864
:103FC00023F073027B6819687B685B68581E702356
:103FD000FB63FB6B93FAA3F3BB63BB6BB3FA83F393
:103FE00000FA03F30B431343E36097F84F30002BC1
:103FF00040F0C180634A634B1B6823F08063136009
:10400000FDF76CFDB8640AE0FDF768FD0246BB6C85
:10401000D31A022B03D9032387F84F3005E0594BFD
:104020001B6803F00063002BEED197F84F30002B94
:1040300040F0A1803B68002B25D1524C514B1B69AD
:1040400023F0784323F4FE437A6891684FF4FE42EC
:10405000FA62FA6A92FAA2F2BA62BA6AB2FA82F220
:1040600091407A68D0684FF078427A637A6B92FA1E
:10407000A2F23A633A6BB2FA82F200FA02F20A430F
:104080001343236151E03B68012B27D13D4C3D4B4D
:104090001B6923F4C00323F4FE437A6891684FF44C
:1040A000FE42FA61FA6992FAA2F2BA61BA69B2FA08
:1040B00082F291407A6812695208501E4FF4C00291
:1040C0007A627A6A92FAA2F23A623A6AB2FA82F2B0
:1040D00000FA02F20A431343236126E0294C294BDC
:1040E0001B6923F0C06323F4FE437A6891684FF4A0
:1040F000FE42FA60FA6892FAA2F2BA60BA68B2FABC
:1041000082F291407A6852695208501E4FF0C062A4
:104110007A617A6992FAA2F23A613A69B2FA82F263
:1041200000FA02F20A4313432361164A154B1B6837
:1041300043F080631360FDF7D1FCB8640AE0FDF73B
:10414000CDFC0246BB6CD31A022B03D9032387F89C
:104150004F3005E00B4B1B6803F00063002BEED0E3
:1041600097F84F30002B06D10649064B1A697B6839
:104170009B6913430B6197F84F3018465437BD467F
:1041800090BD00BF0010024080B584B000AF7860E1
:104190007B68002B01D101237AE07B6800229A62C0
:1041A0007B6893F85D30DBB2002B06D17B68002280
:1041B00083F85C20786803F007FC7B68022283F8B0
:1041C0005D207B681B687A681268126822F04002E2
:1041D0001A607B68DB68B3F5E06F02D90023FB60EF
:1041E00002E04FF48053FB607B68DB68B3F5706FCF
:1041F00007D07B68DB68B3F5E06F02D07B680022F4
:104200009A627B681B6B002B0BD17B68DB68B3F574
:10421000E06F03D97B6802221A6302E07B68012207
:104220001A637B681B687A6851687A6892681143E0
:104230007A68126911437A68526911437A689269FF
:1042400002F4007211437A68D26911437A68126AE3
:1042500011437A68926A0A431A607B681B687A681D
:104260009269120C02F004017A68526A11437A686A
:10427000526B11437A68D2681143FA680A435A6054
:104280007B6800221A667B68012283F85D20002388
:1042900018461037BD4680BD80B588B000AFF860C5
:1042A000B9603B601346FB800023BB610023FB77B2
:1042B000FB6893F85C30012B01D102233EE1FB68DF
:1042C000012283F85C20FDF709FCB861FB6893F8D4
:1042D0005D30DBB2012B02D00223FB7725E1BB6806
:1042E000002B02D0FB88002B02D10123FB771CE1BD
:1042F000FB68032283F85D20FB6800221A66FB68D6
:10430000BA689A63FB68FA889A87FB68FA88DA8742
:10431000FB6800221A64FB680022A3F84420FB68B3
:104320000022A3F84620FB6800221A65FB680022E1
:10433000DA64FB689B68B3F5004F07D1FB681B6824
:10434000FA681268126842F480421A60FB681B68BF
:104350001B6803F04003402B07D0FB681B68FA681A
:104360001268126842F040021A60FB68DB68B3F51D
:10437000E06F47D9FB685B68002B04D0FB68DB8FDC
:104380009BB2012B38D1FB681B68BA681288DA60CF
:10439000BB680233BB60FB68DB8F9BB2013B9AB208
:1043A000FB68DA8728E0FB681B689B6803F0020360
:1043B000022B0FD1FB681B68BA681288DA60BB68F1
:1043C0000233BB60FB68DB8F9BB2013B9AB2FB6898
:1043D000DA8711E03B68002B0BD03B68B3F1FF3F5D
:1043E0000AD0FDF77BFB0246BB69D21A3B689A42B2
:1043F00002D30323FB7798E0FB68DB8F9BB2002B93
:10440000D1D172E0FB685B68002B04D0FB68DB8FC6
:104410009BB2012B64D1FB68DB8F9BB2012B0FD9C0
:10442000FB681B68BA681288DA60BB680233BB603D
:10443000FB68DB8F9BB2023B9AB2FB68DA874FE0E6
:10444000FB681B6803F10C02BB68591CB9601B7840
:104450001370FB68DB8F9BB2013B9AB2FB68DA8773
:104460003EE0FB681B689B6803F00203022B25D12A
:10447000FB68DB8F9BB2012B0FD9FB681B68BA6806
:104480001288DA60BB680233BB60FB68DB8F9BB2CB
:10449000023B9AB2FB68DA8722E0FB681B6803F1F3
:1044A0000C02BB68591CB9601B781370FB68DB8F6A
:1044B0009BB2013B9AB2FB68DA8711E03B68002BA4
:1044C0000BD03B68B3F1FF3F0AD0FDF707FB024674
:1044D000BB69D21A3B689A4202D30323FB7724E0DC
:1044E000FB68DB8F9BB2002BBBD1BA693968F868D7
:1044F00000F001FB0346002B02D0FB6820221A6665
:10450000FB689B68002B0AD100237B61FB681B685A
:10451000DB687B61FB681B689B687B617B69FB6870
:104520001B6E002B01D00123FB77FB68012283F86F
:104530005D20FB68002283F85C20FB7F1846203753
:10454000BD4680BD80B58AB000AFF860B9607A60C2
:104550007B800023FB610023BB6100237B6101237F
:104560007B62002387F82330FB6893F85C30012BD3
:1045700001D10223E1E1FB68012283F85C20FDF711
:10458000ADFA7861FB6893F85D30DBB2FB61FB68E4
:104590005B68BB61FB69012B0ED0BB69B3F5827F01
:1045A00006D1FB689B68002B02D1FB69042B03D06A
:1045B000022387F82330B6E1BB68002B05D07B6867
:1045C000002B02D07B88002B03D1012387F82330F6
:1045D000A9E1FB6893F85D30DBB2042B03D0FB68E4
:1045E000052283F85D20FB6800221A66FB687A6862
:1045F0001A64FB687A88A3F84620FB687A88A3F8D7
:104600004420FB68BA689A63FB687A88DA87FB689B
:104610007A889A87FB680022DA64FB6800221A65B0
:10462000FB68DB68B3F5E06F05D8FB68B3F846308C
:104630009BB2012B08D9FB681B68FA6812685268A4
:1046400022F480525A6007E0FB681B68FA6812681F
:10465000526842F480525A60FB681B681B6803F082
:104660004003402B07D0FB681B68FA681268126889
:1046700042F040021A60FB68DB68B3F5E06F75D961
:10468000FB685B68002B04D0FB68DB8F9BB2012BBF
:1046900060D1FB681B68BA681288DA60BB680233B5
:1046A000BB60FB68DB8F9BB2013B9AB2FB68DA8789
:1046B00050E07B6A002B1CD0FB68DB8F9BB2002B89
:1046C00017D0FB681B689B6803F00203022B10D114
:1046D000FB681B68BA681288DA60BB680233BB608B
:1046E000FB68DB8F9BB2013B9AB2FB68DA87002341
:1046F0007B62FB68B3F846309BB2002B1AD0FB6894
:104700001B689B6803F00103012B13D1FB681B6836
:10471000DB689AB27B681A807B6802337B60FB6837
:10472000B3F846309BB2013B9AB2FB68A3F846202F
:1047300001237B623B6BB3F1FF3F0BD0FDF7CEF95A
:1047400002467B69D21A3B6B9A4203D3032387F854
:104750002330E8E0FB68DB8F9BB2002BA9D1FB681C
:10476000B3F846309BB2002BA3D1CAE0FB685B686C
:10477000002B05D0FB68DB8F9BB2012B40F0B4808F
:10478000FB68DB8F9BB2012B0FD9FB681B68BA68F3
:104790001288DA60BB680233BB60FB68DB8F9BB2B8
:1047A000023B9AB2FB68DA879EE0FB681B6803F164
:1047B0000C02BB68591CB9601B781370FB68DB8F57
:1047C0009BB2013B9AB2FB68DA878DE07B6A002BD3
:1047D00032D0FB68DB8F9BB2002B2DD0FB681B68AF
:1047E0009B6803F00203022B26D1FB68DB8F9BB290
:1047F000012B0FD9FB681B68BA681288DA60BB68A6
:104800000233BB60FB68DB8F9BB2023B9AB2FB6852
:10481000DA870FE0FB681B6803F10C02BB68591CC8
:10482000B9601B781370FB68DB8F9BB2013B9AB2B7
:10483000FB68DA8700237B62FB68B3F846309BB2E3
:10484000002B41D0FB681B689B6803F00103012B20
:104850003AD1FB68B3F846309BB2012B20D9FB68F4
:104860001B68DB689AB27B681A807B6802337B60C6
:10487000FB68B3F846309BB2023B9AB2FB68A3F8E0
:104880004620FB68B3F846309BB2012B1AD8FB6870
:104890001B68FA681268526842F480525A6011E04C
:1048A0007B685A1C7A60FA6812680C321278D2B2AD
:1048B0001A70FB68B3F846309BB2013B9AB2FB68B2
:1048C000A3F8462001237B623B6BB3F1FF3F0BD083
:1048D000FDF704F902467B69D21A3B6B9A4203D377
:1048E000032387F823301EE0FB68DB8F9BB2002B8D
:1048F0007FF46CAFFB68B3F846309BB2002B7FF4BB
:1049000065AF7A69396BF86800F0F5F80346002B5B
:1049100002D0FB6820221A66FB681B6E002B02D0B7
:10492000012387F82330FB68012283F85D20FB68B0
:10493000002283F85C2097F8233018462837BD46BC
:1049400080BD80B584B000AFF860B9607A603B602C
:104950004DE03B68B3F1FF3F49D03B68002B07D0E7
:10496000FDF7BCF80246BB69D21A3B689A423ED3B7
:10497000FB681B68FA681268526822F0E0025A600D
:10498000FB685B68B3F5827F11D1FB689B68B3F568
:10499000004F04D0FB689B68B3F5806F07D1FB68BC
:1049A0001B68FA681268126822F040021A60FB68FD
:1049B0009B6AB3F5005F10D1FB681A68FB681B683F
:1049C00019684DF6FF730B401360FB681B68FA68AB
:1049D0001268126842F400521A60FB68012283F8E0
:1049E0005D20FB68002283F85C2003230EE0FB6857
:1049F0001B689A68BB681A40BB689A4201D10122C1
:104A000000E000227B689A42A3D1002318461037A9
:104A1000BD4680BD80B586B000AFF860B9607A60F1
:104A20003B605BE0BB68B3F5C06F09D17B68002BCE
:104A300006D1FB681B680C331B78DBB2FB75FB7D72
:104A40003B68B3F1FF3F49D03B68002B07D0FDF72F
:104A500045F802463B6AD21A3B689A423ED3FB684D
:104A60001B68FA681268526822F0E0025A60FB681C
:104A70005B68B3F5827F11D1FB689B68B3F5004F8B
:104A800004D0FB689B68B3F5806F07D1FB681B6897
:104A9000FA681268126822F040021A60FB689B6A8A
:104AA000B3F5005F10D1FB681A68FB681B681968D2
:104AB0004DF6FF730B401360FB681B68FA681268C1
:104AC000126842F400521A60FB68012283F85D20EC
:104AD000FB68002283F85C20032308E0FB681B6866
:104AE0009A68BB681A407B689A429BD1002318469B
:104AF0001837BD4680BD80B586B002AFF860B9609A
:104B00007A607B680093BB6800224FF4C051F8685C
:104B1000FFF780FF0346002B07D0FB681B6E43F0B6
:104B20002002FB681A66032313E07B680093BB68CE
:104B300000228021F868FFF704FF0346002B07D00E
:104B4000FB681B6E43F02002FB681A66032300E03B
:104B5000002318461037BD4680BD80B582B000AF37
:104B600078607B68002B01D1012343E07B6893F8D8
:104B70006930DBB2002B06D17B68002283F8682005
:104B8000786802F0A1FF7B68242283F869207B68A3
:104B90001B687A681268126822F001021A6078684D
:104BA00000F07CF90346012B01D1012322E07B6850
:104BB0005B6A002B02D0786800F03EFC7B681B68C3
:104BC0007A681268526822F490425A607B681B68C7
:104BD0007A681268926822F02A029A607B681B68E1
:104BE0007A681268126842F001021A60786800F070
:104BF000C5FC034618460837BD4680BD80B588B061
:104C000002AFF860B9603B601346FB8000237B6114
:104C1000FB6893F86930DBB2202B77D1BB68002B9F
:104C200002D0FB88002B01D1012370E0FB6893F8D0
:104C30006830012B01D1022369E0FB68012283F86F
:104C40006820FB680022DA66FB68212283F869206D
:104C5000FCF744FF7861FB68FA88A3F85020FB68F2
:104C6000FA88A3F8522034E0FB68B3F852309BB2C4
:104C7000013B9AB2FB68A3F852203B6800937B6922
:104C800000228021F86800F0C2FC0346002B01D00E
:104C900003233CE0FB689B68B3F5805F11D1FB68A0
:104CA0001B69002B0DD1BB683B61FB681B683A692F
:104CB0001288C2F3080292B21A85BB680233BB6045
:104CC00007E0FB681A68BB68591CB9601B789BB287
:104CD0001385FB68B3F852309BB2002BC4D13B68FC
:104CE00000937B6900224021F86800F090FC0346A5
:104CF000002B01D003230AE0FB68202283F86920FF
:104D0000FB68002283F86820002300E00223184695
:104D10001837BD4680BD80B58AB002AFF860B96073
:104D20003B601346FB800023FB61FB6893F86A300D
:104D3000DBB2202B40F0AD80BB68002B02D0FB889B
:104D4000002B01D10123A5E0FB6893F86830012B0B
:104D500001D102239EE0FB68012283F86820FB68F2
:104D60000022DA66FB68222283F86A20FCF7B6FE8E
:104D7000F861FB68FA88A3F85820FB68FA88A3F862
:104D80005A20FB689B68B3F5805F0ED1FB681B69F6
:104D9000002B05D1FB6840F2FF12A3F85C2028E04D
:104DA000FB68FF22A3F85C2023E0FB689B68002BD4
:104DB0000DD1FB681B69002B04D1FB68FF22A3F80F
:104DC0005C2016E0FB687F22A3F85C2011E0FB6802
:104DD0009B68B3F1805F0CD1FB681B69002B04D189
:104DE000FB687F22A3F85C2003E0FB683F22A3F866
:104DF0005C20FB68B3F85C307B833AE0FB68B3F877
:104E00005A309BB2013B9AB2FB68A3F85A203B6828
:104E10000093FB6900222021F86800F0F8FB0346AC
:104E2000002B01D0032335E0FB689B68B3F5805F5E
:104E300012D1FB681B69002B0ED1BB687B61FB683C
:104E40001B689B8C9AB27B8B13409AB27B691A8049
:104E5000BB680233BB600CE0BB685A1CBA60FA68DE
:104E60001268928C92B2D1B27A8BD2B20A40D2B28C
:104E70001A70FB68B3F85A309BB2002BBED1FB68A6
:104E8000202283F86A20FB68002283F86820002330
:104E900000E0022318462037BD4680BD2DE9B0430F
:104EA00086B000AF786000237B611023FB74002381
:104EB000BB8100233B820023FB737B689A687B687D
:104EC0001B691A437B685B691A437B68DB69134380
:104ED0007B617B681A687B681B681968B84B0B405C
:104EE00079690B4313607B681B687A6812685268A3
:104EF00022F440517A68D2680A435A607B689B6901
:104F00007B617B681B68AF4A934204D07B681B6A55
:104F10007A6913437B617B681B687A6812689268C0
:104F200022F430617A690A439A607B681B68A64A5A
:104F3000934221D1A54BD3F8883003F00303032B10
:104F400016D801A252F823F0594F0008654F000807
:104F50005F4F00086B4F00080123FB7494E00223AD
:104F6000FB7491E00423FB748EE00823FB748BE058
:104F70001023FB7400BF87E07B681B68944A934250
:104F800034D1924BD3F8883003F00C030C2B29D882
:104F900001A252F823F000BFCD4F0008E54F0008F2
:104FA000E54F0008E54F0008D94F0008E54F00081D
:104FB000E54F0008E54F0008D34F0008E54F000813
:104FC000E54F0008E54F0008DF4F00080023FB74A1
:104FD0005AE00223FB7457E00423FB7454E00823D7
:104FE000FB7451E01023FB7400BF4DE07B681B682D
:104FF000784A934220D1754BD3F8883003F03003C0
:10500000102B0FD0102B02D8002B05D010E0202B36
:1050100005D0302B09D00BE00023FB7434E00223D1
:10502000FB7431E00423FB742EE00823FB742BE0B7
:105030001023FB7400BF27E07B681B68614A934222
:1050400023D1624BD3F8883003F44063B3F5806F0B
:1050500012D0B3F5806F02D8002B07D012E0B3F561
:10506000006F06D0B3F5406F09D00BE00023FB744E
:105070000AE00223FB7407E00423FB7404E0082326
:10508000FB7401E01023FB7400BF7B681B684D4A72
:10509000934240F0EC8000237B61FB7C082B24D8FA
:1050A00001A252F823F000BFCD500008EB500008D9
:1050B000D5500008EB500008DB500008EB5000080A
:1050C000EB500008EB500008E3500008FEF70CFC22
:1050D00078610DE0404B7B610AE0FEF7FFFA7861F2
:1050E00006E04FF400437B6102E00123FB7300BF45
:1050F0007B69002B00F099817B685A6813465B003E
:105100001A447B699A4205D87B685B681A037B69FD
:105110009A4202D20123FB7387E1FB7C082B00F249
:10512000938001A252F823F04D5100084952000823
:105130008D51000849520008E15100084952000809
:1051400049520008495200081F520008FEF7CCFBE4
:1051500003464FF000044FEA042949EA13694FEA75
:1051600003287B685B685B084FF0000418EB0300C2
:1051700049EB04017B685B684FF000041A46234644
:10518000FBF72EF803460C467B6160E07B685B68AA
:105190005B084FF0000411494FF0000213EB0108C7
:1051A00044EB0209404649467B685B684FF00004C7
:1051B0001A462346FBF714F803460C467B6146E08B
:1051C000F369FFEF0080004000380140001002400A
:1051D00000440040004800400024F400000024F493
:1051E000FEF77CFA03461A464FF000031D0245EA1B
:1051F000126514027B685B685B081A464FF0000377
:10520000A01845EB03017B685B684FF000041A4669
:105210002346FAF7E5FF03460C467B6117E07B68FF
:105220005B685B084FF0000413F5000044F10001D7
:105230007B685B684FF000041A462346FAF7D0FFFC
:1052400003460C467B6102E00123FB7300BF7B69D0
:10525000B3F5407F08D37B69B3F5801F04D27B6828
:105260001B687A69DA60E0E00123FB73DDE07B68AC
:10527000DB69B3F5004F6ED1FB7C082B56D801A239
:1052800052F823F0A9520008C5520008E152000864
:105290002D530008FB5200082D5300082D53000821
:1052A0002D53000817530008FEF71EFB03465A0053
:1052B0007B685B685B081A447B685B68B2FBF3F34E
:1052C0003B8236E0FEF732FB03465A007B685B68A0
:1052D0005B081A447B685B68B2FBF3F33B8228E00F
:1052E0007B685B685B0803F1F47303F590437A68AD
:1052F0005268B3FBF2F33B821BE0FEF7EFF9034683
:105300005A007B685B685B081A447B685B68B2FB89
:10531000F3F33B820DE07B685B685B0803F580324A
:105320007B685B68B2FBF3F33B8202E00123FB7313
:1053300000BF3B8A23F00F03BB813B8A5B109BB20B
:1053400003F007039AB2BB891343BB817B681B68D8
:10535000BA89DA6069E0FB7C082B63D801A252F8B5
:1053600023F000BF89530008A9530008C95300085F
:1053700025540008E9530008255400082554000866
:1053800025540008095400087B681C68FEF7ACFA35
:1053900002467B685B685B081A447B685B68B2FB0B
:1053A000F3F39BB2E36040E07B681C68FEF7BEFA53
:1053B00002467B685B685B081A447B685B68B2FBEB
:1053C000F3F39BB2E36030E07B681A687B685B684C
:1053D0005B0803F5740303F5105379684968B3FB60
:1053E000F1F39BB2D36020E07B681C68FEF776F98E
:1053F00002467B685B685B081A447B685B68B2FBAB
:10540000F3F39BB2E36010E07B681B687A68526834
:10541000520802F500417A685268B1FBF2F292B28A
:10542000DA6002E00123FB7300BFFB7B18461837EC
:10543000BD46BDE8B08300BF80B483B000AF7860E4
:105440007B685B6A03F00103002B0AD07B681B6852
:105450007A681268526822F400317A68926A0A43C4
:105460005A607B685B6A03F00203002B0AD07B68FA
:105470001B687A681268526822F480317A68D26AAE
:105480000A435A607B685B6A03F00403002B0AD06E
:105490007B681B687A681268526822F480217A68F7
:1054A000126B0A435A607B685B6A03F00803002BA7
:1054B0000AD07B681B687A681268526822F400413F
:1054C0007A68526B0A435A607B685B6A03F0100388
:1054D000002B0AD07B681B687A681268926822F4F5
:1054E00080517A68926B0A439A607B685B6A03F02A
:1054F0002003002B0AD07B681B687A6812689268C8
:1055000022F400517A68D26B0A439A607B685B6A26
:1055100003F04003002B1AD07B681B687A6812687E
:10552000526822F480117A68126C0A435A607B68D0
:105530001B6CB3F5801F0AD17B681B687A68126800
:10554000526822F4C0017A68526C0A435A607B6840
:105550005B6A03F08003002B0AD07B681B687A68C3
:105560001268526822F400217A68926C0A435A60E9
:1055700000BF0C37BD465DF8047B704780B586B030
:1055800002AF78600023FB607B680022DA66FCF7DC
:10559000A5FAF8607B681B681B6803F00803082BFA
:1055A0000ED16FF07E430093FB6800224FF4001190
:1055B000786800F02CF80346002B01D0032322E08A
:1055C0007B681B681B6803F00403042B0ED16FF08B
:1055D0007E430093FB6800224FF48001786800F05E
:1055E00016F80346002B01D003230CE07B68202231
:1055F00083F869207B68202283F86A207B68002278
:1056000083F86820002318461037BD4680BD80B55A
:1056100084B000AFF860B9603B601346FB712CE0CA
:10562000BB69B3F1FF3F28D0BB69002B07D0FCF763
:1056300055FA02463B68D21ABB699A421DD9FB68EB
:105640001B68FA681268126822F4D0721A60FB684C
:105650001B68FA681268926822F001029A60FB687F
:10566000202283F86920FB68202283F86A20FB68E7
:10567000002283F8682003230FE0FB681B68DA69C7
:10568000BB681A40BB689A420CBF01230023DBB2FF
:105690001A46FB799A42C3D0002318461037BD46FC
:1056A00080BD80B500AF01F00FF90346012B01D09A
:1056B00000F03CFA00BF80BD80B483B000AF7860DA
:1056C0007B6803F108027B685A607B684FF0FF3209
:1056D0009A607B6803F108027B68DA607B6803F1FB
:1056E00008027B681A617B6800221A6000BF0C37D1
:1056F000BD465DF8047B704780B483B000AF78602E
:105700007B6800221A6100BF0C37BD465DF8047B40
:10571000704780B485B000AF786039607B685B68A3
:10572000FB603B68FA685A60FB689A683B689A605D
:10573000FB689B683A685A60FB683A689A603B6805
:105740007A681A617B681B685A1C7B681A6000BF04
:105750001437BD465DF8047B704780B485B000AF58
:10576000786039603B681B68BB60BB68B3F1FF3F82
:1057700003D17B681B69FB600CE07B680833FB602E
:1057800002E0FB685B68FB60FB685B681A68BB68EB
:105790009A42F6D9FB685A683B685A603B685B6876
:1057A0003A689A603B68FA689A60FB683A685A609F
:1057B0003B687A681A617B681B685A1C7B681A60B0
:1057C00000BF1437BD465DF8047B704780B485B0D8
:1057D00000AF78607B681B69FB607B685B687A68F8
:1057E00092689A607B689B687A6852685A60FB6826
:1057F0005A687B689A4203D17B689A68FB685A6052
:105800007B6800221A61FB681B685A1EFB681A60DD
:10581000FB681B6818461437BD465DF8047B70476B
:1058200080B485B000AFF860B9607A60FB68043B73
:10583000FB60FB684FF080721A60FB68043BFB6002
:10584000BA68FB681A60FB68043BFB600C4AFB68A3
:105850001A60FB68143BFB607A68FB681A60FB689F
:10586000043BFB60FB686FF002021A60FB68203BA0
:10587000FB60FB6818461437BD465DF8047B704733
:105880008558000880B483B000AF0C4B1B68B3F19F
:10589000FF3F09D04FF0500383F31188BFF36F8FA0
:1058A000BFF34F8F7B60FEE74FF0500383F3118807
:1058B000BFF36F8FBFF34F8F3B60FEE73C000020CC
:1058C000064B19680868B0E8F04F80F30988BFF309
:1058D0006F8F4FF0000080F311887047E87D002043
:1058E00000BF00BF06480068006880F3088862B601
:1058F00061B6BFF34F8FBFF36F8F00DF00BF00BFF4
:1059000008ED00E080B586B000AF3B4B1B683B4A1A
:10591000934209D14FF0500383F31188BFF36F8F87
:10592000BFF34F8F3B61FEE7334B1B68344A934212
:1059300009D14FF0500383F31188BFF36F8FBFF38A
:105940004F8FFB60FEE72F4B7B617B691B78DBB2DF
:10595000BB607B69FF221A707B691B78DBB2FB712D
:10596000FB79DBB203F05003DAB2274B1A70274BF6
:1059700007221A6009E0254B1B68013B234A13608C
:10598000FB79DBB25B00DBB2FB71FB79DBB203F0CE
:105990008003802BEFD01D4B1B681B021B4A13603A
:1059A0001A4B1B6803F4E063184A1360BB68DAB251
:1059B0007B691A70164A164B1B6843F47003136018
:1059C000134A134B1B6843F07043136000F0D2F886
:1059D000104B00221A6000F0E9F80F4A0E4B1B68CA
:1059E00043F040431360FFF77DFFFFF74BFF0023B9
:1059F00018461837BD4680BD00ED00E071C20F416A
:105A000070C20F4100E400E0C8000020CC0000207C
:105A100020ED00E03C00002034EF00E080B483B0D3
:105A200000AF4FF0500383F31188BFF36F8FBFF3C4
:105A30004F8F7B600E4B1B6801330D4A13600C4B7C
:105A40001B68012B0ED10B4B1B68DBB2002B09D05E
:105A50004FF0500383F31188BFF36F8FBFF34F8F65
:105A60003B60FEE700BF0C37BD465DF8047B704726
:105A70003C00002004ED00E080B483B000AF114B87
:105A80001B68002B09D14FF0500383F31188BFF33B
:105A90006F8FBFF34F8F7B60FEE70A4B1B68013BA4
:105AA000084A1360074B1B68002B04D100233B609E
:105AB0003B6883F3118800BF0C37BD465DF8047B5B
:105AC000704700BF3C000020EFF30980BFF36F8FE9
:105AD000144B1A681EF0100F08BF20ED108A20E941
