:020000040800F2
:1000000000C000202D31000855320008633200087E
:10001000693200086F3200087532000800000000E5
:10002000000000000000000000000000652600083D
:100030007B320008000000003527000889320008E4
:100040007D3100087D3100087D3100087D310008D8
:100050007D3100087D3100087D3100087D310008C8
:100060007D3100087D3100087D3100087D310008B8
:100070007D3100087D3100087D3100087D310008A8
:100080007D3100087D3100087D3100087D31000898
:100090007D3100087D3100087D3100087D31000888
:1000A0007D310008993200087D3100087D3100085B
:1000B0007D31000800000000000000007D310008D4
:1000C0007D3100087D3100087D3100087D31000858
:1000D0007D3100087D3100087D3100087D31000848
:1000E0007D3100087D3100080000000000000000A4
:1000F0000000000000000000000000000000000000
:10010000000000007D310008000000007D31000883
:1001100000000000000000007D3100087D31000873
:10012000A7320008B53200087D3100087D31000893
:100130007D31000800000000000000000000000009
:100140007D3100087D3100087D310008C332000890
:100150007D3100087D3100087D3100087D310008C7
:100160007D3100087D3100087D310008000000006D
:100170007D3100087D3100087D3100087D310008A7
:100180007D3100087D3100087D310008000000004D
:1001900010B5054C237833B9044B13B10448AFF3C1
:1001A00000800123237010BD080000200000000023
:1001B000A037000808B5034B1BB103490348AFF350
:1001C000008008BD000000000C000020A0370008DF
:1001D000034613F8012B002AFBD1181A0138704787
:1001E00080B483B000AF7860044A7B68136000BFBE
:1001F0000C37BD465DF8047B704700BF240000202B
:1002000080B584B000AFF860B9601346FB80064B40
:100210001868C8230122F96801F030FF002318464E
:100220001037BD4680BD00BF2400002080B582B0DD
:1002300000AF00237B6019E07B68DBB2184600F05A
:10024000C5F8002000F0D6F8002000F0F0F80023F8
:100250003B6005E0002000F07DF83B6801333B6027
:100260003B68842BF6DD7B6801337B607B68032B66
:10027000E2DD002318460837BD4680BD80B586B054
:1002800000AFF860B9607A60FB68DBB2184600F036
:100290009DF8BB68DBB20533DBB2184600F0AAF864
:1002A00000237B611EE000233B6112E07B697A68DA
:1002B00013441B78A3F1200213469B001A443B69A8
:1002C00013440E4AD35C184600F044F83B690133EE
:1002D0003B613B69042BE9DD002000F03BF87B69C2
:1002E00001337B617868FFF773FF02467B699A42AE
:1002F000D9D8002318461837BD4680BDEC37000812
:1003000080B500AF00F0D6F80346184680BD000067
:1003100080B584B000AF0346FB71002204210C4875
:1003200000F0AEFB00220121094800F0A9FB07F113
:100330000F01FB1D01221846FFF762FF0122042175
:10034000034800F09DFB00BF1037BD4680BD00BFD5
:100350000008004880B584B000AF0346FB7100225E
:1003600004210E4800F08CFB012201210B4800F013
:1003700087FB07F10F01FB1D01221846FFF740FF25
:1003800000220121054800F07BFB012204210348E3
:1003900000F076FB00BF1037BD4680BD0008004866
:1003A00080B500AF00220821074800F069FB0A2051
:1003B00002F016FA01220821034800F061FB0A202E
:1003C00002F00EFA00BF80BD0008004880B582B080
:1003D00000AF0346FB71FB7903F00F03FB71FB7960
:1003E00063F04F03DBB21846FFF792FF00BF0837F8
:1003F000BD4680BD80B582B000AF0346FB71FB797E
:1004000003F07F03FB71FB791B09DBB243F01003A0
:10041000DBB21846FFF77CFFFB7903F00F03DBB27A
:100420001846FFF775FF00BF0837BD4680BD80B591
:1004300082B000AF0346FB71FB7903F03F03FB7111
:10044000FB7943F04003DBB21846FFF761FF00BFC2
:100450000837BD4680BD80B500AFAF20FFF758FF1D
:1004600000BF80BD80B582B000AF0346FB71FB7951
:100470001D2B01D81E23FB71FB79282B01D92823C2
:10048000FB718120FFF744FFFB79DB43DBB203F014
:100490003F03DBB21846FFF73BFFFB7918460837EE
:1004A000BD4680BD80B500AFA620FFF731FF00BF7D
:1004B00080BD000080B500AFFFF772FF0022012170
:1004C000104800F0DDFAA020FFF722FFFFF7EAFF57
:1004D000C820FFF71DFFA220FFF71AFF2F20FFF70C
:1004E00017FFF820FFF714FF0020FFF711FF21206E
:1004F000FFF70EFF1E20FFF7B5FFFFF7ACFF00234D
:10050000184680BD0008004880B500AF032000F009
:1005100005F9002000F006F802F032FE002318462C
:1005200080BD000080B582B000AF7860094B1B68C9
:10053000094AA2FB03239B09184600F016F9002282
:1005400079684FF0FF3000F0F4F8002318460837C0
:10055000BD4680BD04000020D34D621080B400AFC2
:10056000044B1B680133034A136000BFBD465DF8AE
:10057000047B7047F800002080B400AF034B1B6879
:100580001846BD465DF8047B704700BFF8000020A8
:1005900080B584B000AF78600023FB60FFF7ECFF0C
:1005A000F86000BFFFF7E8FF0246FB68D21A7B68DD
:1005B0009A42F7D300BF1037BD4680BD80B485B0E6
:1005C00000AF78607B6803F00703FB600C4BDB68CF
:1005D000BB60BA684FF6FF031340BB60FB681A02AA
:1005E000BB68134343F0BF6343F40033BB60044A6A
:1005F000BB68D36000BF1437BD465DF8047B70470D
:1006000000ED00E080B400AF044BDB681B0A03F090
:1006100007031846BD465DF8047B704700ED00E017
:1006200080B483B000AF03463960FB7197F907309F
:10063000002B0BDA0D49FB7903F00F03043B3A68FA
:10064000D2B21201D2B20B441A7609E0084997F9E6
:1006500007303A68D2B21201D2B20B4483F80023B9
:1006600000BF0C37BD465DF8047B704700ED00E02D
:1006700000E100E080B489B000AFF860B9607A6052
:10068000FB6803F00703FB61FB69C3F10703042B5D
:1006900028BF0423BB61FB690433062B02D9FB6925
:1006A000033B00E000237B610122BB6902FA03F3F4
:1006B0005A1EBB681A407B699A4001217B6901FA86
:1006C00003F3591E7B680B40134318462437BD467D
:1006D0005DF8047B7047000080B582B000AF7860A1
:1006E0007B68013BB3F1807F01D301230FE00A4A0D
:1006F0007B68013B53600F214FF0FF30FFF790FF05
:10070000054B00229A60044B07221A60002318460A
:100710000837BD4680BD00BF10E000E080B582B064
:1007200000AF78607868FFF749FF00BF0837BD4623
:1007300080BD80B586B000AF0346B9607A60FB73B8
:1007400000237B61FFF75EFF78617A68B96878699A
:10075000FFF790FF024697F90F3011461846FFF752
:100760005FFF00BF1837BD4680BD80B582B000AFC7
:1007700078607868FFF7B0FF034618460837BD4633
:1007800080BD000080B487B000AF7860396000237E
:100790007B610023FB6000233B6154E13B681A68E6
:1007A00001217B6901FA03F31340FB60FB68002B16
:1007B00000F046813B685B68022B03D03B685B68B6
:1007C000122B23D17B69DA087B68083253F8223078
:1007D0003B617B6903F007039B000F2202FA03F3DE
:1007E000DB433A6913403B613B681A697B6903F05C
:1007F00007039B0002FA03F33A6913433B617B69E9
:10080000DA087B680832396943F822107B681B6874
:100810003B617B695B00032202FA03F3DB433A6925
:1008200013403B613B685B6803F003027B695B003C
:1008300002FA03F33A6913433B617B683A691A6031
:100840003B685B68012B0BD03B685B68022B07D0D1
:100850003B685B68112B03D03B685B68122B30D17F
:100860007B689B683B617B695B00032202FA03F3B0
:10087000DB433A6913403B613B68DA687B695B00A4
:1008800002FA03F33A6913433B617B683A699A6061
:100890007B685B683B6101227B6902FA03F3DB43FF
:1008A0003A6913403B613B685B681B0903F0010236
:1008B0007B6902FA03F33A6913433B617B683A6947
:1008C0005A607B68DB683B617B695B00032202FA4C
:1008D00003F3DB433A6913403B613B689A687B69E9
:1008E0005B0002FA03F33A6913433B617B683A69A0
:1008F000DA603B685B6803F08053002B00F0A08057
:10090000584A584B1B6E43F001031366554B1B6E40
:1009100003F00103BB60BB68534A7B699B08023349
:1009200052F823303B617B6903F003039B000F22E5
:1009300002FA03F3DB433A6913403B617B68B3F18E
:10094000904F19D07B68494A934213D07B68484A3C
:1009500093420DD07B68474A934207D07B68464A52
:10096000934201D1042308E0072306E0032304E0B7
:10097000022302E0012300E000237A6902F003026F
:10098000920093403A6913433B6137497B699B0866
:1009900002333A6941F82320384B1B683B61FB68FE
:1009A000DB433A6913403B613B685B6803F4803387
:1009B000002B03D03A69FB6813433B612F4A3B6924
:1009C00013602E4B5B683B61FB68DB433A69134065
:1009D0003B613B685B6803F40033002B03D03A694A
:1009E000FB6813433B61254A3B695360234B9B687B
:1009F0003B61FB68DB433A6913403B613B685B68E2
:100A000003F48013002B03D03A69FB6813433B6166
:100A10001A4A3B699360194BDB683B61FB68DB4317
:100A20003A6913403B613B685B6803F40013002B99
:100A300003D03A69FB6813433B61104A3B69D360BA
:100A40007B6901337B613B681A687B6922FA03F397
:100A5000002B7FF4A3AE00BF1C37BD465DF8047BBE
:100A6000704700BF00100240000001400004004831
:100A700000080048000C0048001000480004014035
:100A800080B483B000AF78600B467B8013467B70E8
:100A90007B78002B03D07A887B689A6102E07A88A1
:100AA0007B689A6200BF0C37BD465DF8047B7047D7
:100AB00080B400AF054A054B1B6843F48073136094
:100AC00000BFBD465DF8047B704700BF007000406A
:100AD00080B400AF044B1B6803F4C0631846BD46E6
:100AE0005DF8047B704700BF0070004080B485B0A3
:100AF00000AF78600023FB607B68B3F5007F2FD1E7
:100B0000224B1B6803F4C063B3F5007F37D01F4A44
:100B10001E4B1B6823F4C06343F4007313601C4B2B
:100B20001B681C4AA2FB03239B0C322202FB03F32B
:100B3000FB6002E0FB68013BFB60FB68002B06D01A
:100B4000124B5B6903F48063B3F5806FF2D00F4BF7
:100B50005B6903F48063B3F5806F10D103230FE06A
:100B60000A4B1B6803F4C063B3F5806F07D0074AD4
:100B7000064B1B6823F4C06343F4806313600023B7
:100B800018461437BD465DF8047B7047007000407E
:100B90000400002083DE1B4380B58CB000AF78607A
:100BA0000023BB627B681B6803F01003002B00F07E
:100BB000DB80A24B9B6803F00C03002B40F0848089
:100BC0009E4B1B6803F00203002B05D07B689B69DA
:100BD000002B01D101239BE37B681A6A974B1B68AA
:100BE00003F00803002B04D0944B1B6803F0F003C0
:100BF00005E0924BD3F894301B0903F0F0039A42BE
:100C000023D97B681B6A184600F0A4FD0346002B1D
:100C100001D001237CE3894A884B1B6843F0080319
:100C200013608649854B1B6823F0F0027B681B6AC2
:100C300013430B608149814B5B6823F47F427B68DF
:100C4000DB691B0213434B6022E07C4A7B4B1B6831
:100C500043F0080313607949784B1B6823F0F002D6
:100C60007B681B6A13430B607449744B5B6823F405
:100C70007F427B68DB691B0213434B607B681B6A06
:100C8000184600F067FD0346002B01D001233FE327
:100C900000F066FC0146694B9B6803F0F002F0230C
:100CA0007B627B6A93FAA3F33B623B6AB3FA83F3FA
:100CB00022FA03F3624AD35C21FA03F3614A136018
:100CC0000020FFF72FFC4FE07B689B69002B32D0A0
:100CD0005A4A5A4B1B6843F001031360FFF74CFC60
:100CE000B86208E0FFF748FC0246BB6AD31A022B41
:100CF00001D903230CE3514B1B6803F00203002BC3
:100D0000F0D04E4A4D4B1B6843F0080313604B492B
:100D10004A4B1B6823F0F0027B681B6A13430B608D
:100D20004649464B5B6823F47F427B68DB691B02C4
:100D300013434B6018E0414A404B1B6823F001030A
:100D40001360FFF719FCB86208E0FFF715FC0246D4
:100D5000BB6AD31A022B01D90323D9E2374B1B6894
:100D600003F00203002BF0D17B681B6803F0010342
:100D7000002B7AD0314B9B6803F00C03082B0BD06F
:100D80002E4B9B6803F00C030C2B11D12B4BDB6813
:100D900003F00303032B0BD1284B1B6803F4003330
:100DA000002B61D07B685B68002B5DD10123AFE233
:100DB0007B685B68B3F5803F06D1204A1F4B1B68F8
:100DC00043F4803313601DE07B685B68B3F5A02FAC
:100DD0000CD11A4A194B1B6843F480231360174A3D
:100DE000164B1B6843F4803313600BE0134A134B1C
:100DF0001B6823F480331360104A104B1B6823F4E4
:100E0000802313607B685B68002B13D0FFF7B4FB73
:100E1000B86208E0FFF7B0FB0246BB6AD31A642B46
:100E200001D9032374E2054B1B6803F40033002B44
:100E3000F0D01AE0FFF7A0FBB8620EE0001002400D
:100E4000B439000804000020FFF796FB0246BB6A95
:100E5000D31A642B01D903235AE2B04B1B6803F465
:100E60000033002BF0D100E000BF7B681B6803F06B
:100E70000203002B7FD0A94B9B6803F00C03042BCB
:100E80000BD0A64B9B6803F00C030C2B27D1A34B74
:100E9000DB6803F00303022B21D1A04B1B6803F492
:100EA0008063002B05D07B68DB68002B01D1012318
:100EB0002EE29A48994B5B6823F0F8527B681969D7
:100EC0004FF0F853FB61FB6993FAA3F3BB61BB6975
:100ED000B3FA83F301FA03F3134343604BE07B68F7
:100EE000DB68002B2ED08D4A8C4B1B6843F480733B
:100EF0001360FFF741FBB86208E0FFF73DFB0246D5
:100F0000BB6AD31A022B01D9032301E2834B1B686E
:100F100003F48063002BF0D08048804B5B6823F0A3
:100F2000F8527B6819694FF0F8537B617B6993FA3B
:100F3000A3F33B613B69B3FA83F301FA03F3134371
:100F4000436018E0754A754B1B6823F48073136087
:100F5000FFF712FBB86208E0FFF70EFB0246BB6A20
:100F6000D31A022B01D90323D2E16C4B1B6803F483
:100F70008063002BF0D17B681B6803F00803002B13
:100F80003CD07B685B69002B1CD0644A634BD3F870
:100F9000943043F00103C2F89430FFF7EDFAB862E1
:100FA00008E0FFF7E9FA0246BB6AD31A022B01D91F
:100FB0000323ADE1594BD3F8943003F00203002B27
:100FC000EFD01BE0554A554BD3F8943023F0010382
:100FD000C2F89430FFF7D0FAB86208E0FFF7CCFA15
:100FE0000246BB6AD31A022B01D9032390E14B4B73
:100FF000D3F8943003F00203002BEFD17B681B6819
:1010000003F00403002B00F0A980002387F82F30A1
:10101000424B9B6D03F08053002B0ED13F4A3F4B58
:101020009B6D43F0805393653C4B9B6D03F0805365
:10103000FB60FB68012387F82F30394B1B6803F4F2
:101040008073002B18D1364A354B1B6843F48073EC
:101050001360FFF791FAB86208E0FFF78DFA0246D5
:10106000BB6AD31A022B01D9032351E12C4B1B6815
:1010700003F48073002BF0D07B689B68012B08D1B0
:10108000264A264BD3F8903043F00103C2F8903043
:1010900024E07B689B68052B10D1204A1F4BD3F8B6
:1010A000903043F00403C2F890301C4A1B4BD3F835
:1010B000903043F00103C2F890300FE0174A174B0D
:1010C000D3F8903023F00103C2F89030134A134B49
:1010D000D3F8903023F00403C2F890307B689B680B
:1010E000002B16D0FFF748FAB8620AE0FFF744FA7F
:1010F0000246BB6AD31A41F28832934201D90323D4
:1011000006E1064BD3F8903003F00203002BEDD03C
:101110001AE0FFF731FAB8620FE000BF001002409A
:1011200000700040FFF728FA0246BB6AD31A41F26A
:101130008832934201D90323EAE0774BD3F8903009
:1011400003F00203002BEDD197F82F30012B05D1CE
:10115000714A714B9B6D23F0805393657B681B68CC
:1011600003F02003002B3CD07B685B6A002B1CD073
:10117000694A694BD3F8983043F00103C2F89830BC
:10118000FFF7FAF9B86208E0FFF7F6F90246BB6A22
:10119000D31A022B01D90323BAE05F4BD3F898305E
:1011A00003F00203002BEFD01BE05B4A5A4BD3F84D
:1011B000983023F00103C2F89830FFF7DDF9B862E8
:1011C00008E0FFF7D9F90246BB6AD31A022B01D90E
:1011D00003239DE0504BD3F8983003F00203002B1B
:1011E000EFD17B689B6A002B00F091804A4B9B6893
:1011F00003F00C030C2B00F088807B689B6A022BA9
:1012000055D1454A444B1B6823F080731360FFF7A8
:10121000B3F9B86208E0FFF7AFF90246BB6AD31A28
:10122000022B01D9032373E03B4B1B6803F00073CF
:10123000002BF0D138497B681B6B013B1A017B689E
:101240005B6B1B021A437B68DB6A1A437B68DB6BB0
:101250005B08013B5B051A437B681B6C5B08013B29
:101260005B061A437B689B6BDB061343CB602A4A01
:10127000294B1B6843F080731360274A264BDB68B9
:1012800043F08073D360FFF777F9B86208E0FFF7A7
:1012900073F90246BB6AD31A022B01D9032337E044
:1012A0001D4B1B6803F00073002BF0D02FE01A4A8F
:1012B000194B1B6823F080731360174B1B6803F0F6
:1012C0000063002B05D1144A134BDB6823F00303A2
:1012D000D360114A104BDB6823F0887323F480330A
:1012E000D360FFF749F9B86208E0FFF745F9024615
:1012F000BB6AD31A022B01D9032309E0064B1B68F2
:1013000003F00073002BF0D101E0012300E0002383
:1013100018463037BD4680BD0010024080B586B00B
:1013200000AF7860396000237B61894B1B6803F054
:1013300007023B689A4210D28549854B1B6823F00F
:1013400007023B6813430B60814B1B6803F00702E5
:101350003B689A4201D00123F6E07B681B6803F0EA
:101360000203002B08D07B497A4B9B6823F0F002E4
:101370007B689B6813438B607B681B6803F00103E9
:10138000002B00F08E807B685B68022B07D1714BCD
:101390001B6803F40033002B21D10123D4E07B68C8
:1013A0005B68032B07D16B4B1B6803F00073002BAA
:1013B00015D10123C8E07B685B68002B07D1654B22
:1013C0001B6803F00203002B09D10123BCE0614B31
:1013D0001B6803F48063002B01D10123B4E05D4955
:1013E0005C4B9B6823F003027B685B6813438B6054
:1013F000FFF7C2F878617B685B68022B12D10AE0C4
:10140000FFF7BAF802467B69D31A41F28832934259
:1014100001D9032398E04F4B9B6803F00C03082B82
:10142000EED13EE07B685B68032B12D10AE0FFF748
:10143000A3F802467B69D31A41F28832934201D95C
:10144000032381E0434B9B6803F00C030C2BEED18C
:1014500027E07B685B68002B1DD10AE0FFF78CF862
:1014600002467B69D31A41F28832934201D90323A1
:101470006AE0384B9B6803F00C03002BEED110E0C0
:10148000FFF77AF802467B69D31A41F28832934219
:1014900001D9032358E02F4B9B6803F00C03042B66
:1014A000EED12B4B1B6803F007023B689A4210D920
:1014B0002749274B1B6823F007023B6813430B6047
:1014C000234B1B6803F007023B689A4201D00123BB
:1014D0003AE07B681B6803F00403002B08D01D4929
:1014E0001C4B9B6823F4E0627B68DB6813438B60D2
:1014F0007B681B6803F00803002B09D01549154BC6
:101500009B6823F460527B681B69DB0013438B608C
:1015100000F026F801460F4B9B6803F0F002F02321
:101520003B613B6993FAA3F3FB60FB68B3FA83F377
:1015300022FA03F3084AD35C21FA03F3074A136043
:101540000020FEF7EFFF002318461837BD4680BD88
:101550000020024000100240B439000804000020BE
:1015600080B495B000AF0023FB640023BB6400236C
:101570003B640223FB630223BB6300237B64714B48
:101580009B6803F00C03002B0BD06E4B9B6803F0A1
:101590000C030C2B3CD16B4BDB6803F00303012BDA
:1015A00036D1684B1B6803F00803002B12D1654B42
:1015B000D3F8943003F470624FF470637B637B6BF9
:1015C00093FAA3F33B633B6BB3FA83F322FA03F37F
:1015D000FB640FE05B4B1B6803F0F002F023FB623F
:1015E000FB6A93FAA3F3BB62BB6AB3FA83F322FAF2
:1015F00003F3FB64544AFB6C52F82330FB64514BF9
:101600009B6803F00C03002B13D1FB6C7B6410E090
:101610004C4B9B6803F00C03042B02D14B4B7B64B7
:1016200007E0484B9B6803F00C03082B01D1484BA3
:101630007B64444B9B6803F00C030C2B7BD1414B28
:10164000DB6803F003033B643E4BDB6803F070028E
:1016500070237B627B6A93FAA3F33B623B6AB3FA23
:1016600083F322FA03F30133BB633B6C022B02D0FA
:10167000032B18D02FE0354ABB6BB2FBF3F3314A92
:10168000D26802F4FE414FF4FE42FA61FA6992FA1E
:10169000A2F2BA61BA69B2FA82F221FA02F202FB4C
:1016A00003F3BB642FE02A4ABB6BB2FBF3F3254A7A
:1016B000D26802F4FE414FF4FE427A617A6992FAEE
:1016C000A2F23A613A69B2FA82F221FA02F202FB1C
:1016D00003F3BB6417E0FA6CBB6BB2FBF3F3194A7C
:1016E000D26802F4FE414FF4FE42FA60FA6892FAC0
:1016F000A2F2BA60BA68B2FA82F221FA02F202FBEE
:1017000003F3BB6400BF0F4BDB6803F0C0624FF014
:10171000C0637B607B6893FAA3F33B603B68B3FADA
:1017200083F322FA03F301335B00FB63BA6CFB6BB8
:10173000B2FBF3F37B647B6C18465437BD465DF80F
:10174000047B704700100240C43900080024F400F4
:1017500000127A0080B586B000AF786000237B610C
:1017600000233B612A4B9B6D03F08053002B03D079
:10177000FFF7AEF9786114E0254A254B9B6D43F0E5
:1017800080539365224B9B6D03F08053FB60FB6895
:10179000FFF79EF978611E4A1D4B9B6D23F0805325
:1017A00093657B69B3F5007F0BD17B68802B19D9DA
:1017B0007B68A02B02D902233B6113E001233B612C
:1017C00010E07B68802B02D903233B610AE07B6831
:1017D000802B02D102233B6104E07B68702B01D196
:1017E00001233B610B490B4B1B6823F007023B694C
:1017F00013430B60074B1B6803F007023B699A42D7
:1018000001D0012300E0002318461837BD4680BDF3
:10181000001002400020024080B586B000AF786022
:1018200000237B610023FB600023FB740023BB7457
:101830007B681B6803F40063002B2FD07B685B6C14
:10184000B3F5000F05D0B3F5400F15D0002B07D02E
:101850000FE05A4A594BDB6843F48033D3600CE005
:101860007B6804330021184600F02CFA0346FB7411
:1018700003E00123FB7400E000BFFB7C002B0BD1D5
:101880004E494E4BD3F8883023F440027B685B6CA2
:101890001343C1F8883001E0FB7CBB747B681B6894
:1018A00003F40033002B00F0988000237B74434B3B
:1018B0009B6D03F08053002B0DD1404A3F4B9B6D35
:1018C00043F0805393653D4B9B6D03F08053BB60A9
:1018D000BB6801237B743A4A394B1B6843F480731D
:1018E0001360FEF749FEF86009E0FEF745FE024688
:1018F000FB68D31A022B02D90323FB7405E0304B9B
:101900001B6803F48073002BEFD0FB7C002B59D1B4
:101910002A4BD3F8903003F440737B617B69002B32
:101920001ED07B68DA6D7B699A4219D0234BD3F8BD
:10193000903023F440737B61204A204BD3F89030E1
:1019400043F48033C2F890301C4A1C4BD3F89030DB
:1019500023F48033C2F89030184A7B69C2F8903083
:101960007B6903F00103002B16D0FEF705FEF8603B
:101970000BE0FEF701FE0246FB68D31A41F2883203
:10198000934202D90323FB7406E00C4BD3F890304A
:1019900003F00203002BECD0FB7C002B0BD107499A
:1019A000064BD3F8903023F440727B68DB6D134311
:1019B000C1F8903008E0FB7CBB7405E000100240E9
:1019C00000700040FB7CBB747B7C012B05D18D4AF1
:1019D0008C4B9B6D23F0805393657B681B6803F0F1
:1019E0000103002B0AD08749864BD3F8883023F0B7
:1019F00003027B681B6A1343C1F888307B681B684D
:101A000003F00203002B0AD07E497E4BD3F88830C6
:101A100023F00C027B685B6A1343C1F888307B6853
:101A20001B6803F00403002B0AD07649754BD3F8EA
:101A3000883023F030027B689B6A1343C1F88830FA
:101A40007B681B6803F02003002B0AD06D496D4BA7
:101A5000D3F8883023F440627B68DB6A1343C1F813
:101A600088307B681B6803F40073002B0AD065493B
:101A7000644BD3F8883023F440227B68DB6B13433C
:101A8000C1F888307B681B6803F48063002B0AD0A0
:101A90005C495C4BD3F8883023F440127B681B6CA4
:101AA0001343C1F888307B681B6803F04003002BA8
:101AB0000AD05449534BD3F8883023F440527B6802
:101AC0001B6B1343C1F888307B681B6803F08003ED
:101AD000002B0AD04B494B4BD3F8883023F44042BB
:101AE0007B685B6B1343C1F888307B681B6803F429
:101AF0008073002B0AD04349424BD3F8883023F43B
:101B000040327B689B6B1343C1F888307B681B684D
:101B100003F40053002B28D03A493A4BD3F88830CD
:101B200023F040627B689B6C1343C1F888307B686C
:101B30009B6CB3F1006F06D1324A324BDB6843F441
:101B40008013D36011E07B689B6CB3F1806F0CD184
:101B50007B6804330121184600F0B4F80346FB7497
:101B6000FB7C002B01D0FB7CBB747B681B6803F4FF
:101B70000023002B28D02349224BD3F8883023F0B0
:101B800040627B68DB6C1343C1F888307B68DB6C98
:101B9000B3F1006F06D11B4A1A4BDB6843F4801384
:101BA000D36011E07B68DB6CB3F1806F0CD17B6894
:101BB00004330121184600F085F80346FB74FB7CD2
:101BC000002B01D0FB7CBB747B681B6803F4802373
:101BD000002B2BD00B490B4BD3F8883023F04062FD
:101BE0007B681B6D1343C1F888307B681B6DB3F1B4
:101BF000006F09D1034A034BDB6843F48013D360C1
:101C000014E000BF001002407B681B6DB3F1806FD1
:101C10000CD17B6804330121184600F053F80346C9
:101C2000FB74FB7C002B01D0FB7CBB747B681B68C6
:101C300003F48043002B1CD01949194BD3F888308A
:101C400023F040527B685B6D1343C1F888307B689A
:101C50005B6DB3F1805F0CD17B68043302211846C1
:101C600000F030F80346FB74FB7C002B01D0FB7CBA
:101C7000BB747B681B6803F40043002B0AD008493F
:101C8000074BD3F8883023F080427B689B6D134369
:101C9000C1F88830BB7C18461837BD4680BD00BFF0
:101CA0000010024080B400AF054A054B1B6843F0AA
:101CB0000403136000BFBD465DF8047B704700BF9E
:101CC0000010024090B595B000AF786039600023F5
:101CD000BB64002387F84F30A34BDB6803F003039A
:101CE000002B23D0A04BDB6803F003027B681B684A
:101CF0009A4217D17B681B68002B13D09A4BDB6884
:101D000003F0700270237B647B6C93FAA3F33B6453
:101D10003B6CB3FA83F322FA03F35A1C7B685B68CB
:101D20009A4254D0012387F84F3050E07B681B68FB
:101D3000022B0DD0032B15D0012B23D18A4B1B680E
:101D400003F00203002B21D1012387F84F301DE05F
:101D5000854B1B6803F48063002B19D1012387F89E
:101D60004F3015E0804B1B6803F40033002B11D17A
:101D70007D4B1B6803F48023002B0BD1012387F8D4
:101D80004F3007E0012387F84F3004E000BF02E046
:101D900000BF00E000BF97F84F30002B17D1724C06
:101DA000714BDB6823F073027B6819687B685B68A2
:101DB000581E7023FB63FB6B93FAA3F3BB63BB6BEF
:101DC000B3FA83F300FA03F30B431343E36097F88A
:101DD0004F30002B40F0C180634A634B1B6823F0F7
:101DE00080631360FEF7C8FBB8640AE0FEF7C4FB2B
:101DF0000246BB6CD31A022B03D9032387F84F305A
:101E000005E0594B1B6803F00063002BEED197F8F7
:101E10004F30002B40F0A1803B68002B25D1524C65
:101E2000514B1B6923F0784323F4FE437A68916891
:101E30004FF4FE42FA62FA6A92FAA2F2BA62BA6AFF
:101E4000B2FA82F291407A68D0684FF078427A63B1
:101E50007A6B92FAA2F23A633A6BB2FA82F200FA21
:101E600002F20A431343236151E03B68012B27D15F
:101E70003D4C3D4B1B6923F4C00323F4FE437A68B9
:101E800091684FF4FE42FA61FA6992FAA2F2BA61DD
:101E9000BA69B2FA82F291407A6812695208501E09
:101EA0004FF4C0027A627A6A92FAA2F23A623A6A0D
:101EB000B2FA82F200FA02F20A431343236126E0E7
:101EC000294C294B1B6923F0C06323F4FE437A6835
:101ED00091684FF4FE42FA60FA6892FAA2F2BA6090
:101EE000BA68B2FA82F291407A6852695208501E7A
:101EF0004FF0C0627A617A6992FAA2F23A613A6965
:101F0000B2FA82F200FA02F20A4313432361164A3C
:101F1000154B1B6843F080631360FEF72DFBB8641C
:101F20000AE0FEF729FB0246BB6CD31A022B03D949
:101F3000032387F84F3005E00B4B1B6803F0006369
:101F4000002BEED097F84F30002B06D10649064BF8
:101F50001A697B689B6913430B6197F84F301846E9
:101F60005437BD4690BD00BF0010024080B584B01C
:101F700000AF78607B68002B01D101237AE07B6899
:101F800000229A627B6893F85D30DBB2002B06D1A9
:101F90007B68002283F85C20786801F019F97B687F
:101FA000022283F85D207B681B687A6812681268D9
:101FB00022F040021A607B68DB68B3F5E06F02D95B
:101FC0000023FB6002E04FF48053FB607B68DB681A
:101FD000B3F5706F07D07B68DB68B3F5E06F02D0B4
:101FE0007B6800229A627B681B6B002B0BD17B689D
:101FF000DB68B3F5E06F03D97B6802221A6302E065
:102000007B6801221A637B681B687A6851687A686A
:10201000926811437A68126911437A6852691143D0
:102020007A68926902F4007211437A68D2691143A6
:102030007A68126A11437A68926A0A431A607B6866
:102040001B687A689269120C02F004017A68526A7D
:1020500011437A68526B11437A68D2681143FA6867
:102060000A435A607B6800221A667B68012283F863
:102070005D20002318461037BD4680BD80B588B06E
:1020800000AFF860B9603B601346FB800023BB6182
:102090000023FB77FB6893F85C30012B01D102230E
:1020A0003EE1FB68012283F85C20FEF765FAB86127
:1020B000FB6893F85D30DBB2012B02D00223FB7783
:1020C00025E1BB68002B02D0FB88002B02D1012345
:1020D000FB771CE1FB68032283F85D20FB6800228C
:1020E0001A66FB68BA689A63FB68FA889A87FB6885
:1020F000FA88DA87FB6800221A64FB680022A3F8DA
:102100004420FB680022A3F84620FB6800221A65E1
:10211000FB680022DA64FB689B68B3F5004F07D1C7
:10212000FB681B68FA681268126842F480421A6001
:10213000FB681B681B6803F04003402B07D0FB685B
:102140001B68FA681268126842F040021A60FB6865
:10215000DB68B3F5E06F47D9FB685B68002B04D000
:10216000FB68DB8F9BB2012B38D1FB681B68BA6818
:102170001288DA60BB680233BB60FB68DB8F9BB2FE
:10218000013B9AB2FB68DA8728E0FB681B689B6812
:1021900003F00203022B0FD1FB681B68BA68128898
:1021A000DA60BB680233BB60FB68DB8F9BB2013B2C
:1021B0009AB2FB68DA8711E03B68002B0BD03B68D2
:1021C000B3F1FF3F0AD0FEF7D7F90246BB69D21A36
:1021D0003B689A4202D30323FB7798E0FB68DB8FCE
:1021E0009BB2002BD1D172E0FB685B68002B04D05E
:1021F000FB68DB8F9BB2012B64D1FB68DB8F9BB24A
:10220000012B0FD9FB681B68BA681288DA60BB68BB
:102210000233BB60FB68DB8F9BB2023B9AB2FB6868
:10222000DA874FE0FB681B6803F10C02BB68591C9E
:10223000B9601B781370FB68DB8F9BB2013B9AB2CD
:10224000FB68DA873EE0FB681B689B6803F00203CB
:10225000022B25D1FB68DB8F9BB2012B0FD9FB68CA
:102260001B68BA681288DA60BB680233BB60FB681F
:10227000DB8F9BB2023B9AB2FB68DA8722E0FB68F5
:102280001B6803F10C02BB68591CB9601B78137002
:10229000FB68DB8F9BB2013B9AB2FB68DA8711E0E7
:1022A0003B68002B0BD03B68B3F1FF3F0AD0FEF731
:1022B00063F90246BB69D21A3B689A4202D30323F0
:1022C000FB7724E0FB68DB8F9BB2002BBBD1BA69A4
:1022D0003968F86800F002F90346002B02D0FB6869
:1022E00020221A66FB689B68002B0AD100237B61C1
:1022F000FB681B68DB687B61FB681B689B687B6114
:102300007B69FB681B6E002B01D00123FB77FB6808
:10231000012283F85D20FB68002283F85C20FB7FAC
:1023200018462037BD4680BD80B584B000AFF86048
:10233000B9607A603B604DE03B68B3F1FF3F49D044
:102340003B68002B07D0FEF717F90246BB69D21A8B
:102350003B689A423ED3FB681B68FA681268526871
:1023600022F0E0025A60FB685B68B3F5827F11D10E
:10237000FB689B68B3F5004F04D0FB689B68B3F51E
:10238000806F07D1FB681B68FA681268126822F038
:1023900040021A60FB689B6AB3F5005F10D1FB68CE
:1023A0001A68FB681B6819684DF6FF730B401360D1
:1023B000FB681B68FA681268126842F400521A60DF
:1023C000FB68012283F85D20FB68002283F85C2013
:1023D00003230EE0FB681B689A68BB681A40BB6861
:1023E0009A4201D1012200E000227B689A42A3D1E7
:1023F000002318461037BD4680BD80B586B000AFBB
:10240000F860B9607A603B605BE0BB68B3F5C06FB1
:1024100009D17B68002B06D1FB681B680C331B7845
:10242000DBB2FB75FB7D3B68B3F1FF3F49D03B68F6
:10243000002B07D0FEF7A0F802463B6AD21A3B6891
:102440009A423ED3FB681B68FA681268526822F011
:10245000E0025A60FB685B68B3F5827F11D1FB68CC
:102460009B68B3F5004F04D0FB689B68B3F5806FA1
:1024700007D1FB681B68FA681268126822F04002F4
:102480001A60FB689B6AB3F5005F10D1FB681A689D
:10249000FB681B6819684DF6FF730B401360FB68FF
:1024A0001B68FA681268126842F400521A60FB68EE
:1024B000012283F85D20FB68002283F85C2003235F
:1024C00008E0FB681B689A68BB681A407B689A4200
:1024D0009BD1002318461837BD4680BD80B586B015
:1024E00002AFF860B9607A607B680093BB68002235
:1024F0004FF4C051F868FFF780FF0346002B07D068
:10250000FB681B6E43F02002FB681A66032313E08E
:102510007B680093BB6800228021F868FFF704FF06
:102520000346002B07D0FB681B6E43F02002FB68BC
:102530001A66032300E0002318461037BD4680BD0D
:1025400080B500AF00F0B4FB0346012B01D000F0D2
:1025500023F900BF80BD80B485B000AF78603960DA
:102560007B685B68FB603B68FA685A60FB689A6846
:102570003B689A60FB689B683A685A60FB683A68F7
:102580009A603B687A681A617B681B685A1C7B6892
:102590001A6000BF1437BD465DF8047B704780B4F5
:1025A00085B000AF786039603B681B68BB60BB6872
:1025B000B3F1FF3F03D17B681B69FB600CE07B68D4
:1025C0000833FB6002E0FB685B68FB60FB685B68EC
:1025D0001A68BB689A42F6D9FB685A683B685A6029
:1025E0003B685B683A689A603B68FA689A60FB6887
:1025F0003A685A603B687A681A617B681B685A1CA3
:102600007B681A6000BF1437BD465DF8047B7047D5
:1026100080B485B000AF78607B681B69FB607B6825
:102620005B687A6892689A607B689B687A6852688F
:102630005A60FB685A687B689A4203D17B689A6843
:10264000FB685A607B6800221A61FB681B685A1E8F
:10265000FB681A60FB681B6818461437BD465DF8B6
:10266000047B7047064B19680868B0E8F04F80F3A8
:102670000988BFF36F8F4FF0000080F31188704717
:102680002800002000BF00BF80B483B000AF4FF02F
:10269000500383F31188BFF36F8FBFF34F8F7B60BD
:1026A0000E4B1B6801330D4A13600C4B1B68012B4A
:1026B0000ED10B4B1B68DBB2002B09D04FF050033F
:1026C00083F31188BFF36F8FBFF34F8F3B60FEE73B
:1026D00000BF0C37BD465DF8047B7047000000204A
:1026E00004ED00E080B483B000AF114B1B68002BF9
:1026F00009D14FF0500383F31188BFF36F8FBFF3FD
:102700004F8F7B60FEE70A4B1B68013B084A136052
:10271000074B1B68002B04D100233B603B6883F30D
:10272000118800BF0C37BD465DF8047B704700BFC1
:1027300000000020EFF30980BFF36F8F144B1A687D
:102740001EF0100F08BF20ED108A20E9F04F106036
:102750004DF8043D4FF0500080F31188BFF34F8FC8
:10276000BFF36F8F00F0EEF94FF0000080F3118897
:1027700008BC19680868B0E8F04F1EF0100F08BFD9
:10278000B0EC108A80F30988BFF36F8F704700BFE9
:102790002800002000BF00BF80B584B000AFEFF379
:1027A00011824FF0500383F31188BFF36F8FBFF393
:1027B0004F8FFA60BB6000F007F90346002B03D08F
:1027C000064B4FF080521A6000237B607B6883F3D6
:1027D000118800BF1037BD4680BD00BF04ED00E08A
:1027E00080B586B000AF786000237B617B68002BEA
:1027F0002FD01F4B1B68002B09D04FF0500383F3E1
:102800001188BFF36F8FBFF34F8FFB60FEE700F0BF
:1028100039F8184B1A687B6813443B61164B1B68E8
:1028200004331846FFF7F4FE0346002B0BD1124B7E
:102830001B68DB6A012202FA03F3DA430F4B1B68C1
:1028400013400E4A1360386900F0D6F900F028F8FA
:1028500078617B69002B07D1094B4FF080521A60D9
:10286000BFF34F8FBFF36F8F00BF1837BD4680BDDA
:10287000F4000020D800002028000020DC00002008
:1028800004ED00E080B400AF044B1B680133034A41
:10289000136000BFBD465DF8047B7047F400002064
:1028A00080B584B000AF0023FB603E4B1B68002B5B
:1028B00009D14FF0500383F31188BFF36F8FBFF33B
:1028C0004F8F7B60FEE7FFF7DFFE364B1B68013B57
:1028D000344A1360334B1B68002B5BD1324B1B68AF
:1028E000002B57D02EE0314BDB68DB68BB60BB6848
:1028F00018331846FFF78CFEBB6804331846FFF701
:1029000087FEBB68DB6A01229A40294B1B68134390
:10291000274A1360BB68DA6A13469B0013449B0086
:10292000244A1A44BB68043319461046FFF713FEC5
:10293000BB68DA6A204B1B68DB6A9A4202D31F4BE2
:1029400001221A60194B1B68002BCCD11C4B1B6851
:10295000002B11D00CE000F037F80346002B02D01A
:10296000164B01221A60164B1B68013B144A136078
:10297000134B1B68002BEED1104B1B68012B09D1A8
:102980000123FB600F4B4FF080521A60BFF34F8F53
:10299000BFF36F8FFFF7A6FEFB6818461037BD46E2
:1029A00080BD00BFF4000020D4000020C000002043
:1029B000DC0000202C00002028000020E80000207F
:1029C000E400002004ED00E080B586B000AF0023F5
:1029D0007B61514B1B68002B40F08D804F4B1B6877
:1029E00001334E4A13604D4B1B683B613B69002B22
:1029F0001FD14B4B1B681B68002B09D04FF05003B5
:102A000083F31188BFF36F8FBFF34F8F3B60FEE7F7
:102A1000434B1B68FB60434B1B68414A1360414AB0
:102A2000FB681360404B1B6801333F4A136000F0A2
:102A300019F93E4B1B683A699A424DD3384B1B68D3
:102A40001B68002B01D1012300E00023002B04D0E0
:102A5000364B4FF0FF321A603EE0314B1B68DB68AB
:102A6000DB68BB60BB685B687B603A697B689A42E5
:102A700003D22E4A7B6813602EE0BB6804331846ED
:102A8000FFF7C6FDBB689B6A002B04D0BB681833F8
:102A90001846FFF7BDFDBB68DB6A01229A40244B54
:102AA0001B681343224A1360BB68DA6A13469B0013
:102AB00013449B001F4A1A44BB680433194610464E
:102AC000FFF749FDBB68DA6A1B4B1B68DB6A9A4259
:102AD000B4D301237B61B1E7174B1B68DA6A154950
:102AE00013469B0013449B000B441B68012B07D922
:102AF00001237B6104E0114B1B6801330F4A136013
:102B00000F4B1B68002B01D001237B617B691846AA
:102B10001837BD4680BD00BFF4000020D80000205B
:102B2000B8000020BC000020EC000020F0000020D5
:102B3000DC0000202C00002028000020E400002001
:102B4000E800002080B487B000AF264B1B68002B44
:102B500003D0254B01221A603EE0234B00221A606D
:102B6000224B1B68FB60FB68B3FA83F3FB72FB7AB2
:102B7000C3F11F037B611E497A6913469B0013440E
:102B80009B000B441B68002B09D14FF0500383F3CB
:102B90001188BFF36F8FBFF34F8F7B60FEE77A69B9
:102BA00013469B0013449B00114A13443B613B694D
:102BB0005B685A683B695A603B695A683B690833ED
:102BC0009A4204D13B695B685A683B695A603B6929
:102BD0005B68DB68074A136000BF1C37BD465DF8C1
:102BE000047B7047F4000020E8000020DC00002097
:102BF0002C0000202800002080B582B000AF786053
:102C0000134B1B687A685A60124B1B687A689A42A9
:102C100009D2114B1A680E4B1B6804331946104633
:102C2000FFF7BDFC10E00D4B1A68094B1B6804331D
:102C300019461046FFF7B3FC094B1B687A689A42A5
:102C400002D2074A7B68136000BF0837BD4680BDCB
:102C500028000020D8000020BC000020B800002080
:102C6000F000002080B483B000AF0F4B1B681B68DE
:102C7000002B01D1012300E00023002B04D00B4BDB
:102C80004FF0FF321A6008E0074B1B68DB68DB6817
:102C90007B607B685B68054A136000BF0C37BD46EC
:102CA0005DF8047B704700BFB8000020F0000020F2
:102CB00080B483B000AF0B4B1B68002B02D1012303
:102CC0007B6008E0084B1B68002B02D102237B606D
:102CD00001E000237B607B6818460C37BD465DF839
:102CE000047B7047E0000020F400002080B58AB02B
:102CF00000AF07F1140300221A605A609A60DA608C
:102D00001A616C4A6B4BDB6C43F00403D364694B70
:102D1000DB6C03F004033B613B69664A654BDB6C8B
:102D200043F08003D364634BDB6C03F08003FB60F0
:102D3000FB68604A5F4BDB6C43F00103D3645D4B7F
:102D4000DB6C03F00103BB60BB685A4A594BDB6C78
:102D500043F00203D364574BDB6C03F002037B6048
:102D60007B68544A534BDB6C43F00803D364514BEC
:102D7000DB6C03F008033B603B68002241F21F312B
:102D80004D48FDF77DFE002201214FF09040FDF7F8
:102D900077FE00224FF400614848FDF771FE4FF4C2
:102DA00000537B610323BB610023FB6107F1140324
:102DB00019464148FDF7E6FC0B237B610323BB6109
:102DC0000023FB6107F1140319463D48FDF7DAFCC7
:102DD00041F21F337B610123BB610023FB610023B0
:102DE0003B6207F1140319463348FDF7CBFC01237E
:102DF0007B610123BB610023FB6100233B6207F180
:102E0000140319464FF09040FDF7BCFC48F21E1326
:102E10007B610323BB610023FB6107F114031946A7
:102E20004FF09040FDF7AEFC4FF44E637B61002302
:102E3000BB610023FB6107F1140319461E48FDF72F
:102E4000A1FC07237B610023BB610023FB6107F129
:102E5000140319461948FDF795FC4FF400637B6194
:102E60000123BB610023FB6100233B6207F11403D4
:102E700019461248FDF786FC42F218337B610323A2
:102E8000BB610023FB6107F1140319460B48FDF7F2
:102E900079FC04237B610323BB610023FB6107F101
:102EA000140319460748FDF76DFC00BF2837BD46DF
:102EB00080BD00BF00100240000800480004004828
:102EC000001C0048000C004880B500AF1B4B1C4A9A
:102ED0001A601A4B4FF482725A60184B00229A60A3
:102EE000164B4FF4E062DA60144B00221A61134B68
:102EF00000225A61114B4FF400729A610F4B282245
:102F0000DA610E4B00221A620C4B00225A620B4B04
:102F100000229A62094B0722DA62084B00221A63E8
:102F2000064B00225A630548FFF720F80346002BA2
:102F300001D000F0E3F800BF80BD00BFFC0000201E
:102F40000030014080B500AF1948FDF749F9FDF7A1
:102F5000DBFA00F037F8FFF7C9FEFFF7B5FFFDF722
:102F6000CFF9FDF763F9012202211248FDF788FD30
:102F7000114A00210120FDF781F9104A00210020AB
:102F8000FDF77CF90E4800F095FBC820FDF700FB2B
:102F900000224FF400710748FDF772FDC820FDF7CD
:102FA000F7FA01224FF400710248FDF769FDE9E7E5
:102FB000FC00002000080048B8370008CC370008A3
:102FC000D837000880B5AEB000AF07F174034422D3
:102FD0000021184600F0DCFB07F1600300221A60B4
:102FE0005A609A60DA601A613B46602200211846F6
:102FF00000F0CEFBFDF75CFD3E4A3E4BD3F890302F
:1030000023F01803C2F8903014237B670123FB6779
:103010000123C7F88C300023C7F890307023C7F81D
:1030200094300223C7F89C300123C7F8A030012355
:10303000C7F8A4302423C7F8A8300723C7F8AC305A
:103040000623C7F8B0300423C7F8B43007F174037F
:103050001846FDF7A1FD0346002B01D000F04EF805
:103060000F233B6603237B660023BB660023FB66BE
:1030700000233B6707F1600304211846FEF74EF971
:103080000346002B01D000F039F81B4B3B600023B6
:103090003B6200233B6300237B644FF48073FB653A
:1030A0004FF00063BB6401237B600123BB601A23E4
:1030B000FB6011233B6102237B610223BB614FF460
:1030C0008033FB613B461846FEF7A6FB0346002B08
:1030D00001D000F013F84FF40070FDF707FD034630
:1030E000002B01D000F00AF8FEF7DCFD00BFB83776
:1030F000BD4680BD001002404128020080B500AFEF
:10310000C820FDF745FA00224FF480710648FDF70C
:10311000B7FCC820FDF73CFA01224FF48071024849
:10312000FDF7AEFCECE700BF00080048DFF834D044
:10313000002103E00C4B5B58435004310B480C4B0F
:1031400042189A42F6D30B4A02E0002342F8043BAD
:10315000094B9A42F9D300F001F900F0F5FAFFF7B4
:10316000F1FEFEE700C00020083A00080000002041
:10317000080000200800002060010020FEE7000099
:1031800080B582B000AF114A104B1B6E43F00103B3
:1031900013660E4B1B6E03F001037B607B680B4ACA
:1031A0000A4B9B6D43F080539365084B9B6D03F076
:1031B00080533B603B6800220F216FF00100FDF758
:1031C000B8FA00BF0837BD4680BD00BF00100240FE
:1031D00080B58AB000AF786007F1140300221A604E
:1031E0005A609A60DA601A617B681B68174A9342DA
:1031F00028D1174A164B1B6E43F480531366144BA9
:103200001B6E03F480533B613B69114A104BDB6C2E
:1032100043F00103D3640E4BDB6C03F00103FB604E
:10322000FB68E0237B610223BB610023FB61032376
:103230003B6205237B6207F1140319464FF090406F
:10324000FDF7A0FA00BF2837BD4680BD0030014021
:103250000010024080B400AF00BFBD465DF8047BA3
:10326000704780B400AFFEE780B400AFFEE780B4E3
:1032700000AFFEE780B400AFFEE780B400AF00BF50
:10328000BD465DF8047B704780B500AFFFF758F985
:10329000FDF764F900BF80BD80B400AF00BFBD463C
:1032A0005DF8047B704780B400AF00BFBD465DF899
:1032B000047B704780B400AF00BFBD465DF8047B5F
:1032C000704780B400AF00BFBD465DF8047B704717
:1032D00080B483B000AF78604FF06043D3F8803E95
:1032E00003F00103002B13D04FF06043D3F8003EEE
:1032F00003F00103002B0BD000E000BF4FF0604350
:103300001B68002BF9D04FF060437A68D2B21A7074
:103310007B6818460C37BD465DF8047B704780B566
:1033200086B000AFF860B9607A6000237B6100234B
:103330007B6109E0BB685A1CBA601B781846FFF72E
:10334000C7FF7B6901337B617A697B689A42F1DB55
:103350007B6818461837BD4680BD000080B400AFBA
:10336000174A174BD3F8883043F47003C2F88830FB
:10337000144A144B1B6843F001031360114B0022E5
:103380009A60104A0F4B1B6823F0A85323F41023B4
:1033900013600C4B4FF48052DA600A4A094B1B68E9
:1033A00023F480231360074B00229A61044B4FF0F3
:1033B00000629A6000BFBD465DF8047B704700BFA5
:1033C00000ED00E00010024080B487B000AFF8606C
:1033D000B9607A6001237B6104E07B697A6802FB53
:1033E00003F37B617B69BA68B2FBF3F27B689A42B4
:1033F000F3D229E07B69BA68B2FBF3F33B617A69E7
:10340000BB68B3FBF2F102FB01F29B1ABB607A6965
:103410007B6892FBF3F37B613B69092B0ADDFB6858
:103420001B68591CFA6811603A69D2B23732D2B2BD
:103430001A7009E0FB681B68591CFA6811603A6948
:10344000D2B23032D2B21A707B69002BD2D100BF17
:103450001C37BD465DF8047B704780B588B000AF6F
:10346000F860B9607A60FB687B617DE0BB681B78BF
:10347000252B71D1BB680133BB60BB681B78642B03
:103480001ED0642B06DC582B50D0632B0ED0252B7E
:1034900058D05DE0732B2BD0732B02DC692B0FD03F
:1034A00056E0752B37D0782B40D051E0FB685A1C82
:1034B000FA607A68111D79601268D2B21A7047E01A
:1034C0007B681A1D7A601B68FB61FB69002B07DAB9
:1034D000FB695B42FB61FB685A1CFA602D221A7083
:1034E000F96907F10C030A221846FFF76DFF2FE078
:1034F0007B681A1D7A601B68BB6107E0FB685A1C79
:10350000FA60BA69511CB96112781A70BB691B78EC
:10351000002BF3D11CE07B681A1D7A60196807F153
:103520000C030A221846FFF74FFF11E07B681A1DB3
:103530007A601B68194607F10C0310221846FFF742
:1035400043FF05E0FB685A1CFA6025221A7000BF91
:10355000BB680133BB6007E0FB685A1CFA60BA68BD
:10356000511CB96012781A70BB681B78002B7FF46D
:103570007DAFFB6800221A70FB681A467B69D31A7C
:1035800018462037BD4680BD80B485B000AF786056
:1035900039600023FB6081E07B681B78252B77D1A5
:1035A0007B6801337B607B681B78583B202B6AD893
:1035B00001A252F823F000BF7936000887360008D0
:1035C00087360008873600088736000887360008E7
:1035D00087360008873600088736000887360008D7
:1035E000873600083D3600084B360008873600084D
:1035F0008736000887360008873600084B360008F3
:1036000087360008873600088736000887360008A6
:103610008736000887360008873600088736000896
:103620008736000859360008873600084B360008F0
:103630008736000887360008793600083B6804336F
:103640003B60FB680133FB6025E0FB680B33FB60EC
:103650003B6804333B601EE03B681A1D3A601B6800
:10366000BB6002E0FB680133FB60BB685A1CBA60B8
:103670001B78002BF6D10EE0FB680833FB603B683B
:1036800004333B6007E0FB680133FB6000BF02E0EE
:10369000FB680133FB607B6801337B607B681B78D0
:1036A000002B7FF479AFFB6818461437BD465DF8F0
:1036B000047B70470FB42DE9F04385B000AF0023C1
:1036C000FB6007F134033B603968386BFFF75CFF40
:1036D000F8606B461E46F9684B1EBB600B461A46E7
:1036E0004FF000034FEAC30949EA52794FEAC20892
:1036F0000B461A464FF00003DD0045EA5275D40030
:103700000B460733DB08DB00ADEB030D6B460033E4
:103710007B6007F134033B607B683A68396B18467D
:10372000FFF79BFEF8607B68FA6819460120FFF7F7
:10373000F6FDF860B546FB6818461437BD46BDE88F
:10374000F04304B07047000070B50D4E0D4CA41B43
:10375000A4100025A54209D10B4E0C4C00F020F816
:10376000A41BA4100025A54205D170BD56F8253034
:1037700098470135EEE756F8253098470135F2E7CE
:10378000F8390008F8390008F8390008FC39000851
:1037900002440346934200D1704703F8011BF9E746
:1037A000F8B500BFF8BC08BC9E467047F8B500BF2E
:0837B000F8BC08BC9E467047FE
:1037B8005468616E6B20796F752076657279206D1B
:1037C800756368004865792045726C616E642000F5
:1037D80068656C6C6F20776F726C642025640D0AC5
:1037E80000000000000000000000004F000000077B
:1037F800000700147F147F14242A7F2A1223130839
:10380800646236495522200005030000001C22414D
:10381800000041221C0014083E081408083E08084D
:103828005030000000080808080800606000002008
:10383800100804023E5149453E00427F4000426163
:103848005149462141454B311814127F10274545EF
:1038580045393C4A49493001710905033649494906
:1038680036064949291E0036360000005636000043
:1038780008142241001414141414004122140802DC
:10388800015109063E415D551E7E1111117E7F4989
:103898004949363E414141227F4141221C7F4949E5
:1038A80049417F090909013E4149497A7F080808C9
:1038B8007F00417F41002040413F017F08142241A1
:1038C8007F404040407F020C027F7F0408107F3E0B
:1038D8004141413E7F090909063E4151215E7F0968
:1038E800192946264949493201017F01013F4040D3
:1038F800403F1F2040201F3F4038403F63140814BA
:103908006307087008076151494543007F4141003A
:1039180002040810200041417F0004020102044013
:1039280040404040000003050020545454787F4430
:103938004444383844444444384444447F38545414
:10394800541804047E0505085454543C7F080404A4
:103958007800447D40002040443D007F102844000A
:1039680000417F40007C047C04787C08040478389B
:10397800444444387C14141408081414147C7C0837
:10398800040400485454542404043F44443C404034
:10399800207C1C2040201C3C4030403C44281028FF
:1039A800440C5050503C4464544C44000000000007
:1039B800000000000102030406070809A0860100B0
:1039C800400D0300801A060000350C0040420F002D
:1039D80080841E0000093D0000127A000024F400D3
:1039E80000366E010048E801006CDC0200000000AF
:0839F800B50100080000000009
:083A0000910100080000000024
:083A0800AAAAAAAA00093D00C8
:040000050800312D91
:00000001FF
