:020000040800F2
:1000000000C0002015480008CD480008DB48000863
:10001000E1480008E7480008ED480008000000003B
:10002000000000000000000000000000ED3A0008A1
:10003000F348000800000000BD3B0008014900082B
:1000400065480008654800086548000865480008DC
:1000500065480008654800086548000865480008CC
:1000600065480008654800086548000865480008BC
:1000700065480008654800086548000865480008AC
:10008000654800086548000865480008654800089C
:10009000654800086548000865480008654800088C
:1000A00065480008114900086548000865480008CF
:1000B00065480008000000000000000065480008D6
:1000C000654800086548000865480008654800085C
:1000D000654800086548000865480008654800084C
:1000E00065480008654800080000000000000000A6
:1000F0000000000000000000000000000000000000
:100100000000000065480008000000006548000885
:100110000000000000000000654800086548000875
:100120001F4900082D490008654800086548000877
:10013000654800080000000000000000000000000A
:100140006548000865480008654800083B49000804
:1001500065480008654800086548000865480008CB
:100160006548000865480008654800080000000070
:1001700065480008654800086548000865480008AB
:100180006548000865480008654800080000000050
:1001900010B5054C237833B9044B13B10448AFF3C1
:1001A00000800123237010BDA80000200000000083
:1001B0009C57000808B5034B1BB103490348AFF334
:1001C000008008BD00000000AC0000209C57000823
:1001D000034613F8012B002AFBD1181A0138704787
:1001E00080B588B000AF07F10C0300221A605A6096
:1001F0009A60DA601A61314A304B9B6D43F4804358
:1002000093652E4B9B6D03F48043BB60BB682B4A08
:100210002A4BDB6C43F00203D364284BDB6C03F006
:1002200002037B607B684FF46043FB6002233B6109
:1002300000237B610323BB610523FB6107F10C03F2
:1002400019461F4801F0CAFA1E4B1F4A1A601D4B7F
:100250004FF482725A601B4B00229A60194B4FF484
:10026000E062DA60174B00221A61164B00225A61D5
:10027000144B4FF400729A61124B2822DA61114B31
:1002800000221A620F4B00225A620E4B00229A6221
:100290000C4B0722DA620B4B00221A63094B002237
:1002A0005A63084802F0A6FE0346002B01D004F072
:1002B000A9FA00BF2037BD4680BD00BF0010024034
:1002C00000040048040200200038004080B58AB0D5
:1002D00000AF434A424BDB6C43F00403D364404B12
:1002E000DB6C03F004033B613B693D4A3C4BDB6C38
:1002F00043F08003D3643A4BDB6C03F08003FB6074
:10030000FB68374A364BDB6C43F00103D364344B54
:10031000DB6C03F00103BB60BB68314A304BDB6C24
:1003200043F00203D3642E4BDB6C03F002037B60CB
:100330007B682B4A2A4BDB6C43F00803D364284BC1
:10034000DB6C03F008033B603B6807F114030022F9
:100350001A605A609A60DA601A61002260212148AE
:1003600001F0D2FB00224FF480511F4801F0CCFB7A
:1003700000224FF480714FF0904001F0C5FB6023E4
:100380007B610123BB610023FB6100233B6207F11A
:1003900014031946134801F021FA4FF480537B618E
:1003A0000123BB610023FB6100233B6207F11403BF
:1003B00019460D4801F012FA4FF480737B61012356
:1003C000BB610023FB6100233B6207F11403194664
:1003D0004FF0904001F002FA00BF2837BD4680BDC3
:1003E00000100240000800480004004880B584B0B6
:1003F00000AFF860B9601346FB80C8230122F9689A
:10040000034802F07FFE002318461037BD4680BD2A
:100410000402002080B582B000AF00237B6019E0A9
:100420007B68DBB2184600F0CDF8002000F0DEF863
:10043000002000F0F8F800233B6005E0002000F009
:1004400081F83B6801333B603B68842BF6DD7B68B9
:1004500001337B607B68032BE2DD002318460837FD
:10046000BD4680BD80B586B000AFF860B9607A60E7
:10047000FB68DBB2184600F0A5F8BB68DBB20533B9
:10048000DBB2184600F0B2F800237B611EE00023C7
:100490003B6112E07B697A6813441B78A3F1200268
:1004A00013469B001A443B6913440E4AD35C18461A
:1004B00000F048F83B6901333B613B69042BE9DDFF
:1004C000002000F03FF87B6901337B617868FFF71B
:1004D0007FFE02467B699A42D9D800231846183716
:1004E000BD4680BDF058000880B500AF00F0DEF8D2
:1004F0000346184680BD000080B584B000AF0346B7
:10050000FB7100224FF480510C4801F0FDFA0022EB
:1005100040210B4801F0F8FA07F10F01FB1D012201
:100520001846FFF763FF01224FF48051034801F0A2
:10053000EBFA00BF1037BD4680BD00BF0004004885
:100540000008004880B584B000AF0346FB7100226C
:100550004FF480510E4801F0D7FA012240210D4896
:1005600001F0D2FA07F10F01FB1D01221846FFF737
:100570003DFF00224021074801F0C6FA01224FF456
:100580008051034801F0C0FA00BF1037BD4680BD5E
:10059000000400480008004880B500AF0022202178
:1005A000074801F0B1FA0A2003F05EFB0122202186
:1005B000034801F0A9FA0A2003F056FB00BF80BDF2
:1005C0000008004880B582B000AF0346FB71FB799C
:1005D00003F00F03FB71FB7963F04F03DBB21846A6
:1005E000FFF78AFF00BF0837BD4680BD80B582B0E7
:1005F00000AF0346FB71FB7903F07F03FB71FB79CE
:100600001B09DBB243F01003DBB21846FFF774FF9F
:10061000FB7903F00F03DBB21846FFF76DFF00BF55
:100620000837BD4680BD80B582B000AF0346FB7180
:10063000FB7903F03F03FB71FB7943F04003DBB22E
:100640001846FFF759FF00BF0837BD4680BD80B58B
:1006500000AFAF20FFF750FF00BF80BD80B582B074
:1006600000AF0346FB71FB791D2B01D81E23FB71E4
:10067000FB79282B01D92823FB718120FFF73CFF50
:10068000FB79DB43DBB203F03F03DBB21846FFF735
:1006900033FFFB7918460837BD4680BD80B500AFF3
:1006A000A620FFF729FF00BF80BD000080B500AF86
:1006B000FFF772FF00224021104801F025FAA02028
:1006C000FFF71AFFFFF7EAFFC820FFF715FFA22088
:1006D000FFF712FF2F20FFF70FFFF820FFF70CFFA7
:1006E0000020FFF709FF2120FFF706FF1E20FFF77C
:1006F000B5FFFFF7ACFF0023184680BD0008004897
:1007000090B583B000AF7A4B00221A70794B01226A
:100710001A70784B01225A70764B01229A70754BF1
:100720000C22DA70734B0F225A71724B0F229A719E
:10073000704B0222DA716F4B08221A726D4B06223F
:100740005A726C4B00229A726A4B0022DA72694B21
:1007500001221A73674B01225A73664B01229A7366
:10076000654A4FF0E7334FF0E704C2E90234624ACA
:100770004FF0C2334FF0C204C2E908345E4A5F4B07
:100780004FF0C204C2E90E345B4A55A418CCC2E94A
:100790001434594A54A418CCC2E91A34564A584B56
:1007A0004FF0C204C2E9203400F096FD002000F0B2
:1007B000EBFD002000F0FAFD642000F0AFFE012008
:1007C00000F0DCF8032000F0D9F800F068FC00F03D
:1007D00072FA00F05BFA7023FB70FB781946072071
:1007E00000F0B9F90B23BB70BB781946002000F06C
:1007F000B2F9404B1B78184600F017FB3D4B5B7875
:10080000184600F035FB3B4B9B78184600F053FB35
:10081000384B1B7B184600F0F6FC364B5B7B1846CA
:1008200000F014FD334B9B7B184600F032FD314B3A
:100830005B79184600F0CAFB2E4B9B79184600F0F6
:10084000DFFB2C4B1B7A184600F0F5FB294B5B7A3B
:10085000184600F00AFC00237B603AE07B68D8B2BF
:1008600025497A6813465B001344DB000B441B7870
:10087000194600F077FB7B68D8B21F497A681346A7
:100880005B001344DB000B4401331B78194600F076
:1008900035FB7B68D8B218497A6813465B0013446D
:1008A000DB000B4411331B78194600F078FC7B68A1
:1008B000D8B211497A6813465B001344DB000B443D
:1008C000083318CB1A46234600F0FCFB7B68013343
:1008D0007B607B68052BC1DD00BF0C37BD4690BD3A
:1008E000C4C2C2C2C2000000C5C2C2C2C20000006F
:1008F000680200206C02002090020020C3C2C2C225
:10090000C6C2C2C280B582B000AF00F02BFD034664
:10091000FB71002000F002F90346BB71BB795B0854
:10092000DBB203F00103002B14BF012300237B7112
:10093000BB7903F00103002B14BF012300233B719B
:100940007B7983F00103DBB2002B01D0012310E09F
:10095000FB7983F00103DBB2002B01D0022308E016
:100960003B7983F00103DBB2002B01D0042300E0CC
:10097000032318460837BD4680BD000080B582B00D
:1009800000AF0346FB71FFF7BDFF03461A46304B2D
:100990001A70FB79042B57D801A252F823F000BF3C
:1009A0003F0A0008B5090008C9090008EF09000856
:1009B000170A0008002000F0F2F9002000F0E4FC23
:1009C000234B01221A703FE0214B1B78012B07D1EA
:1009D000012000F0E4F941F2941000F0ABFD02E0D8
:1009E000002000F0D1FC1A4B02221A702CE0184BA8
:1009F0001B78032B25D0002000F0C6FC012000F05E
:100A0000F1F9012000F0C0FC822000F093FD104BB2
:100A100003221A7015E00E4B1B78042B13D0002014
:100A200000F0B2FC002000F0DDF9012000F0ACFC89
:100A3000822000F07FFD064B04221A7003E000BF05
:100A400002E000BF00E000BF00BF0837BD4680BD28
:100A50006802002080B500AF00F092FB0346002B37
:100A600014BF01230023DBB283F00103DBB203F0E8
:100A70000103DBB2184680BD80B582B000AF78605C
:100A80007B6818787B68591C7B685B6A1A4600F0A3
:100A900043F9002318460837BD4680BD80B584B0B1
:100AA00000AF78600123FB7300F001FB03461A4698
:100AB0007B6883F83A207B6893F83A30052B25D879
:100AC000154B1B7B002B06D000F00AF903461A4693
:100AD0007B685A6209E07B6893F83A30184600F068
:100AE00039FB03461A467B685A627B685B6A202B97
:100AF0000AD87B685A1C7B685B6A1946104600F06E
:100B00009DF80023FB7301E00123FB73FB7B184678
:100B10001037BD4680BD00BF6C02002080B584B098
:100B200000AF0346FB71002000F040FCFB7903F0AE
:100B30001F03DBB23B7307F10C0107F10C03022228
:100B4000184600F0D3FC012000F030FC7B7B1846F7
:100B50001037BD4680BD80B584B000AF03460A465D
:100B6000FB711346BB71002000F020FC97F90730A1
:100B700003F01F035BB243F020035BB2DBB23B73B5
:100B8000BB797B7307F10C0107F10C0302221846B5
:100B900000F0ACFC012000F009FC00BF1037BD469E
:100BA00080BD80B586B000AF0346B9607A60FB7344
:100BB000002000F0FBFBFB7B03F01F03DBB2FB75A7
:100BC00007F1170107F117030122184600F08EFC08
:100BD0007B681A46B968B86800F088FC012000F00C
:100BE000E5FB00BF1837BD4680BD80B586B000AFBD
:100BF0000346B9607A60FB73002000F0D7FB97F9D9
:100C00000F3003F01F035BB243F020035BB2DBB293
:100C1000FB7507F1170107F117030122184600F0D1
:100C200065FC7B681A46B968B86800F05FFC012073
:100C300000F0BCFB00BF1837BD4680BD80B584B056
:100C400000AF78603960002000F0B0FB6123FB73D7
:100C500007F10F0107F10F030122184600F046FCCF
:100C60003B68202B06DC3B681A467968786800F000
:100C70003DFC04E020227968786800F037FC012010
:100C800000F094FB00BF1037BD4680BD80B582B038
:100C900000AF002000F08AFBE123FB71F91DFB1D72
:100CA0000122184600F022FC012000F07FFB00BF6B
:100CB0000837BD4680BD80B582B000AF002000F08F
:100CC00075FBE223FB71F91DFB1D0122184600F0A4
:100CD0000DFC012000F06AFB00BF0837BD4680BD57
:100CE00080B582B000AF002000F060FB6023FB7194
:100CF000F91DFB1D0122184600F0F8FBF91DFB1D34
:100D00000122184600F0F2FB012000F04FFBFB79B6
:100D100018460837BD4680BD80B586B000AF034693
:100D2000B9607A60FB73002000F040FBFB7B63F04E
:100D30005703DBB2FB7507F1170107F11703012217
:100D4000184600F0D3FB7B68202B06DC7B681A4634
:100D5000B968B86800F0CAFB04E02022B968B86836
:100D600000F0C4FB012000F021FB00BF1837BD4696
:100D700080BD80B582B000AF002000F017FBFF23DC
:100D8000FB71F91DFB1D0122184600F0AFFB01208D
:100D900000F00CFBFB7918460837BD4680BD80B5D6
:100DA00082B000AF0346FB71FB79002B0BD0002013
:100DB000FFF7B4FE034643F00203DBB219460020FE
:100DC000FFF7C9FE0AE00020FFF7A8FE034623F064
:100DD0000203DBB219460020FFF7BDFE00BF083753
:100DE000BD4680BD80B582B000AF0346FB71FB7984
:100DF000002B0BD00020FFF791FE034643F00103C8
:100E0000DBB219460020FFF7A6FE0AE00020FFF73C
:100E100085FE034623F00103DBB219460020FFF7ED
:100E20009AFE00BF0837BD4680BD80B582B000AFD6
:100E30000346FB71FB79002B0BD00020FFF76EFE01
:100E4000034643F04003DBB219460020FFF783FE60
:100E50000AE00020FFF762FE034623F04003DBB206
:100E600019460020FFF777FE00BF0837BD4680BD5A
:100E700080B582B000AF0346FB71FB79002B0BD02D
:100E80000020FFF74BFE034643F02003DBB2194678
:100E90000020FFF760FE0AE00020FFF73FFE034658
:100EA00023F02003DBB219460020FFF754FE00BFF9
:100EB0000837BD4680BD80B582B000AF0346FB71E8
:100EC000FB79002B0BD00020FFF728FE034643F0F0
:100ED0001003DBB219460020FFF73DFE0AE00020B8
:100EE000FFF71CFE034623F01003DBB21946002077
:100EF000FFF731FE00BF0837BD4680BD80B582B028
:100F000000AF03460A46FB711346BB71BB79002B49
:100F100011D00120FFF702FE03465AB2FB790121EE
:100F200001FA03F35BB213435BB2DBB21946012053
:100F3000FFF711FE12E00120FFF7F0FD03465AB261
:100F4000FB79012101FA03F35BB2DB435BB213408F
:100F50005BB2DBB219460120FFF7FDFD00BF083789
:100F6000BD4680BD80B582B000AF03460A46FB7126
:100F70001346BB71BB79002B11D00220FFF7CEFDC9
:100F800003465AB2FB79012101FA03F35BB2134322
:100F90005BB2DBB219460220FFF7DDFD12E0022052
:100FA000FFF7BCFD03465AB2FB79012101FA03F3B6
:100FB0005BB2DB435BB213405BB2DBB2194602208B
:100FC000FFF7C9FD00BF0837BD4680BD80B582B0C0
:100FD00000AF0346FB710420FFF7A0FD03465BB2A0
:100FE00023F00F035AB297F9073013435BB2DBB219
:100FF00019460420FFF7AFFD00BF0837BD4680BD8E
:1010000080B582B000AF0346FB710420FFF786FD78
:1010100003465BB203F00F035AB2FB791B015BB2CC
:1010200013435BB2DBB219460420FFF794FD00BF07
:101030000837BD4680BD80B582B000AF0346FB7166
:101040000620FFF76BFD03465BB223F028035AB27C
:1010500097F9073013435BB2DBB219460620FFF75E
:101060007AFD00BF0837BD4680BD80B582B000AFB5
:101070000346FB710620FFF751FD03465BB223F0E8
:1010800006035AB297F9073013435BB2DBB2194635
:101090000620FFF760FD00BF0837BD4680BD80B564
:1010A00000AF40210720FFF756FD00BF80BD80B58F
:1010B00000AFFFF75EFE03465B1003F00703DBB2F1
:1010C000184680BDF0B589B000AF0146C7E90023DE
:1010D0000B46FB730023FB61FB7B012B02D805232E
:1010E000FB6107E0FB7B012B04D9FB7B052B01D8BF
:1010F0000123FB610023BB611BE0BB69D900D7E979
:101100000023C1F12006A1F1200022FA01F403FA24
:1011100006F6344323FA00F0044323FA01F5E1B262
:1011200007F11002BB6913440A461A70BB69013308
:10113000BB61BA69FB699A42DFDBFB7B0A33DBB236
:1011400007F11001FA691846FFF74FFD00BF243779
:10115000BD46F0BD80B584B000AF0346FB71FB799E
:101160001133DBB207F10F0101221846FFF719FD19
:10117000FB7B03F03F03DBB218461037BD4680BD52
:1011800080B500AF1720FFF7C9FC034603F0010349
:10119000002B14BF01230023DBB2184680BD80B5AD
:1011A00082B000AF03460A46FB711346BB71BB79A0
:1011B000002B11D01C20FFF7B1FC03465AB2FB797B
:1011C000012101FA03F35BB213435BB2DBB21946B0
:1011D0001C20FFF7C0FC12E01C20FFF79FFC034619
:1011E0005AB2FB79012101FA03F35BB2DB435BB234
:1011F00013405BB2DBB219461C20FFF7ACFC00BF0A
:101200000837BD4680BD80B582B000AF0346FB7194
:10121000FB79002B0BD01D20FFF780FC034643F029
:101220000403DBB219461D20FFF795FC0AE01D20E0
:10123000FFF774FC034623F00403DBB219461D20BC
:10124000FFF789FC00BF0837BD4680BD80B582B07E
:1012500000AF0346FB71FB79002B0BD01D20FFF77D
:101260005DFC034643F00203DBB219461D20FFF785
:1012700072FC0AE01D20FFF751FC034623F0020335
:10128000DBB219461D20FFF766FC00BF0837BD46DC
:1012900080BD80B582B000AF0346FB71FB79002BA7
:1012A0000BD01D20FFF73AFC034643F00103DBB2ED
:1012B00019461D20FFF74FFC0AE01D20FFF72EFC0A
:1012C000034623F00103DBB219461D20FFF743FC60
:1012D00000BF0837BD4680BD80B582B000AF00F0CA
:1012E00077F80C4A0B4BDB6C43F00403D364094BD7
:1012F000DB6C03F004037B607B68074801F07AFE37
:1013000000F00CF800F016F800F020F800BF0837E5
:10131000BD4680BD00100240C400002080B500AF73
:101320000249034800F05AFA00BF80BD00000020C7
:101330000008004880B500AF0249034800F04EFAAB
:1013400000BF80BD140000200008004880B500AF39
:101350000249034800F042FA00BF80BD2800002087
:101360000008004880B500AF4FF48071054800F0D8
:10137000B3FB0346002B14BF01230023DBB2184646
:1013800080BD00BF0008004880B582B000AF0346B2
:10139000FB71FB791A464FF48071034800F0B4FBEF
:1013A00000BF0837BD4680BD0008004880B582B048
:1013B00000AF0346FB71FB791A464FF400710348F6
:1013C00000F0A2FB00BF0837BD4680BD0008004802
:1013D00080B58AB000AF414B414A1A603F4B38227A
:1013E000DA613E4B00229A603C4B00225A613B4B33
:1013F00000221A61394B4FF4E062DA60374B002269
:101400001A62364B00225A62344B00229A62334BE6
:101410000722DA62314B4FF400729A612F4B4FF47E
:1014200082725A602F4A2F4BDB6C43F00403D36463
:101430002C4BDB6C03F004033B613B69294A294BCD
:10144000DB6C43F00403D364264BDB6C03F0040332
:10145000FB60FB68234A234BDB6C43F00403D3643B
:10146000204BDB6C03F00403BB60BB681D4A1D4BC3
:101470009B6D43F4004393651A4B9B6D03F400434B
:101480007B607B684FF480637B610223BB61022336
:10149000FB6102233B6206237B6207F114031946BA
:1014A000114800F09BF94FF400637B6106237B62D7
:1014B00007F1140319460C4800F090F94FF48053DB
:1014C0007B6106237B6207F114031946064800F08E
:1014D00085F900BF2837BD4680BD00BFC40000208D
:1014E000003C0040001002400008004880B586B073
:1014F00002AFF860B9607A607B689AB24FF47A7391
:1015000000931346BA68F968034801F051FF034697
:1015100018461037BD4680BDC400002080B582B09B
:1015200000AF7860786800F05FF800BF0837BD460C
:1015300080BD000080B584B000AF78607B68074A4A
:10154000A2FB03239B09FB60FB680133184600F0F4
:101550004BF800BF1037BD4680BD00BFD34D6210B1
:1015600080B500AF032000F005F9002000F006F878
:1015700003F07AF90023184680BD000080B582B0E0
:1015800000AF7860094B1B68094AA2FB03239B0943
:10159000184600F016F9002279684FF0FF3000F08D
:1015A000F4F8002318460837BD4680BD40000020EF
:1015B000D34D621080B400AF044B1B680133034A63
:1015C000136000BFBD465DF8047B70472003002018
:1015D00080B400AF034B1B681846BD465DF8047B22
:1015E000704700BF2003002080B584B000AF786052
:1015F0000023FB60FFF7ECFFF86000BFFFF7E8FF98
:101600000246FB68D21A7B689A42F7D300BF1037B4
:10161000BD4680BD80B485B000AF78607B6803F0C4
:101620000703FB600C4BDB68BB60BA684FF6FF0337
:101630001340BB60FB681A02BB68134343F0BF63EF
:1016400043F40033BB60044ABB68D36000BF143767
:10165000BD465DF8047B704700ED00E080B400AF4C
:10166000044BDB681B0A03F007031846BD465DF810
:10167000047B704700ED00E080B483B000AF034608
:101680003960FB7197F90730002B0BDA0D49FB79B4
:1016900003F00F03043B3A68D2B21201D2B20B44FA
:1016A0001A7609E0084997F907303A68D2B2120170
:1016B000D2B20B4483F8002300BF0C37BD465DF85F
:1016C000047B704700ED00E000E100E080B489B0E9
:1016D00000AFF860B9607A60FB6803F00703FB6154
:1016E000FB69C3F10703042B28BF0423BB61FB691B
:1016F0000433062B02D9FB69033B00E000237B6126
:101700000122BB6902FA03F35A1EBB681A407B69C7
:101710009A4001217B6901FA03F3591E7B680B4053
:10172000134318462437BD465DF8047B704700001C
:1017300080B582B000AF78607B68013BB3F1807FF9
:1017400001D301230FE00A4A7B68013B53600F215C
:101750004FF0FF30FFF790FF054B00229A60044BDB
:1017600007221A60002318460837BD4680BD00BF17
:1017700010E000E080B582B000AF78607868FFF7D5
:1017800049FF00BF0837BD4680BD80B586B000AFB9
:101790000346B9607A60FB7300237B61FFF75EFF4D
:1017A00078617A68B9687869FFF790FF024697F91F
:1017B0000F3011461846FFF75FFF00BF1837BD46D0
:1017C00080BD80B582B000AF78607868FFF7B0FF69
:1017D000034618460837BD4680BD000080B487B078
:1017E00000AF7860396000237B610023FB60002339
:1017F0003B6154E13B681A6801217B6901FA03F3FC
:101800001340FB60FB68002B00F046813B685B687F
:10181000022B03D03B685B68122B23D17B69DA086B
:101820007B68083253F822303B617B6903F0070381
:101830009B000F2202FA03F3DB433A6913403B613A
:101840003B681A697B6903F007039B0002FA03F304
:101850003A6913433B617B69DA087B68083239696E
:1018600043F822107B681B683B617B695B000322A5
:1018700002FA03F3DB433A6913403B613B685B6860
:1018800003F003027B695B0002FA03F33A69134336
:101890003B617B683A691A603B685B68012B0BD03F
:1018A0003B685B68022B07D03B685B68112B03D059
:1018B0003B685B68122B30D17B689B683B617B691E
:1018C0005B00032202FA03F3DB433A6913403B61F6
:1018D0003B68DA687B695B0002FA03F33A691343F9
:1018E0003B617B683A699A607B685B683B61012277
:1018F0007B6902FA03F3DB433A6913403B613B68BF
:101900005B681B0903F001027B6902FA03F33A6981
:1019100013433B617B683A695A607B68DB683B61D3
:101920007B695B00032202FA03F3DB433A6913404D
:101930003B613B689A687B695B0002FA03F33A6992
:1019400013433B617B683A69DA603B685B6803F08C
:101950008053002B00F0A080584A584B1B6E43F078
:1019600001031366554B1B6E03F00103BB60BB689C
:10197000534A7B699B08023352F823303B617B69F1
:1019800003F003039B000F2202FA03F3DB433A69DF
:1019900013403B617B68B3F1904F19D07B68494A93
:1019A000934213D07B68484A93420DD07B68474AE4
:1019B000934207D07B68464A934201D1042308E052
:1019C000072306E0032304E0022302E0012300E0F2
:1019D00000237A6902F00302920093403A691343AC
:1019E0003B6137497B699B0802333A6941F8232000
:1019F000384B1B683B61FB68DB433A6913403B6132
:101A00003B685B6803F48033002B03D03A69FB68C2
:101A100013433B612F4A3B6913602E4B5B683B616C
:101A2000FB68DB433A6913403B613B685B6803F446
:101A30000033002B03D03A69FB6813433B61254A0E
:101A40003B695360234B9B683B61FB68DB433A690E
:101A500013403B613B685B6803F48013002B03D0A9
:101A60003A69FB6813433B611A4A3B699360194B1F
:101A7000DB683B61FB68DB433A6913403B613B68D1
:101A80005B6803F40013002B03D03A69FB6813432F
:101A90003B61104A3B69D3607B6901337B613B68E2
:101AA0001A687B6922FA03F3002B7FF4A3AE00BF10
:101AB0001C37BD465DF8047B704700BF0010024034
:101AC000000001400004004800080048000C0048E5
:101AD000001000480004014080B485B000AF786079
:101AE0000B467B807B681A697B881340002B02D0F1
:101AF0000123FB7301E00023FB73FB7B18461437C3
:101B0000BD465DF8047B704780B483B000AF786059
:101B10000B467B8013467B707B78002B03D07A8842
:101B20007B689A6102E07A887B689A6200BF0C3712
:101B3000BD465DF8047B704780B400AF054A054B95
:101B40001B6843F48073136000BFBD465DF8047BDF
:101B5000704700BF0070004080B400AF044B1B68AA
:101B600003F4C0631846BD465DF8047B704700BFB0
:101B70000070004080B485B000AF78600023FB6047
:101B80007B68B3F5007F2FD1224B1B6803F4C06341
:101B9000B3F5007F37D01F4A1E4B1B6823F4C06388
:101BA00043F4007313601C4B1B681C4AA2FB032305
:101BB0009B0C322202FB03F3FB6002E0FB68013B5B
:101BC000FB60FB68002B06D0124B5B6903F480635B
:101BD000B3F5806FF2D00F4B5B6903F48063B3F50C
:101BE000806F10D103230FE00A4B1B6803F4C0631E
:101BF000B3F5806F07D0074A064B1B6823F4C06318
:101C000043F480631360002318461437BD465DF823
:101C1000047B7047007000404000002083DE1B43BF
:101C200080B58CB000AF78600023BB627B681B6816
:101C300003F01003002B00F0DB80A24B9B6803F045
:101C40000C03002B40F084809E4B1B6803F00203C2
:101C5000002B05D07B689B69002B01D101239BE3FE
:101C60007B681A6A974B1B6803F00803002B04D0AB
:101C7000944B1B6803F0F00305E0924BD3F89430CB
:101C80001B0903F0F0039A4223D97B681B6A1846AC
:101C900000F0A4FD0346002B01D001237CE3894A18
:101CA000884B1B6843F0080313608649854B1B680B
:101CB00023F0F0027B681B6A13430B608149814B60
:101CC0005B6823F47F427B68DB691B0213434B6034
:101CD00022E07C4A7B4B1B6843F008031360794980
:101CE000784B1B6823F0F0027B681B6A13430B6080
:101CF0007449744B5B6823F47F427B68DB691B0289
:101D000013434B607B681B6A184600F067FD03466F
:101D1000002B01D001233FE300F066FC0146694B34
:101D20009B6803F0F002F0237B627B6A93FAA3F3D3
:101D30003B623B6AB3FA83F322FA03F3624AD35C51
:101D400021FA03F3614A13600020FFF717FC4FE00C
:101D50007B689B69002B32D05A4A5A4B1B6843F070
:101D600001031360FFF734FCB86208E0FFF730FCB2
:101D70000246BB6AD31A022B01D903230CE3514B51
:101D80001B6803F00203002BF0D04E4A4D4B1B683A
:101D900043F0080313604B494A4B1B6823F0F002E1
:101DA0007B681B6A13430B604649464B5B6823F410
:101DB0007F427B68DB691B0213434B6018E0414A9A
:101DC000404B1B6823F001031360FFF701FCB8626E
:101DD00008E0FFF7FDFB0246BB6AD31A022B01D9CC
:101DE0000323D9E2374B1B6803F00203002BF0D129
:101DF0007B681B6803F00103002B7AD0314B9B6892
:101E000003F00C03082B0BD02E4B9B6803F00C0344
:101E10000C2B11D12B4BDB6803F00303032B0BD1ED
:101E2000284B1B6803F40033002B61D07B685B6890
:101E3000002B5DD10123AFE27B685B68B3F5803F87
:101E400006D1204A1F4B1B6843F4803313601DE00A
:101E50007B685B68B3F5A02F0CD11A4A194B1B683D
:101E600043F480231360174A164B1B6843F48033F6
:101E700013600BE0134A134B1B6823F48033136089
:101E8000104A104B1B6823F4802313607B685B6847
:101E9000002B13D0FFF79CFBB86208E0FFF798FB1C
:101EA0000246BB6AD31A642B01D9032374E2054BA3
:101EB0001B6803F40033002BF0D01AE0FFF788FB17
:101EC000B8620EE000100240B85A0008400000203E
:101ED000FFF77EFB0246BB6AD31A642B01D90323AA
:101EE0005AE2B04B1B6803F40033002BF0D100E042
:101EF00000BF7B681B6803F00203002B7FD0A94B57
:101F00009B6803F00C03042B0BD0A64B9B6803F0DB
:101F10000C030C2B27D1A34BDB6803F00303022B2C
:101F200021D1A04B1B6803F48063002B05D07B6894
:101F3000DB68002B01D101232EE29A48994B5B68A4
:101F400023F0F8527B6819694FF0F853FB61FB6985
:101F500093FAA3F3BB61BB69B3FA83F301FA03F30A
:101F6000134343604BE07B68DB68002B2ED08D4A27
:101F70008C4B1B6843F480731360FFF729FBB86236
:101F800008E0FFF725FB0246BB6AD31A022B01D9F2
:101F9000032301E2834B1B6803F48063002BF0D022
:101FA0008048804B5B6823F0F8527B6819694FF0DA
:101FB000F8537B617B6993FAA3F33B613B69B3FA06
:101FC00083F301FA03F31343436018E0754A754B3A
:101FD0001B6823F480731360FFF7FAFAB86208E015
:101FE000FFF7F6FA0246BB6AD31A022B01D9032384
:101FF000D2E16C4B1B6803F48063002BF0D17B684B
:102000001B6803F00803002B3CD07B685B69002B46
:102010001CD0644A634BD3F8943043F00103C2F8F8
:102020009430FFF7D5FAB86208E0FFF7D1FA02461C
:10203000BB6AD31A022B01D90323ADE1594BD3F864
:10204000943003F00203002BEFD01BE0554A554BB0
:10205000D3F8943023F00103C2F89430FFF7B8FAB4
:10206000B86208E0FFF7B4FA0246BB6AD31A022B43
:1020700001D9032390E14B4BD3F8943003F00203D2
:10208000002BEFD17B681B6803F00403002B00F0EA
:10209000A980002387F82F30424B9B6D03F08053BB
:1020A000002B0ED13F4A3F4B9B6D43F0805393650D
:1020B0003C4B9B6D03F08053FB60FB68012387F86A
:1020C0002F30394B1B6803F48073002B18D1364A2C
:1020D000354B1B6843F480731360FFF779FAB862DD
:1020E00008E0FFF775FA0246BB6AD31A022B01D942
:1020F000032351E12C4B1B6803F48073002BF0D0B9
:102100007B689B68012B08D1264A264BD3F8903078
:1021100043F00103C2F8903024E07B689B68052BF4
:1021200010D1204A1F4BD3F8903043F00403C2F87B
:1021300090301C4A1B4BD3F8903043F00103C2F897
:1021400090300FE0174A174BD3F8903023F001037B
:10215000C2F89030134A134BD3F8903023F00403A5
:10216000C2F890307B689B68002B16D0FFF730FADE
:10217000B8620AE0FFF72CFA0246BB6AD31A41F2B2
:102180008832934201D9032306E1064BD3F89030FD
:1021900003F00203002BEDD01AE0FFF719FAB86242
:1021A0000FE000BF0010024000700040FFF710FA7F
:1021B0000246BB6AD31A41F28832934201D9032303
:1021C000EAE0774BD3F8903003F00203002BEDD117
:1021D00097F82F30012B05D1714A714B9B6D23F07D
:1021E000805393657B681B6803F02003002B3CD071
:1021F0007B685B6A002B1CD0694A694BD3F8983026
:1022000043F00103C2F89830FFF7E2F9B86208E042
:10221000FFF7DEF90246BB6AD31A022B01D903236A
:10222000BAE05F4BD3F8983003F00203002BEFD0F5
:102230001BE05B4A5A4BD3F8983023F00103C2F8F5
:102240009830FFF7C5F9B86208E0FFF7C1F9024618
:10225000BB6AD31A022B01D903239DE0504BD3F85C
:10226000983003F00203002BEFD17B689B6A002BB0
:1022700000F091804A4B9B6803F00C030C2B00F09C
:1022800088807B689B6A022B55D1454A444B1B686A
:1022900023F080731360FFF79BF9B86208E0FFF743
:1022A00097F90246BB6AD31A022B01D9032373E0C4
:1022B0003B4B1B6803F00073002BF0D138497B685F
:1022C0001B6B013B1A017B685B6B1B021A437B682B
:1022D000DB6A1A437B68DB6B5B08013B5B051A43D7
:1022E0007B681B6C5B08013B5B061A437B689B6B3E
:1022F000DB061343CB602A4A294B1B6843F08073EB
:102300001360274A264BDB6843F08073D360FFF7E6
:102310005FF9B86208E0FFF75BF90246BB6AD31ABF
:10232000022B01D9032337E01D4B1B6803F0007318
:10233000002BF0D02FE01A4A194B1B6823F0807352
:102340001360174B1B6803F00063002B05D1144A80
:10235000134BDB6823F00303D360114A104BDB6897
:1023600023F0887323F48033D360FFF731F9B86228
:1023700008E0FFF72DF90246BB6AD31A022B01D9F8
:10238000032309E0064B1B6803F00073002BF0D118
:1023900001E0012300E0002318463037BD4680BD30
:1023A0000010024080B586B000AF7860396000232D
:1023B0007B61894B1B6803F007023B689A4210D28D
:1023C0008549854B1B6823F007023B6813430B606C
:1023D000814B1B6803F007023B689A4201D001233E
:1023E000F6E07B681B6803F00203002B08D07B49F2
:1023F0007A4B9B6823F0F0027B689B6813438B60E9
:102400007B681B6803F00103002B00F08E807B6863
:102410005B68022B07D1714B1B6803F40033002B60
:1024200021D10123D4E07B685B68032B07D16B4B80
:102430001B6803F00073002B15D10123C8E07B68F3
:102440005B68002B07D1654B1B6803F00203002B70
:1024500009D10123BCE0614B1B6803F48063002BAE
:1024600001D10123B4E05D495C4B9B6823F003027A
:102470007B685B6813438B60FFF7AAF878617B6821
:102480005B68022B12D10AE0FFF7A2F802467B69D3
:10249000D31A41F28832934201D9032398E04F4B7B
:1024A0009B6803F00C03082BEED13EE07B685B6871
:1024B000032B12D10AE0FFF78BF802467B69D31A8F
:1024C00041F28832934201D9032381E0434B9B6858
:1024D00003F00C030C2BEED127E07B685B68002B2C
:1024E0001DD10AE0FFF774F802467B69D31A41F266
:1024F0008832934201D903236AE0384B9B6803F08A
:102500000C03002BEED110E0FFF762F802467B6966
:10251000D31A41F28832934201D9032358E02F4B5A
:102520009B6803F00C03042BEED12B4B1B6803F0CC
:1025300007023B689A4210D92749274B1B6823F0B2
:1025400007023B6813430B60234B1B6803F0070231
:102550003B689A4201D001233AE07B681B6803F094
:102560000403002B08D01D491C4B9B6823F4E06238
:102570007B68DB6813438B607B681B6803F0080390
:10258000002B09D01549154B9B6823F460527B68DA
:102590001B69DB0013438B6000F026F801460F4BEC
:1025A0009B6803F0F002F0233B613B6993FAA3F3CD
:1025B000FB60FB68B3FA83F322FA03F3084AD35CA7
:1025C00021FA03F3074A13600020FEF7D7FF002328
:1025D00018461837BD4680BD00200240001002405A
:1025E000B85A00084000002080B495B000AF002326
:1025F000FB640023BB6400233B640223FB630223D0
:10260000BB6300237B64714B9B6803F00C03002BBE
:102610000BD06E4B9B6803F00C030C2B3CD16B4B27
:10262000DB6803F00303012B36D1684B1B6803F012
:102630000803002B12D1654BD3F8943003F4706279
:102640004FF470637B637B6B93FAA3F33B633B6B49
:10265000B3FA83F322FA03F3FB640FE05B4B1B68CE
:1026600003F0F002F023FB62FB6A93FAA3F3BB6270
:10267000BB6AB3FA83F322FA03F3FB64544AFB6C9C
:1026800052F82330FB64514B9B6803F00C03002B82
:1026900013D1FB6C7B6410E04C4B9B6803F00C0384
:1026A000042B02D14B4B7B6407E0484B9B6803F043
:1026B0000C03082B01D1484B7B64444B9B6803F00F
:1026C0000C030C2B7BD1414BDB6803F003033B6411
:1026D0003E4BDB6803F0700270237B627B6A93FAE7
:1026E000A3F33B623B6AB3FA83F322FA03F30133A9
:1026F000BB633B6C022B02D0032B18D02FE0354A72
:10270000BB6BB2FBF3F3314AD26802F4FE414FF4E3
:10271000FE42FA61FA6992FAA2F2BA61BA69B2FAB1
:1027200082F221FA02F202FB03F3BB642FE02A4A91
:10273000BB6BB2FBF3F3254AD26802F4FE414FF4BF
:10274000FE427A617A6992FAA2F23A613A69B2FA81
:1027500082F221FA02F202FB03F3BB6417E0FA6C87
:10276000BB6BB2FBF3F3194AD26802F4FE414FF49B
:10277000FE42FA60FA6892FAA2F2BA60BA68B2FA55
:1027800082F221FA02F202FB03F3BB6400BF0F4B9B
:10279000DB6803F0C0624FF0C0637B607B6893FA34
:1027A000A3F33B603B68B3FA83F322FA03F30133EC
:1027B0005B00FB63BA6CFB6BB2FBF3F37B647B6C7B
:1027C00018465437BD465DF8047B70470010024040
:1027D000C85A00080024F40000127A0080B586B0C0
:1027E00000AF786000237B6100233B612A4B9B6D27
:1027F00003F08053002B03D0FFF7AEF9786114E0AB
:10280000254A254B9B6D43F080539365224B9B6D6E
:1028100003F08053FB60FB68FFF79EF978611E4A66
:102820001D4B9B6D23F0805393657B69B3F5007F4F
:102830000BD17B68802B19D97B68A02B02D902238E
:102840003B6113E001233B6110E07B68802B02D9E0
:1028500003233B610AE07B68802B02D102233B61AA
:1028600004E07B68702B01D101233B610B490B4BCA
:102870001B6823F007023B6913430B60074B1B687F
:1028800003F007023B699A4201D0012300E00023D4
:1028900018461837BD4680BD001002400020024097
:1028A00080B586B000AF786000237B610023FB60B9
:1028B0000023FB740023BB747B681B6803F4006374
:1028C000002B2FD07B685B6CB3F5000F05D0B3F500
:1028D000400F15D0002B07D00FE05A4A594BDB6848
:1028E00043F48033D3600CE07B6804330021184646
:1028F00000F02CFA0346FB7403E00123FB7400E0B4
:1029000000BFFB7C002B0BD14E494E4BD3F88830D7
:1029100023F440027B685B6C1343C1F8883001E00C
:10292000FB7CBB747B681B6803F40033002B00F056
:10293000988000237B74434B9B6D03F08053002BE6
:102940000DD1404A3F4B9B6D43F0805393653D4B07
:102950009B6D03F08053BB60BB6801237B743A4AD4
:10296000394B1B6843F480731360FEF731FEF86047
:1029700009E0FEF72DFE0246FB68D31A022B02D9AE
:102980000323FB7405E0304B1B6803F48073002BBA
:10299000EFD0FB7C002B59D12A4BD3F8903003F4B5
:1029A00040737B617B69002B1ED07B68DA6D7B698D
:1029B0009A4219D0234BD3F8903023F440737B61B3
:1029C000204A204BD3F8903043F48033C2F8903043
:1029D0001C4A1C4BD3F8903023F48033C2F890305B
:1029E000184A7B69C2F890307B6903F00103002B21
:1029F00016D0FEF7EDFDF8600BE0FEF7E9FD0246AC
:102A0000FB68D31A41F28832934202D90323FB7444
:102A100006E00C4BD3F8903003F00203002BECD00F
:102A2000FB7C002B0BD10749064BD3F8903023F4E5
:102A300040727B68DB6D1343C1F8903008E0FB7C8B
:102A4000BB7405E00010024000700040FB7CBB74CA
:102A50007B7C012B05D18D4A8C4B9B6D23F08053E1
:102A600093657B681B6803F00103002B0AD087493C
:102A7000864BD3F8883023F003027B681B6A13432C
:102A8000C1F888307B681B6803F00203002B0AD072
:102A90007E497E4BD3F8883023F00C027B685B6A5A
:102AA0001343C1F888307B681B6803F00403002BD4
:102AB0000AD07649754BD3F8883023F030027B6812
:102AC0009B6A1343C1F888307B681B6803F02003BE
:102AD000002B0AD06D496D4BD3F8883023F4406247
:102AE0007B68DB6A1343C1F888307B681B6803F49A
:102AF0000073002B0AD06549644BD3F8883023F467
:102B000040227B68DB6B1343C1F888307B681B680D
:102B100003F48063002B0AD05C495C4BD3F8883007
:102B200023F440127B681B6C1343C1F888307B6828
:102B30001B6803F04003002B0AD05449534BD3F8D1
:102B4000883023F440527B681B6B1343C1F88830F4
:102B50007B681B6803F08003002B0AD04B494B4B6A
:102B6000D3F8883023F440427B685B6B1343C1F891
:102B700088307B681B6803F48073002B0AD04349BC
:102B8000424BD3F8883023F440327B689B6B13436D
:102B9000C1F888307B681B6803F40053002B28D0F1
:102BA0003A493A4BD3F8883023F040627B689B6CFB
:102BB0001343C1F888307B689B6CB3F1006F06D17A
:102BC000324A324BDB6843F48013D36011E07B68F8
:102BD0009B6CB3F1806F0CD17B68043301211846E4
:102BE00000F0B4F80346FB74FB7C002B01D0FB7CA7
:102BF000BB747B681B6803F40023002B28D0234997
:102C0000224BD3F8883023F040627B68DB6C13439F
:102C1000C1F888307B68DB6CB3F1006F06D11B4ACA
:102C20001A4BDB6843F48013D36011E07B68DB6CE4
:102C3000B3F1806F0CD17B6804330121184600F09A
:102C400085F80346FB74FB7C002B01D0FB7CBB7436
:102C50007B681B6803F48023002B2BD00B490B4BA4
:102C6000D3F8883023F040627B681B6D1343C1F8B2
:102C700088307B681B6DB3F1006F09D1034A034BA9
:102C8000DB6843F48013D36014E000BF00100240FF
:102C90007B681B6DB3F1806F0CD17B68043301211D
:102CA000184600F053F80346FB74FB7C002B01D060
:102CB000FB7CBB747B681B6803F48043002B1CD037
:102CC0001949194BD3F8883023F040527B685B6D6B
:102CD0001343C1F888307B685B6DB3F1805F0CD122
:102CE0007B6804330221184600F030F80346FB7479
:102CF000FB7C002B01D0FB7CBB747B681B6803F45E
:102D00000043002B0AD00849074BD3F8883023F042
:102D100080427B689B6D1343C1F88830BB7C1846AA
:102D20001837BD4680BD00BF0010024080B400AF20
:102D3000054A054B1B6843F00403136000BFBD4602
:102D40005DF8047B704700BF0010024090B595B05D
:102D500000AF786039600023BB64002387F84F30F0
:102D6000A34BDB6803F00303002B23D0A04BDB68ED
:102D700003F003027B681B689A4217D17B681B68CB
:102D8000002B13D09A4BDB6803F0700270237B6436
:102D90007B6C93FAA3F33B643B6CB3FA83F322FAA4
:102DA00003F35A1C7B685B689A4254D0012387F86E
:102DB0004F3050E07B681B68022B0DD0032B15D0E1
:102DC000012B23D18A4B1B6803F00203002B21D176
:102DD000012387F84F301DE0854B1B6803F48063A7
:102DE000002B19D1012387F84F3015E0804B1B6869
:102DF00003F40033002B11D17D4B1B6803F48023B7
:102E0000002B0BD1012387F84F3007E0012387F80F
:102E10004F3004E000BF02E000BF00E000BF97F8C1
:102E20004F30002B17D1724C714BDB6823F07302CB
:102E30007B6819687B685B68581E7023FB63FB6BBB
:102E400093FAA3F3BB63BB6BB3FA83F300FA03F308
:102E50000B431343E36097F84F30002B40F0C180E1
:102E6000634A634B1B6823F080631360FEF7B0FB7B
:102E7000B8640AE0FEF7ACFB0246BB6CD31A022B27
:102E800003D9032387F84F3005E0594B1B6803F043
:102E90000063002BEED197F84F30002B40F0A1805B
:102EA0003B68002B25D1524C514B1B6923F07843D2
:102EB00023F4FE437A6891684FF4FE42FA62FA6A9C
:102EC00092FAA2F2BA62BA6AB2FA82F291407A68CF
:102ED000D0684FF078427A637A6B92FAA2F23A6342
:102EE0003A6BB2FA82F200FA02F20A431343236108
:102EF00051E03B68012B27D13D4C3D4B1B6923F42E
:102F0000C00323F4FE437A6891684FF4FE42FA61ED
:102F1000FA6992FAA2F2BA61BA69B2FA82F29140FF
:102F20007A6812695208501E4FF4C0027A627A6AB7
:102F300092FAA2F23A623A6AB2FA82F200FA02F223
:102F40000A431343236126E0294C294B1B6923F0D4
:102F5000C06323F4FE437A6891684FF4FE42FA603E
:102F6000FA6892FAA2F2BA60BA68B2FA82F29140B2
:102F70007A6852695208501E4FF0C0627A617A69CD
:102F800092FAA2F23A613A69B2FA82F200FA02F2D5
:102F90000A4313432361164A154B1B6843F08063B1
:102FA0001360FEF715FBB8640AE0FEF711FB02465A
:102FB000BB6CD31A022B03D9032387F84F3005E0EB
:102FC0000B4B1B6803F00063002BEED097F84F30DB
:102FD000002B06D10649064B1A697B689B6913438F
:102FE0000B6197F84F3018465437BD4690BD00BF6F
:102FF0000010024080B584B000AF78607B68002B81
:1030000001D101237AE07B6800229A627B6893F801
:103010005D30DBB2002B06D17B68002283F85C2098
:10302000786801F049FC7B68022283F85D207B68A8
:103030001B687A681268126822F040021A607B6886
:10304000DB68B3F5E06F02D90023FB6002E04FF4C8
:103050008053FB607B68DB68B3F5706F07D07B68DB
:10306000DB68B3F5E06F02D07B6800229A627B6870
:103070001B6B002B0BD17B68DB68B3F5E06F03D9CA
:103080007B6802221A6302E07B6801221A637B6874
:103090001B687A6851687A68926811437A68126985
:1030A00011437A68526911437A68926902F4007296
:1030B00011437A68D26911437A68126A11437A68B7
:1030C000926A0A431A607B681B687A689269120CDC
:1030D00002F004017A68526A11437A68526B114314
:1030E0007A68D2681143FA680A435A607B68002202
:1030F0001A667B68012283F85D200023184610378A
:10310000BD4680BD80B588B000AFF860B9603B6057
:103110001346FB800023BB610023FB77FB6893F819
:103120005C30012B01D102233EE1FB68012283F8D0
:103130005C20FEF74DFAB861FB6893F85D30DBB2B6
:10314000012B02D00223FB7725E1BB68002B02D0C4
:10315000FB88002B02D10123FB771CE1FB680322D3
:1031600083F85D20FB6800221A66FB68BA689A63E0
:10317000FB68FA889A87FB68FA88DA87FB6800227E
:103180001A64FB680022A3F84420FB680022A3F81D
:103190004620FB6800221A65FB680022DA64FB689F
:1031A0009B68B3F5004F07D1FB681B68FA6812688B
:1031B000126842F480421A60FB681B681B6803F0C7
:1031C0004003402B07D0FB681B68FA68126812683E
:1031D00042F040021A60FB68DB68B3F5E06F47D944
:1031E000FB685B68002B04D0FB68DB8F9BB2012B74
:1031F00038D1FB681B68BA681288DA60BB68023392
:10320000BB60FB68DB8F9BB2013B9AB2FB68DA873D
:1032100028E0FB681B689B6803F00203022B0FD1B8
:10322000FB681B68BA681288DA60BB680233BB604F
:10323000FB68DB8F9BB2013B9AB2FB68DA8711E037
:103240003B68002B0BD03B68B3F1FF3F0AD0FEF781
:10325000BFF90246BB69D21A3B689A4202D30323E4
:10326000FB7798E0FB68DB8F9BB2002BD1D172E03B
:10327000FB685B68002B04D0FB68DB8F9BB2012BE3
:1032800064D1FB68DB8F9BB2012B0FD9FB681B68F5
:10329000BA681288DA60BB680233BB60FB68DB8FF8
:1032A0009BB2023B9AB2FB68DA874FE0FB681B686F
:1032B00003F10C02BB68591CB9601B781370FB68E2
:1032C000DB8F9BB2013B9AB2FB68DA873EE0FB687A
:1032D0001B689B6803F00203022B25D1FB68DB8F80
:1032E0009BB2012B0FD9FB681B68BA681288DA60A1
:1032F000BB680233BB60FB68DB8F9BB2023B9AB2B8
:10330000FB68DA8722E0FB681B6803F10C02BB68EC
:10331000591CB9601B781370FB68DB8F9BB2013BB3
:103320009AB2FB68DA8711E03B68002B0BD03B6850
:10333000B3F1FF3F0AD0FEF74BF90246BB69D21A40
:103340003B689A4202D30323FB7724E0FB68DB8FC0
:103350009BB2002BBBD1BA693968F86800F001FB59
:103360000346002B02D0FB6820221A66FB689B688C
:10337000002B0AD100237B61FB681B68DB687B6143
:10338000FB681B689B687B617B69FB681B6E002B7D
:1033900001D00123FB77FB68012283F85D20FB68E5
:1033A000002283F85C20FB7F18462037BD4680BD95
:1033B00080B58AB000AFF860B9607A607B80002386
:1033C000FB610023BB6100237B6101237B6200233F
:1033D00087F82330FB6893F85C30012B01D102237E
:1033E000E1E1FB68012283F85C20FEF7F1F87861E7
:1033F000FB6893F85D30DBB2FB61FB685B68BB6127
:10340000FB69012B0ED0BB69B3F5827F06D1FB6847
:103410009B68002B02D1FB69042B03D0022387F8A1
:103420002330B6E1BB68002B05D07B68002B02D0AF
:103430007B88002B03D1012387F82330A9E1FB68A7
:1034400093F85D30DBB2042B03D0FB68052283F8D0
:103450005D20FB6800221A66FB687A681A64FB68C4
:103460007A88A3F84620FB687A88A3F84420FB6892
:10347000BA689A63FB687A88DA87FB687A889A87E1
:10348000FB680022DA64FB6800221A65FB68DB68CF
:10349000B3F5E06F05D8FB68B3F846309BB2012B5B
:1034A00008D9FB681B68FA681268526822F48052D7
:1034B0005A6007E0FB681B68FA681268526842F4B9
:1034C00080525A60FB681B681B6803F04003402B66
:1034D00007D0FB681B68FA681268126842F0400265
:1034E0001A60FB68DB68B3F5E06F75D9FB685B6851
:1034F000002B04D0FB68DB8F9BB2012B60D1FB68F3
:103500001B68BA681288DA60BB680233BB60FB686C
:10351000DB8F9BB2013B9AB2FB68DA8750E07B6A93
:10352000002B1CD0FB68DB8F9BB2002B17D0FB68F5
:103530001B689B6803F00203022B10D1FB681B6819
:10354000BA681288DA60BB680233BB60FB68DB8F45
:103550009BB2013B9AB2FB68DA8700237B62FB686F
:10356000B3F846309BB2002B1AD0FB681B689B68EF
:1035700003F00103012B13D1FB681B68DB689AB2CF
:103580007B681A807B6802337B60FB68B3F8463047
:103590009BB2013B9AB2FB68A3F8462001237B62F1
:1035A0003B6BB3F1FF3F0BD0FEF712F802467B698D
:1035B000D21A3B6B9A4203D3032387F82330E8E007
:1035C000FB68DB8F9BB2002BA9D1FB68B3F84630B8
:1035D0009BB2002BA3D1CAE0FB685B68002B05D02F
:1035E000FB68DB8F9BB2012B40F0B480FB68DB8F64
:1035F0009BB2012B0FD9FB681B68BA681288DA608E
:10360000BB680233BB60FB68DB8F9BB2023B9AB2A4
:10361000FB68DA879EE0FB681B6803F10C02BB685D
:10362000591CB9601B781370FB68DB8F9BB2013BA0
:103630009AB2FB68DA878DE07B6A002B32D0FB6898
:10364000DB8F9BB2002B2DD0FB681B689B6803F0BF
:103650000203022B26D1FB68DB8F9BB2012B0FD913
:10366000FB681B68BA681288DA60BB680233BB600B
:10367000FB68DB8F9BB2023B9AB2FB68DA870FE0F4
:10368000FB681B6803F10C02BB68591CB9601B780E
:103690001370FB68DB8F9BB2013B9AB2FB68DA8741
:1036A00000237B62FB68B3F846309BB2002B41D00D
:1036B000FB681B689B6803F00103012B3AD1FB6890
:1036C000B3F846309BB2012B20D9FB681B68DB683E
:1036D0009AB27B681A807B6802337B60FB68B3F820
:1036E00046309BB2023B9AB2FB68A3F84620FB68C7
:1036F000B3F846309BB2012B1AD8FB681B68FA68F6
:103700001268526842F480525A6011E07B685A1C79
:103710007A60FA6812680C321278D2B21A70FB68BA
:10372000B3F846309BB2013B9AB2FB68A3F846203F
:1037300001237B623B6BB3F1FF3F0BD0FDF748FFEA
:1037400002467B69D21A3B6B9A4203D3032387F864
:1037500023301EE0FB68DB8F9BB2002B7FF46CAF45
:10376000FB68B3F846309BB2002B7FF465AF7A69F3
:10377000396BF86800F0F5F80346002B02D0FB68BF
:1037800020221A66FB681B6E002B02D0012387F8EB
:103790002330FB68012283F85D20FB68002283F858
:1037A0005C2097F8233018462837BD4680BD80B589
:1037B00084B000AFF860B9607A603B604DE03B6870
:1037C000B3F1FF3F49D03B68002B07D0FDF700FF66
:1037D0000246BB69D21A3B689A423ED3FB681B681B
:1037E000FA681268526822F0E0025A60FB685B686F
:1037F000B3F5827F11D1FB689B68B3F5004F04D00D
:10380000FB689B68B3F5806F07D1FB681B68FA689B
:103810001268126822F040021A60FB689B6AB3F5D6
:10382000005F10D1FB681A68FB681B6819684DF6C9
:10383000FF730B401360FB681B68FA68126812681C
:1038400042F400521A60FB68012283F85D20FB6895
:10385000002283F85C2003230EE0FB681B689A6853
:10386000BB681A40BB689A4201D1012200E00022E5
:103870007B689A42A3D1002318461037BD4680BD0D
:1038800080B586B000AFF860B9607A603B605BE0FD
:10389000BB68B3F5C06F09D17B68002B06D1FB680C
:1038A0001B680C331B78DBB2FB75FB7D3B68B3F107
:1038B000FF3F49D03B68002B07D0FDF789FE024649
:1038C0003B6AD21A3B689A423ED3FB681B68FA688F
:1038D0001268526822F0E0025A60FB685B68B3F538
:1038E000827F11D1FB689B68B3F5004F04D0FB6861
:1038F0009B68B3F5806F07D1FB681B68FA68126894
:10390000126822F040021A60FB689B6AB3F5005F00
:1039100010D1FB681A68FB681B6819684DF6FF73C5
:103920000B401360FB681B68FA681268126842F467
:1039300000521A60FB68012283F85D20FB680022B8
:1039400083F85C20032308E0FB681B689A68BB6867
:103950001A407B689A429BD1002318461837BD460F
:1039600080BD80B586B002AFF860B9607A607B68D0
:103970000093BB6800224FF4C051F868FFF780FF46
:103980000346002B07D0FB681B6E43F02002FB6848
:103990001A66032313E07B680093BB680022802132
:1039A000F868FFF704FF0346002B07D0FB681B6E87
:1039B00043F02002FB681A66032300E00023184648
:1039C0001037BD4680BD80B500AF00F0B5FB0346A3
:1039D000012B01D000F024F900BF80BD80B485B078
:1039E00000AF786039607B685B68FB603B68FA68B1
:1039F0005A60FB689A683B689A60FB689B683A6803
:103A00005A60FB683A689A603B687A681A617B681A
:103A10001B685A1C7B681A6000BF1437BD465DF8EE
:103A2000047B704780B485B000AF786039603B6834
:103A30001B68BB60BB68B3F1FF3F03D17B681B69A8
:103A4000FB600CE07B680833FB6002E0FB685B68AE
:103A5000FB60FB685B681A68BB689A42F6D9FB6832
:103A60005A683B685A603B685B683A689A603B6892
:103A7000FA689A60FB683A685A603B687A681A612B
:103A80007B681B685A1C7B681A6000BF1437BD46F0
:103A90005DF8047B704780B485B000AF78607B68C8
:103AA0001B69FB607B685B687A6892689A607B68D8
:103AB0009B687A6852685A60FB685A687B689A42C9
:103AC00003D17B689A68FB685A607B6800221A61A0
:103AD000FB681B685A1EFB681A60FB681B68184667
:103AE0001437BD465DF8047B70470000064B19682B
:103AF0000868B0E8F04F80F30988BFF36F8F4FF08C
:103B0000000080F3118870472801002000BF00BF2B
:103B100080B483B000AF4FF0500383F31188BFF33C
:103B20006F8FBFF34F8F7B600E4B1B6801330D4AC5
:103B300013600C4B1B68012B0ED10B4B1B68DBB2C7
:103B4000002B09D04FF0500383F31188BFF36F8F20
:103B5000BFF34F8F3B60FEE700BF0C37BD465DF8FB
:103B6000047B70473C00002004ED00E080B483B08B
:103B700000AF114B1B68002B09D14FF0500383F3AA
:103B80001188BFF36F8FBFF34F8F7B60FEE70A4B47
:103B90001B68013B084A1360074B1B68002B04D1CC
:103BA00000233B603B6883F3118800BF0C37BD46A0
:103BB0005DF8047B704700BF3C000020EFF30980F4
:103BC000BFF36F8F144B1A681EF0100F08BF20ED63
:103BD000108A20E9F04F10604DF8043D4FF050007E
:103BE00080F31188BFF34F8FBFF36F8F00F0EEF9B2
:103BF0004FF0000080F3118808BC19680868B0E82D
:103C0000F04F1EF0100F08BFB0EC108A80F3098847
:103C1000BFF36F8F704700BF2801002000BF00BFB7
:103C200080B584B000AFEFF311824FF0500383F3FF
:103C30001188BFF36F8FBFF34F8FFA60BB6000F046
:103C400007F90346002B03D0064B4FF080521A6051
:103C500000237B607B6883F3118800BF1037BD466B
:103C600080BD00BF04ED00E080B586B000AF786095
:103C700000237B617B68002B2FD01F4B1B68002B20
:103C800009D04FF0500383F31188BFF36F8FBFF358
:103C90004F8FFB60FEE700F039F8184B1A687B681D
:103CA00013443B61164B1B6804331846FFF7F3FEC1
:103CB0000346002B0BD1124B1B68DB6A012202FA70
:103CC00003F3DA430F4B1B6813400E4A1360386945
:103CD00000F0D6F900F028F878617B69002B07D155
:103CE000094B4FF080521A60BFF34F8FBFF36F8FB5
:103CF00000BF1837BD4680BDF4010020D801002068
:103D000028010020DC01002004ED00E080B400AFB9
:103D1000044B1B680133034A136000BFBD465DF8C6
:103D2000047B7047F401002080B584B000AF00230D
:103D3000FB603E4B1B68002B09D14FF0500383F30F
:103D40001188BFF36F8FBFF34F8F7B60FEE7FFF7E4
:103D5000DFFE364B1B68013B344A1360334B1B6854
:103D6000002B5BD1324B1B68002B57D02EE0314B20
:103D7000DB68DB68BB60BB6818331846FFF78BFE57
:103D8000BB6804331846FFF786FEBB68DB6A012276
:103D90009A40294B1B681343274A1360BB68DA6AB1
:103DA00013469B0013449B00244A1A44BB68043307
:103DB00019461046FFF712FEBB68DA6A204B1B68F3
:103DC000DB6A9A4202D31F4B01221A60194B1B680F
:103DD000002BCCD11C4B1B68002B11D00CE000F049
:103DE00037F80346002B02D0164B01221A60164BFF
:103DF0001B68013B144A1360134B1B68002BEED168
:103E0000104B1B68012B09D10123FB600F4B4FF0B6
:103E100080521A60BFF34F8FBFF36F8FFFF7A6FE7C
:103E2000FB6818461037BD4680BD00BFF401002076
:103E3000D4010020C0010020DC0100202C01002062
:103E400028010020E8010020E401002004ED00E04A
:103E500080B586B000AF00237B61514B1B68002BFF
:103E600040F08D804F4B1B6801334E4A13604D4B21
:103E70001B683B613B69002B1FD14B4B1B681B68C8
:103E8000002B09D04FF0500383F31188BFF36F8FDD
:103E9000BFF34F8F3B60FEE7434B1B68FB60434B18
:103EA0001B68414A1360414AFB681360404B1B6822
:103EB00001333F4A136000F019F93E4B1B683A6921
:103EC0009A424DD3384B1B681B68002B01D101234C
:103ED00000E00023002B04D0364B4FF0FF321A6075
:103EE0003EE0314B1B68DB68DB68BB60BB685B682E
:103EF0007B603A697B689A4203D22E4A7B681360E2
:103F00002EE0BB6804331846FFF7C5FDBB689B6A0B
:103F1000002B04D0BB6818331846FFF7BCFDBB6804
:103F2000DB6A01229A40244B1B681343224A136028
:103F3000BB68DA6A13469B0013449B001F4A1A446D
:103F4000BB68043319461046FFF748FDBB68DA6AC0
:103F50001B4B1B68DB6A9A42B4D301237B61B1E738
:103F6000174B1B68DA6A154913469B0013449B00E4
:103F70000B441B68012B07D901237B6104E0114B23
:103F80001B6801330F4A13600F4B1B68002B01D0D5
:103F900001237B617B6918461837BD4680BD00BF91
:103FA000F4010020D8010020B8010020BC0100204D
:103FB000EC010020F0010020DC0100202C01002099
:103FC00028010020E4010020E801002080B487B02F
:103FD00000AF264B1B68002B03D0254B01221A6033
:103FE0003EE0234B00221A60224B1B68FB60FB68FB
:103FF000B3FA83F3FB72FB7AC3F11F037B611E49A3
:104000007A6913469B0013449B000B441B68002BEA
:1040100009D14FF0500383F31188BFF36F8FBFF3C3
:104020004F8F7B60FEE77A6913469B0013449B0029
:10403000114A13443B613B695B685A683B695A60AB
:104040003B695A683B6908339A4204D13B695B6813
:104050005A683B695A603B695B68DB68074A1360D2
:1040600000BF1C37BD465DF8047B7047F40100209B
:10407000E8010020DC0100202C01002028010020A4
:1040800080B582B000AF7860134B1B687A685A60C5
:10409000124B1B687A689A4209D2114B1A680E4B70
:1040A0001B68043319461046FFF7BCFC10E00D4BAB
:1040B0001A68094B1B68043319461046FFF7B2FC17
:1040C000094B1B687A689A4202D2074A7B681360E0
:1040D00000BF0837BD4680BD28010020D801002060
:1040E000BC010020B8010020F001002080B483B0A2
:1040F00000AF0F4B1B681B68002B01D1012300E0B0
:104100000023002B04D00B4B4FF0FF321A6008E065
:10411000074B1B68DB68DB687B607B685B68054A74
:10412000136000BF0C37BD465DF8047B704700BFCD
:10413000B8010020F001002080B483B000AF0B4B29
:104140001B68002B02D101237B6008E0084B1B6831
:10415000002B02D102237B6001E000237B607B689F
:1041600018460C37BD465DF8047B7047E00100201F
:10417000F401002080B584B000AFF860B9607A60C7
:104180007B689B685A1E7B689A607B689B68002BE3
:1041900009DA7B689A687B689B699A420DDBBB6889
:1041A000DBB20A2B09D07B681B68591C7A68116046
:1041B000BA68D2B21A701B7805E07A68B968F868F4
:1041C00000F0E2FE034618461037BD4680BD0000F1
:1041D00090B583B000AF484B00221A70464B0022C6
:1041E0005A70454B00229A70434B0C22DA70424BB6
:1041F0000F225A71404B0F229A713F4B0222DA7103
:104200003D4B08221A723C4B06225A723A4B00224E
:104210009A72394B0022DA72374B01221A73364BED
:1042200001225A73344B01229A73334B00225A7283
:10423000324A25A418CCC2E90234304A24A418CC4E
:10424000C2E908342D4A24A418CCC2E90E342B4A02
:1042500023A418CCC2E91434284A23A418CCC2E9F8
:104260001A34264A22A418CCC2E9203400237B60E9
:104270001FE022497A6813465B001344DB000B44BD
:1042800001221A701D497A6813465B001344DB0053
:104290000B44013301221A7018497A6813465B00F7
:1042A0001344DB000B44113301221A707B68013385
:1042B0007B607B68052BDCDDFCF722FA00BF0C3746
:1042C000BD4690BDAFF30080EE44332211000000E4
:1042D00001CE24459A00000002CE24459A00000039
:1042E00003CE24459A00000009CE24459A00000020
:1042F00005CE24459A0000006C02002090020020A8
:1043000090B5ADB000AF784800F0E6FD774A0021E7
:104310000020FCF7A7F8FFF75BFF1C20FCF7FEFB73
:1043200003461946724800F08DFD1D20FCF7F6FB90
:10433000034619466F4800F085FD1720FCF7EEFB99
:10434000034619466C4800F07DFD0620FCF7E6FBAD
:1043500003461946694800F075FD012387F8883047
:104360005FA418CCC7E92434012387F86030002308
:10437000C7F8A430D7F8A4305A1CC7F8A42007F116
:104380006002501C1A465E4900F046FD07F16003CA
:1043900001331846FBF71CFF0346C7F8843007F1CA
:1043A00060031846FCF768FB0220FCF7E7FA0320DD
:1043B000FCF7E4FA07F160031846FCF75DFB002305
:1043C000C7F8AC30C820FDF70FF94E4800F084FD67
:1043D0000020FCF7A3FB034619464B4800F032FDD2
:1043E0000120FCF79BFB03461946484800F02AFDD4
:1043F0000620FCF793FB03461946404800F022FDD7
:104400000720FCF78BFB03461946414800F01AFDD4
:104410001720FCF783FB03461946374800F012FDCE
:104420001C20FCF77BFB03461946314800F00AFDCF
:104430001D20FCF773FB034619462E4800F002FDD1
:1044400007F14003D7F8AC203249184600F0E4FCED
:1044500007F140031A4600210120FCF703F8FCF79E
:10446000F9FA0346002BADD0D7F8AC300133C7F8CA
:10447000AC3001224FF480714FF09040FDF744FBC7
:10448000FCF70DFE3B461846FCF708FB7B6A194615
:10449000214800F0D7FC0023C7F8A83012E01F4BDA
:1044A00018687A1CD7F8A83013441B7819461B4BA0
:1044B0001B689B681A46FFF75DFED7F8A8300133EA
:1044C000C7F8A8307A6AD7F8A8309A42E7D81448D3
:1044D00000F002FDFCF7EFFB74E700BFAFF30080D4
:1044E00001CE24459A000000A4580008B0580008E6
:1044F0001C5800082C58000810580008F0570008F5
:10450000B8580008CC570008D0570008E0570008FA
:1045100000580008C4580008D4580008440000207F
:10452000E058000880B586B000AF3B1D00221A603D
:104530005A609A60DA601A61F0237B600123BB60E5
:104540000023FB6000233B613B1D19464FF0904068
:10455000FDF744F94FF440737B600123BB600023F7
:10456000FB6000233B613B1D19460348FDF736F90C
:1045700000BF1837BD4680BD0004004880B586B036
:1045800000AF3B1D00221A605A609A60DA601A611F
:104590000F237B600023BB600023FB6000233B6193
:1045A0003B1D19464FF09040FDF718F900BF183732
:1045B000BD4680BD80B58AB000AFFCF7D1FF00F0EA
:1045C00095F8484A474BDB6C43F00403D364454BF2
:1045D000DB6C03F004033B613B69424A414BDB6CFB
:1045E00043F00103D3643F4BDB6C03F00103FB603A
:1045F000FB683C4A3B4BDB6C43F00203D364394B12
:10460000DB6C03F00203BB60BB68364A354BDB6CE6
:1046100043F00803D364334BDB6C03F008037B6087
:104620007B68FBF7DDFDFBF751FEFFF77BFFFFF734
:10463000A5FF012210214FF09040FDF765FA0122FD
:1046400020214FF09040FDF75FFA012240214FF00A
:104650009040FDF759FA012280214FF09040FDF77C
:1046600053FA00224FF480714FF09040FDF74CFA5E
:1046700007F1140300221A605A609A60DA601A6126
:104680004FF480737B610123BB610023FB61002336
:104690003B6207F1140319464FF09040FDF79EF876
:1046A00000224FF480714FF09040FDF72DFA4FF447
:1046B000FA60FCF799FFFBF717FFFBF7ABFE01224F
:1046C0004FF480714FF09040FDF71EFA064A00212A
:1046D0000020FBF7C7FE4FF47A70FCF785FFFFF769
:1046E0000FFEFEE700100240E458000880B5AEB0AF
:1046F00000AF07F1740344220021184600F03CFC8F
:1047000007F1600300221A605A609A60DA601A6149
:104710003B4660220021184600F02EFCFDF70CFA03
:10472000374A374BD3F8903023F01803C2F8903053
:1047300016237B674FF48073C7F880301023C7F8C7
:1047400084300123FB670123C7F88C300023C7F8AE
:1047500090307023C7F894300223C7F89C300223AE
:10476000C7F8A0301023C7F8A4304FF4B473C7F8CB
:10477000A8300723C7F8AC300623C7F8B0300223AF
:10478000C7F8B43007F174031846FDF749FA034639
:10479000002B01D000F036F80F233B6603237B6625
:1047A0000023BB664FF4A063FB6600233B6707F161
:1047B000600304211846FDF7F5FD0346002B01D0E8
:1047C00000F020F84FF400333B604FF48073FB653A
:1047D0003B461846FEF764F80346002B01D000F074
:1047E00011F84FF40070FDF7C5F90346002B01D016
:1047F00000F008F8FEF79AFA00BFB837BD4680BD52
:104800000010024080B400AF00BFBD465DF8047BDD
:1048100070470000DFF834D0002103E00C4B5B58F8
:10482000435004310B480C4B42189A42F6D30B4AC2
:1048300002E0002342F8043B094B9A42F9D300F00E
:104840003FF900F075FBFFF7B5FEFEE700C0002062
:10485000705B000800000020A8000020A8000020D5
:1048600028030020FEE7000080B582B000AF114AA7
:10487000104B1B6E43F0010313660E4B1B6E03F0CF
:1048800001037B607B680B4A0A4B9B6D43F08053AE
:104890009365084B9B6D03F080533B603B6800229F
:1048A0000F216FF00100FCF770FF00BF0837BD4615
:1048B00080BD00BF0010024080B483B000AF7860BC
:1048C00000BF0C37BD465DF8047B704780B400AF75
:1048D00000BFBD465DF8047B704780B400AFFEE7C3
:1048E00080B400AFFEE780B400AFFEE780B400AF55
:1048F000FEE780B400AF00BFBD465DF8047B7047A3
:1049000080B500AFFFF75FF8FCF754FE00BF80BD35
:1049100080B400AF00BFBD465DF8047B704780B433
:1049200000AF00BFBD465DF8047B704780B400AFA8
:1049300000BFBD465DF8047B704780B400AF00BF88
:10494000BD465DF8047B704780B483B000AF7860EB
:104950004FF06043D3F8803E03F00103002B13D0E7
:104960004FF06043D3F8003E03F00103002B0BD05F
:1049700000E000BF4FF060431B68002BF9D04FF000
:1049800060437A68D2B21A707B6818460C37BD460D
:104990005DF8047B704780B586B000AFF860B96001
:1049A0007A6000237B6100237B6109E0BB685A1CAD
:1049B000BA601B781846FFF7C7FF7B6901337B613C
:1049C0007A697B689A42F1DB7B6818461837BD46E6
:1049D00080BD000080B485B000AF7860134A144BEE
:1049E0001344FB60134B1B68002B02D1114B0F4A81
:1049F0001A60104B1B68BB600E4B1A687B681A4428
:104A0000FB689A4205D90C4B0C221A604FF0FF3319
:104A100006E0084B1A687B681344064A1360BB68BB
:104A200018461437BD465DF8047B70472803002004
:104A300000020000F80100202403002080B483B0AD
:104A400000AF78604FF0FF3318460C37BD465DF875
:104A5000047B704780B483B000AF786039603B68F6
:104A60004FF400525A60002318460C37BD465DF8DB
:104A7000047B704780B483B000AF78600123184690
:104A80000C37BD465DF8047B704780B485B000AF3D
:104A9000F860B9607A60002318461437BD465DF8A7
:104AA000047B704780B485B000AFF860B9607A606D
:104AB000002318461437BD465DF8047B704700009C
:104AC00080B400AF174A174BD3F8883043F4700313
:104AD000C2F88830144A144B1B6843F0010313607A
:104AE000114B00229A60104A0F4B1B6823F0A85309
:104AF00023F4102313600C4B4FF48052DA600A4AFF
:104B0000094B1B6823F480231360074B00229A6132
:104B1000044B4FF000629A6000BFBD465DF8047B15
:104B2000704700BF00ED00E00010024080B487B085
:104B300000AFF860B9607A6001237B6104E07B69B3
:104B40007A6802FB03F37B617B69BA68B2FBF3F21C
:104B50007B689A42F3D229E07B69BA68B2FBF3F32F
:104B60003B617A69BB68B3FBF2F102FB01F29B1A6D
:104B7000BB607A697B6892FBF3F37B613B69092B2D
:104B80000ADDFB681B68591CFA6811603A69D2B2E9
:104B90003732D2B21A7009E0FB681B68591CFA68F8
:104BA00011603A69D2B23032D2B21A707B69002BEE
:104BB000D2D100BF1C37BD465DF8047B704780B57D
:104BC00088B000AFF860B9607A60FB687B617DE017
:104BD000BB681B78252B71D1BB680133BB60BB68F8
:104BE0001B78642B1ED0642B06DC582B50D0632B13
:104BF0000ED0252B58D05DE0732B2BD0732B02DC0D
:104C0000692B0FD056E0752B37D0782B40D051E070
:104C1000FB685A1CFA607A68111D79601268D2B27A
:104C20001A7047E07B681A1D7A601B68FB61FB699C
:104C3000002B07DAFB695B42FB61FB685A1CFA60D8
:104C40002D221A70F96907F10C030A221846FFF7A2
:104C50006DFF2FE07B681A1D7A601B68BB6107E05F
:104C6000FB685A1CFA60BA69511CB96112781A7053
:104C7000BB691B78002BF3D11CE07B681A1D7A609E
:104C8000196807F10C030A221846FFF74FFF11E0DD
:104C90007B681A1D7A601B68194607F10C03102205
:104CA0001846FFF743FF05E0FB685A1CFA6025220F
:104CB0001A7000BFBB680133BB6007E0FB685A1C79
:104CC000FA60BA68511CB96012781A70BB681B7818
:104CD000002B7FF47DAFFB6800221A70FB681A4638
:104CE0007B69D31A18462037BD4680BD80B485B095
:104CF00000AF786039600023FB6081E07B681B783F
:104D0000252B77D17B6801337B607B681B78583B10
:104D1000202B6AD801A252F823F000BFDD4D000815
:104D2000EB4D0008EB4D0008EB4D0008EB4D000883
:104D3000EB4D0008EB4D0008EB4D0008EB4D000873
:104D4000EB4D0008EB4D0008A14D0008AF4D0008E9
:104D5000EB4D0008EB4D0008EB4D0008EB4D000853
:104D6000AF4D0008EB4D0008EB4D0008EB4D00087F
:104D7000EB4D0008EB4D0008EB4D0008EB4D000833
:104D8000EB4D0008EB4D0008BD4D0008EB4D000851
:104D9000AF4D0008EB4D0008EB4D0008DD4D00085D
:104DA0003B6804333B60FB680133FB6025E0FB6834
:104DB0000B33FB603B6804333B601EE03B681A1D0D
:104DC0003A601B68BB6002E0FB680133FB60BB68B4
:104DD0005A1CBA601B78002BF6D10EE0FB68083332
:104DE000FB603B6804333B6007E0FB680133FB601A
:104DF00000BF02E0FB680133FB607B6801337B602E
:104E00007B681B78002B7FF479AFFB68184614375A
:104E1000BD465DF8047B70470EB480B585B000AF29
:104E2000786007F12003BB60BA68F9697868FFF71A
:104E3000C6FEF860FB6818461437BD46BDE88040E2
:104E400003B070470FB42DE9F04385B000AF0023E5
:104E5000FB6007F134033B603968386BFFF746FFAE
:104E6000F8606B461E46F9684B1EBB600B461A463F
:104E70004FF000034FEAC30949EA52794FEAC208EA
:104E80000B461A464FF00003DD0045EA5275D40088
:104E90000B460733DB08DB00ADEB030D6B4600333D
:104EA0007B6007F134033B607B683A68396B1846D6
:104EB000FFF785FEF8607B68FA6819460120FFF766
:104EC0006AFDF860B546FB6818461437BD46BDE874
:104ED000F04304B07047000080B586B000AF786042
:104EE0007868FBF775F903463B610023FB603A697C
:104EF00079680120FFF74FFDF86001220B4901207E
:104F0000FFF749FD0246FB681344FB603B695A1CEE
:104F1000FB689A4202D100237B6102E04FF0FF332D
:104F20007B617B6918461837BD4680BDEC58000888
:104F300070B50D4E0D4CA41BA4100025A54209D13F
:104F40000B4E0C4C00F02AFCA41BA4100025A5421B
:104F500005D170BD56F8253098470135EEE756F873
:104F6000253098470135F2E7605B0008605B000878
:104F7000605B0008645B000802440346934200D172
:104F8000704703F8011BF9E7F8B50E4614460546CD
:104F900018B183690BB900F0A9F9214B9C422AD1C1
:104FA0006C68A369A360A3891A072ED5236963B32C
:104FB00023692068C01A6369F6B29842374604DB59
:104FC0002146284600F028F928BBA368013BA360CE
:104FD00023685A1C22601E7063690130984204D015
:104FE000A389DB0719D50A2E17D12146284600F0E0
:104FF00013F990B10FE00B4B9C4201D1AC68D0E7A4
:10500000094B9C4208BFEC68CBE72146284600F0DC
:105010000DF80028CCD04FF0FF373846F8BD00BF60
:105020001C5B00083C5B0008FC5A0008324B70B562
:105030001D6806460C4625B1AB6913B9284600F039
:1050400055F92E4B9C420FD16C68B4F90C309AB2D2
:1050500015072CD4D00611D40922326043F0400346
:10506000A3814FF0FF3070BD254B9C4201D1AC684D
:10507000EBE7244B9C4208BFEC68E6E7510712D5EA
:10508000616B41B104F14403994202D0304600F013
:105090001BFA00236363A38923F02403A381002365
:1050A000636023692360A38943F00803A381236914
:1050B0004BB9A38903F42073B3F5007F03D02146D5
:1050C000304600F0C1F9A28912F001030CD0002390
:1050D000A36063695B42A361236953B9B4F90C30DF
:1050E00013F08000BAD170BD920758BF6369A36006
:1050F000F2E70020F7E700BF440000201C5B000837
:105100003C5B0008FC5A00088A892DE9F0410546FD
:1051100010070C465AD44B68002B05DC0B6C002B97
:1051200002DC0020BDE8F081E66A002EF9D0002301
:1051300012F480522F682B6033D0606DA3895A0718
:1051400005D56368C01A636B0BB1236CC01A0023CA
:105150000246E66A216A2846B047431CA38906D165
:1051600029681D294BD82B4ACA40D60747D50022AB
:105170006260D9042269226004D5421C01D12B68E7
:1051800003B96065616B2F600029CAD004F1440344
:10519000994202D0284600F097F900206063BDE8EC
:1051A000F081216A01232846B047411CC6D12B68F3
:1051B000002BC3D01D2B01D0162B01D12F60B0E7DF
:1051C000A38943F04003A381BDE8F0810F69002F5C
:1051D000A7D093070E6808BF4B690F6018BF002364
:1051E000A6EB07088B60B8F1000F9ADD43463A46FC
:1051F000216AA66A2846B047002807DCA38943F045
:105200004003A3814FF0FF30BDE8F0810744A8EBD5
:105210000008E8E70100402038B50B6905460C4658
:10522000DBB118B183690BB900F060F80C4B9C42FC
:1052300009D16C68B4F90C307BB121462846BDE831
:105240003840FFF761BF074B9C4201D1AC68F1E7E2
:10525000054B9C4208BFEC68ECE7002038BD00BF5E
:105260001C5B00083C5B0008FC5A0008014900F088
:10527000A9B800BF19520008002310B50446036006
:105280004360836081814366C281036143618361BE
:10529000194608225C30FFF76FFE054B6362054B31
:1052A000A362054BE362054B2462236310BD00BF7C
:1052B00041560008635600089B560008BF56000878
:1052C00070B54A1E682555430E4605F1740100F07D
:1052D00049F9044640B1002180E842000C30A0604A
:1052E00005F16802FFF748FE204670BD836910B5DE
:1052F000044633BB8364C3640365124B124A1B68C4
:105300008262984204BF0123836100F01FF860604D
:10531000204600F01BF8A060204600F017F800229D
:10532000E06004216068FFF7A7FF01220921A0685F
:10533000FFF7A2FF02221221E068FFF79DFF012381
:10534000A36110BDF85A00086D520008F8B51C4B57
:105350001E68B369074613B93046FFF7C7FF4836E2
:10536000B4687368013B03D5336833B13668F7E737
:10537000B4F90C506DB16834F4E704213846FFF7F6
:105380009FFF30600028F1D10C233B60044620468B
:10539000F8BD4FF6FF73E3810123A38165662560A5
:1053A000A560656025616561A5610822294604F153
:1053B0005C00FFF7E1FD6563A563A564E564E6E7CE
:1053C000F85A00082DE9F8438046894600F1480460
:1053D000002614B93046BDE8F883A5686768013F28
:1053E00001D52468F5E7AB89012B07D9B5F90E3053
:1053F000013303D029464046C84706436835EEE7E7
:1054000070B50E46B1F90E10002990B014461D4635
:1054100007DA00232B60B3891A0610D44FF4806397
:105420000EE001AA00F072F90028F2DB029A02F401
:105430007042A2F500535A425A412A60EEE74023D7
:105440000020236010B070BD8B8973B59D070646A0
:105450000C4607D504F147032360236101236361F0
:1054600002B070BD01AB6A46FFF7CAFF009905465E
:10547000304600F077F848B9B4F90C309A05EFD40B
:1054800023F0030343F00203A381E3E70D4BB36270
:10549000A389206043F08003A381009B6361019B8B
:1054A00020615BB1B4F90E10304600F041F928B12B
:1054B000A38923F0030343F00103A381A3891D43C0
:1054C000A581CDE76D52000838B50546002945D0C5
:1054D00051F8043C0C1F002BB8BFE41800F04AF947
:1054E0001F4A1368104633B9636014602846BDE84C
:1054F000384000F040B9A3420CD9216862189342A9
:1055000004BF1A685B68636004BF521822600460BD
:10551000ECE713465A680AB1A242FAD9196858183A
:10552000A0420BD120680144581882421960DDD195
:10553000106852685A6001441960D7E702D90C23F9
:105540002B60D3E7206821188A4204BF1168526893
:10555000626004BF091821605C60C7E738BD00BF06
:10556000FC01002070B5CD1C25F0030508350C2D7D
:1055700038BF0C25002D064601DBA94203D90C23B8
:105580003360002070BD00F0F5F8234A146821460E
:1055900091B9224C23681BB9304600F041F82060D5
:1055A0002946304600F03CF8431C26D10C233360DA
:1055B000304600F0E0F8E4E70B685B1B1AD40B2BD5
:1055C0000FD90B60CD50CC18304600F0D4F804F160
:1055D0000B00231D20F00700C31A1BD05A42E250D3
:1055E00070BD8C420DBF63684B686360136018BF69
:1055F0000C46E9E70C464968CAE7C41C24F00304DA
:10560000A04205D0211A304600F00AF80130CDD072
:105610002560D9E770BD00BFFC010020000200201A
:1056200038B5064C0023054608462360FFF7D2F93B
:10563000431C02D1236803B12B6038BD2403002032
:1056400010B50C46B1F90E1000F096F80028ABBF6B
:10565000636DA3891B1823F48053ACBF6365A381DA
:1056600010BD2DE9F0411F468B89DB0505460C4630
:10567000164605D502230022B1F90E1000F068F895
:10568000A389B4F90E1023F48053A38132463B461C
:105690002846BDE8F04100F017B810B50C46B1F946
:1056A0000E1000F055F8431CA38915BF606523F464
:1056B000805343F48053A38118BFA38110BDB1F977
:1056C0000E1000F013B8000038B5074C0546084628
:1056D0001146002222601A46FFF75DF9431C02D1F1
:1056E000236803B12B6038BD2403002038B5064C75
:1056F0000023054608462360FFF7A0F9431C02D1AA
:10570000236803B12B6038BD2403002038B5074C53
:1057100000230546084611462360FFF79BF9431C0A
:1057200002D1236803B12B6038BD00BF24030020E1
:1057300038B5064C0023054608462360FFF79AF962
:10574000431C02D1236803B12B6038BD2403002021
:1057500038B5074C054608461146002222601A4615
:10576000FFF793F9431C02D1236803B12B6038BDC6
:10577000240300207047704738B5074C054608469B
:105780001146002222601A46FFF78CF9431C02D111
:10579000236803B12B6038BD24030020F8B500BF97
:1057A000F8BC08BC9E467047F8B500BFF8BC08BC02
:0857B0009E4670470000000056
:1057B8005458204E4F44450D000000005458204EC8
:1057C8004F4445000D0A0D00434F4E464947203AC5
:1057D8002025780D0A000000454E5F4141203A20FF
:1057E80025780D0A0000000052465F534554555075
:1057F800203A2025780D0A00535441545553203A35
:105808002025780D0A0000004649464F203A2025F9
:10581800780D0A0044594E5044203A2025780D0A44
:105828000000000046454154555245203A2025784D
:105838000D0A000050494E4720504F4E472044491A
:105848004E4720444F4E472044494E472D3E202581
:10585800640000005452414E534D495353494F4E32
:10586800204641494C45440D000000005452414E29
:10587800534D495353494F4E205355434345535372
:105888000D000000737563636573733A2025640027
:105898006661696C3A202564000000005258204E69
:1058A8004F44450D000000005258204E4F4445001B
:1058B800504F4E47202D3E202564000072656365D9
:1058C800697665643A20256400000000444154412B
:1058D8005B25645D203A20000D00000048454C4CD3
:1058E8004F0000000A000000000000000000004F08
:1058F80000000007000700147F147F14242A7F2A61
:10590800122313086462364955222000050300005B
:10591800001C2241000041221C0014083E08140803
:10592800083E080850300000000808080808006011
:1059380060000020100804023E5149453E00427FA5
:10594800400042615149462141454B311814127FAC
:105958001027454545393C4A494930017109050335
:105968003649494936064949291E0036360000009D
:10597800563600000814224100141414141400416F
:1059880022140802015109063E415D551E7E11117F
:10599800117E7F494949363E414141227F4141229A
:1059A8001C7F494949417F090909013E4149497A12
:1059B8007F0808087F00417F41002040413F017F68
:1059C800081422417F404040407F020C027F7F0440
:1059D80008107F3E4141413E7F090909063E415179
:1059E800215E7F09192946264949493201017F016B
:1059F800013F4040403F1F2040201F3F4038403F6C
:105A08006314081463070870080761514945430087
:105A18007F41410002040810200041417F00040238
:105A28000102044040404040000003050020545457
:105A380054787F44444438384444444438444444C3
:105A48007F385454541804047E0505085454543CB3
:105A58007F0804047800447D40002040443D007FD6
:105A68001028440000417F40007C047C04787C08B6
:105A780004047838444444387C1414140808141472
:105A8800147C7C08040400485454542404043F44FF
:105A9800443C4040207C1C2040201C3C4030403C82
:105AA80044281028440C5050503C4464544C440042
:105AB80000000000000000000102030406070809B6
:105AC800A0860100400D0300801A060000350C0076
