:020000040800F2
:10000000000001202533000829310008373100089D
:100010003D3100084331000849310008000000006C
:1000200000000000000000000000000061BC0008AB
:100030004F31000800000000A1BE000809BF000801
:1000400075330008753300087533000875330008F0
:1000500075330008753300087533000875330008E0
:1000600075330008753300087533000875330008D0
:1000700075330008753300087533000875330008C0
:1000800075330008753300087533000875330008B0
:1000900075330008753300087533000875330008A0
:1000A000753300085D3100087533000875330008AA
:1000B00075330008000000000000000075330008E0
:1000C0007533000875330008753300087533000870
:1000D0007533000875330008753300087533000860
:1000E00075330008753300080000000000000000B0
:1000F0000000000000000000000000000000000000
:10010000000000007533000800000000753300088F
:10011000000000000000000075330008753300087F
:10012000753300087533000875330008753300080F
:10013000753300080000000000000000000000000F
:1001400075330008753300087533000871310008F5
:1001500075330008753300087533000875330008DF
:10016000753300087533000875330008000000007F
:1001700075330008753300087533000875330008BF
:0C01800075330008753300087533000863
:1001900010B5054C237833B9044B13B10448AFF3C1
:1001A00000800123237010BDB80000200000000073
:1001B00000DB000808B5034B1BB103490348AFF34C
:1001C000008008BD00000000BC00002000DB00082B
:1001D000034613F8012B002AFBD1181A0138704787
:1001E00001F0FF01102A2BDB10F0070F08D010F8E8
:1001F000013B013A8B422DD010F0070F42B3F6D1EC
:10020000F0B441EA012141EA014122F007047FF004
:1002100000070023F0E80256083C85EA010586EA5B
:10022000010685FA47F5A3FA87F586FA47F6A5FA97
:1002300087F68EB9EED1F0BC01F0FF0102F00702A3
:1002400032B110F8013B013A83EA010313B1F8D14E
:100250000020704701387047002D06BF354603382F
:10026000073815F0010F07D1013015F4807F02BF68
:10027000013015F4C03F0130F0BC0138704700BFB9
:1002800081F0004102E000BF83F0004330B54FEA47
:1002900041044FEA430594EA050F08BF90EA020FB4
:1002A0001FBF54EA000C55EA020C7FEA645C7FEA47
:1002B000655C00F0E2804FEA5454D4EB5555B8BF6A
:1002C0006D420CDD2C4480EA020281EA030382EADB
:1002D000000083EA010180EA020281EA0303362D6D
:1002E00088BF30BD11F0004F4FEA01314FF4801C40
:1002F0004CEA113102D0404261EB410113F0004F52
:100300004FEA03334CEA133302D0524263EB430308
:1003100094EA050F00F0A780A4F10104D5F1200EA6
:100320000DDB02FA0EFC22FA05F2801841F1000101
:1003300003FA0EF2801843FA05F359410EE0A5F1D5
:1003400020050EF1200E012A03FA0EFC28BF4CF006
:10035000020C43FA05F3C01851EBE37101F00045BC
:1003600007D54FF0000EDCF1000C7EEB00006EEBC9
:100370000101B1F5801F1BD3B1F5001F0CD3490853
:100380005FEA30004FEA3C0C04F101044FEA4452AA
:1003900012F5800F80F09A80BCF1004F08BF5FEA31
:1003A000500C50F1000041EB045141EA050130BD11
:1003B0005FEA4C0C404141EB010111F4801FA4F1B4
:1003C0000104E9D191F0000F04BF01460020B1FA09
:1003D00081F308BF2033A3F10B03B3F120020CDA41
:1003E0000C3208DD02F1140CC2F10C0201FA0CF01F
:1003F00021FA02F10CE002F11402D8BFC2F1200C84
:1004000001FA02F120FA0CFCDCBF41EA0C01904039
:10041000E41AA2BF01EB0451294330BD6FEA040482
:100420001F3C1CDA0C340EDC04F11404C4F120026D
:1004300020FA04F001FA02F340EA030021FA04F37F
:1004400045EA030130BDC4F10C04C4F1200220FAD6
:1004500002F001FA04F340EA0300294630BD21FA14
:1004600004F0294630BD94F0000F83F4801306BFDA
:1004700081F480110134013D4EE77FEA645C18BFCE
:100480007FEA655C29D094EA050F08BF90EA020F65
:1004900005D054EA000C04BF1946104630BD91EA5D
:1004A000030F1EBF0021002030BD5FEA545C05D160
:1004B0004000494128BF41F0004130BD14F580049F
:1004C0003CBF01F5801130BD01F0004545F0FE4113
:1004D00041F470014FF0000030BD7FEA645C1ABF48
:1004E000194610467FEA655C1CBF0B46024650EA7F
:1004F000013406BF52EA033591EA030F41F40021AB
:1005000030BD00BF90F0000F04BF0021704730B530
:100510004FF4806404F132044FF000054FF0000105
:1005200050E700BF90F0000F04BF0021704730B5C6
:100530004FF4806404F1320410F0004548BF40429B
:100540004FF000013EE700BF42004FEAE2014FEAF0
:1005500031014FEA02701FBF12F07F4393F07F4FCB
:1005600081F06051704732F07F4208BF704793F0CE
:100570007F4F04BF41F40021704730B54FF46074E1
:1005800001F0004521F000411CE700BF50EA0102E4
:1005900008BF704730B54FF000050AE050EA01028D
:1005A00008BF704730B511F0004502D5404261EBFD
:1005B00041014FF4806404F132045FEA915C3FF43E
:1005C000D8AE4FF003025FEADC0C18BF03325FEADB
:1005D000DC0C18BF033202EBDC02C2F1200300FA8C
:1005E00003FC20FA02F001FA03FE40EA0E0021FAB1
:1005F00002F11444BDE600BF70B54FF0FF0C4CF49F
:10060000E06C1CEA11541DBF1CEA135594EA0C0F50
:1006100095EA0C0F00F0DEF82C4481EA030621EA8B
:100620004C5123EA4C5350EA013518BF52EA0335C6
:1006300041F4801143F4801338D0A0FB02CE4FF078
:100640000005E1FB02E506F00042E0FB03E54FF0A8
:100650000006E1FB03569CF0000F18BF4EF0010EA0
:10066000A4F1FF04B6F5007F64F5407404D25FEA9C
:100670004E0E6D4146EB060642EAC62141EA55514F
:100680004FEAC52040EA5E504FEACE2EB4F1FD0C91
:1006900088BFBCF5E06F1ED8BEF1004F08BF5FEA0F
:1006A000500E50F1000041EB045170BD06F00046C1
:1006B00046EA010140EA020081EA0301B4EB5C046E
:1006C000C2BFD4EB0C0541EA045170BD41F4801166
:1006D0004FF0000E013C00F3AB8014F1360FDEBF8B
:1006E000002001F0004170BDC4F10004203C35DA67
:1006F0000C341BDC04F11404C4F1200500FA05F3EA
:1007000020FA04F001FA05F240EA020001F000428A
:1007100021F0004110EBD37021FA04F642EB060100
:100720005EEA430E08BF20EAD37070BDC4F10C042A
:10073000C4F1200500FA04F320FA05F001FA04F2EE
:1007400040EA020001F0004110EBD37041F10001DA
:100750005EEA430E08BF20EAD37070BDC4F12005E5
:1007600000FA05F24EEA020E20FA04F301FA05F24D
:1007700043EA020321FA04F001F0004121FA04F2F5
:1007800020EA020000EBD3705EEA430E08BF20EAC5
:10079000D37070BD94F0000F0FD101F000464000FF
:1007A00041EB010111F4801F08BF013CF7D041EA81
:1007B000060195F0000F18BF704703F00046520085
:1007C00043EB030313F4801F08BF013DF7D043EA56
:1007D0000603704794EA0C0F0CEA135518BF95EA0C
:1007E0000C0F0CD050EA410618BF52EA4306D1D193
:1007F00081EA030101F000414FF0000070BD50EAB2
:10080000410606BF1046194652EA430619D094EA3B
:100810000C0F02D150EA013613D195EA0C0F05D125
:1008200052EA03361CBF104619460AD181EA030179
:1008300001F0004141F0FE4141F470014FF0000031
:1008400070BD41F0FE4141F4780170BD70B54FF0CC
:10085000FF0C4CF4E06C1CEA11541DBF1CEA13554C
:1008600094EA0C0F95EA0C0F00F0A7F8A4EB05042E
:1008700081EA030E52EA03354FEA013100F0888025
:100880004FEA03334FF0805545EA131343EA1263EE
:100890004FEA022245EA111545EA10654FEA0026A3
:1008A0000EF000419D4208BF964244F1FD0404F55C
:1008B000407402D25B084FEA3202B61A65EB0305B8
:1008C0005B084FEA32024FF480104FF4002CB6EB75
:1008D000020E75EB030E22BFB61A754640EA0C00F5
:1008E0005B084FEA3202B6EB020E75EB030E22BF35
:1008F000B61A754640EA5C005B084FEA3202B6EB76
:10090000020E75EB030E22BFB61A754640EA9C0034
:100910005B084FEA3202B6EB020E75EB030E22BF04
:10092000B61A754640EADC0055EA060E18D04FEAC2
:10093000051545EA16754FEA06164FEAC30343EA62
:1009400052734FEAC2025FEA1C1CC0D111F4801F2F
:100950000BD141EA00014FF000004FF0004CB6E728
:1009600011F4801F04BF01430020B4F1FD0C88BFC7
:10097000BCF5E06F3FF6AFAEB5EB030C04BFB6EBD2
:10098000020C5FEA500C50F1000041EB045170BDC5
:100990000EF0004E4EEA113114EB5C04C2BFD4EBF2
:1009A0000C0541EA045170BD41F480114FF0000E76
:1009B000013C90E645EA060E8DE60CEA135594EAF2
:1009C0000C0F08BF95EA0C0F3FF43BAF94EA0C0FF5
:1009D0000AD150EA01347FF434AF95EA0C0F7FF46A
:1009E00025AF104619462CE795EA0C0F06D152EABE
:1009F00003353FF4FDAE1046194622E750EA4106A2
:100A000018BF52EA43067FF4C5AE50EA41047FF4B2
:100A10000DAF52EA43057FF4EBAE12E74FEA410215
:100A2000B2F1E04324BFB3F5001CDCF1FE5C0DD94C
:100A300001F0004C4FEAC0024CEA5070B2F1004F96
:100A400040EB830008BF20F00100704711F0804F99
:100A500021D113F13872BCBF01F00040704741F45E
:100A600080114FEA5252C2F11802C2F1200C10FA62
:100A70000CF320FA02F018BF40F001004FEAC12346
:100A80004FEAD32303FA0CFC40EA0C0023FA02F3EA
:100A90004FEA4303CCE77FEA625307D150EA0133C0
:100AA0001EBF4FF0FE4040F44000704701F0004090
:100AB00040F0FE4040F40000704700BF53B94AB90F
:100AC000002908BF00281CBF4FF0FF314FF0FF3056
:100AD00000F072B9ADF1080C6DE904CE00F006F833
:100AE000DDF804E0DDE9022304B070472DE9F047AA
:100AF000089E04468846002B4BD18A42154667D98A
:100B0000B2FA82F24AB1C2F1200701FA02F320FAE6
:100B100007F7954047EA030894404FEA154E230C27
:100B2000B8FBFEF71FFA85FC0EFB178843EA084363
:100B300007FB0CF1994209D9EB1807F1FF3080F05F
:100B40001B81994240F21881023F2B445B1AA4B2E8
:100B5000B3FBFEF00EFB103344EA034400FB0CFC35
:100B6000A44509D92C1900F1FF3380F00781A44571
:100B700040F2048102382C4440EA0740A4EB0C0404
:100B800000271EB1D4400023C6E900433946BDE822
:100B9000F0878B4209D9002E00F0EB800027C6E9D0
:100BA000000138463946BDE8F087B3FA83F7002FD5
:100BB00047D18B4202D3824200F2FA80841A61EB61
:100BC000030301209846002EE0D0C6E90048DDE787
:100BD00002B9FFDEB2FA82F2002A40F08F80491B90
:100BE0004FEA154E1FFA85F80127B1FBFEFC230CD6
:100BF0000EFB1C1143EA014308FB0CF1994207D993
:100C0000EB180CF1FF3002D2994200F2CD808446FD
:100C1000591AA3B2B1FBFEF00EFB101443EA0444D0
:100C200008FB00F8A04507D92C1900F1FF3302D2C8
:100C3000A04500F2B6801846A4EB080440EA0C4038
:100C40009FE7C7F1200CBB4022FA0CFE4EEA030ED0
:100C500001FA07F420FA0CF521FA0CF34FEA1E48CA
:100C60002543B3FBF8F92C0C08FB19331FFA8EFA55
:100C700044EA034309FB0AF49C4202FA07F200FA31
:100C800007F10BD91EEB030309F1FF3080F08780D9
:100C90009C4240F28480A9F1020973441B1BADB24F
:100CA000B3FBF8F008FB103345EA034400FB0AFAF3
:100CB000A24508D91EEB040400F1FF336BD2A24514
:100CC00069D90238744440EA0940A0FB0289A4EBC8
:100CD0000A044C45C2464B4654D351D0002E69D02D
:100CE000B1EB0A0564EB030404FA0CFCFD40FC4084
:100CF0004CEA0505C6E90054002747E7C2F1200386
:100D000020FA03F7954001FA02F021FA03F34FEAC3
:100D1000154E3843010CB3FBFEF71FFA85F80EFBA6
:100D2000173341EA034107FB08F38B4204FA02F44C
:100D300007D9691807F1FF3C2FD28B422DD9023F0A
:100D40002944CB1A81B2B3FBFEF00EFB103341EA0B
:100D5000034100FB08F38B4207D9691800F1FF3CFF
:100D600017D28B4215D902382944C91A40EA0747DD
:100D70003BE73746304609E70746E7E61846FBE615
:100D80004145ABD2B8EB020A69EB0E0201381346BB
:100D9000A4E76046E9E7184695E76746D1E781464C
:100DA0007CE702382C4447E7ACF1020C2B442FE7D8
:100DB000384608E73746E9E6704700BF80B483B09D
:100DC00000AF78604FF06043D3F8803E03F001033A
:100DD000002B13D04FF06043D3F8003E03F0010323
:100DE000002B0BD000E000BF4FF060431B68002BCE
:100DF000F9D04FF060437A68D2B21A707B68184617
:100E00000C37BD465DF8047B7047000080B582B0AA
:100E100002AF4FF4FA7002F0E5FA1F480BF0E2FD62
:100E200000F068F81D4B01930023009300234FF45A
:100E300080621B491B4809F087FC1B4B0193002370
:100E4000009300234FF480621549184809F07CFC98
:100E5000174B01930023009300234FF48062104945
:100E6000144809F071FC144B0193002300930023F4
:100E70004FF480620A49114809F066FC104B019357
:100E80000023009300234FF4806205490D4809F0C8
:100E90005BFC09F0D1FDFEE718DB0008D400002060
:100EA0002CDB0008C9100008D80000201914000825
:100EB000DC00002023140008E00000205514000886
:100EC000E4000020AD14000880B582B000AF786067
:100ED0007B681846FFF772FF002318460837BD46A7
:100EE00080BD80B400AF00231846BD465DF8047B8A
:100EF0007047000080B582B000AF00F07BFB00F0CF
:100F00000FFB01224FF480714FF0904002F000FD82
:100F100001F00AFD174B1B6998470346012B05D1C9
:100F2000154A0021002000F023FB04E0134A0021B1
:100F3000002000F01DFB124B1B7899B24FF47A731E
:100F40004FF47A720F4802F075FF03467B607B68AE
:100F5000002B05D10C4A0021012000F009FB04E020
:100F60000A4A0021012000F003FB00BF18460837A1
:100F7000BD4680BDBCAA002030DB000844DB000871
:100F80000000002098AC002054DB000864DB00085F
:100F900090B583B000AF4A4B00221A70484B002234
:100FA0005A70474B00229A70454B0C22DA70444B22
:100FB0000F221A71424B0F225A71414B02229A7131
:100FC0003F4B0822DA713E4B06221A723C4B00223C
:100FD0005A723B4B00229A72394B0122DA72384B1B
:100FE00001221A73364B01225A73364A28A4D4E9D7
:100FF0000034C2E90234334A27A4D4E90034C2E9F8
:101000000834304A26A4D4E90034C2E90E342D4A0B
:1010100025A4D4E90034C2E914342A4A24A4D4E92A
:101020000034C2E91A34274A23A4D4E90034C2E9BF
:10103000203400237B601FE022497A6813465B005E
:101040001344DB000B4401221A701E497A681346D0
:101050005B001344DB000B44013301221A70194971
:101060007A6813465B001344DB000B441133012202
:101070001A707B6801337B607B68052BDCDD1149CE
:101080000F4800F0C3FB00BF0C37BD4690BD00BF4A
:10109000EE4433221100000001CE24459A000000E6
:1010A00002CE24459A00000003CE24459A00000099
:1010B00004CE24459A00000005CE24459A00000085
:1010C00050AB0020A0AB0020B0B5AAB000AF786054
:1010D000FFF75EFFBE4B0F221A75BE4A00210020AB
:1010E00000F046FABC4A0021032000F041FA082132
:1010F0004FF0904002F0F4FB0346002B6FD1B7484D
:1011000001F0EAFA87ED290AD7ED297AFDEEE77AB0
:1011100017EE903AC7F8A030D7ED297AFDEEE77ABE
:10112000F8EEE77A97ED297A77EE677A9FEDAC7A59
:1011300067EE877AFDEEE77A17EE903AC7F89C30B3
:1011400007F16800D7F89C30D7F8A020A5490BF02C
:1011500051FC07F14800D7F89C30D7F8A020A249ED
:101160000BF048FC00F0DCF9A04A0021002000F060
:10117000FFF907F148031A460021012000F0F8F9B1
:1011800007F1680319469A480BF034FC994B984ACA
:10119000DA60984B01225A7507F168031846FFF789
:1011A00017F80246934B1A61894B0F221A75914A20
:1011B00085A4D4E90034C2E900348E4800F072FC02
:1011C0008C4800F0DBFC034687F89B3097F89B3097
:1011D000002B04D1884A0021032000F0C9F9042122
:1011E0004FF0904002F07CFB0346002B6CD17B4813
:1011F00001F0D0FA87ED250AD7ED257AFDEEE77AE2
:1012000017EE903AC7F89030D7ED257AFDEEE77AE1
:10121000F8EEE77A97ED257A77EE677A9FED707AA8
:1012200067EE877AFDEEE77A17EE903AC7F88C30D2
:1012300007F12800D7F88C30D7F890206F490BF0D1
:10124000D9FB07F10800D7F88C30D7F890206C490B
:101250000BF0D0FB00F064F96A4A0021002000F096
:1012600087F907F108031A460021012000F080F9F0
:1012700007F1280319465E480BF0BCFB5D4B5C4A46
:10128000DA605C4B01225A7507F128031846FEF715
:101290009FFF0246574B1A61564A4BA4D4E90034CB
:1012A000C2E90034534800F0FDFB524800F066FCF0
:1012B000034687F88B3097F88B30002B04D14E4AC9
:1012C0000021032000F054F902214FF0904002F079
:1012D00007FB0346002B35D1454A4B4B15461C46B0
:1012E0000FCC28606960AA60EB6023882B82414B99
:1012F0003F4ADA603F4B01225A753D48FEF768FFCE
:1013000002463C4B1A613B4A2FA4D4E90034C2E99F
:101310000034384800F0C6FB364800F02FFC034686
:1013200087F88A3000F0FCF8384A0021002000F0ED
:101330001FF997F88A30002B04D12F4A002103208F
:1013400000F016F901214FF0904002F0C9FA03466F
:10135000002B35D1264A2E4B15461C460FCC286053
:101360006960AA60EB6023882B82224B204ADA60F6
:10137000204B01225A751E48FEF72AFF02461D4BDC
:101380001A611C4A10A4D4E90034C2E90034194897
:1013900000F088FB174800F0F1FB034687F889301E
:1013A00000F0BEF81B4A0021002000F0E1F897F899
:1013B0008930002B04D1104A0021032000F0D8F816
:1013C000012008F07DFB92E6EE443322110000007C
:1013D000E0AA002078DB00088CDB0008BCAA002013
:1013E0000000C842A0DB0008B4DB0008C0DB000836
:1013F00060AB002028AB0020D0DB0008E4DB000855
:10140000F8DB000808DC00081CDC000830DC000801
:1014100044DC000858DC000880B483B000AF78607A
:10142000FEE780B582B000AF78604FF4487008F0F6
:1014300047FB012280214FF0904002F069FA4FF4FF
:10144000487008F03DFB002280214FF0904002F0F0
:101450005FFAEAE780B58CB000AF78600023FB62EA
:1014600007F128024FF0FF334FF0FF31002009F061
:10147000A5FF0346012B12D1FB6A0133FB6207F182
:101480000803FA6A084918460BF0B4FA00F048F865
:1014900007F108031A460021012000F069F86420D2
:1014A00008F00EFBDCE700BF7CDC000880B584B0F0
:1014B00000AF786007F10C024FF0FF334FF0FF31BF
:1014C000002009F07BFF0346012B0ED101224FF4CF
:1014D0000071084802F01CFAC82009F079FA0022CD
:1014E0004FF40071034802F013FA642009F070FA17
:1014F000E0E700BF0004004880B584B000AFF860AA
:10150000B9601346FB80C8230122F968034805F03F
:1015100023F8002318461037BD4680BD30AC0020AC
:1015200080B582B000AF00237B6019E07B68DBB23E
:10153000184600F0CDF8002000F0DEF8002000F0A2
:10154000F8F800233B6005E0002000F081F83B68DC
:1015500001333B603B68842BF6DD7B6801337B60A5
:101560007B68032BE2DD002318460837BD4680BDAB
:1015700080B586B000AFF860B9607A60FB68DBB216
:10158000184600F0A5F8BB68DBB20533DBB218469D
:1015900000F0B2F800237B611EE000233B6112E003
:1015A0007B697A6813441B78A3F1200213469B00E1
:1015B0001A443B6913440E4AD35C184600F048F8BD
:1015C0003B6901333B613B69042BE9DD002000F0FE
:1015D0003FF87B6901337B617868FEF7F9FD0246CD
:1015E0007B699A42D9D8002318461837BD4680BD7A
:1015F000E0DC000880B500AF00F0DEF803461846D6
:1016000080BD000080B584B000AF0346FB710022AE
:101610004FF480510C4802F07BF9002240210B4826
:1016200002F076F907F10F01FB1D01221846FFF7C2
:1016300063FF01224FF48051034802F069F900BFB3
:101640001037BD4680BD00BF0004004800080048B8
:1016500080B584B000AF0346FB7100224FF4805187
:101660000E4802F055F9012240210D4802F050F9D0
:1016700007F10F01FB1D01221846FFF73DFF002275
:101680004021074802F044F901224FF480510348F9
:1016900002F03EF900BF1037BD4680BD000400488F
:1016A0000008004880B500AF00222021074802F062
:1016B0002FF90A2009F08CF901222021034802F0B9
:1016C00027F90A2009F084F900BF80BD000800480E
:1016D00080B582B000AF0346FB71FB7903F00F03C6
:1016E000FB71FB7963F04F03DBB21846FFF78AFF0B
:1016F00000BF0837BD4680BD80B582B000AF03464D
:10170000FB71FB7903F07F03FB71FB791B09DBB2F3
:1017100043F01003DBB21846FFF774FFFB7903F0C8
:101720000F03DBB21846FFF76DFF00BF0837BD4659
:1017300080BD80B582B000AF0346FB71FB7903F03A
:101740003F03FB71FB7943F04003DBB21846FFF720
:1017500059FF00BF0837BD4680BD80B500AFAF2040
:10176000FFF750FF00BF80BD80B582B000AF0346D9
:10177000FB71FB791D2B01D81E23FB71FB79282BF4
:1017800001D92823FB718120FFF73CFFFB79DB4364
:10179000DBB203F03F03DBB21846FFF733FFFB7900
:1017A00018460837BD4680BD80B500AFA620FFF7BC
:1017B00029FF00BF80BD000080B500AFFFF772FFBA
:1017C00000224021104802F0A3F8A020FFF71AFFE2
:1017D000FFF7EAFFC820FFF715FFA220FFF712FF6F
:1017E0002F20FFF70FFFF820FFF70CFF0020FFF777
:1017F00009FF2120FFF706FF1E20FFF7B5FFFFF7C7
:10180000ACFF0023184680BD00080048B0B584B086
:1018100000AF7860396000F02DFE002000F070FE0F
:10182000002000F07FFE642000F034FF012000F073
:10183000DBF8032000F0D8F800F0D4FC00F03BFB0C
:1018400000F024FB7023FB7207F10B030122194601
:10185000072000F0B4FA0B23BB7207F10A03012240
:101860001946002000F0ABFA7B681A785C4B1A70BE
:101870007B685A785A4B5A707B689A78584B9A70A2
:101880007B68DA78564BDA707B681A79544B1A7198
:101890007B685A79524B5A717B689A79504B9A718E
:1018A0007B68DA794E4BDA717B681A7A4C4B1A7284
:1018B0007B685A7A4A4B5A727B689A7A484B9A727A
:1018C0007B68DA7A464BDA727B681A7B444B1A7370
:1018D0007B685A7B424B5A730023FB6019E0FA681D
:1018E00013465B001344DB001A463B6898183D49D9
:1018F000FA6813465B001344DB000B441C460546A4
:101900000FCD0FC495E8030084E80300FB680133A2
:10191000FB60FB68052BE2DD314BDB7A184600F0FB
:101920003FFD2F4B1B7B184600F05DFD2C4B5B7B76
:10193000184600F07BFD2A4B1B79184600F0D1FBBE
:10194000274B5B79184600F0E7FB254BDB791846FF
:1019500000F001FC0023FB603BE0FB68D8B22149AA
:10196000FA6813465B001344DB000B441B781946EE
:1019700000F07DFBFB68D8B21A49FA6813465B0099
:101980001344DB000B4401331B78194600F035FB90
:10199000FB68D8B21349FA6813465B001344DB00B6
:1019A0000B4411331B78194600F0C6FCFB68D8B213
:1019B0000C49FA6813465B001344DB000B44083300
:1019C000D3E900341A46234600F026FCFB680133B5
:1019D000FB60FB68052BC0DD00BF1037BD46B0BD06
:1019E000ACAA0020A0AB002080B582B000AF0346B7
:1019F000FB71FB79013B032B4ED801A252F823F077
:101A0000111A0008231A0008471A00086D1A000866
:101A100000F0C6FA002000F073FD214B01221A707D
:101A20003AE01F4B1B78012B06D100F0AAFA41F2D5
:101A3000941000F03BFE02E0002000F061FD184B26
:101A400002221A7028E0164B1B78032B21D00020AD
:101A500000F056FD00F0B3FA012000F051FD8220A5
:101A600000F024FE0E4B03221A7012E00C4B1B7880
:101A7000042B10D0002000F043FD00F0AFFA01204D
:101A800000F03EFD822000F011FE054B04221A708A
:101A900001E000BF00E000BF00BF0837BD4680BDC9
:101AA000A8AA002090B585B000AF78607B68D3E924
:101AB00000341846214600F0F7FB7B685B7D002B65
:101AC0000AD07B68DA687B681B691946104600F00B
:101AD000BEF90123FB7310E00A4B5B7B002B0AD09D
:101AE0007B68DA687B681B691946104600F014FAB7
:101AF0000123FB7301E00023FB73FB7B18461437C3
:101B0000BD4690BDACAA002080B584B000AF78601F
:101B100000F077FB03461A467B681A727B681B7AD3
:101B2000052B24D8144BDB7A002B06D000F0D8F913
:101B300003461A467B681A6108E07B681B7A1846E0
:101B400000F0E4FB03461A467B681A617B681B6958
:101B5000202B0AD87B68DA687B681B691946104617
:101B600000F056F90123FB7301E00023FB73FB7BBC
:101B700018461037BD4680BDACAA002090B585B090
:101B800000AF7860514B1B78BB730220FFF72CFF2E
:101B90007B68D3E900124E4BD3E90034A24208BF60
:101BA00099420CD07B68D3E900341846214600F0F6
:101BB0007BFB7B68D3E90034454AC2E900347B688B
:101BC0005B7D002B6AD0434B5B7883F00103DBB273
:101BD000002B03D00121002000F00FFA3D4B1B78B1
:101BE00083F00103DBB2002B03D00121002000F0C1
:101BF0003EFA7B68D3E900341A462346002000F001
:101C00000BFB7868FFF74EFF00F0DDFA00F0BEFA3C
:101C10007B68002283F821200420FFF7E5FE0220E4
:101C2000FFF7E2FE00F097F903467B737B7B03F03E
:101C30002003002B12D07B7B03F04003002B0DD040
:101C400000F0C1FA00F0CEFA0123FB737868FFF7C9
:101C50005BFF7B68012283F821202EE07B7B03F071
:101C60002003002B10D07B7B03F04003002B0BD113
:101C700000F0A9FA0123FB737B68012283F821207D
:101C80007B6800221A6118E07B7B03F01003002BB5
:101C9000C2D000F07BFA0023FB730EE00420FFF7B4
:101CA000A3FE0220FFF7A0FE00F07FFA0346002B00
:101CB000F4D000F088FA0123FB73BB7B1846FFF7D2
:101CC00093FEFB7B18461437BD4690BDA8AA0020A2
:101CD000D8AA0020A0AB002080B584B000AF034696
:101CE000FB71002000F01EFCFB7903F01F03DBB248
:101CF000FB7307F10F0107F10F030122184600F0F3
:101D0000B1FC07F10F0107F10F030122184600F0A3
:101D1000A9FC012000F006FCFB7B18461037BD46ED
:101D200080BD80B586B000AF0346B9607A60FB73B2
:101D3000002000F0F7FBFB7B03F01F03DBB2FB7519
:101D400007F1170107F117030122184600F08AFC7A
:101D50007B681A46B968B86800F084FC012000F07E
:101D6000E1FB00BF1837BD4680BD80B584B000AF31
:101D700003460A46FB711346BB71002000F0D2FBFC
:101D800097F9073003F01F035BB243F020035BB207
:101D9000DBB2FB7307F10F0107F10F0301221846B5
:101DA00000F060FCB91DBB1D0122184600F05AFC72
:101DB000012000F0B7FB00BF1037BD4680BD80B5E5
:101DC00086B000AF0346B9607A60FB73002000F074
:101DD000A9FB97F90F3003F01F035BB243F0200318
:101DE0005BB2DBB2FB7507F1170107F117030122A4
:101DF000184600F037FC7B681A46B968B86800F0EE
:101E000031FC012000F08EFB00BF1837BD4680BDBD
:101E100080B584B000AF78603960002000F082FBAC
:101E20006123FB7307F10F0107F10F03012218462D
:101E300000F018FC3B681A467968786800F012FCDC
:101E4000012000F06FFB00BF1037BD4680BD80B59C
:101E500084B000AF78603960002000F063FBA023FD
:101E6000FB7307F10F0107F10F030122184600F081
:101E7000F9FB3B681A467968786800F0F3FB0120AB
:101E800000F050FB00BF1037BD4680BD80B582B06A
:101E900000AF002000F046FBE123FB71F91DFB1DA4
:101EA0000122184600F0DEFB012000F03BFB00BFE2
:101EB0000837BD4680BD80B582B000AF002000F07D
:101EC00031FBE223FB71F91DFB1D0122184600F0D6
:101ED000C9FB012000F026FB00BF0837BD4680BDCE
:101EE00080B582B000AF002000F01CFB6023FB71C6
:101EF000F91DFB1D0122184600F0B4FBF91DFB1D66
:101F00000122184600F0AEFB012000F00BFBFB792C
:101F100018460837BD4680BD80B584B000AF7860F4
:101F20003960002000F0FEFAB023FB7307F10F01C7
:101F300007F10F030122184600F094FB3B681A4694
:101F40007968786800F08EFB012000F0EBFA00BFA2
:101F50001037BD4680BD80B582B000AF002000F0D4
:101F6000E1FAFF23FB71F91DFB1D0122184600F069
:101F700079FB012000F0D6FAFB7918460837BD46F8
:101F800080BD80B500AF0020FFF7A6FE034643F0FA
:101F90000203DBB219460020FFF7E7FE00BF80BD59
:101FA00080B500AF0020FFF797FE034623F0020341
:101FB000DBB219460020FFF7D8FE00BF80BD80B518
:101FC00000AF0020FFF788FE034643F00103DBB2B9
:101FD00019460020FFF7C9FE00BF80BD80B500AFE5
:101FE0000020FFF779FE034623F00103DBB2194618
:101FF0000020FFF7BAFE00BF80BD80B584B000AFFF
:1020000003460A46FB711346BB71BB79002B14D003
:102010000120FFF761FE0346BB73FB79012202FA40
:1020200003F35AB297F90E3013435BB2BB73BB7B19
:1020300019460120FFF799FE15E00120FFF74CFE3D
:102040000346FB73FB79012202FA03F35BB2DB4325
:102050005AB297F90F3013405BB2FB73FB7B194602
:102060000120FFF782FE00BF1037BD4680BD80B55E
:1020700084B000AF03460A46FB711346BB71BB79BF
:10208000002B14D00220FFF727FE0346BB73FB7919
:10209000012202FA03F35AB297F90E3013435BB2EE
:1020A000BB73BB7B19460220FFF75FFE15E00220E1
:1020B000FFF712FE0346FB73FB79012202FA03F3DA
:1020C0005BB2DB435AB297F90F3013405BB2FB733C
:1020D000FB7B19460220FFF748FE00BF1037BD46C4
:1020E00080BD80B584B000AF0346FB710420FFF7CC
:1020F000F3FD0346FB73FB7B23F00F03FB73FA7BBB
:10210000FB791343FB73FB7B19460420FFF72DFE7D
:1021100000BF1037BD4680BD80B584B000AF034618
:10212000FB710420FFF7D8FD0346FB73FB7B03F034
:102130000F03FB73FB791B015AB297F90F3013435E
:102140005BB2FB73FB7B19460420FFF70EFE00BF5A
:102150001037BD4680BD80B584B000AF0346FB712B
:102160000620FFF7B9FD0346FB73FB7B23F0280332
:10217000FB73FA7BFB791343FB73FB7B1946062049
:10218000FFF7F3FD00BF1037BD4680BD80B582B0BC
:1021900000AF1023FB71FB1D012219460720FFF73A
:1021A0000EFE00BF0837BD4680BD80B500AFFFF70B
:1021B000D2FE034603F02003002B01D0012300E0F0
:1021C0000023184680BD80B582B000AF2023FB718C
:1021D000FB1D012219460720FFF7F1FD00BF08375C
:1021E000BD4680BD80B582B000AF4023FB71FB1DB2
:1021F000012219460720FFF7E2FD00BF0837BD4660
:1022000080BD80B500AFFFF7A6FE03465B1003F06C
:102210000703DBB2184680BDF0B589B000AF0146B8
:10222000C7E900230B46FB730023FB61FB7B012BFB
:1022300002D80523FB6107E0FB7B012B04D9FB7B64
:10224000052B01D80123FB610023BB611BE0BB69A7
:10225000D900D7E90023C1F12006A1F1200022FA1C
:1022600001F403FA06F6344323FA00F0044323FA98
:1022700001F5E1B207F11002BB6913440A461A7076
:10228000BB690133BB61BA69FB699A42DFDBFB7B47
:102290000A33DBB207F11001FA691846FFF78FFD28
:1022A00000BF2437BD46F0BDF0B587B000AFC7E929
:1022B000000100227A611BE07A69D000D7E90012A0
:1022C000C0F12006A0F1200521FA00F302FA06F67B
:1022D000334322FA05F52B4322FA00F4D8B207F172
:1022E0000C017A690A44014611707A6901327A61F7
:1022F0007A69042AE0DD07F10C0305221946102053
:10230000FFF75DFD00BF1C37BD46F0BD80B584B052
:1023100000AF0346FB71FB791133DBB207F10F010C
:1023200001221846FFF7FDFCFB7B03F03F03DBB205
:1023300018461037BD4680BD80B582B000AF034659
:102340000A46FB711346BB71BB79002B11D01C20D0
:10235000FFF7C2FC03465AB2FB79012101FA03F3ED
:102360005BB213435BB2DBB219461C20FFF7FDFCE6
:1023700012E01C20FFF7B0FC03465AB2FB790121A2
:1023800001FA03F35BB2DB435BB213405BB2DBB237
:1023900019461C20FFF7E9FC00BF0837BD4680BD89
:1023A00080B582B000AF0346FB71FB79002B0BD0E8
:1023B0001D20FFF791FC034643F00403DBB21946EE
:1023C0001D20FFF7D2FC0AE01D20FFF785FC034625
:1023D00023F00403DBB219461D20FFF7C6FC00BF43
:1023E0000837BD4680BD80B582B000AF0346FB71A3
:1023F000FB79002B0BD01D20FFF76EFC034643F04A
:102400000203DBB219461D20FFF7AFFC0AE01D20D6
:10241000FFF762FC034623F00203DBB219461D20DE
:10242000FFF7A3FC00BF0837BD4680BD80B582B072
:1024300000AF0346FB71FB79002B0BD01D20FFF78B
:102440004BFC034643F00103DBB219461D20FFF7A6
:102450008CFC0AE01D20FFF73FFC034623F001033C
:10246000DBB219461D20FFF780FC00BF0837BD46D0
:1024700080BD000080B582B000AF00F065F80C4B65
:10248000DB6C0B4A43F00403D364094BDB6C03F0B1
:1024900004037B607B68074803F0D4FF00F00CF86E
:1024A00000F016F800F020F800BF0837BD4680BDE8
:1024B00000100240E800002080B500AF0249034848
:1024C00001F094F800BF80BD04000020000800481F
:1024D00080B500AF0249034801F088F800BF80BD15
:1024E000180000200008004880B500AF02490348EA
:1024F00001F07CF800BF80BD2C00002000080048DF
:1025000080B582B000AF0346FB71FB791A464FF4E9
:102510008071034801F0FCF900BF0837BD4680BD5B
:102520000008004880B582B000AF0346FB71FB791C
:102530001A464FF40071034801F0EAF900BF08376A
:10254000BD4680BD0008004880B58AB000AF414B51
:10255000414A1A603F4B1022DA613E4B00229A60DA
:102560003C4B00225A613B4B00221A61394B4FF41D
:10257000E062DA60374B00221A62364B00225A6260
:10258000344B00229A62334B0722DA62314B4FF40C
:1025900000729A612F4B4FF482725A602F4BDB6CA2
:1025A0002E4A43F00403D3642C4BDB6C03F004038A
:1025B0003B613B69294BDB6C284A43F00403D3643D
:1025C000264BDB6C03F00403FB60FB68234BDB6CE6
:1025D000224A43F00403D364204BDB6C03F0040372
:1025E000BB60BB681D4B9B6D1C4A43F40043936565
:1025F0001A4B9B6D03F400437B607B684FF4806350
:102600007B610223BB610223FB6102233B62062341
:102610007B6207F114031946114800F0E7FF4FF4FD
:1026200000637B6106237B6207F1140319460C48A3
:1026300000F0DCFF4FF480537B6106237B6207F1DF
:1026400014031946064800F0D1FF00BF2837BD46E5
:1026500080BD00BFE8000020003C004000100240A8
:102660000008004880B586B002AFF860B9607A60B3
:102670007B689AB24FF47A7300931346BA68F9688C
:10268000034804F0CFF8034618461037BD4680BD16
:10269000E800002080B582B000AF7860786800F074
:1026A000A1FE00BF0837BD4680BD000080B584B0E4
:1026B00000AF78607B68074AA2FB03239B09FB609D
:1026C000FB680133184600F08DFE00BF1037BD4691
:1026D00080BD00BFD34D621090B585B000AF78606B
:1026E000F3233B7200237B720023BB727B689B68E1
:1026F00007F108020121104698477B685B694FF497
:10270000FA7098477B68DB6807F1080202211046DF
:1027100098473B7A1B021AB27B7A1BB213431BB257
:10272000FB81FB8907EE903AF8EE677A17EE900A84
:10273000FDF70AFF15A3D3E90023FDF75DFF03466C
:102740000C46184621464FF000020F4BFEF77EF86C
:1027500003460C461846214609A3D3E90023FDF79A
:1027600093FD03460C4618462146FEF757F90346EB
:1027700007EE903AB0EE670A1437BD4690BD00BF31
:10278000CDCCCCCCCC6C47400000F040D7A3703D02
:102790000AF7654090B587B000AF7860F5233B73CA
:1027A00000237B737B689B6807F10C0201211046B4
:1027B00098477B685B694FF4FA7098477B68DB68E1
:1027C00007F10C020221104698473B7B1B021AB20C
:1027D0007B7B1BB213431BB2FB82FB8A1946194851
:1027E0000AF08CF8FB8A07EE903AF8EE677A17EE5B
:1027F000900AFDF7A9FE4FF00002134BFDF7FCFE17
:1028000003460C46184621464FF000020F4BFEF7D8
:102810001DF803460C46184621464FF000020C4BAB
:10282000FDF732FD03460C4618462146FEF7F6F842
:1028300003463B613B6907EE903AB0EE670A1C37EE
:10284000BD4690BD90DC000800405F400000F040B5
:102850000000184080B400AF00BF1846BD465DF8C8
:10286000047B704780B586B002AF786039603B6802
:102870009AB24FF47A73009313467A68802107481E
:1028800001F0EEF80346FB73FB7B002B01D1002324
:1028900000E0012318461037BD4680BD98AC0020EB
:1028A00080B586B002AF786039603B689AB24FF469
:1028B0007A73009313467A688021074801F0C4F9BF
:1028C0000346FB73FB7B002B01D1002300E00123B7
:1028D00018461037BD4680BD98AC002080B582B048
:1028E00000AF4FF47A734FF47A728021074801F0F9
:1028F000A1FA0346FB71FB79002B01D1002300E014
:10290000012318460837BD4680BD00BF98AC0020A3
:1029100080B582B000AF7860786800F063FD00BFDA
:1029200018460837BD4680BD80B500AF0B4B0C4A3A
:102930001A600A4B0B4A5A60084B0B4A9A60074BC5
:102940000A4ADA60054B0A4A1A61044B094A5A617D
:10295000FFF7C4FF0346184680BD00BFBCAA002095
:10296000292900085528000865280008A128000822
:10297000DD2800081129000880B400AF00BFBD4663
:102980005DF8047B704780B500AF00F0F4FC00F008
:102990000FF800F08FF900F0E1F800F01DF900F0F9
:1029A00059F900F09BF8FEF731FA0023184680BD74
:1029B00080B5AEB000AF07F1740344220021184681
:1029C00009F093FF07F1600300221A605A609A60D1
:1029D000DA601A613B4660220021184609F085FF43
:1029E00002F022FB3C4BD3F890303B4A23F0180313
:1029F000C2F8903014237B670123FB670123C7F8DB
:102A00008C300023C7F890306023C7F8943002233D
:102A1000C7F89C300123C7F8A0300123C7F8A430C1
:102A20002423C7F8A8300723C7F8AC300223C7F81F
:102A3000B0300223C7F8B43007F17403184602F02F
:102A400067FB0346002B01D000F0E8F90F233B663B
:102A500003237B660023BB660023FB6600233B67E2
:102A600007F160030421184602F072FF0346002BB1
:102A700001D000F0D3F942F241033B6000233B62F6
:102A800000233B634FF08063BB6401237B60012321
:102A9000BB601823FB6007233B6102237B61022399
:102AA000BB614FF48013FB613B46184603F086F987
:102AB0000346002B01D000F0B1F94FF4007002F092
:102AC000D1FA0346002B01D000F0A8F903F0BAFBBD
:102AD00000BFB837BD4680BD0010024080B500AFD2
:102AE0001B4B1C4A1A601A4B1B4A5A60184B002297
:102AF0009A60174B0122DA60154B00221A61144BC1
:102B000000225A61124B00229A61114B0022DA61B5
:102B10000F4B00221A620E4800F012FF0346002BF2
:102B200001D000F07BF90021094801F06BFC03465D
:102B3000002B01D000F072F90021054801F0ADFC36
:102B40000346002B01D000F069F900BF80BD00BF33
:102B500098AC0020005400408126700080B500AF82
:102B60001B4B1C4A1A601A4B4FF482725A60184B66
:102B700000229A60164B4FF4E062DA60144B002298
:102B80001A61134B00225A61114B4FF400729A6183
:102B90000F4B0022DA610E4B00221A620C4B00220E
:102BA0005A620B4B00229A62094B0722DA62084BE9
:102BB00000221A63064B08225A63054803F042FCC0
:102BC0000346002B01D000F029F900BF80BD00BFF3
:102BD00030AC00200038004080B500AF1B4B1C4AD1
:102BE0001A601A4B4FF482725A60184B00229A6096
:102BF000164B4FF4E062DA60144B00221A61134B5B
:102C000000225A61114B4FF400729A610F4B00225F
:102C1000DA610E4B00221A620C4B00225A620B4BF7
:102C200000229A62094B0722DA62084B00221A63DB
:102C3000064B08225A63054803F004FC0346002BA8
:102C400001D000F0EBF800BF80BD00BFE4AC002075
:102C5000003C004080B500AF144B154A1A60134B7E
:102C60004FF4E1325A60114B00229A600F4B002260
:102C7000DA600E4B00221A610C4B0C225A610B4B8E
:102C800000229A61094B0022DA61084B00221A6285
:102C9000064B00225A62054804F01EFB0346002B37
:102CA00001D000F0BBF800BF80BD00BF48AD0020E0
:102CB0000038014080B588B000AF07F10C03002256
:102CC0001A605A609A60DA601A61474BDB6C464AB8
:102CD00043F00403D364444BDB6C03F00403BB6098
:102CE000BB68414BDB6C404A43F00103D3643E4B6D
:102CF000DB6C03F001037B607B683B4BDB6C3A4A87
:102D000043F00203D364384BDB6C03F002033B60F7
:102D10003B6800224FF4F8714FF0904000F0F8FD4E
:102D200000224FF45871314800F0F2FD00224FF4B8
:102D300098512F4800F0ECFD0F23FB6000233B610E
:102D400000237B6107F10C0319464FF0904000F01F
:102D50004DFC4FF4F873FB6001233B6100237B6162
:102D60000023BB6107F10C0319464FF0904000F0BF
:102D70003DFC4FF45873FB6001233B6100237B61F2
:102D80000023BB6107F10C031946184800F02EFC24
:102D90000123FB60174B3B6100237B6107F10C03B0
:102DA0001946134800F022FC4FF49853FB600123AE
:102DB0003B6100237B610023BB6107F10C031946D3
:102DC0000B4800F013FC8023FB600A4B3B6100239F
:102DD0007B6107F10C031946044800F007FC00BFB3
:102DE0002037BD4680BD00BF0010024000080048EB
:102DF000000400480000111080B582B000AF786078
:102E00007B681B68044A934201D100F0CDFA00BFF1
:102E10000837BD4680BD00BF002C014080B400AF24
:102E200000BFBD465DF8047B7047000080B582B0EE
:102E300000AF114B1B6E104A43F0010313660E4B9B
:102E40001B6E03F001037B607B680B4B9B6D0A4A92
:102E500043F080539365084B9B6D03F080533B60B8
:102E60003B6800220F216FF0010000F095FB00BFCE
:102E70000837BD4680BD00BF0010024080B58AB053
:102E800000AF786007F1140300221A605A609A605C
:102E9000DA601A617B681B68184A934229D1184B83
:102EA000DB6C174A43F00103D364154BDB6C03F072
:102EB00001033B613B694FF4C0637B611223BB613B
:102EC0000123FB6103233B6204237B6207F11403AC
:102ED00019464FF0904000F089FB094B9B6D084A62
:102EE00043F400139365064B9B6D03F40013FB60E2
:102EF000FB6800BF2837BD4680BD00BF00540040BE
:102F00000010024080B58CB000AF786007F11C0360
:102F100000221A605A609A60DA601A617B681B6846
:102F20002F4A934229D12F4B9B6D2E4A43F4804365
:102F300093652C4B9B6D03F48043BB61BB69294BAC
:102F4000DB6C284A43F00203D364264BDB6C03F0AE
:102F500002037B617B694FF42043FB6102233B62E8
:102F600000237B620323BB620523FB6207F11C0382
:102F700019461D4800F03AFB2DE07B681B681B4A90
:102F8000934228D1174B9B6D164A43F40043936537
:102F9000144B9B6D03F400433B613B69114BDB6CAD
:102FA000104A43F00403D3640E4BDB6C03F00403BC
:102FB000FB60FB684FF4E053FB6102233B6200239C
:102FC0007B620323BB620623FB6207F11C031946E5
:102FD000074800F00BFB00BF3037BD4680BD00BF87
:102FE000003800400010024000040048003C00404F
:102FF0000008004880B58AB000AF786007F114037C
:1030000000221A605A609A60DA601A617B681B6855
:10301000174A934227D1174B1B6E164A43F480433D
:103020001366144B1B6E03F480433B613B69114BE9
:10303000DB6C104A43F00203D3640E4BDB6C03F0ED
:103040000203FB60FB68C0237B610223BB6100239A
:10305000FB6103233B6207237B6207F114031946DC
:10306000054800F0C3FA00BF2837BD4680BD00BF49
:1030700000380140001002400004004880B58CB0C8
:1030800000AF78600023FB620023BB6200227968F6
:10309000192000F081FA192000F09AFA1E4B1B6EDD
:1030A0001D4A43F4006313661B4B1B6E03F400635D
:1030B000FB60FB6807F1100207F114031146184684
:1030C00002F0EAFD02F0D2FDF862FB6A134AA2FBAD
:1030D00003239B0C013BBB62114B124A1A60104B3D
:1030E00040F2E732DA600E4ABB6A53600C4B0022B2
:1030F0001A610B4B00229A60094803F0C3FE034695
:10310000002B04D1064803F0F3FE034600E0012340
:1031100018463037BD4680BD0010024083DE1B4399
:10312000C8AD0020002C014080B400AF00BFBD46F8
:103130005DF8047B704780B400AFFEE780B400AF59
:10314000FEE780B400AFFEE780B400AFFEE780B4D6
:1031500000AF00BFBD465DF8047B704780B500AF8F
:10316000024803F0EFFE00BF80BD00BFC8AD0020E5
:1031700080B500AF024801F0DCF900BF80BD00BFA0
:103180004CAE002080B586B000AFF860B9607A60C0
:1031900000237B610AE0FDF7A4FE0146BB685A1CD0
:1031A000BA60CAB21A707B6901337B617A697B6845
:1031B0009A42F0DB7B6818461837BD4680BD80B563
:1031C00086B000AFF860B9607A6000237B6109E0E7
:1031D000BB685A1CBA601B781846FDF775FE7B6900
:1031E00001337B617A697B689A42F1DB7B68184620
:1031F0001837BD4680BD80B483B000AF78604FF013
:10320000FF3318460C37BD465DF8047B704780B429
:1032100083B000AF786039603B684FF400525A6069
:10322000002318460C37BD465DF8047B704780B418
:1032300083B000AF7860012318460C37BD465DF8B7
:10324000047B704780B485B000AFF860B9607A60E5
:10325000002318461437BD465DF8047B7047000014
:1032600080B584B000AF7860114B1B68002B02D191
:103270000F4B104A1A600E4B1B68FB600C4B1A6810
:103280007B6813446A46934207D909F0F9FA02466B
:103290000C2313604FF0FF3306E0054B1A687B6880
:1032A0001344034A1360FB6818461037BD4680BDBF
:1032B0004C010020C8B0002080B400AF174BD3F8F9
:1032C0008830164A43F47003C2F88830144B1B68E8
:1032D000134A43F001031360114B00229A60104B14
:1032E0001B680F4A23F0A85323F4102313600C4BE0
:1032F0004FF48052DA600A4B1B68094A23F480239A
:103300001360074B00229A61044B4FF000629A60F1
:1033100000BFBD465DF8047B704700BF00ED00E0D4
:1033200000100240DFF834D0002103E00C4B5B5862
:10333000435004310B480C4B42189A42F6D30B4AC7
:1033400002E0002342F8043B094B9A42F9D3FFF70D
:10335000B3FF09F09BFAFFF716FBFEE70000012020
:1033600098DF000800000020B4000020B800002012
:10337000C4B00020FEE780B582B000AF0023FB712F
:10338000032000F0FEF80020FFF778FE0346002B34
:1033900002D00123FB7101E0FFF748FDFB791846DD
:1033A0000837BD4680BD000080B400AF054B1A68E9
:1033B000054B1B681344034A136000BFBD465DF80C
:1033C000047B704708AE00204800002080B400AFA6
:1033D000034B1B681846BD465DF8047B704700BF71
:1033E00008AE002080B584B000AF7860FFF7EEFF34
:1033F000B8607B68FB60FB68B3F1FF3F04D0094B0A
:103400001B68FA681344FB6000BFFFF7DFFF02464A
:10341000BB68D31AFA689A42F7D800BF1037BD4686
:1034200080BD00BF4800002080B485B000AF786048
:103430007B6803F00703FB600C4BDB68BB60BA687A
:103440004FF6FF031340BB60FB681A02BB681343CF
:1034500043F0BF6343F40033BB60044ABB68D360EE
:1034600000BF1437BD465DF8047B704700ED00E0F7
:1034700080B400AF044BDB681B0A03F00703184657
:10348000BD465DF8047B704700ED00E080B483B07A
:1034900000AF0346FB7197F90730002B0BDBFB797C
:1034A00003F01F02074997F907305B09012000FA72
:1034B00002F241F8232000BF0C37BD465DF8047BC3
:1034C000704700BF00E100E080B483B000AF034666
:1034D0003960FB7197F90730002B0ADB3B68DAB2E1
:1034E0000C4997F907301201D2B20B4483F800233C
:1034F0000AE03B68DAB20849FB7903F00F03043BAA
:103500001201D2B20B441A7600BF0C37BD465DF8EB
:10351000047B704700E100E000ED00E080B489B07A
:1035200000AFF860B9607A60FB6803F00703FB61E5
:10353000FB69C3F10703042B28BF0423BB61FB69AC
:103540000433062B02D9FB69033B00E000237B61B7
:103550004FF0FF32BB6902FA03F3DA43BB681A404B
:103560007B699A404FF0FF317B6901FA03F3D9433D
:103570007B680B40134318462437BD465DF8047B37
:10358000704780B582B000AF78607868FFF74CFF75
:1035900000BF0837BD4680BD80B586B000AF03468A
:1035A000B9607A60FB7300237B61FFF761FF78618C
:1035B0007A68B9687869FFF7B1FF024697F90F306A
:1035C00011461846FFF780FF00BF1837BD4680BD83
:1035D00080B582B000AF0346FB7197F907301846FB
:1035E000FFF754FF00BF0837BD4680BD80B487B0E9
:1035F00000AF7860396000237B6154E13B681A6852
:1036000001217B6901FA03F31340FB60FB68002B87
:1036100000F046813B685B68012B0BD03B685B6820
:10362000022B07D03B685B68112B03D03B685B68BB
:10363000122B30D17B689B683B617B695B00032266
:1036400002FA03F3DB433A6913403B613B68DA68F3
:103650007B695B0002FA03F33A6913433B617B68C1
:103660003A699A607B685B683B6101227B6902FA78
:1036700003F3DB433A6913403B613B685B681B091A
:1036800003F001027B6902FA03F33A6913433B61D9
:103690007B683A695A607B68DB683B617B695B00E9
:1036A000032202FA03F3DB433A6913403B613B68B0
:1036B0009A687B695B0002FA03F33A6913433B6142
:1036C0007B683A69DA603B685B68022B03D03B6831
:1036D0005B68122B23D17B69DA087B68083253F8C8
:1036E00022303B617B6903F007039B000F2202FA43
:1036F00003F3DB433A6913403B613B681A697B691A
:1037000003F007039B0002FA03F33A6913433B619A
:103710007B69DA087B680832396943F822107B68D4
:103720001B683B617B695B00032202FA03F3DB4306
:103730003A6913403B613B685B6803F003027B69B5
:103740005B0002FA03F33A6913433B617B683A6911
:103750001A603B685B6803F08053002B00F0A08088
:10376000584B1B6E574A43F001031366554B1B6EB3
:1037700003F00103BB60BB68534A7B699B080233BB
:1037800052F823303B617B6903F003039B000F2257
:1037900002FA03F3DB433A6913403B617B68B3F100
:1037A000904F19D07B68494A934213D07B68484AAE
:1037B00093420DD07B68474A934207D07B68464AC4
:1037C000934201D1042308E0072306E0032304E029
:1037D000022302E0012300E000237A6902F00302E1
:1037E000920093403A6913433B6137497B699B08D8
:1037F00002333A6941F82320384B1B683B61FB6870
:10380000DB433A6913403B613B685B6803F48033F8
:10381000002B03D03A69FB6813433B612F4A3B6995
:1038200013602E4B5B683B61FB68DB433A691340D6
:103830003B613B685B6803F40033002B03D03A69BB
:10384000FB6813433B61254A3B695360234B9B68EC
:103850003B61FB68DB433A6913403B613B685B6853
:1038600003F48013002B03D03A69FB6813433B61D8
:103870001A4A3B699360194BDB683B61FB68DB4389
:103880003A6913403B613B685B6803F40013002B0B
:1038900003D03A69FB6813433B61104A3B69D3602C
:1038A0007B6901337B613B681A687B6922FA03F309
:1038B000002B7FF4A3AE00BF1C37BD465DF8047B30
:1038C000704700BF001002400000014000040048A3
:1038D00000080048000C00480010004800040140A7
:1038E00080B485B000AF78600B467B807B681A6936
:1038F0007B881340002B02D00123FB7301E00023DF
:10390000FB73FB7B18461437BD465DF8047B70479C
:1039100080B483B000AF78600B467B8013467B7029
:103920007B78002B03D07A887B689A6102E07A88E2
:103930007B689A6200BF0C37BD465DF8047B704718
:1039400080B582B000AF78607B68002B01D1012385
:1039500081E07B6893F84130DBB2002B06D17B68B5
:10396000002283F840207868FFF788FA7B682422D9
:1039700083F841207B681B681A687B681B6822F00B
:1039800001021A607B685A687B681B6822F07062CB
:103990001A617B681B689A687B681B6822F4004286
:1039A0009A607B68DB68012B07D17B689A687B682B
:1039B0001B6842F400429A6006E07B689A687B6864
:1039C0001B6842F404429A607B68DB68022B04D1D6
:1039D0007B681B684FF400625A607B681B685B68F9
:1039E0007A68126843F0007343F4004353607B68C5
:1039F0001B68DA687B681B6822F40042DA607B6827
:103A00001A697B685B6942EA03017B689B691A0259
:103A10007B681B680A43DA607B68D9697B681A6A2D
:103A20007B681B680A431A607B681B681A687B689E
:103A30001B6842F001021A607B6800225A647B68AE
:103A4000202283F841207B6800221A637B680022D1
:103A500083F84220002318460837BD4680BD000089
:103A600080B588B002AFF8607A601A460B467B8159
:103A700013463B81FB6893F84130DBB2202B40F0CA
:103A8000DA80FB6893F84030012B01D10223D3E0A8
:103A9000FB68012283F84020FFF798FC78617B697E
:103AA0000093192301224FF40041F86800F0EDFA69
:103AB0000346002B01D00123BEE0FB68212283F8DE
:103AC0004120FB68102283F84220FB6800225A64E0
:103AD000FB687A685A62FB683A895A85FB6800225B
:103AE0005A63FB685B8D9BB2FF2B0ED9FB68FF22EC
:103AF0001A85FB681B8DDAB27989514B00934FF020
:103B00008073F86800F050FC6CE0FB685B8D9AB243
:103B1000FB681A85FB681B8DDAB27989484B0093E4
:103B20004FF00073F86800F03FFC5BE07A69396A97
:103B3000F86800F0EAFA0346002B01D001237BE08D
:103B4000FB685B6A1A78FB681B689A62FB685B6AB1
:103B50005A1CFB685A62FB685B8D9BB2013B9AB2B0
:103B6000FB685A85FB681B8D013B9AB2FB681A857E
:103B7000FB685B8D9BB2002B34D0FB681B8D002B48
:103B800030D17B6900933B6A00228021F86800F005
:103B90007CFA0346002B01D001234DE0FB685B8DCE
:103BA0009BB2FF2B0ED9FB68FF221A85FB681B8D89
:103BB000DAB27989002300934FF08073F86800F03F
:103BC000F3FB0FE0FB685B8D9AB2FB681A85FB681C
:103BD0001B8DDAB27989002300934FF00073F868E7
:103BE00000F0E2FBFB685B8D9BB2002B9ED17A69F3
:103BF000396AF86800F0C9FA0346002B01D00123A6
:103C00001AE0FB681B682022DA61FB681B685968B0
:103C1000FB681A680B4B0B405360FB68202283F84B
:103C20004120FB68002283F84220FB68002283F8D1
:103C30004020002300E0022318461837BD4680BD0F
:103C40000020008000E800FE80B588B002AFF86078
:103C50007A601A460B467B8113463B81FB6893F8DA
:103C60004130DBB2202B40F0DB80FB6893F8403022
:103C7000012B01D10223D4E0FB68012283F840200C
:103C8000FFF7A4FB78617B690093192301224FF4AD
:103C90000041F86800F0F9F90346002B01D0012338
:103CA000BFE0FB68222283F84120FB68102283F8E2
:103CB0004220FB6800225A64FB687A685A62FB68FB
:103CC0003A895A85FB6800225A63FB685B8D9BB278
:103CD000FF2B0ED9FB68FF221A85FB681B8DDAB219
:103CE0007989524B00934FF08073F86800F05CFBC9
:103CF0006DE0FB685B8D9AB2FB681A85FB681B8DD3
:103D0000DAB27989494B00934FF00073F86800F0FC
:103D10004BFB5CE07A69396AF86800F073FA034695
:103D2000002B01D001237CE0FB681B685A6AFB680A
:103D30005B6AD2B21A70FB685B6A5A1CFB685A62F3
:103D4000FB681B8D013B9AB2FB681A85FB685B8D93
:103D50009BB2013B9AB2FB685A85FB685B8D9BB2B4
:103D6000002B34D0FB681B8D002B30D17B69009376
:103D70003B6A00228021F86800F087F90346002B97
:103D800001D001234DE0FB685B8D9BB2FF2B0ED968
:103D9000FB68FF221A85FB681B8DDAB27989002344
:103DA00000934FF08073F86800F0FEFA0FE0FB68B4
:103DB0005B8D9AB2FB681A85FB681B8DDAB2798934
:103DC000002300934FF00073F86800F0EDFAFB68F1
:103DD0005B8D9BB2002B9DD17A69396AF86800F03F
:103DE000D4F90346002B01D001231AE0FB681B68BD
:103DF0002022DA61FB681B685968FB681A680C4B63
:103E00000B405360FB68202283F84120FB680022AE
:103E100083F84220FB68002283F84020002300E062
:103E2000022318461837BD4680BD00BF002400801D
:103E300000E800FE80B58AB002AFF8607A603B60AF
:103E40000B467B8100237B61FB6893F84130DBB23A
:103E5000202B40F0F180FB681B689B6903F4004352
:103E6000B3F5004F01D10223E7E0FB6893F840303F
:103E7000012B01D10223E0E0FB68012283F84020FE
:103E8000FB68242283F84120FB6800225A64FB6807
:103E9000DB68012B07D17B89C3F3090343F000736F
:103EA00043F4005304E07B89C3F3090343F4205334
:103EB000FA6812685360FFF789FAB861FB681B68FB
:103EC0009B6903F02003202B0CBF01230023DBB2EE
:103ED000FB77FB681B689B6903F01003102B0CBF7A
:103EE00001230023DBB2BB7734E03B68B3F1FF3F33
:103EF0001AD0FFF76BFA0246BB69D31A3A689A42A6
:103F000002D33B68002B0FD1FB68202283F84120AD
:103F1000FB685B6C43F02002FB685A64FB6800227C
:103F200083F84020012388E0FB681B689B6903F04D
:103F30002003202B0CBF01230023DBB2FB77FB689F
:103F40001B689B6903F01003102B0CBF0123002397
:103F5000DBB2BB77FB7F002B02D1BB7F002BC4D031
:103F6000FB681B689B6903F01003102B1AD0BB6918
:103F700000933B6800222021F86800F086F8034691
:103F8000002B01D0012358E0FB681B682022DA6176
:103F9000FB68202283F84120FB68002283F8402040
:103FA00000234AE0BB6900933B6800222021F868A7
:103FB00000F06BF80346002B01D001233DE0FB68C5
:103FC0001B681022DA61FB681B682022DA617B69BA
:103FD0007A689A4218D1FB681B685A68FB681B68AC
:103FE00042F480425A60BB6900933B680022202162
:103FF000F86800F04AF80346002B01D001231CE0CA
:10400000FB681B682022DA617B6901337B617B6975
:104010007A689A423FF63BAFFB68202283F8412042
:10402000FB685B6C43F02002FB685A64FB6800226B
:1040300083F84020012300E0022318462037BD46C4
:1040400080BD80B483B000AF78607B681B689B69DB
:1040500003F00203022B03D17B681B6800229A62E3
:104060007B681B689B6903F00103012B07D07B6809
:104070001B689A697B681B6842F001029A6100BF65
:104080000C37BD465DF8047B704780B584B000AF47
:10409000F860B9603B601346FB7122E03B68B3F106
:1040A000FF3F1ED0FFF792F90246BB69D31A3A6868
:1040B0009A4202D33B68002B13D1FB685B6C43F040
:1040C0002002FB685A64FB68202283F84120FB68C9
:1040D000002283F84220FB68002283F8402001235D
:1040E0000FE0FB681B689A69BB681340BA689A4284
:1040F0000CBF01230023DBB21A46FB799A42CDD0D4
:10410000002318461037BD4680BD80B584B000AF8F
:10411000F860B9607A602CE07A68B968F86800F0F5
:10412000DDF80346002B01D001232AE0BB68B3F180
:10413000FF3F1ED0FFF74AF902467B68D31ABA68E0
:104140009A4202D3BB68002B13D1FB685B6C43F02F
:104150002002FB685A64FB68202283F84120FB6838
:10416000002283F84220FB68002283F840200123CC
:1041700007E0FB681B689B6903F00203022BCBD1AD
:10418000002318461037BD4680BD80B584B000AF0F
:10419000F860B9607A6028E07A68B968F86800F079
:1041A0009DF80346002B01D0012326E0FFF70EF90E
:1041B00002467B68D31ABA689A4202D3BB68002BC6
:1041C00013D1FB685B6C43F02002FB685A64FB6808
:1041D000202283F84120FB68002283F84220FB68FC
:1041E000002283F84020012307E0FB681B689B69DD
:1041F00003F02003202BCFD1002318461037BD46F3
:1042000080BD000080B584B000AFF860B9607A600E
:1042100055E07A68B968F86800F060F80346002B4A
:1042200001D0012353E0FB681B689B6903F0200366
:10423000202B29D1FB681B689B6903F00403042B26
:1042400005D1FB681B8D002B01D000233FE0FB68EC
:104250001B682022DA61FB681B685968FB681A68D2
:104260001D4B0B405360FB6800225A64FB68202200
:1042700083F84120FB68002283F84220FB6800227B
:1042800083F84020012322E0FFF7A0F802467B6874
:10429000D31ABA689A4202D3BB68002B0FD1FB68CD
:1042A0005B6C43F02002FB685A64FB68202283F8B1
:1042B0004120FB68002283F84020012307E0FB68CF
:1042C0001B689B6903F00403042BA2D1002318464A
:1042D0001037BD4680BD00BF00E800FE80B584B049
:1042E00000AFF860B9607A60FB681B689B6903F0F7
:1042F0001003102B51D122E0BB68B3F1FF3F1ED059
:10430000FFF764F802467B68D31ABA689A4202D370
:10431000BB68002B13D1FB685B6C43F02002FB6889
:104320005A64FB68202283F84120FB68002283F84E
:104330004220FB68002283F8402001232EE0FB6826
:104340001B689B6903F02003202BD5D1FB681B68F9
:104350001022DA61FB681B682022DA61F868FFF737
:1043600070FEFB681B685968FB681A680D4B0B40B0
:104370005360FB685B6C43F00402FB685A64FB68A3
:10438000202283F84120FB68002283F84220FB684A
:10439000002283F84020012300E000231846103754
:1043A000BD4680BD00E800FE80B485B000AFF86077
:1043B0007B600B467B8113467B72FB681B685A68E7
:1043C000BB695B0D03F480610D4B0B43DB4302EAD9
:1043D00003017B89C3F309027B7A1B0403F47F0387
:1043E0001A437B681A43BB691A43FB681B680A437C
:1043F0005A6000BF1437BD465DF8047B704700BFAC
:10440000FF63FF0380B483B000AF786039607B68DE
:1044100093F84130DBB2202B38D17B6893F84030E1
:10442000012B01D1022332E07B68012283F8402076
:104430007B68242283F841207B681B681A687B68AC
:104440001B6822F001021A607B681B681A687B688F
:104450001B6822F480521A607B681B6819687B68AD
:104460001B683A680A431A607B681B681A687B6895
:104470001B6842F001021A607B68202283F8412009
:104480007B68002283F84020002300E002231846C6
:104490000C37BD465DF8047B704780B485B000AF33
:1044A000786039607B6893F84130DBB2202B39D1DA
:1044B0007B6893F84030012B01D1022333E07B6805
:1044C000012283F840207B68242283F841207B6806
:1044D0001B681A687B681B6822F001021A607B68FF
:1044E0001B681B68FB60FB6823F47063FB603B6820
:1044F0001B02FA681343FB607B681B68FA681A604A
:104500007B681B681A687B681B6842F001021A60AE
:104510007B68202283F841207B68002283F84020BA
:10452000002300E0022318461437BD465DF8047BE3
:10453000704780B582B000AF78607B681B68184612
:1045400004F020FA034603F40043B3F5004F02D110
:10455000786800F0DDFA7B681B68184604F012FAF0
:10456000034603F48063B3F5806F12D17B681B6848
:10457000B3F844309AB27B681B6822F4806292B22E
:10458000A3F84420786807F070FF0021786800F0F5
:104590001EF97B681B68184604F0F4F9034603F41F
:1045A0008043B3F5804F0BD17B681B68B3F8443070
:1045B0009AB27B681B6822F4804292B2A3F844202E
:1045C0007B681B68184604F0DDF9034603F40053CA
:1045D000B3F5005F0BD17B681B68B3F844309AB227
:1045E0007B681B6822F4005292B2A3F844207B68D7
:1045F0001B68184604F0C6F9034603F48053B3F56C
:10460000805F33D17B681B68B3F840309AB27B6817
:104610001B6822F0040292B2A3F840207B681B685A
:10462000B3F840309AB27B681B6822F0080292B25D
:10463000A3F840207B6893F86032012B07D17B6898
:10464000002283F860220021786808F0DDF878689D
:1046500007F044FF7B681B68B3F844309AB27B686C
:104660001B6822F4805292B2A3F844207B681B6836
:10467000184604F087F9034603F40063B3F5006FAE
:1046800026D17B681B68B3F840309AB27B681B6800
:1046900042F0080292B2A3F840207B681B68B3F88E
:1046A00044309AB27B681B6822F4006292B2A3F88D
:1046B00044207B681B68B3F840309AB27B681B6863
:1046C00042F0040292B2A3F84020786807F0ECFEB2
:1046D0007B681B68184604F055F9034603F0800315
:1046E000802B3FD17B681B68B3F844309AB27B685B
:1046F0001B6822F0800292B2A3F844207B6893F8F2
:104700006032002B2BD17B681B68B3F840309AB223
:104710007B681B6842F0040292B2A3F840207B68D9
:104720001B68B3F840309AB27B681B6842F00802FD
:1047300092B2A3F840207B68012283F860227B6854
:104740001B68B3F854309BB29B0803F03C027B68B3
:10475000C3F864220121786808F056F802E078680E
:1047600007F0A2FE7B681B68184604F00BF90346AD
:1047700003F40073B3F5007F0ED17B681B68B3F8B8
:1047800044309AB27B681B6822F4007292B2A3F89C
:104790004420786807F05BFE7B681B68184604F0CD
:1047A000F1F8034603F48073B3F5807F0BD17B6887
:1047B0001B68B3F844309AB27B681B6822F480729D
:1047C00092B2A3F8442000BF0837BD4680BD80B533
:1047D00082B000AF78600B46FB707B6893F828329C
:1047E000012B01D1022313E07B68012283F82822E8
:1047F0007B68FA7883F824207B681B68FA78114676
:10480000184604F0ABF87B68002283F828220023C6
:1048100018460837BD4680BD80B584B000AF7860CB
:10482000084611461A460346FB700B463B8013466A
:10483000BB700023FB7297F90330002B0BDAFB7877
:1048400003F007035B0128337A681344FB60FB68BD
:1048500001225A700BE0FB7803F007035B0103F5BC
:1048600094737A681344FB60FB6800225A70FB78EB
:1048700003F00703DAB2FB681A703A88FB681A6122
:10488000FB68BA78DA70FB685B78002B04D0FB68B1
:104890001B789AB2FB68DA81BB78022B02D1FB68E5
:1048A00000221A717B6893F82832012B01D1022370
:1048B0000EE07B68012283F828227B681B68F96878
:1048C000184603F0CDF97B68002283F82822FB7A92
:1048D00018461037BD4680BD80B586B000AFF86081
:1048E0007A603B600B46FB72FB7A03F007035B01C7
:1048F00003F59473FA6813447B617B697A685A61A3
:104900007B693A689A617B690022DA617B690022DF
:104910005A70FB7A03F00703DAB27B691A70FB7AEC
:1049200003F00703002B06D1FB681B687969184662
:1049300003F086FC05E0FB681B687969184603F004
:104940007FFC002318461837BD4680BD80B586B071
:1049500000AFF8607A603B600B46FB72FB7A03F0B5
:1049600007035B012833FA6813447B617B697A682B
:104970005A617B693A689A617B690022DA617B69D6
:1049800001225A70FB7A03F00703DAB27B691A70CE
:10499000FB7A03F00703002B06D1FB681B687969DB
:1049A000184603F04DFC05E0FB681B687969184662
:1049B00003F046FC002318461837BD4680BD80B57D
:1049C00084B000AF78600B46FB70FB7803F0070201
:1049D0007B685B689A4201D9012346E097F903306E
:1049E000002B0BDAFB7803F007035B0128337A68AE
:1049F0001344FB60FB6801225A7009E0FB785B01FD
:104A000003F594737A681344FB60FB6800225A70C4
:104A1000FB6801229A70FB7803F00703DAB2FB68A7
:104A20001A707B6893F82832012B01D102231CE015
:104A30007B68012283F828227B681B68F968184686
:104A400003F0B6FEFB7803F00703002B08D17B6868
:104A50001A687B6803F50C731946104603F0A2FF31
:104A60007B68002283F82822002318461037BD46B1
:104A700080BD80B584B000AF78600B46FB70FB78DA
:104A800003F00F027B685B689A4201D901233AE088
:104A900097F90330002B0BDAFB7803F007035B0177
:104AA00028337A681344FB60FB6801225A700BE0DC
:104AB000FB7803F007035B0103F594737A681344F2
:104AC000FB60FB6800225A70FB6800229A70FB783A
:104AD00003F00703DAB2FB681A707B6893F8283298
:104AE000012B01D102230EE07B68012283F82822EA
:104AF0007B681B68F968184603F09CFE7B680022FF
:104B000083F82822002318461037BD4680BD0000D8
:104B100090B589B000AF786074E27B681B68B3F829
:104B20004430FB82FB8ADBB203F00F037B757B7D95
:104B3000002B40F03C81FB8A03F01003002B4FD187
:104B40007B681B681B889BB223F4E14323F070034E
:104B50009CB27B681A686FEA44436FEA53439BB286
:104B600013807B682833FB607B681B68B3F8503088
:104B70009BB21A46FB681B78DB0013447A68126804
:104B8000134403F202431B88C3F30902FB68DA6192
:104B9000FB685A69FB68DB691A44FB685A610021AB
:104BA000786807F03DFC7B6893F82430DBB2002B7B
:104BB00000F02882FB689B69002B40F023827B6811
:104BC00093F82430DBB263F07F03DAB27B681B68B2
:104BD00092B2A3F84C207B68002283F8242011E2D3
:104BE0007B6803F59473FB607B681B681B887B8282
:104BF0007B8A03F40063002B31D07B681B68B3F819
:104C000050309BB21A46FB681B78DB0013447A686D
:104C10001268134403F206431B88C3F30902FB68BE
:104C2000DA617B6818687B6803F50C71FB68DA88C9
:104C3000FB68DB699BB203F002FF7B681B681B8883
:104C40009AB240F68F7313409CB27B681B6844F0A5
:104C5000800292B21A80786807F0B8FBD2E1B7F907
:104C60001230002B80F2CE817B681B681B889AB2C1
:104C700040F68F7313409CB27B681B6844F080023F
:104C800092B21A807B681B68B3F850309BB21A4608
:104C9000FB681B78DB0013447A681268134403F244
:104CA00006431B88C3F30902FB68DA61FB68DB6912
:104CB000002B19D0FB685B69002B15D07B68186846
:104CC000FB685969FB68DA88FB68DB699BB203F013
:104CD000B6FEFB685A69FB68DB691A44FB685A61D7
:104CE0000021786807F084FB7B681B681C467B68A2
:104CF0001B68B3F850309BB21C4404F206431C46B8
:104D0000FB681B69002B0ED123889BB223F4F84368
:104D10009BB2238023889BB26FEA43436FEA5343DD
:104D20009BB223802DE0FB681B693E2B12D8FB68E9
:104D30001B695B08BB61FB681B6903F00103002B67
:104D400002D0BB690133BB61BB699BB29B029BB2C2
:104D5000238016E0FB681B695B09BB61FB681B696C
:104D600003F01F03002B02D1BB69013BBB61BB6990
:104D70009BB29B029BB26FEA43436FEA53439BB2E1
:104D800023807B681B681B889BB223F4804323F03D
:104D900070039CB284F480539CB284F400539CB2A0
:104DA0007B681A689E4B23439BB213802AE17B6881
:104DB0001B681A467B7D9B0013441B887B82B7F9D6
:104DC0001230002B80F2CB807B681B681A467B7DFB
:104DD0009B0013441B889AB240F68F7313409CB219
:104DE0007B681B681A467B7D9B00134444F080025D
:104DF00092B21A807B7D5B0103F594737A68134449
:104E0000FB60FB681B7B002B1FD17B681B68B3F822
:104E100050309BB21A46FB681B78DB0013447A685B
:104E20001268134403F206431B88C3F30903FB8390
:104E3000FB8B002B6ED07B681868FB685969FB6898
:104E4000DA88FB8B03F0FBFD64E07B681B681A4685
:104E5000FB681B789B0013441B889BB223F4E04340
:104E600023F070039CB27B681B681A46FB681B78B2
:104E70009B001A446B4B23439BB213807B681B68D7
:104E80001A46FB681B789B0013441B889BB203F4F3
:104E90008043002B1FD07B681B68B3F850309BB257
:104EA0001A46FB681B78DB0013447A6812681344C7
:104EB00003F202431B88C3F30903FB83FB8B002B24
:104EC00028D07B681868FB685969FB681A89FB8BD6
:104ED00003F0B5FD1EE07B681B68B3F850309BB251
:104EE0001A46FB681B78DB0013447A681268134487
:104EF00003F206431B88C3F30903FB83FB8B002BE0
:104F000008D07B681868FB685969FB685A89FB8B75
:104F100003F095FDFB68DA69FB8B1A44FB68DA61E4
:104F2000FB685A69FB8B1A44FB685A61FB689B69F2
:104F3000002B04D0FA8BFB681B699A4206D2FB68EF
:104F40001B781946786807F053FA08E0FB6819786F
:104F5000FB685A69FB689B697868FFF7BDFC7B8A30
:104F600003F08003002B4DD07B7D5B0128337A68F2
:104F70001344FB607B681B681A467B7D9B001344CF
:104F80001B889BB223F4E14323F070039CB27B683F
:104F90001B681A467B7D9B001A446FEA44436FEA04
:104FA00053439BB213807B681B68B3F850309BB2AD
:104FB0001A46FB681B78DB0013447A6812681344B6
:104FC00003F202431B88C3F30902FB68DA61FB6842
:104FD0005A69FB68DB691A44FB685A61FB689B6984
:104FE000002B06D1FB681B781946786807F018FA81
:104FF00008E0FB681978FB685A69FB689B69786868
:10500000FFF7A4FC7B681B68B3F844309BB21BB26B
:10501000002BFFF682AD002318462437BD4690BD15
:105020008080FFFFC080FFFF80B400AF054B1B688E
:10503000044A43F48073136000BFBD465DF8047BEF
:10504000704700BF0070004080B400AF044B1B6885
:1050500003F4C0631846BD465DF8047B704700BF8B
:105060000070004080B485B000AF78607B68B3F515
:10507000007F30D1234B1B6803F4C063B3F5007F7E
:1050800038D0204B1B6823F4C0631E4A43F40073DE
:1050900013601D4B1B68322202FB03F31B4AA2FB69
:1050A00003239B0C0133FB6002E0FB68013BFB60C8
:1050B000144B5B6903F48063B3F5806F02D1FB6826
:1050C000002BF2D10F4B5B6903F48063B3F5806F63
:1050D00010D103230FE00B4B1B6803F4C063B3F53F
:1050E000806F07D0074B1B6823F4C063054A43F465
:1050F00080631360002318461437BD465DF8047BB7
:10510000704700BF007000404000002083DE1B435A
:1051100080B588B000AF78607B68002B02D1012396
:1051200000F011BCA04B9B6803F00C03BB619E4BCD
:10513000DB6803F003037B617B681B6803F01003EB
:10514000002B00F0E480BB69002B07D0BB690C2B5F
:1051500040F08B807B69012B40F08780924B1B686D
:1051600003F00203002B05D07B689B69002B01D163
:105170000123E8E37B681A6A8B4B1B6803F0080382
:10518000002B04D0884B1B6803F0F00305E0864B2E
:10519000D3F894301B0903F0F003934223D27B68C9
:1051A0001B6A184600F0AAFD0346002B01D001231C
:1051B000C9E37D4B1B687C4A43F0080313607A4BBC
:1051C0001B6823F0F0027B681B6A774913430B606E
:1051D000754B5B6823F47F427B68DB691B02724975
:1051E00013434B6025E0704B1B686F4A43F0080384
:1051F00013606D4B1B6823F0F0027B681B6A6A49E1
:1052000013430B60684B5B6823F47F427B68DB6968
:105210001B02654913434B60BB69002B09D17B68B6
:105220001B6A184600F06AFD0346002B01D00123DB
:1052300089E300F06FFC01465B4B9B681B0903F0A0
:105240000F035A4AD35C03F01F0321FA03F3584AB1
:105250001360584B1B681846FDF710FF0346FB739D
:10526000FB7B002B52D0FB7B6DE37B689B69002BA3
:1052700032D04D4B1B684C4A43F001031360FEF7DC
:10528000A5F8386108E0FEF7A1F802463B69D31A99
:10529000022B01D9032356E3434B1B6803F002039F
:1052A000002BF0D0404B1B683F4A43F008031360CB
:1052B0003D4B1B6823F0F0027B681B6A3A4913439D
:1052C0000B60394B5B6823F47F427B68DB691B0210
:1052D000354913434B601AE0334B1B68324A23F0C5
:1052E00001031360FEF772F8386108E0FEF76EF80C
:1052F00002463B69D31A022B01D9032323E32A4B2D
:105300001B6803F00203002BF0D100E000BF7B68B4
:105310001B6803F00103002B73D0BB69082B05D079
:10532000BB690C2B0ED17B69032B0BD11E4B1B6869
:1053300003F40033002B63D07B685B68002B5FD1E4
:10534000012300E37B685B68B3F5803F06D1164B11
:105350001B68154A43F4803313601DE07B685B686B
:10536000B3F5A02F0CD1104B1B680F4A43F48023D8
:1053700013600D4B1B680C4A43F4803313600BE041
:10538000094B1B68084A23F480331360064B1B68E3
:10539000054A23F4802313607B685B68002B1BD0D5
:1053A000FEF714F8386110E000100240A8DE000893
:1053B0004000002044000020FEF708F802463B6948
:1053C000D31A642B01D90323BDE2AF4B1B6803F44E
:1053D0000033002BF0D014E0FDF7F8FF386108E04F
:1053E000FDF7F4FF02463B69D31A642B01D903236E
:1053F000A9E2A54B1B6803F40033002BF0D100E0B9
:1054000000BF7B681B6803F00203002B60D0BB6900
:10541000042B05D0BB690C2B19D17B69022B16D14B
:10542000994B1B6803F48063002B05D07B68DB6815
:10543000002B01D1012386E2934B5B6823F0F852E5
:105440007B681B691B06904913434B6040E07B68F7
:10545000DB68002B23D08C4B1B688B4A43F4807392
:105460001360FDF7B3FF386108E0FDF7AFFF0246B8
:105470003B69D31A022B01D9032364E2824B1B68D8
:1054800003F48063002BF0D07F4B5B6823F0F8526D
:105490007B681B691B067C4913434B6018E07A4B01
:1054A0001B68794A23F480731360FDF78FFF38611E
:1054B00008E0FDF78BFF02463B69D31A022B01D9A6
:1054C000032340E2704B1B6803F48063002BF0D190
:1054D0007B681B6803F00803002B3CD07B685B698A
:1054E000002B1CD0684BD3F89430674A43F001037B
:1054F000C2F89430FDF76AFF386108E0FDF766FFF7
:1055000002463B69D31A022B01D903231BE25E4BEF
:10551000D3F8943003F00203002BEFD01BE05A4B7A
:10552000D3F89430584A23F00103C2F89430FDF7C1
:105530004DFF386108E0FDF749FF02463B69D31A89
:10554000022B01D90323FEE14F4BD3F8943003F033
:105550000203002BEFD17B681B6803F00403002BD0
:1055600000F0A6800023FB77474B9B6D03F0805330
:10557000002B0DD1444B9B6D434A43F08053936500
:10558000414B9B6D03F08053BB60BB680123FB77ED
:105590003E4B1B6803F48073002B18D13B4B1B68F8
:1055A0003A4A43F480731360FDF710FF386108E056
:1055B000FDF70CFF02463B69D31A022B01D90323E6
:1055C000C1E1324B1B6803F48073002BF0D07B6881
:1055D0009B68012B08D12C4BD3F890302A4A43F01A
:1055E0000103C2F8903024E07B689B68052B10D142
:1055F000254BD3F89030244A43F00403C2F890308E
:10560000214BD3F89030204A43F00103C2F8903088
:105610000FE01D4BD3F890301B4A23F00103C2F872
:105620009030194BD3F89030174A23F00403C2F896
:1056300090307B689B68002B16D0FDF7C7FE386161
:105640000AE0FDF7C3FE02463B69D31A41F28832F5
:10565000934201D9032376E10B4BD3F8903003F04A
:105660000203002BEDD01AE0FDF7B0FE38610FE029
:10567000FDF7ACFE02463B69D31A41F288329342F1
:1056800006D903235FE100BF001002400070004014
:10569000AA4BD3F8903003F00203002BE8D1FB7F34
:1056A000012B05D1A54B9B6DA44A23F08053936534
:1056B0007B681B6803F02003002B3CD07B685B6A8F
:1056C000002B1CD09D4BD3F898309C4A43F001032B
:1056D000C2F89830FDF77AFE386108E0FDF776FEF3
:1056E00002463B69D31A022B01D903232BE1934BCA
:1056F000D3F8983003F00203002BEFD01BE08F4B60
:10570000D3F898308D4A23F00103C2F89830FDF7A2
:105710005DFE386108E0FDF759FE02463B69D31A89
:10572000022B01D903230EE1844BD3F8983003F008
:105730000203002BEFD17B689B6A002B00F00281F3
:105740007B689B6A022B40F0C5807C4BDB687B61E9
:105750007B6903F003027B68DB6A9A422CD17B6988
:1057600003F070027B681B6B013B1B019A4223D143
:105770007B6903F4FE427B685B6B1B029A421BD180
:105780007B6903F078427B689B6BDB069A4213D1FE
:105790007B6903F4C0027B68DB6B5B08013B5B0544
:1057A0009A4209D17B6903F0C0627B681B6C5B087D
:1057B000013B5B069A4267D0BB690C2B62D05F4B02
:1057C0001B6803F08063002B01D00123BBE05B4B1F
:1057D0001B685A4A23F080731360FDF7F7FD3861A8
:1057E00008E0FDF7F3FD02463B69D31A022B01D90D
:1057F0000323A8E0514B1B6803F00073002BF0D18A
:105800004E4BDA684E4B13407A68D16A7A68126B55
:10581000013A120111437A68526B120211437A68FD
:10582000D26B5208013A520511437A68126C520841
:10583000013A520611437A68926BD2060A433F49F5
:105840001343CB603D4B1B683C4A43F080731360AD
:105850003A4BDB68394A43F08073D360FDF7B6FDFD
:10586000386108E0FDF7B2FD02463B69D31A022B0E
:1058700001D9032367E0314B1B6803F00073002B51
:10588000F0D05FE001235EE02C4B1B6803F0007357
:10589000002B57D1294B1B68284A43F080731360B3
:1058A000264BDB68254A43F08073D360FDF78EFDFD
:1058B000386108E0FDF78AFD02463B69D31A022BE6
:1058C00001D903233FE01D4B1B6803F00073002B3D
:1058D000F0D037E0BB690C2B2DD0184B1B68174A52
:1058E00023F080731360154B1B6803F00063002BDB
:1058F00005D1124BDB68114A23F00303D3600F4B31
:10590000DB680E4A23F0887323F48033D360FDF7FD
:105910005DFD386108E0FDF759FD02463B69D31A89
:10592000022B01D903230EE0044B1B6803F0007324
:10593000002BF0D106E0012305E000BF001002407B
:105940008C809D01002318462037BD4680BD00BFD6
:1059500080B584B000AF786039607B68002B01D1DE
:105960000123C8E0664B1B6803F007033A689A42BC
:1059700010D9634B1B6823F0070261493B6813434E
:105980000B605F4B1B6803F007033A689A4201D033
:105990000123B0E07B681B6803F00103002B4CD0AF
:1059A0007B685B68032B07D1564B1B6803F00073C1
:1059B000002B21D101239EE07B685B68022B07D17D
:1059C000504B1B6803F40033002B15D1012392E0E8
:1059D0007B685B68002B07D14A4B1B6803F002030E
:1059E000002B09D1012386E0464B1B6803F480633A
:1059F000002B01D101237EE0424B9B6823F0030280
:105A00007B685B683F4913438B60FDF7DFFCF86000
:105A10000AE0FDF7DBFC0246FB68D31A41F288324C
:105A2000934201D9032366E0364B9B6803F00C02D6
:105A30007B685B689B009A42EBD17B681B6803F034
:105A40000203002B08D02F4B9B6823F0F0027B68E9
:105A50009B682C4913438B60294B1B6803F0070399
:105A60003A689A4210D2264B1B6823F00702244959
:105A70003B6813430B60224B1B6803F007033A6833
:105A80009A4201D0012336E07B681B6803F00403CF
:105A9000002B08D01B4B9B6823F4E0627B68DB681B
:105AA000184913438B607B681B6803F00803002BC5
:105AB00009D0144B9B6823F460527B681B69DB00A0
:105AC000104913438B6000F025F801460D4B9B688D
:105AD0001B0903F00F030C4AD35C03F01F0321FAE8
